{
  "contracts/governance/GovernorFISCegaInterfaces.sol": {
    "GovernorFISCegaDelegateStorageV1": {
      "abi": [
        {
          "constant": true,
          "inputs": [],
          "name": "admin",
          "outputs": [
            {
              "internalType": "address",
              "name": "",
              "type": "address"
            }
          ],
          "payable": false,
          "stateMutability": "view",
          "type": "function"
        },
        {
          "constant": true,
          "inputs": [],
          "name": "gFISC",
          "outputs": [
            {
              "internalType": "contract gFISCInterface",
              "name": "",
              "type": "address"
            }
          ],
          "payable": false,
          "stateMutability": "view",
          "type": "function"
        },
        {
          "constant": true,
          "inputs": [],
          "name": "implementation",
          "outputs": [
            {
              "internalType": "address",
              "name": "",
              "type": "address"
            }
          ],
          "payable": false,
          "stateMutability": "view",
          "type": "function"
        },
        {
          "constant": true,
          "inputs": [],
          "name": "initialProposalId",
          "outputs": [
            {
              "internalType": "uint256",
              "name": "",
              "type": "uint256"
            }
          ],
          "payable": false,
          "stateMutability": "view",
          "type": "function"
        },
        {
          "constant": true,
          "inputs": [
            {
              "internalType": "address",
              "name": "",
              "type": "address"
            }
          ],
          "name": "latestProposalIds",
          "outputs": [
            {
              "internalType": "uint256",
              "name": "",
              "type": "uint256"
            }
          ],
          "payable": false,
          "stateMutability": "view",
          "type": "function"
        },
        {
          "constant": true,
          "inputs": [],
          "name": "pendingAdmin",
          "outputs": [
            {
              "internalType": "address",
              "name": "",
              "type": "address"
            }
          ],
          "payable": false,
          "stateMutability": "view",
          "type": "function"
        },
        {
          "constant": true,
          "inputs": [],
          "name": "proposalCount",
          "outputs": [
            {
              "internalType": "uint256",
              "name": "",
              "type": "uint256"
            }
          ],
          "payable": false,
          "stateMutability": "view",
          "type": "function"
        },
        {
          "constant": true,
          "inputs": [],
          "name": "proposalThreshold",
          "outputs": [
            {
              "internalType": "uint256",
              "name": "",
              "type": "uint256"
            }
          ],
          "payable": false,
          "stateMutability": "view",
          "type": "function"
        },
        {
          "constant": true,
          "inputs": [
            {
              "internalType": "uint256",
              "name": "",
              "type": "uint256"
            }
          ],
          "name": "proposals",
          "outputs": [
            {
              "internalType": "uint256",
              "name": "id",
              "type": "uint256"
            },
            {
              "internalType": "address",
              "name": "proposer",
              "type": "address"
            },
            {
              "internalType": "uint256",
              "name": "eta",
              "type": "uint256"
            },
            {
              "internalType": "uint256",
              "name": "startBlock",
              "type": "uint256"
            },
            {
              "internalType": "uint256",
              "name": "endBlock",
              "type": "uint256"
            },
            {
              "internalType": "uint256",
              "name": "forVotes",
              "type": "uint256"
            },
            {
              "internalType": "uint256",
              "name": "againstVotes",
              "type": "uint256"
            },
            {
              "internalType": "uint256",
              "name": "abstainVotes",
              "type": "uint256"
            },
            {
              "internalType": "uint256",
              "name": "thresholdAtStart",
              "type": "uint256"
            },
            {
              "internalType": "uint256",
              "name": "votesNeeded",
              "type": "uint256"
            },
            {
              "internalType": "bool",
              "name": "canceled",
              "type": "bool"
            },
            {
              "internalType": "bool",
              "name": "executed",
              "type": "bool"
            }
          ],
          "payable": false,
          "stateMutability": "view",
          "type": "function"
        },
        {
          "constant": true,
          "inputs": [],
          "name": "sFISC",
          "outputs": [
            {
              "internalType": "contract sFISCInterface",
              "name": "",
              "type": "address"
            }
          ],
          "payable": false,
          "stateMutability": "view",
          "type": "function"
        },
        {
          "constant": true,
          "inputs": [],
          "name": "timelock",
          "outputs": [
            {
              "internalType": "contract TimelockInterface",
              "name": "",
              "type": "address"
            }
          ],
          "payable": false,
          "stateMutability": "view",
          "type": "function"
        },
        {
          "constant": true,
          "inputs": [],
          "name": "votingDelay",
          "outputs": [
            {
              "internalType": "uint256",
              "name": "",
              "type": "uint256"
            }
          ],
          "payable": false,
          "stateMutability": "view",
          "type": "function"
        },
        {
          "constant": true,
          "inputs": [],
          "name": "votingPeriod",
          "outputs": [
            {
              "internalType": "uint256",
              "name": "",
              "type": "uint256"
            }
          ],
          "payable": false,
          "stateMutability": "view",
          "type": "function"
        }
      ],
      "devdoc": {
        "methods": {},
        "title": "Storage for Governor FISCega Delegate"
      },
      "evm": {
        "bytecode": {
          "linkReferences": {},
          "object": "608060405234801561001057600080fd5b50610778806100206000396000f3fe608060405234801561001057600080fd5b50600436106100cf5760003560e01c80636ddd86d91161008c578063d9bfd80511610066578063d9bfd80514610211578063da35c6641461022f578063f851a4401461024d578063fc4eee421461026b576100cf565b80636ddd86d9146101b7578063b58131b0146101d5578063d33219b4146101f3576100cf565b8063013cf08b146100d457806302a251a31461010f57806317977c611461012d578063267822471461015d5780633932abb11461017b5780635c60da1b14610199575b600080fd5b6100ee60048036036100e9919081019061048f565b610289565b6040516101069c9b9a99989796959493929190610599565b60405180910390f35b610117610323565b604051610124919061057e565b60405180910390f35b61014760048036036101429190810190610466565b610329565b604051610154919061057e565b60405180910390f35b610165610341565b6040516101729190610512565b60405180910390f35b610183610367565b604051610190919061057e565b60405180910390f35b6101a161036d565b6040516101ae9190610512565b60405180910390f35b6101bf610393565b6040516101cc9190610563565b60405180910390f35b6101dd6103b9565b6040516101ea919061057e565b60405180910390f35b6101fb6103bf565b604051610208919061052d565b60405180910390f35b6102196103e5565b6040516102269190610548565b60405180910390f35b61023761040b565b604051610244919061057e565b60405180910390f35b610255610411565b6040516102629190610512565b60405180910390f35b610273610436565b604051610280919061057e565b60405180910390f35b600b6020528060005260406000206000915090508060000154908060010160009054906101000a900473ffffffffffffffffffffffffffffffffffffffff169080600201549080600701549080600801549080600901549080600a01549080600b01549080600c01549080600d01549080600e0160009054906101000a900460ff169080600e0160019054906101000a900460ff1690508c565b60045481565b600c6020528060005260406000206000915090505481565b600160009054906101000a900473ffffffffffffffffffffffffffffffffffffffff1681565b60035481565b600260009054906101000a900473ffffffffffffffffffffffffffffffffffffffff1681565b600a60009054906101000a900473ffffffffffffffffffffffffffffffffffffffff1681565b60055481565b600860009054906101000a900473ffffffffffffffffffffffffffffffffffffffff1681565b600960009054906101000a900473ffffffffffffffffffffffffffffffffffffffff1681565b60075481565b6000809054906101000a900473ffffffffffffffffffffffffffffffffffffffff1681565b60065481565b60008135905061044b81610707565b92915050565b6000813590506104608161071e565b92915050565b60006020828403121561047857600080fd5b60006104868482850161043c565b91505092915050565b6000602082840312156104a157600080fd5b60006104af84828501610451565b91505092915050565b6104c181610653565b82525050565b6104d081610665565b82525050565b6104df8161069b565b82525050565b6104ee816106bf565b82525050565b6104fd816106e3565b82525050565b61050c81610691565b82525050565b600060208201905061052760008301846104b8565b92915050565b600060208201905061054260008301846104d6565b92915050565b600060208201905061055d60008301846104e5565b92915050565b600060208201905061057860008301846104f4565b92915050565b60006020820190506105936000830184610503565b92915050565b6000610180820190506105af600083018f610503565b6105bc602083018e6104b8565b6105c9604083018d610503565b6105d6606083018c610503565b6105e3608083018b610503565b6105f060a083018a610503565b6105fd60c0830189610503565b61060a60e0830188610503565b610618610100830187610503565b610626610120830186610503565b6106346101408301856104c7565b6106426101608301846104c7565b9d9c50505050505050505050505050565b600061065e82610671565b9050919050565b60008115159050919050565b600073ffffffffffffffffffffffffffffffffffffffff82169050919050565b6000819050919050565b60006106a6826106ad565b9050919050565b60006106b882610671565b9050919050565b60006106ca826106d1565b9050919050565b60006106dc82610671565b9050919050565b60006106ee826106f5565b9050919050565b600061070082610671565b9050919050565b61071081610653565b811461071b57600080fd5b50565b61072781610691565b811461073257600080fd5b5056fea365627a7a723158203ba2c2acff0880af603390b2f5b3d6975bac2dcf916d2f96cf4b19caa1658a966c6578706572696d656e74616cf564736f6c63430005100040",
          "opcodes": "PUSH1 0x80 PUSH1 0x40 MSTORE CALLVALUE DUP1 ISZERO PUSH2 0x10 JUMPI PUSH1 0x0 DUP1 REVERT JUMPDEST POP PUSH2 0x778 DUP1 PUSH2 0x20 PUSH1 0x0 CODECOPY PUSH1 0x0 RETURN INVALID PUSH1 0x80 PUSH1 0x40 MSTORE CALLVALUE DUP1 ISZERO PUSH2 0x10 JUMPI PUSH1 0x0 DUP1 REVERT JUMPDEST POP PUSH1 0x4 CALLDATASIZE LT PUSH2 0xCF JUMPI PUSH1 0x0 CALLDATALOAD PUSH1 0xE0 SHR DUP1 PUSH4 0x6DDD86D9 GT PUSH2 0x8C JUMPI DUP1 PUSH4 0xD9BFD805 GT PUSH2 0x66 JUMPI DUP1 PUSH4 0xD9BFD805 EQ PUSH2 0x211 JUMPI DUP1 PUSH4 0xDA35C664 EQ PUSH2 0x22F JUMPI DUP1 PUSH4 0xF851A440 EQ PUSH2 0x24D JUMPI DUP1 PUSH4 0xFC4EEE42 EQ PUSH2 0x26B JUMPI PUSH2 0xCF JUMP JUMPDEST DUP1 PUSH4 0x6DDD86D9 EQ PUSH2 0x1B7 JUMPI DUP1 PUSH4 0xB58131B0 EQ PUSH2 0x1D5 JUMPI DUP1 PUSH4 0xD33219B4 EQ PUSH2 0x1F3 JUMPI PUSH2 0xCF JUMP JUMPDEST DUP1 PUSH4 0x13CF08B EQ PUSH2 0xD4 JUMPI DUP1 PUSH4 0x2A251A3 EQ PUSH2 0x10F JUMPI DUP1 PUSH4 0x17977C61 EQ PUSH2 0x12D JUMPI DUP1 PUSH4 0x26782247 EQ PUSH2 0x15D JUMPI DUP1 PUSH4 0x3932ABB1 EQ PUSH2 0x17B JUMPI DUP1 PUSH4 0x5C60DA1B EQ PUSH2 0x199 JUMPI JUMPDEST PUSH1 0x0 DUP1 REVERT JUMPDEST PUSH2 0xEE PUSH1 0x4 DUP1 CALLDATASIZE SUB PUSH2 0xE9 SWAP2 SWAP1 DUP2 ADD SWAP1 PUSH2 0x48F JUMP JUMPDEST PUSH2 0x289 JUMP JUMPDEST PUSH1 0x40 MLOAD PUSH2 0x106 SWAP13 SWAP12 SWAP11 SWAP10 SWAP9 SWAP8 SWAP7 SWAP6 SWAP5 SWAP4 SWAP3 SWAP2 SWAP1 PUSH2 0x599 JUMP JUMPDEST PUSH1 0x40 MLOAD DUP1 SWAP2 SUB SWAP1 RETURN JUMPDEST PUSH2 0x117 PUSH2 0x323 JUMP JUMPDEST PUSH1 0x40 MLOAD PUSH2 0x124 SWAP2 SWAP1 PUSH2 0x57E JUMP JUMPDEST PUSH1 0x40 MLOAD DUP1 SWAP2 SUB SWAP1 RETURN JUMPDEST PUSH2 0x147 PUSH1 0x4 DUP1 CALLDATASIZE SUB PUSH2 0x142 SWAP2 SWAP1 DUP2 ADD SWAP1 PUSH2 0x466 JUMP JUMPDEST PUSH2 0x329 JUMP JUMPDEST PUSH1 0x40 MLOAD PUSH2 0x154 SWAP2 SWAP1 PUSH2 0x57E JUMP JUMPDEST PUSH1 0x40 MLOAD DUP1 SWAP2 SUB SWAP1 RETURN JUMPDEST PUSH2 0x165 PUSH2 0x341 JUMP JUMPDEST PUSH1 0x40 MLOAD PUSH2 0x172 SWAP2 SWAP1 PUSH2 0x512 JUMP JUMPDEST PUSH1 0x40 MLOAD DUP1 SWAP2 SUB SWAP1 RETURN JUMPDEST PUSH2 0x183 PUSH2 0x367 JUMP JUMPDEST PUSH1 0x40 MLOAD PUSH2 0x190 SWAP2 SWAP1 PUSH2 0x57E JUMP JUMPDEST PUSH1 0x40 MLOAD DUP1 SWAP2 SUB SWAP1 RETURN JUMPDEST PUSH2 0x1A1 PUSH2 0x36D JUMP JUMPDEST PUSH1 0x40 MLOAD PUSH2 0x1AE SWAP2 SWAP1 PUSH2 0x512 JUMP JUMPDEST PUSH1 0x40 MLOAD DUP1 SWAP2 SUB SWAP1 RETURN JUMPDEST PUSH2 0x1BF PUSH2 0x393 JUMP JUMPDEST PUSH1 0x40 MLOAD PUSH2 0x1CC SWAP2 SWAP1 PUSH2 0x563 JUMP JUMPDEST PUSH1 0x40 MLOAD DUP1 SWAP2 SUB SWAP1 RETURN JUMPDEST PUSH2 0x1DD PUSH2 0x3B9 JUMP JUMPDEST PUSH1 0x40 MLOAD PUSH2 0x1EA SWAP2 SWAP1 PUSH2 0x57E JUMP JUMPDEST PUSH1 0x40 MLOAD DUP1 SWAP2 SUB SWAP1 RETURN JUMPDEST PUSH2 0x1FB PUSH2 0x3BF JUMP JUMPDEST PUSH1 0x40 MLOAD PUSH2 0x208 SWAP2 SWAP1 PUSH2 0x52D JUMP JUMPDEST PUSH1 0x40 MLOAD DUP1 SWAP2 SUB SWAP1 RETURN JUMPDEST PUSH2 0x219 PUSH2 0x3E5 JUMP JUMPDEST PUSH1 0x40 MLOAD PUSH2 0x226 SWAP2 SWAP1 PUSH2 0x548 JUMP JUMPDEST PUSH1 0x40 MLOAD DUP1 SWAP2 SUB SWAP1 RETURN JUMPDEST PUSH2 0x237 PUSH2 0x40B JUMP JUMPDEST PUSH1 0x40 MLOAD PUSH2 0x244 SWAP2 SWAP1 PUSH2 0x57E JUMP JUMPDEST PUSH1 0x40 MLOAD DUP1 SWAP2 SUB SWAP1 RETURN JUMPDEST PUSH2 0x255 PUSH2 0x411 JUMP JUMPDEST PUSH1 0x40 MLOAD PUSH2 0x262 SWAP2 SWAP1 PUSH2 0x512 JUMP JUMPDEST PUSH1 0x40 MLOAD DUP1 SWAP2 SUB SWAP1 RETURN JUMPDEST PUSH2 0x273 PUSH2 0x436 JUMP JUMPDEST PUSH1 0x40 MLOAD PUSH2 0x280 SWAP2 SWAP1 PUSH2 0x57E JUMP JUMPDEST PUSH1 0x40 MLOAD DUP1 SWAP2 SUB SWAP1 RETURN JUMPDEST PUSH1 0xB PUSH1 0x20 MSTORE DUP1 PUSH1 0x0 MSTORE PUSH1 0x40 PUSH1 0x0 KECCAK256 PUSH1 0x0 SWAP2 POP SWAP1 POP DUP1 PUSH1 0x0 ADD SLOAD SWAP1 DUP1 PUSH1 0x1 ADD PUSH1 0x0 SWAP1 SLOAD SWAP1 PUSH2 0x100 EXP SWAP1 DIV PUSH20 0xFFFFFFFFFFFFFFFFFFFFFFFFFFFFFFFFFFFFFFFF AND SWAP1 DUP1 PUSH1 0x2 ADD SLOAD SWAP1 DUP1 PUSH1 0x7 ADD SLOAD SWAP1 DUP1 PUSH1 0x8 ADD SLOAD SWAP1 DUP1 PUSH1 0x9 ADD SLOAD SWAP1 DUP1 PUSH1 0xA ADD SLOAD SWAP1 DUP1 PUSH1 0xB ADD SLOAD SWAP1 DUP1 PUSH1 0xC ADD SLOAD SWAP1 DUP1 PUSH1 0xD ADD SLOAD SWAP1 DUP1 PUSH1 0xE ADD PUSH1 0x0 SWAP1 SLOAD SWAP1 PUSH2 0x100 EXP SWAP1 DIV PUSH1 0xFF AND SWAP1 DUP1 PUSH1 0xE ADD PUSH1 0x1 SWAP1 SLOAD SWAP1 PUSH2 0x100 EXP SWAP1 DIV PUSH1 0xFF AND SWAP1 POP DUP13 JUMP JUMPDEST PUSH1 0x4 SLOAD DUP2 JUMP JUMPDEST PUSH1 0xC PUSH1 0x20 MSTORE DUP1 PUSH1 0x0 MSTORE PUSH1 0x40 PUSH1 0x0 KECCAK256 PUSH1 0x0 SWAP2 POP SWAP1 POP SLOAD DUP2 JUMP JUMPDEST PUSH1 0x1 PUSH1 0x0 SWAP1 SLOAD SWAP1 PUSH2 0x100 EXP SWAP1 DIV PUSH20 0xFFFFFFFFFFFFFFFFFFFFFFFFFFFFFFFFFFFFFFFF AND DUP2 JUMP JUMPDEST PUSH1 0x3 SLOAD DUP2 JUMP JUMPDEST PUSH1 0x2 PUSH1 0x0 SWAP1 SLOAD SWAP1 PUSH2 0x100 EXP SWAP1 DIV PUSH20 0xFFFFFFFFFFFFFFFFFFFFFFFFFFFFFFFFFFFFFFFF AND DUP2 JUMP JUMPDEST PUSH1 0xA PUSH1 0x0 SWAP1 SLOAD SWAP1 PUSH2 0x100 EXP SWAP1 DIV PUSH20 0xFFFFFFFFFFFFFFFFFFFFFFFFFFFFFFFFFFFFFFFF AND DUP2 JUMP JUMPDEST PUSH1 0x5 SLOAD DUP2 JUMP JUMPDEST PUSH1 0x8 PUSH1 0x0 SWAP1 SLOAD SWAP1 PUSH2 0x100 EXP SWAP1 DIV PUSH20 0xFFFFFFFFFFFFFFFFFFFFFFFFFFFFFFFFFFFFFFFF AND DUP2 JUMP JUMPDEST PUSH1 0x9 PUSH1 0x0 SWAP1 SLOAD SWAP1 PUSH2 0x100 EXP SWAP1 DIV PUSH20 0xFFFFFFFFFFFFFFFFFFFFFFFFFFFFFFFFFFFFFFFF AND DUP2 JUMP JUMPDEST PUSH1 0x7 SLOAD DUP2 JUMP JUMPDEST PUSH1 0x0 DUP1 SWAP1 SLOAD SWAP1 PUSH2 0x100 EXP SWAP1 DIV PUSH20 0xFFFFFFFFFFFFFFFFFFFFFFFFFFFFFFFFFFFFFFFF AND DUP2 JUMP JUMPDEST PUSH1 0x6 SLOAD DUP2 JUMP JUMPDEST PUSH1 0x0 DUP2 CALLDATALOAD SWAP1 POP PUSH2 0x44B DUP2 PUSH2 0x707 JUMP JUMPDEST SWAP3 SWAP2 POP POP JUMP JUMPDEST PUSH1 0x0 DUP2 CALLDATALOAD SWAP1 POP PUSH2 0x460 DUP2 PUSH2 0x71E JUMP JUMPDEST SWAP3 SWAP2 POP POP JUMP JUMPDEST PUSH1 0x0 PUSH1 0x20 DUP3 DUP5 SUB SLT ISZERO PUSH2 0x478 JUMPI PUSH1 0x0 DUP1 REVERT JUMPDEST PUSH1 0x0 PUSH2 0x486 DUP5 DUP3 DUP6 ADD PUSH2 0x43C JUMP JUMPDEST SWAP2 POP POP SWAP3 SWAP2 POP POP JUMP JUMPDEST PUSH1 0x0 PUSH1 0x20 DUP3 DUP5 SUB SLT ISZERO PUSH2 0x4A1 JUMPI PUSH1 0x0 DUP1 REVERT JUMPDEST PUSH1 0x0 PUSH2 0x4AF DUP5 DUP3 DUP6 ADD PUSH2 0x451 JUMP JUMPDEST SWAP2 POP POP SWAP3 SWAP2 POP POP JUMP JUMPDEST PUSH2 0x4C1 DUP2 PUSH2 0x653 JUMP JUMPDEST DUP3 MSTORE POP POP JUMP JUMPDEST PUSH2 0x4D0 DUP2 PUSH2 0x665 JUMP JUMPDEST DUP3 MSTORE POP POP JUMP JUMPDEST PUSH2 0x4DF DUP2 PUSH2 0x69B JUMP JUMPDEST DUP3 MSTORE POP POP JUMP JUMPDEST PUSH2 0x4EE DUP2 PUSH2 0x6BF JUMP JUMPDEST DUP3 MSTORE POP POP JUMP JUMPDEST PUSH2 0x4FD DUP2 PUSH2 0x6E3 JUMP JUMPDEST DUP3 MSTORE POP POP JUMP JUMPDEST PUSH2 0x50C DUP2 PUSH2 0x691 JUMP JUMPDEST DUP3 MSTORE POP POP JUMP JUMPDEST PUSH1 0x0 PUSH1 0x20 DUP3 ADD SWAP1 POP PUSH2 0x527 PUSH1 0x0 DUP4 ADD DUP5 PUSH2 0x4B8 JUMP JUMPDEST SWAP3 SWAP2 POP POP JUMP JUMPDEST PUSH1 0x0 PUSH1 0x20 DUP3 ADD SWAP1 POP PUSH2 0x542 PUSH1 0x0 DUP4 ADD DUP5 PUSH2 0x4D6 JUMP JUMPDEST SWAP3 SWAP2 POP POP JUMP JUMPDEST PUSH1 0x0 PUSH1 0x20 DUP3 ADD SWAP1 POP PUSH2 0x55D PUSH1 0x0 DUP4 ADD DUP5 PUSH2 0x4E5 JUMP JUMPDEST SWAP3 SWAP2 POP POP JUMP JUMPDEST PUSH1 0x0 PUSH1 0x20 DUP3 ADD SWAP1 POP PUSH2 0x578 PUSH1 0x0 DUP4 ADD DUP5 PUSH2 0x4F4 JUMP JUMPDEST SWAP3 SWAP2 POP POP JUMP JUMPDEST PUSH1 0x0 PUSH1 0x20 DUP3 ADD SWAP1 POP PUSH2 0x593 PUSH1 0x0 DUP4 ADD DUP5 PUSH2 0x503 JUMP JUMPDEST SWAP3 SWAP2 POP POP JUMP JUMPDEST PUSH1 0x0 PUSH2 0x180 DUP3 ADD SWAP1 POP PUSH2 0x5AF PUSH1 0x0 DUP4 ADD DUP16 PUSH2 0x503 JUMP JUMPDEST PUSH2 0x5BC PUSH1 0x20 DUP4 ADD DUP15 PUSH2 0x4B8 JUMP JUMPDEST PUSH2 0x5C9 PUSH1 0x40 DUP4 ADD DUP14 PUSH2 0x503 JUMP JUMPDEST PUSH2 0x5D6 PUSH1 0x60 DUP4 ADD DUP13 PUSH2 0x503 JUMP JUMPDEST PUSH2 0x5E3 PUSH1 0x80 DUP4 ADD DUP12 PUSH2 0x503 JUMP JUMPDEST PUSH2 0x5F0 PUSH1 0xA0 DUP4 ADD DUP11 PUSH2 0x503 JUMP JUMPDEST PUSH2 0x5FD PUSH1 0xC0 DUP4 ADD DUP10 PUSH2 0x503 JUMP JUMPDEST PUSH2 0x60A PUSH1 0xE0 DUP4 ADD DUP9 PUSH2 0x503 JUMP JUMPDEST PUSH2 0x618 PUSH2 0x100 DUP4 ADD DUP8 PUSH2 0x503 JUMP JUMPDEST PUSH2 0x626 PUSH2 0x120 DUP4 ADD DUP7 PUSH2 0x503 JUMP JUMPDEST PUSH2 0x634 PUSH2 0x140 DUP4 ADD DUP6 PUSH2 0x4C7 JUMP JUMPDEST PUSH2 0x642 PUSH2 0x160 DUP4 ADD DUP5 PUSH2 0x4C7 JUMP JUMPDEST SWAP14 SWAP13 POP POP POP POP POP POP POP POP POP POP POP POP POP JUMP JUMPDEST PUSH1 0x0 PUSH2 0x65E DUP3 PUSH2 0x671 JUMP JUMPDEST SWAP1 POP SWAP2 SWAP1 POP JUMP JUMPDEST PUSH1 0x0 DUP2 ISZERO ISZERO SWAP1 POP SWAP2 SWAP1 POP JUMP JUMPDEST PUSH1 0x0 PUSH20 0xFFFFFFFFFFFFFFFFFFFFFFFFFFFFFFFFFFFFFFFF DUP3 AND SWAP1 POP SWAP2 SWAP1 POP JUMP JUMPDEST PUSH1 0x0 DUP2 SWAP1 POP SWAP2 SWAP1 POP JUMP JUMPDEST PUSH1 0x0 PUSH2 0x6A6 DUP3 PUSH2 0x6AD JUMP JUMPDEST SWAP1 POP SWAP2 SWAP1 POP JUMP JUMPDEST PUSH1 0x0 PUSH2 0x6B8 DUP3 PUSH2 0x671 JUMP JUMPDEST SWAP1 POP SWAP2 SWAP1 POP JUMP JUMPDEST PUSH1 0x0 PUSH2 0x6CA DUP3 PUSH2 0x6D1 JUMP JUMPDEST SWAP1 POP SWAP2 SWAP1 POP JUMP JUMPDEST PUSH1 0x0 PUSH2 0x6DC DUP3 PUSH2 0x671 JUMP JUMPDEST SWAP1 POP SWAP2 SWAP1 POP JUMP JUMPDEST PUSH1 0x0 PUSH2 0x6EE DUP3 PUSH2 0x6F5 JUMP JUMPDEST SWAP1 POP SWAP2 SWAP1 POP JUMP JUMPDEST PUSH1 0x0 PUSH2 0x700 DUP3 PUSH2 0x671 JUMP JUMPDEST SWAP1 POP SWAP2 SWAP1 POP JUMP JUMPDEST PUSH2 0x710 DUP2 PUSH2 0x653 JUMP JUMPDEST DUP2 EQ PUSH2 0x71B JUMPI PUSH1 0x0 DUP1 REVERT JUMPDEST POP JUMP JUMPDEST PUSH2 0x727 DUP2 PUSH2 0x691 JUMP JUMPDEST DUP2 EQ PUSH2 0x732 JUMPI PUSH1 0x0 DUP1 REVERT JUMPDEST POP JUMP INVALID LOG3 PUSH6 0x627A7A723158 KECCAK256 EXTCODESIZE LOG2 0xC2 0xAC SELFDESTRUCT ADDMOD DUP1 0xAF PUSH1 0x33 SWAP1 0xB2 CREATE2 0xB3 0xD6 SWAP8 JUMPDEST 0xAC 0x2D 0xCF SWAP2 PUSH14 0x2F96CF4B19CAA1658A966C657870 PUSH6 0x72696D656E74 PUSH2 0x6CF5 PUSH5 0x736F6C6343 STOP SDIV LT STOP BLOCKHASH "
        },
        "gasEstimates": {
          "creation": {
            "codeDepositCost": "382400",
            "executionCost": "418",
            "totalCost": "382818"
          },
          "external": {
            "admin()": "1280",
            "gFISC()": "1279",
            "implementation()": "1325",
            "initialProposalId()": "1217",
            "latestProposalIds(address)": "1559",
            "pendingAdmin()": "1281",
            "proposalCount()": "1173",
            "proposalThreshold()": "1174",
            "proposals(uint256)": "infinite",
            "sFISC()": "1280",
            "timelock()": "1324",
            "votingDelay()": "1218",
            "votingPeriod()": "1152"
          }
        },
        "methodIdentifiers": {
          "admin()": "f851a440",
          "gFISC()": "d9bfd805",
          "implementation()": "5c60da1b",
          "initialProposalId()": "fc4eee42",
          "latestProposalIds(address)": "17977c61",
          "pendingAdmin()": "26782247",
          "proposalCount()": "da35c664",
          "proposalThreshold()": "b58131b0",
          "proposals(uint256)": "013cf08b",
          "sFISC()": "6ddd86d9",
          "timelock()": "d33219b4",
          "votingDelay()": "3932abb1",
          "votingPeriod()": "02a251a3"
        }
      },
      "storageLayout": {
        "storage": [
          {
            "astId": 3002,
            "contract": "contracts/governance/GovernorFISCegaInterfaces.sol:GovernorFISCegaDelegateStorageV1",
            "label": "admin",
            "offset": 0,
            "slot": "0",
            "type": "t_address"
          },
          {
            "astId": 3004,
            "contract": "contracts/governance/GovernorFISCegaInterfaces.sol:GovernorFISCegaDelegateStorageV1",
            "label": "pendingAdmin",
            "offset": 0,
            "slot": "1",
            "type": "t_address"
          },
          {
            "astId": 3006,
            "contract": "contracts/governance/GovernorFISCegaInterfaces.sol:GovernorFISCegaDelegateStorageV1",
            "label": "implementation",
            "offset": 0,
            "slot": "2",
            "type": "t_address"
          },
          {
            "astId": 3011,
            "contract": "contracts/governance/GovernorFISCegaInterfaces.sol:GovernorFISCegaDelegateStorageV1",
            "label": "votingDelay",
            "offset": 0,
            "slot": "3",
            "type": "t_uint256"
          },
          {
            "astId": 3013,
            "contract": "contracts/governance/GovernorFISCegaInterfaces.sol:GovernorFISCegaDelegateStorageV1",
            "label": "votingPeriod",
            "offset": 0,
            "slot": "4",
            "type": "t_uint256"
          },
          {
            "astId": 3015,
            "contract": "contracts/governance/GovernorFISCegaInterfaces.sol:GovernorFISCegaDelegateStorageV1",
            "label": "proposalThreshold",
            "offset": 0,
            "slot": "5",
            "type": "t_uint256"
          },
          {
            "astId": 3017,
            "contract": "contracts/governance/GovernorFISCegaInterfaces.sol:GovernorFISCegaDelegateStorageV1",
            "label": "initialProposalId",
            "offset": 0,
            "slot": "6",
            "type": "t_uint256"
          },
          {
            "astId": 3019,
            "contract": "contracts/governance/GovernorFISCegaInterfaces.sol:GovernorFISCegaDelegateStorageV1",
            "label": "proposalCount",
            "offset": 0,
            "slot": "7",
            "type": "t_uint256"
          },
          {
            "astId": 3021,
            "contract": "contracts/governance/GovernorFISCegaInterfaces.sol:GovernorFISCegaDelegateStorageV1",
            "label": "timelock",
            "offset": 0,
            "slot": "8",
            "type": "t_contract(TimelockInterface)3155"
          },
          {
            "astId": 3023,
            "contract": "contracts/governance/GovernorFISCegaInterfaces.sol:GovernorFISCegaDelegateStorageV1",
            "label": "gFISC",
            "offset": 0,
            "slot": "9",
            "type": "t_contract(gFISCInterface)3179"
          },
          {
            "astId": 3025,
            "contract": "contracts/governance/GovernorFISCegaInterfaces.sol:GovernorFISCegaDelegateStorageV1",
            "label": "sFISC",
            "offset": 0,
            "slot": "10",
            "type": "t_contract(sFISCInterface)3185"
          },
          {
            "astId": 3029,
            "contract": "contracts/governance/GovernorFISCegaInterfaces.sol:GovernorFISCegaDelegateStorageV1",
            "label": "proposals",
            "offset": 0,
            "slot": "11",
            "type": "t_mapping(t_uint256,t_struct(Proposal)3074_storage)"
          },
          {
            "astId": 3033,
            "contract": "contracts/governance/GovernorFISCegaInterfaces.sol:GovernorFISCegaDelegateStorageV1",
            "label": "latestProposalIds",
            "offset": 0,
            "slot": "12",
            "type": "t_mapping(t_address,t_uint256)"
          }
        ],
        "types": {
          "t_address": {
            "encoding": "inplace",
            "label": "address",
            "numberOfBytes": "20"
          },
          "t_array(t_address)dyn_storage": {
            "base": "t_address",
            "encoding": "dynamic_array",
            "label": "address[]",
            "numberOfBytes": "32"
          },
          "t_array(t_bytes_storage)dyn_storage": {
            "base": "t_bytes_storage",
            "encoding": "dynamic_array",
            "label": "bytes[]",
            "numberOfBytes": "32"
          },
          "t_array(t_string_storage)dyn_storage": {
            "base": "t_string_storage",
            "encoding": "dynamic_array",
            "label": "string[]",
            "numberOfBytes": "32"
          },
          "t_array(t_uint256)dyn_storage": {
            "base": "t_uint256",
            "encoding": "dynamic_array",
            "label": "uint256[]",
            "numberOfBytes": "32"
          },
          "t_bool": {
            "encoding": "inplace",
            "label": "bool",
            "numberOfBytes": "1"
          },
          "t_bytes_storage": {
            "encoding": "bytes",
            "label": "bytes",
            "numberOfBytes": "32"
          },
          "t_contract(TimelockInterface)3155": {
            "encoding": "inplace",
            "label": "contract TimelockInterface",
            "numberOfBytes": "20"
          },
          "t_contract(gFISCInterface)3179": {
            "encoding": "inplace",
            "label": "contract gFISCInterface",
            "numberOfBytes": "20"
          },
          "t_contract(sFISCInterface)3185": {
            "encoding": "inplace",
            "label": "contract sFISCInterface",
            "numberOfBytes": "20"
          },
          "t_mapping(t_address,t_struct(Receipt)3081_storage)": {
            "encoding": "mapping",
            "key": "t_address",
            "label": "mapping(address => struct GovernorFISCegaDelegateStorageV1.Receipt)",
            "numberOfBytes": "32",
            "value": "t_struct(Receipt)3081_storage"
          },
          "t_mapping(t_address,t_uint256)": {
            "encoding": "mapping",
            "key": "t_address",
            "label": "mapping(address => uint256)",
            "numberOfBytes": "32",
            "value": "t_uint256"
          },
          "t_mapping(t_uint256,t_struct(Proposal)3074_storage)": {
            "encoding": "mapping",
            "key": "t_uint256",
            "label": "mapping(uint256 => struct GovernorFISCegaDelegateStorageV1.Proposal)",
            "numberOfBytes": "32",
            "value": "t_struct(Proposal)3074_storage"
          },
          "t_string_storage": {
            "encoding": "bytes",
            "label": "string",
            "numberOfBytes": "32"
          },
          "t_struct(Proposal)3074_storage": {
            "encoding": "inplace",
            "label": "struct GovernorFISCegaDelegateStorageV1.Proposal",
            "members": [
              {
                "astId": 3035,
                "contract": "contracts/governance/GovernorFISCegaInterfaces.sol:GovernorFISCegaDelegateStorageV1",
                "label": "id",
                "offset": 0,
                "slot": "0",
                "type": "t_uint256"
              },
              {
                "astId": 3037,
                "contract": "contracts/governance/GovernorFISCegaInterfaces.sol:GovernorFISCegaDelegateStorageV1",
                "label": "proposer",
                "offset": 0,
                "slot": "1",
                "type": "t_address"
              },
              {
                "astId": 3039,
                "contract": "contracts/governance/GovernorFISCegaInterfaces.sol:GovernorFISCegaDelegateStorageV1",
                "label": "eta",
                "offset": 0,
                "slot": "2",
                "type": "t_uint256"
              },
              {
                "astId": 3042,
                "contract": "contracts/governance/GovernorFISCegaInterfaces.sol:GovernorFISCegaDelegateStorageV1",
                "label": "targets",
                "offset": 0,
                "slot": "3",
                "type": "t_array(t_address)dyn_storage"
              },
              {
                "astId": 3045,
                "contract": "contracts/governance/GovernorFISCegaInterfaces.sol:GovernorFISCegaDelegateStorageV1",
                "label": "values",
                "offset": 0,
                "slot": "4",
                "type": "t_array(t_uint256)dyn_storage"
              },
              {
                "astId": 3048,
                "contract": "contracts/governance/GovernorFISCegaInterfaces.sol:GovernorFISCegaDelegateStorageV1",
                "label": "signatures",
                "offset": 0,
                "slot": "5",
                "type": "t_array(t_string_storage)dyn_storage"
              },
              {
                "astId": 3051,
                "contract": "contracts/governance/GovernorFISCegaInterfaces.sol:GovernorFISCegaDelegateStorageV1",
                "label": "calldatas",
                "offset": 0,
                "slot": "6",
                "type": "t_array(t_bytes_storage)dyn_storage"
              },
              {
                "astId": 3053,
                "contract": "contracts/governance/GovernorFISCegaInterfaces.sol:GovernorFISCegaDelegateStorageV1",
                "label": "startBlock",
                "offset": 0,
                "slot": "7",
                "type": "t_uint256"
              },
              {
                "astId": 3055,
                "contract": "contracts/governance/GovernorFISCegaInterfaces.sol:GovernorFISCegaDelegateStorageV1",
                "label": "endBlock",
                "offset": 0,
                "slot": "8",
                "type": "t_uint256"
              },
              {
                "astId": 3057,
                "contract": "contracts/governance/GovernorFISCegaInterfaces.sol:GovernorFISCegaDelegateStorageV1",
                "label": "forVotes",
                "offset": 0,
                "slot": "9",
                "type": "t_uint256"
              },
              {
                "astId": 3059,
                "contract": "contracts/governance/GovernorFISCegaInterfaces.sol:GovernorFISCegaDelegateStorageV1",
                "label": "againstVotes",
                "offset": 0,
                "slot": "10",
                "type": "t_uint256"
              },
              {
                "astId": 3061,
                "contract": "contracts/governance/GovernorFISCegaInterfaces.sol:GovernorFISCegaDelegateStorageV1",
                "label": "abstainVotes",
                "offset": 0,
                "slot": "11",
                "type": "t_uint256"
              },
              {
                "astId": 3063,
                "contract": "contracts/governance/GovernorFISCegaInterfaces.sol:GovernorFISCegaDelegateStorageV1",
                "label": "thresholdAtStart",
                "offset": 0,
                "slot": "12",
                "type": "t_uint256"
              },
              {
                "astId": 3065,
                "contract": "contracts/governance/GovernorFISCegaInterfaces.sol:GovernorFISCegaDelegateStorageV1",
                "label": "votesNeeded",
                "offset": 0,
                "slot": "13",
                "type": "t_uint256"
              },
              {
                "astId": 3067,
                "contract": "contracts/governance/GovernorFISCegaInterfaces.sol:GovernorFISCegaDelegateStorageV1",
                "label": "canceled",
                "offset": 0,
                "slot": "14",
                "type": "t_bool"
              },
              {
                "astId": 3069,
                "contract": "contracts/governance/GovernorFISCegaInterfaces.sol:GovernorFISCegaDelegateStorageV1",
                "label": "executed",
                "offset": 1,
                "slot": "14",
                "type": "t_bool"
              },
              {
                "astId": 3073,
                "contract": "contracts/governance/GovernorFISCegaInterfaces.sol:GovernorFISCegaDelegateStorageV1",
                "label": "receipts",
                "offset": 0,
                "slot": "15",
                "type": "t_mapping(t_address,t_struct(Receipt)3081_storage)"
              }
            ],
            "numberOfBytes": "512"
          },
          "t_struct(Receipt)3081_storage": {
            "encoding": "inplace",
            "label": "struct GovernorFISCegaDelegateStorageV1.Receipt",
            "members": [
              {
                "astId": 3076,
                "contract": "contracts/governance/GovernorFISCegaInterfaces.sol:GovernorFISCegaDelegateStorageV1",
                "label": "hasVoted",
                "offset": 0,
                "slot": "0",
                "type": "t_bool"
              },
              {
                "astId": 3078,
                "contract": "contracts/governance/GovernorFISCegaInterfaces.sol:GovernorFISCegaDelegateStorageV1",
                "label": "support",
                "offset": 1,
                "slot": "0",
                "type": "t_uint8"
              },
              {
                "astId": 3080,
                "contract": "contracts/governance/GovernorFISCegaInterfaces.sol:GovernorFISCegaDelegateStorageV1",
                "label": "votes",
                "offset": 0,
                "slot": "1",
                "type": "t_uint256"
              }
            ],
            "numberOfBytes": "64"
          },
          "t_uint256": {
            "encoding": "inplace",
            "label": "uint256",
            "numberOfBytes": "32"
          },
          "t_uint8": {
            "encoding": "inplace",
            "label": "uint8",
            "numberOfBytes": "1"
          }
        }
      },
      "userdoc": {
        "methods": {},
        "notice": "For future upgrades, do not change GovernorFISCegaDelegateStorageV1. Create a new contract which implements GovernorFISCegaDelegateStorageV1 and following the naming convention GovernorFISCegaDelegateStorageVX."
      }
    }
  }
}