{
  "contracts/governance/GovernorFISCegaDelegate.sol": {
    "GovernorFISCegaDelegate": {
      "abi": [
        {
          "anonymous": false,
          "inputs": [
            {
              "indexed": false,
              "internalType": "address",
              "name": "oldAdmin",
              "type": "address"
            },
            {
              "indexed": false,
              "internalType": "address",
              "name": "newAdmin",
              "type": "address"
            }
          ],
          "name": "NewAdmin",
          "type": "event"
        },
        {
          "anonymous": false,
          "inputs": [
            {
              "indexed": false,
              "internalType": "address",
              "name": "oldImplementation",
              "type": "address"
            },
            {
              "indexed": false,
              "internalType": "address",
              "name": "newImplementation",
              "type": "address"
            }
          ],
          "name": "NewImplementation",
          "type": "event"
        },
        {
          "anonymous": false,
          "inputs": [
            {
              "indexed": false,
              "internalType": "address",
              "name": "oldPendingAdmin",
              "type": "address"
            },
            {
              "indexed": false,
              "internalType": "address",
              "name": "newPendingAdmin",
              "type": "address"
            }
          ],
          "name": "NewPendingAdmin",
          "type": "event"
        },
        {
          "anonymous": false,
          "inputs": [
            {
              "indexed": false,
              "internalType": "uint256",
              "name": "id",
              "type": "uint256"
            }
          ],
          "name": "ProposalCanceled",
          "type": "event"
        },
        {
          "anonymous": false,
          "inputs": [
            {
              "indexed": false,
              "internalType": "uint256",
              "name": "id",
              "type": "uint256"
            },
            {
              "indexed": false,
              "internalType": "address",
              "name": "proposer",
              "type": "address"
            },
            {
              "indexed": false,
              "internalType": "address[]",
              "name": "targets",
              "type": "address[]"
            },
            {
              "indexed": false,
              "internalType": "uint256[]",
              "name": "values",
              "type": "uint256[]"
            },
            {
              "indexed": false,
              "internalType": "string[]",
              "name": "signatures",
              "type": "string[]"
            },
            {
              "indexed": false,
              "internalType": "bytes[]",
              "name": "calldatas",
              "type": "bytes[]"
            },
            {
              "indexed": false,
              "internalType": "uint256",
              "name": "startBlock",
              "type": "uint256"
            },
            {
              "indexed": false,
              "internalType": "uint256",
              "name": "endBlock",
              "type": "uint256"
            },
            {
              "indexed": false,
              "internalType": "uint256",
              "name": "votesNeeded",
              "type": "uint256"
            },
            {
              "indexed": false,
              "internalType": "string",
              "name": "description",
              "type": "string"
            }
          ],
          "name": "ProposalCreated",
          "type": "event"
        },
        {
          "anonymous": false,
          "inputs": [
            {
              "indexed": false,
              "internalType": "uint256",
              "name": "id",
              "type": "uint256"
            }
          ],
          "name": "ProposalExecuted",
          "type": "event"
        },
        {
          "anonymous": false,
          "inputs": [
            {
              "indexed": false,
              "internalType": "uint256",
              "name": "id",
              "type": "uint256"
            },
            {
              "indexed": false,
              "internalType": "uint256",
              "name": "eta",
              "type": "uint256"
            }
          ],
          "name": "ProposalQueued",
          "type": "event"
        },
        {
          "anonymous": false,
          "inputs": [
            {
              "indexed": false,
              "internalType": "uint256",
              "name": "oldProposalThreshold",
              "type": "uint256"
            },
            {
              "indexed": false,
              "internalType": "uint256",
              "name": "newProposalThreshold",
              "type": "uint256"
            }
          ],
          "name": "ProposalThresholdSet",
          "type": "event"
        },
        {
          "anonymous": false,
          "inputs": [
            {
              "indexed": true,
              "internalType": "address",
              "name": "voter",
              "type": "address"
            },
            {
              "indexed": false,
              "internalType": "uint256",
              "name": "proposalId",
              "type": "uint256"
            },
            {
              "indexed": false,
              "internalType": "uint8",
              "name": "support",
              "type": "uint8"
            },
            {
              "indexed": false,
              "internalType": "uint256",
              "name": "votes",
              "type": "uint256"
            },
            {
              "indexed": false,
              "internalType": "string",
              "name": "reason",
              "type": "string"
            }
          ],
          "name": "VoteCast",
          "type": "event"
        },
        {
          "anonymous": false,
          "inputs": [
            {
              "indexed": false,
              "internalType": "uint256",
              "name": "oldVotingDelay",
              "type": "uint256"
            },
            {
              "indexed": false,
              "internalType": "uint256",
              "name": "newVotingDelay",
              "type": "uint256"
            }
          ],
          "name": "VotingDelaySet",
          "type": "event"
        },
        {
          "anonymous": false,
          "inputs": [
            {
              "indexed": false,
              "internalType": "uint256",
              "name": "oldVotingPeriod",
              "type": "uint256"
            },
            {
              "indexed": false,
              "internalType": "uint256",
              "name": "newVotingPeriod",
              "type": "uint256"
            }
          ],
          "name": "VotingPeriodSet",
          "type": "event"
        },
        {
          "constant": true,
          "inputs": [],
          "name": "BALLOT_TYPEHASH",
          "outputs": [
            {
              "internalType": "bytes32",
              "name": "",
              "type": "bytes32"
            }
          ],
          "payable": false,
          "stateMutability": "view",
          "type": "function"
        },
        {
          "constant": true,
          "inputs": [],
          "name": "DOMAIN_TYPEHASH",
          "outputs": [
            {
              "internalType": "bytes32",
              "name": "",
              "type": "bytes32"
            }
          ],
          "payable": false,
          "stateMutability": "view",
          "type": "function"
        },
        {
          "constant": true,
          "inputs": [],
          "name": "MAX_PROPOSAL_THRESHOLDPERCENT",
          "outputs": [
            {
              "internalType": "uint256",
              "name": "",
              "type": "uint256"
            }
          ],
          "payable": false,
          "stateMutability": "view",
          "type": "function"
        },
        {
          "constant": true,
          "inputs": [],
          "name": "MAX_VOTING_DELAY",
          "outputs": [
            {
              "internalType": "uint256",
              "name": "",
              "type": "uint256"
            }
          ],
          "payable": false,
          "stateMutability": "view",
          "type": "function"
        },
        {
          "constant": true,
          "inputs": [],
          "name": "MAX_VOTING_PERIOD",
          "outputs": [
            {
              "internalType": "uint256",
              "name": "",
              "type": "uint256"
            }
          ],
          "payable": false,
          "stateMutability": "view",
          "type": "function"
        },
        {
          "constant": true,
          "inputs": [],
          "name": "MIN_PROPOSAL_THRESHOLDPERCENT",
          "outputs": [
            {
              "internalType": "uint256",
              "name": "",
              "type": "uint256"
            }
          ],
          "payable": false,
          "stateMutability": "view",
          "type": "function"
        },
        {
          "constant": true,
          "inputs": [],
          "name": "MIN_VOTING_DELAY",
          "outputs": [
            {
              "internalType": "uint256",
              "name": "",
              "type": "uint256"
            }
          ],
          "payable": false,
          "stateMutability": "view",
          "type": "function"
        },
        {
          "constant": true,
          "inputs": [],
          "name": "MIN_VOTING_PERIOD",
          "outputs": [
            {
              "internalType": "uint256",
              "name": "",
              "type": "uint256"
            }
          ],
          "payable": false,
          "stateMutability": "view",
          "type": "function"
        },
        {
          "constant": false,
          "inputs": [],
          "name": "_acceptAdmin",
          "outputs": [],
          "payable": false,
          "stateMutability": "nonpayable",
          "type": "function"
        },
        {
          "constant": false,
          "inputs": [
            {
              "internalType": "address",
              "name": "governorAlpha",
              "type": "address"
            }
          ],
          "name": "_initiate",
          "outputs": [],
          "payable": false,
          "stateMutability": "nonpayable",
          "type": "function"
        },
        {
          "constant": false,
          "inputs": [
            {
              "internalType": "address",
              "name": "newPendingAdmin",
              "type": "address"
            }
          ],
          "name": "_setPendingAdmin",
          "outputs": [],
          "payable": false,
          "stateMutability": "nonpayable",
          "type": "function"
        },
        {
          "constant": false,
          "inputs": [
            {
              "internalType": "uint256",
              "name": "newProposalThreshold",
              "type": "uint256"
            }
          ],
          "name": "_setProposalThreshold",
          "outputs": [],
          "payable": false,
          "stateMutability": "nonpayable",
          "type": "function"
        },
        {
          "constant": false,
          "inputs": [
            {
              "internalType": "uint256",
              "name": "newVotingDelay",
              "type": "uint256"
            }
          ],
          "name": "_setVotingDelay",
          "outputs": [],
          "payable": false,
          "stateMutability": "nonpayable",
          "type": "function"
        },
        {
          "constant": false,
          "inputs": [
            {
              "internalType": "uint256",
              "name": "newVotingPeriod",
              "type": "uint256"
            }
          ],
          "name": "_setVotingPeriod",
          "outputs": [],
          "payable": false,
          "stateMutability": "nonpayable",
          "type": "function"
        },
        {
          "constant": true,
          "inputs": [],
          "name": "admin",
          "outputs": [
            {
              "internalType": "address",
              "name": "",
              "type": "address"
            }
          ],
          "payable": false,
          "stateMutability": "view",
          "type": "function"
        },
        {
          "constant": false,
          "inputs": [
            {
              "internalType": "uint256",
              "name": "proposalId",
              "type": "uint256"
            }
          ],
          "name": "cancel",
          "outputs": [],
          "payable": false,
          "stateMutability": "nonpayable",
          "type": "function"
        },
        {
          "constant": false,
          "inputs": [
            {
              "internalType": "uint256",
              "name": "proposalId",
              "type": "uint256"
            },
            {
              "internalType": "uint8",
              "name": "support",
              "type": "uint8"
            }
          ],
          "name": "castVote",
          "outputs": [],
          "payable": false,
          "stateMutability": "nonpayable",
          "type": "function"
        },
        {
          "constant": false,
          "inputs": [
            {
              "internalType": "uint256",
              "name": "proposalId",
              "type": "uint256"
            },
            {
              "internalType": "uint8",
              "name": "support",
              "type": "uint8"
            },
            {
              "internalType": "uint8",
              "name": "v",
              "type": "uint8"
            },
            {
              "internalType": "bytes32",
              "name": "r",
              "type": "bytes32"
            },
            {
              "internalType": "bytes32",
              "name": "s",
              "type": "bytes32"
            }
          ],
          "name": "castVoteBySig",
          "outputs": [],
          "payable": false,
          "stateMutability": "nonpayable",
          "type": "function"
        },
        {
          "constant": false,
          "inputs": [
            {
              "internalType": "uint256",
              "name": "proposalId",
              "type": "uint256"
            },
            {
              "internalType": "uint8",
              "name": "support",
              "type": "uint8"
            },
            {
              "internalType": "string",
              "name": "reason",
              "type": "string"
            }
          ],
          "name": "castVoteWithReason",
          "outputs": [],
          "payable": false,
          "stateMutability": "nonpayable",
          "type": "function"
        },
        {
          "constant": false,
          "inputs": [
            {
              "internalType": "uint256",
              "name": "proposalId",
              "type": "uint256"
            }
          ],
          "name": "execute",
          "outputs": [],
          "payable": true,
          "stateMutability": "payable",
          "type": "function"
        },
        {
          "constant": true,
          "inputs": [],
          "name": "gFISC",
          "outputs": [
            {
              "internalType": "contract gFISCInterface",
              "name": "",
              "type": "address"
            }
          ],
          "payable": false,
          "stateMutability": "view",
          "type": "function"
        },
        {
          "constant": true,
          "inputs": [
            {
              "internalType": "uint256",
              "name": "proposalId",
              "type": "uint256"
            }
          ],
          "name": "getActions",
          "outputs": [
            {
              "internalType": "address[]",
              "name": "targets",
              "type": "address[]"
            },
            {
              "internalType": "uint256[]",
              "name": "values",
              "type": "uint256[]"
            },
            {
              "internalType": "string[]",
              "name": "signatures",
              "type": "string[]"
            },
            {
              "internalType": "bytes[]",
              "name": "calldatas",
              "type": "bytes[]"
            }
          ],
          "payable": false,
          "stateMutability": "view",
          "type": "function"
        },
        {
          "constant": true,
          "inputs": [
            {
              "internalType": "uint256",
              "name": "proposalId",
              "type": "uint256"
            },
            {
              "internalType": "address",
              "name": "voter",
              "type": "address"
            }
          ],
          "name": "getReceipt",
          "outputs": [
            {
              "components": [
                {
                  "internalType": "bool",
                  "name": "hasVoted",
                  "type": "bool"
                },
                {
                  "internalType": "uint8",
                  "name": "support",
                  "type": "uint8"
                },
                {
                  "internalType": "uint256",
                  "name": "votes",
                  "type": "uint256"
                }
              ],
              "internalType": "struct GovernorFISCegaDelegateStorageV1.Receipt",
              "name": "",
              "type": "tuple"
            }
          ],
          "payable": false,
          "stateMutability": "view",
          "type": "function"
        },
        {
          "constant": true,
          "inputs": [
            {
              "internalType": "uint256",
              "name": "percent",
              "type": "uint256"
            }
          ],
          "name": "getVotesFromPercentOfsFISCSupply",
          "outputs": [
            {
              "internalType": "uint256",
              "name": "votes",
              "type": "uint256"
            }
          ],
          "payable": false,
          "stateMutability": "view",
          "type": "function"
        },
        {
          "constant": true,
          "inputs": [],
          "name": "implementation",
          "outputs": [
            {
              "internalType": "address",
              "name": "",
              "type": "address"
            }
          ],
          "payable": false,
          "stateMutability": "view",
          "type": "function"
        },
        {
          "constant": true,
          "inputs": [],
          "name": "initialProposalId",
          "outputs": [
            {
              "internalType": "uint256",
              "name": "",
              "type": "uint256"
            }
          ],
          "payable": false,
          "stateMutability": "view",
          "type": "function"
        },
        {
          "constant": false,
          "inputs": [
            {
              "internalType": "address",
              "name": "timelock_",
              "type": "address"
            },
            {
              "internalType": "address",
              "name": "sFISC_",
              "type": "address"
            },
            {
              "internalType": "address",
              "name": "gFISC_",
              "type": "address"
            },
            {
              "internalType": "uint256",
              "name": "votingPeriod_",
              "type": "uint256"
            },
            {
              "internalType": "uint256",
              "name": "votingDelay_",
              "type": "uint256"
            },
            {
              "internalType": "uint256",
              "name": "proposalThreshold_",
              "type": "uint256"
            }
          ],
          "name": "initialize",
          "outputs": [],
          "payable": false,
          "stateMutability": "nonpayable",
          "type": "function"
        },
        {
          "constant": true,
          "inputs": [
            {
              "internalType": "address",
              "name": "",
              "type": "address"
            }
          ],
          "name": "latestProposalIds",
          "outputs": [
            {
              "internalType": "uint256",
              "name": "",
              "type": "uint256"
            }
          ],
          "payable": false,
          "stateMutability": "view",
          "type": "function"
        },
        {
          "constant": true,
          "inputs": [],
          "name": "name",
          "outputs": [
            {
              "internalType": "string",
              "name": "",
              "type": "string"
            }
          ],
          "payable": false,
          "stateMutability": "view",
          "type": "function"
        },
        {
          "constant": true,
          "inputs": [],
          "name": "pendingAdmin",
          "outputs": [
            {
              "internalType": "address",
              "name": "",
              "type": "address"
            }
          ],
          "payable": false,
          "stateMutability": "view",
          "type": "function"
        },
        {
          "constant": true,
          "inputs": [],
          "name": "proposalCount",
          "outputs": [
            {
              "internalType": "uint256",
              "name": "",
              "type": "uint256"
            }
          ],
          "payable": false,
          "stateMutability": "view",
          "type": "function"
        },
        {
          "constant": true,
          "inputs": [],
          "name": "proposalMaxOperations",
          "outputs": [
            {
              "internalType": "uint256",
              "name": "",
              "type": "uint256"
            }
          ],
          "payable": false,
          "stateMutability": "view",
          "type": "function"
        },
        {
          "constant": true,
          "inputs": [],
          "name": "proposalThreshold",
          "outputs": [
            {
              "internalType": "uint256",
              "name": "",
              "type": "uint256"
            }
          ],
          "payable": false,
          "stateMutability": "view",
          "type": "function"
        },
        {
          "constant": true,
          "inputs": [
            {
              "internalType": "uint256",
              "name": "",
              "type": "uint256"
            }
          ],
          "name": "proposals",
          "outputs": [
            {
              "internalType": "uint256",
              "name": "id",
              "type": "uint256"
            },
            {
              "internalType": "address",
              "name": "proposer",
              "type": "address"
            },
            {
              "internalType": "uint256",
              "name": "eta",
              "type": "uint256"
            },
            {
              "internalType": "uint256",
              "name": "startBlock",
              "type": "uint256"
            },
            {
              "internalType": "uint256",
              "name": "endBlock",
              "type": "uint256"
            },
            {
              "internalType": "uint256",
              "name": "forVotes",
              "type": "uint256"
            },
            {
              "internalType": "uint256",
              "name": "againstVotes",
              "type": "uint256"
            },
            {
              "internalType": "uint256",
              "name": "abstainVotes",
              "type": "uint256"
            },
            {
              "internalType": "uint256",
              "name": "thresholdAtStart",
              "type": "uint256"
            },
            {
              "internalType": "uint256",
              "name": "votesNeeded",
              "type": "uint256"
            },
            {
              "internalType": "bool",
              "name": "canceled",
              "type": "bool"
            },
            {
              "internalType": "bool",
              "name": "executed",
              "type": "bool"
            }
          ],
          "payable": false,
          "stateMutability": "view",
          "type": "function"
        },
        {
          "constant": false,
          "inputs": [
            {
              "internalType": "address[]",
              "name": "targets",
              "type": "address[]"
            },
            {
              "internalType": "uint256[]",
              "name": "values",
              "type": "uint256[]"
            },
            {
              "internalType": "string[]",
              "name": "signatures",
              "type": "string[]"
            },
            {
              "internalType": "bytes[]",
              "name": "calldatas",
              "type": "bytes[]"
            },
            {
              "internalType": "string",
              "name": "description",
              "type": "string"
            }
          ],
          "name": "propose",
          "outputs": [
            {
              "internalType": "uint256",
              "name": "",
              "type": "uint256"
            }
          ],
          "payable": false,
          "stateMutability": "nonpayable",
          "type": "function"
        },
        {
          "constant": false,
          "inputs": [
            {
              "internalType": "uint256",
              "name": "proposalId",
              "type": "uint256"
            }
          ],
          "name": "queue",
          "outputs": [],
          "payable": false,
          "stateMutability": "nonpayable",
          "type": "function"
        },
        {
          "constant": true,
          "inputs": [],
          "name": "quorumPercent",
          "outputs": [
            {
              "internalType": "uint256",
              "name": "",
              "type": "uint256"
            }
          ],
          "payable": false,
          "stateMutability": "view",
          "type": "function"
        },
        {
          "constant": true,
          "inputs": [],
          "name": "sFISC",
          "outputs": [
            {
              "internalType": "contract sFISCInterface",
              "name": "",
              "type": "address"
            }
          ],
          "payable": false,
          "stateMutability": "view",
          "type": "function"
        },
        {
          "constant": true,
          "inputs": [
            {
              "internalType": "uint256",
              "name": "proposalId",
              "type": "uint256"
            }
          ],
          "name": "state",
          "outputs": [
            {
              "internalType": "enum GovernorFISCegaDelegateStorageV1.ProposalState",
              "name": "",
              "type": "uint8"
            }
          ],
          "payable": false,
          "stateMutability": "view",
          "type": "function"
        },
        {
          "constant": true,
          "inputs": [],
          "name": "timelock",
          "outputs": [
            {
              "internalType": "contract TimelockInterface",
              "name": "",
              "type": "address"
            }
          ],
          "payable": false,
          "stateMutability": "view",
          "type": "function"
        },
        {
          "constant": true,
          "inputs": [],
          "name": "votingDelay",
          "outputs": [
            {
              "internalType": "uint256",
              "name": "",
              "type": "uint256"
            }
          ],
          "payable": false,
          "stateMutability": "view",
          "type": "function"
        },
        {
          "constant": true,
          "inputs": [],
          "name": "votingPeriod",
          "outputs": [
            {
              "internalType": "uint256",
              "name": "",
              "type": "uint256"
            }
          ],
          "payable": false,
          "stateMutability": "view",
          "type": "function"
        }
      ],
      "devdoc": {
        "methods": {
          "_acceptAdmin()": {
            "details": "Admin function for pending admin to accept role and update admin"
          },
          "_initiate(address)": {
            "details": "Admin only. Sets initial proposal id which initiates the contract, ensuring a continuous proposal id count",
            "params": {
              "governorAlpha": "The address for the Governor to continue the proposal id count from"
            }
          },
          "_setPendingAdmin(address)": {
            "details": "Admin function to begin change of admin. The newPendingAdmin must call `_acceptAdmin` to finalize the transfer.",
            "params": {
              "newPendingAdmin": "New pending admin."
            }
          },
          "_setProposalThreshold(uint256)": {
            "details": "newProposalThreshold must be greater than the hardcoded min",
            "params": {
              "newProposalThreshold": "new proposal threshold"
            }
          },
          "_setVotingDelay(uint256)": {
            "params": {
              "newVotingDelay": "new voting delay, in blocks"
            }
          },
          "_setVotingPeriod(uint256)": {
            "params": {
              "newVotingPeriod": "new voting period, in blocks"
            }
          },
          "cancel(uint256)": {
            "params": {
              "proposalId": "The id of the proposal to cancel"
            }
          },
          "castVote(uint256,uint8)": {
            "params": {
              "proposalId": "The id of the proposal to vote on",
              "support": "The support value for the vote. 0=against, 1=for, 2=abstain"
            }
          },
          "castVoteBySig(uint256,uint8,uint8,bytes32,bytes32)": {
            "details": "External function that accepts EIP-712 signatures for voting on proposals."
          },
          "castVoteWithReason(uint256,uint8,string)": {
            "params": {
              "proposalId": "The id of the proposal to vote on",
              "reason": "The reason given for the vote by the voter",
              "support": "The support value for the vote. 0=against, 1=for, 2=abstain"
            }
          },
          "execute(uint256)": {
            "params": {
              "proposalId": "The id of the proposal to execute"
            }
          },
          "getActions(uint256)": {
            "params": {
              "proposalId": "the id of the proposal"
            },
            "return": "Targets, values, signatures, and calldatas of the proposal actions"
          },
          "getReceipt(uint256,address)": {
            "params": {
              "proposalId": "the id of proposal",
              "voter": "The address of the voter"
            },
            "return": "The voting receipt"
          },
          "initialize(address,address,address,uint256,uint256,uint256)": {
            "params": {
              "gFISC_": "The address of the gFISC token",
              "proposalThreshold_": "The initial proposal threshold percent in ten-thousandths",
              "sFISC_": "The address of the sFISC token",
              "timelock_": "The address of the Timelock",
              "votingDelay_": "The initial voting delay",
              "votingPeriod_": "The initial voting period"
            }
          },
          "propose(address[],uint256[],string[],bytes[],string)": {
            "params": {
              "calldatas": "Calldatas for proposal calls",
              "description": "String description of the proposal",
              "signatures": "Function signatures for proposal calls",
              "targets": "Target addresses for proposal calls",
              "values": "Eth values for proposal calls"
            },
            "return": "Proposal id of new proposal"
          },
          "queue(uint256)": {
            "params": {
              "proposalId": "The id of the proposal to queue"
            }
          },
          "state(uint256)": {
            "params": {
              "proposalId": "The id of the proposal"
            },
            "return": "Proposal state"
          }
        }
      },
      "evm": {
        "bytecode": {
          "linkReferences": {},
          "object": "608060405234801561001057600080fd5b50616c7880620000216000396000f3fe6080604052600436106102515760003560e01c8063891df87311610139578063ddf0b009116100b6578063f7d842931161007a578063f7d84293146108b4578063f81cbd26146108f1578063f851a4401461091c578063f9d28b8014610947578063fc4eee4214610970578063fe0d94c11461099b57610251565b8063ddf0b009146107e1578063deaaa7cc1461080a578063e23a9a5214610835578063e48083fe14610872578063e9c714f21461089d57610251565b8063c3b98d07116100fd578063c3b98d07146106f8578063d33219b414610723578063d9bfd8051461074e578063da35c66414610779578063da95691a146107a457610251565b8063891df87314610623578063a64e024a1461064e578063b112626314610679578063b58131b0146106a4578063b71d1a0c146106cf57610251565b8063328dd982116101d2578063567813881161019657806356781388146105275780635c60da1b146105505780636ddd86d91461057b578063728cdbca146105a65780637b3c71d3146105cf5780637bdbe4d0146105f857610251565b8063328dd9821461042d5780633932abb11461046d5780633bccf4fd146104985780633e4f49e6146104c157806340e58ee5146104fe57610251565b806317ba1b8b1161021957806317ba1b8b1461035a5780631dfb1b5a1461038357806320606b70146103ac578063215809ca146103d7578063267822471461040257610251565b8063013cf08b1461025657806302a251a31461029e57806306fdde03146102c95780630ea2d98c146102f457806317977c611461031d575b600080fd5b34801561026257600080fd5b5061027d600480360361027891908101906143ac565b6109b7565b6040516102959c9b9a999897969594939291906165b1565b60405180910390f35b3480156102aa57600080fd5b506102b3610a51565b6040516102c091906164d7565b60405180910390f35b3480156102d557600080fd5b506102de610a57565b6040516102eb9190615fba565b60405180910390f35b34801561030057600080fd5b5061031b600480360361031691908101906143ac565b610a90565b005b34801561032957600080fd5b50610344600480360361033f9190810190614178565b610bc0565b60405161035191906164d7565b60405180910390f35b34801561036657600080fd5b50610381600480360361037c91908101906143ac565b610bd8565b005b34801561038f57600080fd5b506103aa60048036036103a591908101906143ac565b610d07565b005b3480156103b857600080fd5b506103c1610e35565b6040516103ce9190615e72565b60405180910390f35b3480156103e357600080fd5b506103ec610e4c565b6040516103f991906164d7565b60405180910390f35b34801561040e57600080fd5b50610417610e52565b6040516104249190615cb9565b60405180910390f35b34801561043957600080fd5b50610454600480360361044f91908101906143ac565b610e78565b6040516104649493929190615e11565b60405180910390f35b34801561047957600080fd5b50610482611155565b60405161048f91906164d7565b60405180910390f35b3480156104a457600080fd5b506104bf60048036036104ba91908101906144e2565b61115b565b005b3480156104cd57600080fd5b506104e860048036036104e391908101906143ac565b61137b565b6040516104f59190615f9f565b60405180910390f35b34801561050a57600080fd5b50610525600480360361052091908101906143ac565b61155e565b005b34801561053357600080fd5b5061054e6004803603610549919081019061443a565b6118e6565b005b34801561055c57600080fd5b50610565611946565b6040516105729190615cb9565b60405180910390f35b34801561058757600080fd5b5061059061196c565b60405161059d9190615f84565b60405180910390f35b3480156105b257600080fd5b506105cd60048036036105c891908101906141a1565b611992565b005b3480156105db57600080fd5b506105f660048036036105f19190810190614476565b611ddb565b005b34801561060457600080fd5b5061060d611e41565b60405161061a91906164d7565b60405180910390f35b34801561062f57600080fd5b50610638611e46565b60405161064591906164d7565b60405180910390f35b34801561065a57600080fd5b50610663611e4c565b60405161067091906164d7565b60405180910390f35b34801561068557600080fd5b5061068e611e53565b60405161069b91906164d7565b60405180910390f35b3480156106b057600080fd5b506106b9611e59565b6040516106c691906164d7565b60405180910390f35b3480156106db57600080fd5b506106f660048036036106f19190810190614178565b611e5f565b005b34801561070457600080fd5b5061070d611f93565b60405161071a91906164d7565b60405180910390f35b34801561072f57600080fd5b50610738611f99565b6040516107459190615f4e565b60405180910390f35b34801561075a57600080fd5b50610763611fbf565b6040516107709190615f69565b60405180910390f35b34801561078557600080fd5b5061078e611fe5565b60405161079b91906164d7565b60405180910390f35b3480156107b057600080fd5b506107cb60048036036107c6919081019061422a565b611feb565b6040516107d891906164d7565b60405180910390f35b3480156107ed57600080fd5b50610808600480360361080391908101906143ac565b612631565b005b34801561081657600080fd5b5061081f612981565b60405161082c9190615e72565b60405180910390f35b34801561084157600080fd5b5061085c600480360361085791908101906143fe565b612998565b60405161086991906164bc565b60405180910390f35b34801561087e57600080fd5b50610887612a48565b60405161089491906164d7565b60405180910390f35b3480156108a957600080fd5b506108b2612a4d565b005b3480156108c057600080fd5b506108db60048036036108d691908101906143ac565b612cc0565b6040516108e891906164d7565b60405180910390f35b3480156108fd57600080fd5b50610906612e28565b60405161091391906164d7565b60405180910390f35b34801561092857600080fd5b50610931612e2e565b60405161093e9190615cb9565b60405180910390f35b34801561095357600080fd5b5061096e60048036036109699190810190614178565b612e53565b005b34801561097c57600080fd5b5061098561303b565b60405161099291906164d7565b60405180910390f35b6109b560048036036109b091908101906143ac565b613041565b005b600b6020528060005260406000206000915090508060000154908060010160009054906101000a900473ffffffffffffffffffffffffffffffffffffffff169080600201549080600701549080600801549080600901549080600a01549080600b01549080600c01549080600d01549080600e0160009054906101000a900460ff169080600e0160019054906101000a900460ff1690508c565b60045481565b6040518060400160405280601581526020017f4649534320476f7665726e6f722046495343656761000000000000000000000081525081565b6000809054906101000a900473ffffffffffffffffffffffffffffffffffffffff1673ffffffffffffffffffffffffffffffffffffffff163373ffffffffffffffffffffffffffffffffffffffff1614610b1f576040517f08c379a0000000000000000000000000000000000000000000000000000000008152600401610b169061611c565b60405180910390fd5b6116808110158015610b34575062013b008111155b610b73576040517f08c379a0000000000000000000000000000000000000000000000000000000008152600401610b6a90615fdc565b60405180910390fd5b60006004549050816004819055507f7e3f7f0708a84de9203036abaa450dccc85ad5ff52f78c170f3edb55cf5e882881600454604051610bb492919061666b565b60405180910390a15050565b600c6020528060005260406000206000915090505481565b6000809054906101000a900473ffffffffffffffffffffffffffffffffffffffff1673ffffffffffffffffffffffffffffffffffffffff163373ffffffffffffffffffffffffffffffffffffffff1614610c67576040517f08c379a0000000000000000000000000000000000000000000000000000000008152600401610c5e9061647c565b60405180910390fd5b6113888110158015610c7b57506127108111155b610cba576040517f08c379a0000000000000000000000000000000000000000000000000000000008152600401610cb1906160bc565b60405180910390fd5b60006005549050816005819055507fccb45da8d5717e6c4544694297c4ba5cf151d455c9bb0ed4fc7a38411bc0546181600554604051610cfb92919061666b565b60405180910390a15050565b6000809054906101000a900473ffffffffffffffffffffffffffffffffffffffff1673ffffffffffffffffffffffffffffffffffffffff163373ffffffffffffffffffffffffffffffffffffffff1614610d96576040517f08c379a0000000000000000000000000000000000000000000000000000000008152600401610d8d906160fc565b60405180910390fd5b60018110158015610da95750619d808111155b610de8576040517f08c379a0000000000000000000000000000000000000000000000000000000008152600401610ddf9061621c565b60405180910390fd5b60006003549050816003819055507fc565b045403dc03c2eea82b81a0465edad9e2e7fc4d97e11421c209da93d7a9381600354604051610e2992919061666b565b60405180910390a15050565b604051610e4190615ca4565b604051809103902081565b61168081565b600160009054906101000a900473ffffffffffffffffffffffffffffffffffffffff1681565b6060806060806000600b600087815260200190815260200160002090508060030181600401826005018360060183805480602002602001604051908101604052809291908181526020018280548015610f2657602002820191906000526020600020905b8160009054906101000a900473ffffffffffffffffffffffffffffffffffffffff1673ffffffffffffffffffffffffffffffffffffffff1681526020019060010190808311610edc575b5050505050935082805480602002602001604051908101604052809291908181526020018280548015610f7857602002820191906000526020600020905b815481526020019060010190808311610f64575b5050505050925081805480602002602001604051908101604052809291908181526020016000905b8282101561105c578382906000526020600020018054600181600116156101000203166002900480601f0160208091040260200160405190810160405280929190818152602001828054600181600116156101000203166002900480156110485780601f1061101d57610100808354040283529160200191611048565b820191906000526020600020905b81548152906001019060200180831161102b57829003601f168201915b505050505081526020019060010190610fa0565b50505050915080805480602002602001604051908101604052809291908181526020016000905b8282101561113f578382906000526020600020018054600181600116156101000203166002900480601f01602080910402602001604051908101604052809291908181526020018280546001816001161561010002031660029004801561112b5780601f106111005761010080835404028352916020019161112b565b820191906000526020600020905b81548152906001019060200180831161110e57829003601f168201915b505050505081526020019060010190611083565b5050505090509450945094509450509193509193565b60035481565b600060405161116990615ca4565b60405180910390206040518060400160405280601581526020017f4649534320476f7665726e6f7220464953436567610000000000000000000000815250805190602001206111b661328f565b306040516020016111ca9493929190615e8d565b60405160208183030381529060405280519060200120905060006040516111f090615c58565b6040518091039020878760405160200161120c93929190615ed2565b60405160208183030381529060405280519060200120905060008282604051602001611239929190615c6d565b6040516020818303038152906040528051906020012090506000600182888888604051600081526020016040526040516112769493929190615f09565b6020604051602081039080840390855afa158015611298573d6000803e3d6000fd5b505050602060405103519050600073ffffffffffffffffffffffffffffffffffffffff168173ffffffffffffffffffffffffffffffffffffffff161415611314576040517f08c379a000000000000000000000000000000000000000000000000000000000815260040161130b906162fc565b60405180910390fd5b8073ffffffffffffffffffffffffffffffffffffffff167fb8e138887d0aa13bab447e82de9d5c1777041ecd21ca36ba824ff1e6c07ddda48a8a611359858e8e61329c565b604051611368939291906166e2565b60405180910390a2505050505050505050565b60008160075410158015611390575060065482115b6113cf576040517f08c379a00000000000000000000000000000000000000000000000000000000081526004016113c69061605c565b60405180910390fd5b6000600b6000848152602001908152602001600020905080600e0160009054906101000a900460ff1615611407576002915050611559565b8060070154431161141c576000915050611559565b80600801544311611431576001915050611559565b80600a0154816009015411158061144f575080600d01548160090154105b1561145e576003915050611559565b600081600201541415611475576004915050611559565b80600e0160019054906101000a900460ff1615611496576007915050611559565b6115438160020154600860009054906101000a900473ffffffffffffffffffffffffffffffffffffffff1673ffffffffffffffffffffffffffffffffffffffff1663c1a287e26040518163ffffffff1660e01b815260040160206040518083038186803b15801561150657600080fd5b505afa15801561151a573d6000803e3d6000fd5b505050506040513d601f19601f8201168201806040525061153e91908101906143d5565b613572565b4210611553576006915050611559565b60059150505b919050565b60078081111561156a57fe5b6115738261137b565b600781111561157e57fe5b14156115bf576040517f08c379a00000000000000000000000000000000000000000000000000000000081526004016115b69061613c565b60405180910390fd5b6000600b600083815260200190815260200160002090508060010160009054906101000a900473ffffffffffffffffffffffffffffffffffffffff1673ffffffffffffffffffffffffffffffffffffffff163373ffffffffffffffffffffffffffffffffffffffff161480611711575080600c0154600960009054906101000a900473ffffffffffffffffffffffffffffffffffffffff1673ffffffffffffffffffffffffffffffffffffffff1663782d6fe18360010160009054906101000a900473ffffffffffffffffffffffffffffffffffffffff166116a24360016135c7565b6040518363ffffffff1660e01b81526004016116bf929190615d26565b60206040518083038186803b1580156116d757600080fd5b505afa1580156116eb573d6000803e3d6000fd5b505050506040513d601f19601f8201168201806040525061170f91908101906143d5565b105b611750576040517f08c379a0000000000000000000000000000000000000000000000000000000008152600401611747906163fc565b60405180910390fd5b600181600e0160006101000a81548160ff02191690831515021790555060008090505b81600301805490508110156118aa57600860009054906101000a900473ffffffffffffffffffffffffffffffffffffffff1673ffffffffffffffffffffffffffffffffffffffff1663591fcdfe8360030183815481106117cf57fe5b9060005260206000200160009054906101000a900473ffffffffffffffffffffffffffffffffffffffff1684600401848154811061180957fe5b906000526020600020015485600501858154811061182357fe5b9060005260206000200186600601868154811061183c57fe5b9060005260206000200187600201546040518663ffffffff1660e01b815260040161186b959493929190615db0565b600060405180830381600087803b15801561188557600080fd5b505af1158015611899573d6000803e3d6000fd5b505050508080600101915050611773565b507f789cf55be980739dad1d0699b93b58e806b51c9d96619bfa8fe0a28abaa7b30c826040516118da91906164d7565b60405180910390a15050565b3373ffffffffffffffffffffffffffffffffffffffff167fb8e138887d0aa13bab447e82de9d5c1777041ecd21ca36ba824ff1e6c07ddda4838361192b33878761329c565b60405161193a939291906166e2565b60405180910390a25050565b600260009054906101000a900473ffffffffffffffffffffffffffffffffffffffff1681565b600a60009054906101000a900473ffffffffffffffffffffffffffffffffffffffff1681565b600073ffffffffffffffffffffffffffffffffffffffff16600860009054906101000a900473ffffffffffffffffffffffffffffffffffffffff1673ffffffffffffffffffffffffffffffffffffffff1614611a23576040517f08c379a0000000000000000000000000000000000000000000000000000000008152600401611a1a906162bc565b60405180910390fd5b6000809054906101000a900473ffffffffffffffffffffffffffffffffffffffff1673ffffffffffffffffffffffffffffffffffffffff163373ffffffffffffffffffffffffffffffffffffffff1614611ab2576040517f08c379a0000000000000000000000000000000000000000000000000000000008152600401611aa9906161fc565b60405180910390fd5b600073ffffffffffffffffffffffffffffffffffffffff168673ffffffffffffffffffffffffffffffffffffffff161415611b22576040517f08c379a0000000000000000000000000000000000000000000000000000000008152600401611b199061601c565b60405180910390fd5b600073ffffffffffffffffffffffffffffffffffffffff168573ffffffffffffffffffffffffffffffffffffffff161415611b92576040517f08c379a0000000000000000000000000000000000000000000000000000000008152600401611b899061603c565b60405180910390fd5b600073ffffffffffffffffffffffffffffffffffffffff168473ffffffffffffffffffffffffffffffffffffffff161415611c02576040517f08c379a0000000000000000000000000000000000000000000000000000000008152600401611bf99061641c565b60405180910390fd5b6116808310158015611c17575062013b008311155b611c56576040517f08c379a0000000000000000000000000000000000000000000000000000000008152600401611c4d90615ffc565b60405180910390fd5b60018210158015611c695750619d808211155b611ca8576040517f08c379a0000000000000000000000000000000000000000000000000000000008152600401611c9f906162dc565b60405180910390fd5b6113888110158015611cbc57506127108111155b611cfb576040517f08c379a0000000000000000000000000000000000000000000000000000000008152600401611cf29061643c565b60405180910390fd5b85600860006101000a81548173ffffffffffffffffffffffffffffffffffffffff021916908373ffffffffffffffffffffffffffffffffffffffff16021790555084600a60006101000a81548173ffffffffffffffffffffffffffffffffffffffff021916908373ffffffffffffffffffffffffffffffffffffffff16021790555083600960006101000a81548173ffffffffffffffffffffffffffffffffffffffff021916908373ffffffffffffffffffffffffffffffffffffffff160217905550826004819055508160038190555080600581905550505050505050565b3373ffffffffffffffffffffffffffffffffffffffff167fb8e138887d0aa13bab447e82de9d5c1777041ecd21ca36ba824ff1e6c07ddda48585611e2033898961329c565b8686604051611e33959493929190616694565b60405180910390a250505050565b600a81565b61271081565b62013b0081565b619d8081565b60055481565b6000809054906101000a900473ffffffffffffffffffffffffffffffffffffffff1673ffffffffffffffffffffffffffffffffffffffff163373ffffffffffffffffffffffffffffffffffffffff1614611eee576040517f08c379a0000000000000000000000000000000000000000000000000000000008152600401611ee59061635c565b60405180910390fd5b6000600160009054906101000a900473ffffffffffffffffffffffffffffffffffffffff16905081600160006101000a81548173ffffffffffffffffffffffffffffffffffffffff021916908373ffffffffffffffffffffffffffffffffffffffff1602179055507fca4f2f25d0898edd99413412fb94012f9e54ec8142f9b093e7720646a95b16a98183604051611f87929190615cfd565b60405180910390a15050565b61138881565b600860009054906101000a900473ffffffffffffffffffffffffffffffffffffffff1681565b600960009054906101000a900473ffffffffffffffffffffffffffffffffffffffff1681565b60075481565b6000806006541415612032576040517f08c379a00000000000000000000000000000000000000000000000000000000081526004016120299061607c565b60405180910390fd5b61203d600554612cc0565b600960009054906101000a900473ffffffffffffffffffffffffffffffffffffffff1673ffffffffffffffffffffffffffffffffffffffff1663782d6fe1336120874360016135c7565b6040518363ffffffff1660e01b81526004016120a4929190615cd4565b60206040518083038186803b1580156120bc57600080fd5b505afa1580156120d0573d6000803e3d6000fd5b505050506040513d601f19601f820116820180604052506120f491908101906143d5565b11612134576040517f08c379a000000000000000000000000000000000000000000000000000000000815260040161212b9061631c565b60405180910390fd5b84518651148015612146575083518651145b8015612153575082518651145b612192576040517f08c379a0000000000000000000000000000000000000000000000000000000008152600401612189906161dc565b60405180910390fd5b6000865114156121d7576040517f08c379a00000000000000000000000000000000000000000000000000000000081526004016121ce9061623c565b60405180910390fd5b600a8651111561221c576040517f08c379a00000000000000000000000000000000000000000000000000000000081526004016122139061617c565b60405180910390fd5b6000600c60003373ffffffffffffffffffffffffffffffffffffffff1673ffffffffffffffffffffffffffffffffffffffff1681526020019081526020016000205490506000811461232b5760006122738261137b565b90506001600781111561228257fe5b81600781111561228e57fe5b14156122cf576040517f08c379a00000000000000000000000000000000000000000000000000000000081526004016122c69061619c565b60405180910390fd5b600060078111156122dc57fe5b8160078111156122e857fe5b1415612329576040517f08c379a0000000000000000000000000000000000000000000000000000000008152600401612320906160dc565b60405180910390fd5b505b600061233943600354613572565b9050600061234982600454613572565b90506007600081548092919060010191905055506123656138b9565b60405180610200016040528060075481526020013373ffffffffffffffffffffffffffffffffffffffff168152602001600081526020018b81526020018a81526020018981526020018881526020018481526020018381526020016000815260200160008152602001600081526020016123e0600554612cc0565b81526020016123f0619c40612cc0565b815260200160001515815260200160001515815250905080600b6000836000015181526020019081526020016000206000820151816000015560208201518160010160006101000a81548173ffffffffffffffffffffffffffffffffffffffff021916908373ffffffffffffffffffffffffffffffffffffffff160217905550604082015181600201556060820151816003019080519060200190612496929190613950565b5060808201518160040190805190602001906124b39291906139da565b5060a08201518160050190805190602001906124d0929190613a27565b5060c08201518160060190805190602001906124ed929190613a87565b5060e082015181600701556101008201518160080155610120820151816009015561014082015181600a015561016082015181600b015561018082015181600c01556101a082015181600d01556101c082015181600e0160006101000a81548160ff0219169083151502179055506101e082015181600e0160016101000a81548160ff0219169083151502179055509050508060000151600c6000836020015173ffffffffffffffffffffffffffffffffffffffff1673ffffffffffffffffffffffffffffffffffffffff168152602001908152602001600020819055507f5f3f8da802ee6afde8d4395e43c640a216eed19aa3e90c7eda8ce88cb2954c4d8160000151338c8c8c8c8989896101a001518f6040516126159a999897969594939291906164f2565b60405180910390a1806000015194505050505095945050505050565b6004600781111561263e57fe5b6126478261137b565b600781111561265257fe5b14612692576040517f08c379a00000000000000000000000000000000000000000000000000000000081526004016126899061615c565b60405180910390fd5b6000600b60008381526020019081526020016000209050600061275442600860009054906101000a900473ffffffffffffffffffffffffffffffffffffffff1673ffffffffffffffffffffffffffffffffffffffff16636a42b8f86040518163ffffffff1660e01b815260040160206040518083038186803b15801561271757600080fd5b505afa15801561272b573d6000803e3d6000fd5b505050506040513d601f19601f8201168201806040525061274f91908101906143d5565b613572565b905060008090505b82600301805490508110156129395761292c83600301828154811061277d57fe5b9060005260206000200160009054906101000a900473ffffffffffffffffffffffffffffffffffffffff168460040183815481106127b757fe5b90600052602060002001548560050184815481106127d157fe5b906000526020600020018054600181600116156101000203166002900480601f01602080910402602001604051908101604052809291908181526020018280546001816001161561010002031660029004801561286f5780601f106128445761010080835404028352916020019161286f565b820191906000526020600020905b81548152906001019060200180831161285257829003601f168201915b505050505086600601858154811061288357fe5b906000526020600020018054600181600116156101000203166002900480601f0160208091040260200160405190810160405280929190818152602001828054600181600116156101000203166002900480156129215780601f106128f657610100808354040283529160200191612921565b820191906000526020600020905b81548152906001019060200180831161290457829003601f168201915b505050505086613617565b808060010191505061275c565b508082600201819055507f9a2e42fd6722813d69113e7d0079d3d940171428df7373df9c7f7617cfda2892838260405161297492919061666b565b60405180910390a1505050565b60405161298d90615c58565b604051809103902081565b6129a0613ae7565b600b6000848152602001908152602001600020600f0160008373ffffffffffffffffffffffffffffffffffffffff1673ffffffffffffffffffffffffffffffffffffffff1681526020019081526020016000206040518060600160405290816000820160009054906101000a900460ff161515151581526020016000820160019054906101000a900460ff1660ff1660ff168152602001600182015481525050905092915050565b600181565b600160009054906101000a900473ffffffffffffffffffffffffffffffffffffffff1673ffffffffffffffffffffffffffffffffffffffff163373ffffffffffffffffffffffffffffffffffffffff16148015612ad75750600073ffffffffffffffffffffffffffffffffffffffff163373ffffffffffffffffffffffffffffffffffffffff1614155b612b16576040517f08c379a0000000000000000000000000000000000000000000000000000000008152600401612b0d9061633c565b60405180910390fd5b60008060009054906101000a900473ffffffffffffffffffffffffffffffffffffffff1690506000600160009054906101000a900473ffffffffffffffffffffffffffffffffffffffff169050600160009054906101000a900473ffffffffffffffffffffffffffffffffffffffff166000806101000a81548173ffffffffffffffffffffffffffffffffffffffff021916908373ffffffffffffffffffffffffffffffffffffffff1602179055506000600160006101000a81548173ffffffffffffffffffffffffffffffffffffffff021916908373ffffffffffffffffffffffffffffffffffffffff1602179055507ff9ffabca9c8276e99321725bcb43fb076a6c66a54b7f21c4e8146d8519b417dc826000809054906101000a900473ffffffffffffffffffffffffffffffffffffffff16604051612c59929190615cfd565b60405180910390a17fca4f2f25d0898edd99413412fb94012f9e54ec8142f9b093e7720646a95b16a981600160009054906101000a900473ffffffffffffffffffffffffffffffffffffffff16604051612cb4929190615cfd565b60405180910390a15050565b6000600960009054906101000a900473ffffffffffffffffffffffffffffffffffffffff1673ffffffffffffffffffffffffffffffffffffffff166366a5236c612db5612dac600a60009054906101000a900473ffffffffffffffffffffffffffffffffffffffff1673ffffffffffffffffffffffffffffffffffffffff16639358928b6040518163ffffffff1660e01b815260040160206040518083038186803b158015612d6e57600080fd5b505afa158015612d82573d6000803e3d6000fd5b505050506040513d601f19601f82011682018060405250612da691908101906143d5565b866137ed565b620f424061385d565b6040518263ffffffff1660e01b8152600401612dd191906164d7565b60206040518083038186803b158015612de957600080fd5b505afa158015612dfd573d6000803e3d6000fd5b505050506040513d601f19601f82011682018060405250612e2191908101906143d5565b9050919050565b619c4081565b6000809054906101000a900473ffffffffffffffffffffffffffffffffffffffff1681565b6000809054906101000a900473ffffffffffffffffffffffffffffffffffffffff1673ffffffffffffffffffffffffffffffffffffffff163373ffffffffffffffffffffffffffffffffffffffff1614612ee2576040517f08c379a0000000000000000000000000000000000000000000000000000000008152600401612ed9906161bc565b60405180910390fd5b600060065414612f27576040517f08c379a0000000000000000000000000000000000000000000000000000000008152600401612f1e9061625c565b60405180910390fd5b8073ffffffffffffffffffffffffffffffffffffffff1663da35c6646040518163ffffffff1660e01b8152600401602060405180830381600087803b158015612f6f57600080fd5b505af1158015612f83573d6000803e3d6000fd5b505050506040513d601f19601f82011682018060405250612fa791908101906143d5565b600781905550600754600681905550600860009054906101000a900473ffffffffffffffffffffffffffffffffffffffff1673ffffffffffffffffffffffffffffffffffffffff16630e18b6816040518163ffffffff1660e01b8152600401600060405180830381600087803b15801561302057600080fd5b505af1158015613034573d6000803e3d6000fd5b5050505050565b60065481565b6005600781111561304e57fe5b6130578261137b565b600781111561306257fe5b146130a2576040517f08c379a0000000000000000000000000000000000000000000000000000000008152600401613099906163dc565b60405180910390fd5b6000600b60008381526020019081526020016000209050600181600e0160016101000a81548160ff02191690831515021790555060008090505b816003018054905081101561325357600860009054906101000a900473ffffffffffffffffffffffffffffffffffffffff1673ffffffffffffffffffffffffffffffffffffffff16630825f38f83600401838154811061313857fe5b906000526020600020015484600301848154811061315257fe5b9060005260206000200160009054906101000a900473ffffffffffffffffffffffffffffffffffffffff1685600401858154811061318c57fe5b90600052602060002001548660050186815481106131a657fe5b906000526020600020018760060187815481106131bf57fe5b9060005260206000200188600201546040518763ffffffff1660e01b81526004016131ee959493929190615db0565b6000604051808303818588803b15801561320757600080fd5b505af115801561321b573d6000803e3d6000fd5b50505050506040513d6000823e3d601f19601f82011682018060405250613245919081019061436b565b5080806001019150506130dc565b507f712ae1383f79ac853f8d882153778e0260ef8f03b504e2866e0593e04d2b291f8260405161328391906164d7565b60405180910390a15050565b6000804690508091505090565b6000600160078111156132ab57fe5b6132b48461137b565b60078111156132bf57fe5b146132ff576040517f08c379a00000000000000000000000000000000000000000000000000000000081526004016132f69061649c565b60405180910390fd5b60028260ff161115613346576040517f08c379a000000000000000000000000000000000000000000000000000000000815260040161333d9061627c565b60405180910390fd5b6000600b60008581526020019081526020016000209050600081600f0160008773ffffffffffffffffffffffffffffffffffffffff1673ffffffffffffffffffffffffffffffffffffffff1681526020019081526020016000209050600015158160000160009054906101000a900460ff161515146133fa576040517f08c379a00000000000000000000000000000000000000000000000000000000081526004016133f19061637c565b60405180910390fd5b6000600960009054906101000a900473ffffffffffffffffffffffffffffffffffffffff1673ffffffffffffffffffffffffffffffffffffffff1663782d6fe18885600701546040518363ffffffff1660e01b815260040161345d929190615d26565b60206040518083038186803b15801561347557600080fd5b505afa158015613489573d6000803e3d6000fd5b505050506040513d601f19601f820116820180604052506134ad91908101906143d5565b905060008560ff1614156134d6576134c983600a015482613572565b83600a0181905550613522565b60018560ff1614156134fd576134f0836009015482613572565b8360090181905550613521565b60028560ff1614156135205761351783600b015482613572565b83600b01819055505b5b5b60018260000160006101000a81548160ff021916908315150217905550848260000160016101000a81548160ff021916908360ff1602179055508082600101819055508093505050509392505050565b6000808284019050838110156135bd576040517f08c379a00000000000000000000000000000000000000000000000000000000081526004016135b49061629c565b60405180910390fd5b8091505092915050565b60008282111561360c576040517f08c379a00000000000000000000000000000000000000000000000000000000081526004016136039061645c565b60405180910390fd5b818303905092915050565b600860009054906101000a900473ffffffffffffffffffffffffffffffffffffffff1673ffffffffffffffffffffffffffffffffffffffff1663f2b06537868686868660405160200161366e959493929190615d4f565b604051602081830303815290604052805190602001206040518263ffffffff1660e01b81526004016136a09190615e72565b60206040518083038186803b1580156136b857600080fd5b505afa1580156136cc573d6000803e3d6000fd5b505050506040513d601f19601f820116820180604052506136f09190810190614319565b15613730576040517f08c379a00000000000000000000000000000000000000000000000000000000081526004016137279061639c565b60405180910390fd5b600860009054906101000a900473ffffffffffffffffffffffffffffffffffffffff1673ffffffffffffffffffffffffffffffffffffffff16633a66f90186868686866040518663ffffffff1660e01b8152600401613793959493929190615d4f565b602060405180830381600087803b1580156137ad57600080fd5b505af11580156137c1573d6000803e3d6000fd5b505050506040513d601f19601f820116820180604052506137e59190810190614342565b505050505050565b6000808314156138005760009050613857565b600082840290508284828161381157fe5b0414613852576040517f08c379a00000000000000000000000000000000000000000000000000000000081526004016138499061609c565b60405180910390fd5b809150505b92915050565b60008082116138a1576040517f08c379a0000000000000000000000000000000000000000000000000000000008152600401613898906163bc565b60405180910390fd5b60008284816138ac57fe5b0490508091505092915050565b60405180610200016040528060008152602001600073ffffffffffffffffffffffffffffffffffffffff1681526020016000815260200160608152602001606081526020016060815260200160608152602001600081526020016000815260200160008152602001600081526020016000815260200160008152602001600081526020016000151581526020016000151581525090565b8280548282559060005260206000209081019282156139c9579160200282015b828111156139c85782518260006101000a81548173ffffffffffffffffffffffffffffffffffffffff021916908373ffffffffffffffffffffffffffffffffffffffff16021790555091602001919060010190613970565b5b5090506139d69190613b0d565b5090565b828054828255906000526020600020908101928215613a16579160200282015b82811115613a155782518255916020019190600101906139fa565b5b509050613a239190613b50565b5090565b828054828255906000526020600020908101928215613a76579160200282015b82811115613a75578251829080519060200190613a65929190613b75565b5091602001919060010190613a47565b5b509050613a839190613bf5565b5090565b828054828255906000526020600020908101928215613ad6579160200282015b82811115613ad5578251829080519060200190613ac5929190613c21565b5091602001919060010190613aa7565b5b509050613ae39190613ca1565b5090565b6040518060600160405280600015158152602001600060ff168152602001600081525090565b613b4d91905b80821115613b4957600081816101000a81549073ffffffffffffffffffffffffffffffffffffffff021916905550600101613b13565b5090565b90565b613b7291905b80821115613b6e576000816000905550600101613b56565b5090565b90565b828054600181600116156101000203166002900490600052602060002090601f016020900481019282601f10613bb657805160ff1916838001178555613be4565b82800160010185558215613be4579182015b82811115613be3578251825591602001919060010190613bc8565b5b509050613bf19190613b50565b5090565b613c1e91905b80821115613c1a5760008181613c119190613ccd565b50600101613bfb565b5090565b90565b828054600181600116156101000203166002900490600052602060002090601f016020900481019282601f10613c6257805160ff1916838001178555613c90565b82800160010185558215613c90579182015b82811115613c8f578251825591602001919060010190613c74565b5b509050613c9d9190613b50565b5090565b613cca91905b80821115613cc65760008181613cbd9190613d15565b50600101613ca7565b5090565b90565b50805460018160011615610100020316600290046000825580601f10613cf35750613d12565b601f016020900490600052602060002090810190613d119190613b50565b5b50565b50805460018160011615610100020316600290046000825580601f10613d3b5750613d5a565b601f016020900490600052602060002090810190613d599190613b50565b5b50565b600081359050613d6c81616bc2565b92915050565b600082601f830112613d8357600080fd5b8135613d96613d9182616759565b61672c565b91508181835260208401935060208101905083856020840282011115613dbb57600080fd5b60005b83811015613deb5781613dd18882613d5d565b845260208401935060208301925050600181019050613dbe565b5050505092915050565b600082601f830112613e0657600080fd5b8135613e19613e1482616781565b61672c565b9150818183526020840193506020810190508360005b83811015613e5f5781358601613e458882613f9f565b845260208401935060208301925050600181019050613e2f565b5050505092915050565b600082601f830112613e7a57600080fd5b8135613e8d613e88826167a9565b61672c565b9150818183526020840193506020810190508360005b83811015613ed35781358601613eb98882614091565b845260208401935060208301925050600181019050613ea3565b5050505092915050565b600082601f830112613eee57600080fd5b8135613f01613efc826167d1565b61672c565b91508181835260208401935060208101905083856020840282011115613f2657600080fd5b60005b83811015613f565781613f3c8882614139565b845260208401935060208301925050600181019050613f29565b5050505092915050565b600081519050613f6f81616bd9565b92915050565b600081359050613f8481616bf0565b92915050565b600081519050613f9981616bf0565b92915050565b600082601f830112613fb057600080fd5b8135613fc3613fbe826167f9565b61672c565b91508082526020830160208301858383011115613fdf57600080fd5b613fea838284616b58565b50505092915050565b600082601f83011261400457600080fd5b815161401761401282616825565b61672c565b9150808252602083016020830185838301111561403357600080fd5b61403e838284616b67565b50505092915050565b60008083601f84011261405957600080fd5b8235905067ffffffffffffffff81111561407257600080fd5b60208301915083600182028301111561408a57600080fd5b9250929050565b600082601f8301126140a257600080fd5b81356140b56140b082616851565b61672c565b915080825260208301602083018583830111156140d157600080fd5b6140dc838284616b58565b50505092915050565b600082601f8301126140f657600080fd5b81356141096141048261687d565b61672c565b9150808252602083016020830185838301111561412557600080fd5b614130838284616b58565b50505092915050565b60008135905061414881616c07565b92915050565b60008151905061415d81616c07565b92915050565b60008135905061417281616c1e565b92915050565b60006020828403121561418a57600080fd5b600061419884828501613d5d565b91505092915050565b60008060008060008060c087890312156141ba57600080fd5b60006141c889828a01613d5d565b96505060206141d989828a01613d5d565b95505060406141ea89828a01613d5d565b94505060606141fb89828a01614139565b935050608061420c89828a01614139565b92505060a061421d89828a01614139565b9150509295509295509295565b600080600080600060a0868803121561424257600080fd5b600086013567ffffffffffffffff81111561425c57600080fd5b61426888828901613d72565b955050602086013567ffffffffffffffff81111561428557600080fd5b61429188828901613edd565b945050604086013567ffffffffffffffff8111156142ae57600080fd5b6142ba88828901613e69565b935050606086013567ffffffffffffffff8111156142d757600080fd5b6142e388828901613df5565b925050608086013567ffffffffffffffff81111561430057600080fd5b61430c888289016140e5565b9150509295509295909350565b60006020828403121561432b57600080fd5b600061433984828501613f60565b91505092915050565b60006020828403121561435457600080fd5b600061436284828501613f8a565b91505092915050565b60006020828403121561437d57600080fd5b600082015167ffffffffffffffff81111561439757600080fd5b6143a384828501613ff3565b91505092915050565b6000602082840312156143be57600080fd5b60006143cc84828501614139565b91505092915050565b6000602082840312156143e757600080fd5b60006143f58482850161414e565b91505092915050565b6000806040838503121561441157600080fd5b600061441f85828601614139565b925050602061443085828601613d5d565b9150509250929050565b6000806040838503121561444d57600080fd5b600061445b85828601614139565b925050602061446c85828601614163565b9150509250929050565b6000806000806060858703121561448c57600080fd5b600061449a87828801614139565b94505060206144ab87828801614163565b935050604085013567ffffffffffffffff8111156144c857600080fd5b6144d487828801614047565b925092505092959194509250565b600080600080600060a086880312156144fa57600080fd5b600061450888828901614139565b955050602061451988828901614163565b945050604061452a88828901614163565b935050606061453b88828901613f75565b925050608061454c88828901613f75565b9150509295509295909350565b600061456583836145c0565b60208301905092915050565b600061457d8383614801565b905092915050565b6000614591838361496b565b905092915050565b60006145a58383615c1c565b60208301905092915050565b6145ba81616aa4565b82525050565b6145c981616a32565b82525050565b6145d881616a32565b82525050565b60006145e982616913565b6145f3818561699f565b93506145fe836168a9565b8060005b8381101561462f5781516146168882614559565b97506146218361696b565b925050600181019050614602565b5085935050505092915050565b60006146478261691e565b61465181856169b0565b935083602082028501614663856168b9565b8060005b8581101561469f57848403895281516146808582614571565b945061468b83616978565b925060208a01995050600181019050614667565b50829750879550505050505092915050565b60006146bc82616929565b6146c681856169c1565b9350836020820285016146d8856168c9565b8060005b8581101561471457848403895281516146f58582614585565b945061470083616985565b925060208a019950506001810190506146dc565b50829750879550505050505092915050565b600061473182616934565b61473b81856169d2565b9350614746836168d9565b8060005b8381101561477757815161475e8882614599565b975061476983616992565b92505060018101905061474a565b5085935050505092915050565b61478d81616a44565b82525050565b61479c81616a44565b82525050565b6147ab81616a50565b82525050565b6147c26147bd82616a50565b616b9a565b82525050565b60006147d38261694a565b6147dd81856169f4565b93506147ed818560208601616b67565b6147f681616ba4565b840191505092915050565b600061480c8261693f565b61481681856169e3565b9350614826818560208601616b67565b61482f81616ba4565b840191505092915050565b600081546001811660008114614857576001811461487d576148c1565b607f600283041661486881876169f4565b955060ff1983168652602086019350506148c1565b6002820461488b81876169f4565b9550614896856168e9565b60005b828110156148b857815481890152600182019150602081019050614899565b80880195505050505b505092915050565b6148d281616ab6565b82525050565b6148e181616ada565b82525050565b6148f081616afe565b82525050565b6148ff81616b22565b82525050565b60006149118385616a16565b935061491e838584616b58565b61492783616ba4565b840190509392505050565b600061493d82616960565b6149478185616a16565b9350614957818560208601616b67565b61496081616ba4565b840191505092915050565b600061497682616955565b6149808185616a05565b9350614990818560208601616b67565b61499981616ba4565b840191505092915050565b60006149af82616955565b6149b98185616a16565b93506149c9818560208601616b67565b6149d281616ba4565b840191505092915050565b6000815460018116600081146149fa5760018114614a2057614a64565b607f6002830416614a0b8187616a16565b955060ff198316865260208601935050614a64565b60028204614a2e8187616a16565b9550614a39856168fe565b60005b82811015614a5b57815481890152600182019150602081019050614a3c565b80880195505050505b505092915050565b6000614a79603883616a16565b91507f476f7665726e6f72464953436567613a3a5f736574566f74696e67506572696f60008301527f643a20696e76616c696420766f74696e6720706572696f6400000000000000006020830152604082019050919050565b6000614adf603283616a16565b91507f476f7665726e6f72464953436567613a3a696e697469616c697a653a20696e7660008301527f616c696420766f74696e6720706572696f6400000000000000000000000000006020830152604082019050919050565b6000614b45602883616a27565b91507f42616c6c6f742875696e743235362070726f706f73616c49642c75696e74382060008301527f737570706f7274290000000000000000000000000000000000000000000000006020830152602882019050919050565b6000614bab603583616a16565b91507f476f7665726e6f72464953436567613a3a696e697469616c697a653a20696e7660008301527f616c69642074696d656c6f636b206164647265737300000000000000000000006020830152604082019050919050565b6000614c11603283616a16565b91507f476f7665726e6f72464953436567613a3a696e697469616c697a653a20696e7660008301527f616c6964207346495343206164647265737300000000000000000000000000006020830152604082019050919050565b6000614c77600283616a27565b91507f19010000000000000000000000000000000000000000000000000000000000006000830152600282019050919050565b6000614cb7602b83616a16565b91507f476f7665726e6f72464953436567613a3a73746174653a20696e76616c69642060008301527f70726f706f73616c2069640000000000000000000000000000000000000000006020830152604082019050919050565b6000614d1d603583616a16565b91507f476f7665726e6f72464953436567613a3a70726f706f73653a20476f7665726e60008301527f6f722046495343656761206e6f742061637469766500000000000000000000006020830152604082019050919050565b6000614d83601783616a16565b91507f6d756c7469706c69636174696f6e206f766572666c6f770000000000000000006000830152602082019050919050565b6000614dc3604283616a16565b91507f476f7665726e6f72464953436567613a3a5f73657450726f706f73616c54687260008301527f6573686f6c643a20696e76616c69642070726f706f73616c207468726573686f60208301527f6c640000000000000000000000000000000000000000000000000000000000006040830152606082019050919050565b6000614e4f605b83616a16565b91507f476f7665726e6f72464953436567613a3a70726f706f73653a206f6e65206c6960008301527f76652070726f706f73616c207065722070726f706f7365722c20666f756e642060208301527f616e20616c72656164792070656e64696e672070726f706f73616c00000000006040830152606082019050919050565b6000614edb602c83616a16565b91507f476f7665726e6f72464953436567613a3a5f736574566f74696e6744656c617960008301527f3a2061646d696e206f6e6c7900000000000000000000000000000000000000006020830152604082019050919050565b6000614f41602d83616a16565b91507f476f7665726e6f72464953436567613a3a5f736574566f74696e67506572696f60008301527f643a2061646d696e206f6e6c79000000000000000000000000000000000000006020830152604082019050919050565b6000614fa7603883616a16565b91507f476f7665726e6f72464953436567613a3a63616e63656c3a2063616e6e6f742060008301527f63616e63656c2065786563757465642070726f706f73616c00000000000000006020830152604082019050919050565b600061500d604683616a16565b91507f476f7665726e6f72464953436567613a3a71756575653a2070726f706f73616c60008301527f2063616e206f6e6c79206265207175657565642069662069742069732073756360208301527f63656564656400000000000000000000000000000000000000000000000000006040830152606082019050919050565b6000615099602a83616a16565b91507f476f7665726e6f72464953436567613a3a70726f706f73653a20746f6f206d6160008301527f6e7920616374696f6e73000000000000000000000000000000000000000000006020830152604082019050919050565b60006150ff605a83616a16565b91507f476f7665726e6f72464953436567613a3a70726f706f73653a206f6e65206c6960008301527f76652070726f706f73616c207065722070726f706f7365722c20666f756e642060208301527f616e20616c7265616479206163746976652070726f706f73616c0000000000006040830152606082019050919050565b600061518b602683616a16565b91507f476f7665726e6f72464953436567613a3a5f696e6974696174653a2061646d6960008301527f6e206f6e6c7900000000000000000000000000000000000000000000000000006020830152604082019050919050565b60006151f1604683616a16565b91507f476f7665726e6f72464953436567613a3a70726f706f73653a2070726f706f7360008301527f616c2066756e6374696f6e20696e666f726d6174696f6e206172697479206d6960208301527f736d6174636800000000000000000000000000000000000000000000000000006040830152606082019050919050565b600061527d602883616a16565b91507f20476f7665726e6f72464953436567613a3a696e697469616c697a653a20616460008301527f6d696e206f6e6c790000000000000000000000000000000000000000000000006020830152604082019050919050565b60006152e3603683616a16565b91507f476f7665726e6f72464953436567613a3a5f736574566f74696e6744656c617960008301527f3a20696e76616c696420766f74696e672064656c6179000000000000000000006020830152604082019050919050565b6000615349602e83616a16565b91507f476f7665726e6f72464953436567613a3a70726f706f73653a206d757374207060008301527f726f7669646520616374696f6e730000000000000000000000000000000000006020830152604082019050919050565b60006153af603283616a16565b91507f476f7665726e6f72464953436567613a3a5f696e6974696174653a2063616e2060008301527f6f6e6c7920696e697469617465206f6e636500000000000000000000000000006020830152604082019050919050565b6000615415603483616a16565b91507f476f7665726e6f72464953436567613a3a63617374566f7465496e7465726e6160008301527f6c3a20696e76616c696420766f746520747970650000000000000000000000006020830152604082019050919050565b600061547b601183616a16565b91507f6164646974696f6e206f766572666c6f770000000000000000000000000000006000830152602082019050919050565b60006154bb604383616a27565b91507f454950373132446f6d61696e28737472696e67206e616d652c75696e7432353660008301527f20636861696e49642c6164647265737320766572696679696e67436f6e74726160208301527f63742900000000000000000000000000000000000000000000000000000000006040830152604382019050919050565b6000615547603583616a16565b91507f476f7665726e6f72464953436567613a3a696e697469616c697a653a2063616e60008301527f206f6e6c7920696e697469616c697a65206f6e636500000000000000000000006020830152604082019050919050565b60006155ad603183616a16565b91507f476f7665726e6f72464953436567613a3a696e697469616c697a653a20696e7660008301527f616c696420766f74696e672064656c61790000000000000000000000000000006020830152604082019050919050565b6000615613603183616a16565b91507f476f7665726e6f72464953436567613a3a63617374566f746542795369673a2060008301527f696e76616c6964207369676e61747572650000000000000000000000000000006020830152604082019050919050565b6000615679604183616a16565b91507f476f7665726e6f72464953436567613a3a70726f706f73653a2070726f706f7360008301527f657220766f7465732062656c6f772070726f706f73616c207468726573686f6c60208301527f64000000000000000000000000000000000000000000000000000000000000006040830152606082019050919050565b6000615705603083616a16565b91507f476f7665726e6f72464953436567613a5f61636365707441646d696e3a20706560008301527f6e64696e672061646d696e206f6e6c79000000000000000000000000000000006020830152604082019050919050565b600061576b602c83616a16565b91507f476f7665726e6f72464953436567613a5f73657450656e64696e6741646d696e60008301527f3a2061646d696e206f6e6c7900000000000000000000000000000000000000006020830152604082019050919050565b60006157d1603683616a16565b91507f476f7665726e6f72464953436567613a3a63617374566f7465496e7465726e6160008301527f6c3a20766f74657220616c726561647920766f746564000000000000000000006020830152604082019050919050565b6000615837600083616a16565b9150600082019050919050565b6000615851605783616a16565b91507f476f7665726e6f72464953436567613a3a71756575654f72526576657274496e60008301527f7465726e616c3a206964656e746963616c2070726f706f73616c20616374696f60208301527f6e20616c726561647920717565756564206174206574610000000000000000006040830152606082019050919050565b60006158dd601083616a16565b91507f6469766973696f6e206279207a65726f000000000000000000000000000000006000830152602082019050919050565b600061591d604783616a16565b91507f476f7665726e6f72464953436567613a3a657865637574653a2070726f706f7360008301527f616c2063616e206f6e6c7920626520657865637574656420696620697420697360208301527f20717565756564000000000000000000000000000000000000000000000000006040830152606082019050919050565b60006159a9603183616a16565b91507f476f7665726e6f72464953436567613a3a63616e63656c3a2070726f706f736560008301527f722061626f7665207468726573686f6c640000000000000000000000000000006020830152604082019050919050565b6000615a0f603283616a16565b91507f476f7665726e6f72464953436567613a3a696e697469616c697a653a20696e7660008301527f616c6964206746495343206164647265737300000000000000000000000000006020830152604082019050919050565b6000615a75603783616a16565b91507f476f7665726e6f72464953436567613a3a696e697469616c697a653a20696e7660008301527f616c69642070726f706f73616c207468726573686f6c640000000000000000006020830152604082019050919050565b6000615adb601583616a16565b91507f7375627472616374696f6e20756e646572666c6f7700000000000000000000006000830152602082019050919050565b6000615b1b603283616a16565b91507f476f7665726e6f72464953436567613a3a5f73657450726f706f73616c54687260008301527f6573686f6c643a2061646d696e206f6e6c7900000000000000000000000000006020830152604082019050919050565b6000615b81603383616a16565b91507f476f7665726e6f72464953436567613a3a63617374566f7465496e7465726e6160008301527f6c3a20766f74696e6720697320636c6f736564000000000000000000000000006020830152604082019050919050565b606082016000820151615bf06000850182614784565b506020820151615c036020850182615c3a565b506040820151615c166040850182615c1c565b50505050565b615c2581616a8d565b82525050565b615c3481616a8d565b82525050565b615c4381616a97565b82525050565b615c5281616a97565b82525050565b6000615c6382614b38565b9150819050919050565b6000615c7882614c6a565b9150615c8482856147b1565b602082019150615c9482846147b1565b6020820191508190509392505050565b6000615caf826154ae565b9150819050919050565b6000602082019050615cce60008301846145cf565b92915050565b6000604082019050615ce960008301856145b1565b615cf66020830184615c2b565b9392505050565b6000604082019050615d1260008301856145cf565b615d1f60208301846145cf565b9392505050565b6000604082019050615d3b60008301856145cf565b615d486020830184615c2b565b9392505050565b600060a082019050615d6460008301886145cf565b615d716020830187615c2b565b8181036040830152615d838186614932565b90508181036060830152615d9781856147c8565b9050615da66080830184615c2b565b9695505050505050565b600060a082019050615dc560008301886145cf565b615dd26020830187615c2b565b8181036040830152615de481866149dd565b90508181036060830152615df8818561483a565b9050615e076080830184615c2b565b9695505050505050565b60006080820190508181036000830152615e2b81876145de565b90508181036020830152615e3f8186614726565b90508181036040830152615e5381856146b1565b90508181036060830152615e67818461463c565b905095945050505050565b6000602082019050615e8760008301846147a2565b92915050565b6000608082019050615ea260008301876147a2565b615eaf60208301866147a2565b615ebc6040830185615c2b565b615ec960608301846145cf565b95945050505050565b6000606082019050615ee760008301866147a2565b615ef46020830185615c2b565b615f016040830184615c49565b949350505050565b6000608082019050615f1e60008301876147a2565b615f2b6020830186615c49565b615f3860408301856147a2565b615f4560608301846147a2565b95945050505050565b6000602082019050615f6360008301846148c9565b92915050565b6000602082019050615f7e60008301846148d8565b92915050565b6000602082019050615f9960008301846148e7565b92915050565b6000602082019050615fb460008301846148f6565b92915050565b60006020820190508181036000830152615fd481846149a4565b905092915050565b60006020820190508181036000830152615ff581614a6c565b9050919050565b6000602082019050818103600083015261601581614ad2565b9050919050565b6000602082019050818103600083015261603581614b9e565b9050919050565b6000602082019050818103600083015261605581614c04565b9050919050565b6000602082019050818103600083015261607581614caa565b9050919050565b6000602082019050818103600083015261609581614d10565b9050919050565b600060208201905081810360008301526160b581614d76565b9050919050565b600060208201905081810360008301526160d581614db6565b9050919050565b600060208201905081810360008301526160f581614e42565b9050919050565b6000602082019050818103600083015261611581614ece565b9050919050565b6000602082019050818103600083015261613581614f34565b9050919050565b6000602082019050818103600083015261615581614f9a565b9050919050565b6000602082019050818103600083015261617581615000565b9050919050565b600060208201905081810360008301526161958161508c565b9050919050565b600060208201905081810360008301526161b5816150f2565b9050919050565b600060208201905081810360008301526161d58161517e565b9050919050565b600060208201905081810360008301526161f5816151e4565b9050919050565b6000602082019050818103600083015261621581615270565b9050919050565b60006020820190508181036000830152616235816152d6565b9050919050565b600060208201905081810360008301526162558161533c565b9050919050565b60006020820190508181036000830152616275816153a2565b9050919050565b6000602082019050818103600083015261629581615408565b9050919050565b600060208201905081810360008301526162b58161546e565b9050919050565b600060208201905081810360008301526162d58161553a565b9050919050565b600060208201905081810360008301526162f5816155a0565b9050919050565b6000602082019050818103600083015261631581615606565b9050919050565b600060208201905081810360008301526163358161566c565b9050919050565b60006020820190508181036000830152616355816156f8565b9050919050565b600060208201905081810360008301526163758161575e565b9050919050565b60006020820190508181036000830152616395816157c4565b9050919050565b600060208201905081810360008301526163b581615844565b9050919050565b600060208201905081810360008301526163d5816158d0565b9050919050565b600060208201905081810360008301526163f581615910565b9050919050565b600060208201905081810360008301526164158161599c565b9050919050565b6000602082019050818103600083015261643581615a02565b9050919050565b6000602082019050818103600083015261645581615a68565b9050919050565b6000602082019050818103600083015261647581615ace565b9050919050565b6000602082019050818103600083015261649581615b0e565b9050919050565b600060208201905081810360008301526164b581615b74565b9050919050565b60006060820190506164d16000830184615bda565b92915050565b60006020820190506164ec6000830184615c2b565b92915050565b600061014082019050616508600083018d615c2b565b616515602083018c6145b1565b8181036040830152616527818b6145de565b9050818103606083015261653b818a614726565b9050818103608083015261654f81896146b1565b905081810360a0830152616563818861463c565b905061657260c0830187615c2b565b61657f60e0830186615c2b565b61658d610100830185615c2b565b8181036101208301526165a08184614932565b90509b9a5050505050505050505050565b6000610180820190506165c7600083018f615c2b565b6165d4602083018e6145cf565b6165e1604083018d615c2b565b6165ee606083018c615c2b565b6165fb608083018b615c2b565b61660860a083018a615c2b565b61661560c0830189615c2b565b61662260e0830188615c2b565b616630610100830187615c2b565b61663e610120830186615c2b565b61664c610140830185614793565b61665a610160830184614793565b9d9c50505050505050505050505050565b60006040820190506166806000830185615c2b565b61668d6020830184615c2b565b9392505050565b60006080820190506166a96000830188615c2b565b6166b66020830187615c49565b6166c36040830186615c2b565b81810360608301526166d6818486614905565b90509695505050505050565b60006080820190506166f76000830186615c2b565b6167046020830185615c49565b6167116040830184615c2b565b81810360608301526167228161582a565b9050949350505050565b6000604051905081810181811067ffffffffffffffff8211171561674f57600080fd5b8060405250919050565b600067ffffffffffffffff82111561677057600080fd5b602082029050602081019050919050565b600067ffffffffffffffff82111561679857600080fd5b602082029050602081019050919050565b600067ffffffffffffffff8211156167c057600080fd5b602082029050602081019050919050565b600067ffffffffffffffff8211156167e857600080fd5b602082029050602081019050919050565b600067ffffffffffffffff82111561681057600080fd5b601f19601f8301169050602081019050919050565b600067ffffffffffffffff82111561683c57600080fd5b601f19601f8301169050602081019050919050565b600067ffffffffffffffff82111561686857600080fd5b601f19601f8301169050602081019050919050565b600067ffffffffffffffff82111561689457600080fd5b601f19601f8301169050602081019050919050565b6000819050602082019050919050565b6000819050602082019050919050565b6000819050602082019050919050565b6000819050602082019050919050565b60008190508160005260206000209050919050565b60008190508160005260206000209050919050565b600081519050919050565b600081519050919050565b600081519050919050565b600081519050919050565b600081519050919050565b600081519050919050565b600081519050919050565b600081519050919050565b6000602082019050919050565b6000602082019050919050565b6000602082019050919050565b6000602082019050919050565b600082825260208201905092915050565b600082825260208201905092915050565b600082825260208201905092915050565b600082825260208201905092915050565b600082825260208201905092915050565b600082825260208201905092915050565b600082825260208201905092915050565b600082825260208201905092915050565b600081905092915050565b6000616a3d82616a6d565b9050919050565b60008115159050919050565b6000819050919050565b6000819050616a6882616bb5565b919050565b600073ffffffffffffffffffffffffffffffffffffffff82169050919050565b6000819050919050565b600060ff82169050919050565b6000616aaf82616b34565b9050919050565b6000616ac182616ac8565b9050919050565b6000616ad382616a6d565b9050919050565b6000616ae582616aec565b9050919050565b6000616af782616a6d565b9050919050565b6000616b0982616b10565b9050919050565b6000616b1b82616a6d565b9050919050565b6000616b2d82616a5a565b9050919050565b6000616b3f82616b46565b9050919050565b6000616b5182616a6d565b9050919050565b82818337600083830152505050565b60005b83811015616b85578082015181840152602081019050616b6a565b83811115616b94576000848401525b50505050565b6000819050919050565b6000601f19601f8301169050919050565b60088110616bbf57fe5b50565b616bcb81616a32565b8114616bd657600080fd5b50565b616be281616a44565b8114616bed57600080fd5b50565b616bf981616a50565b8114616c0457600080fd5b50565b616c1081616a8d565b8114616c1b57600080fd5b50565b616c2781616a97565b8114616c3257600080fd5b5056fea365627a7a723158206c3e2c6a01c7a6b950a989ef31c44b4fc18e3160755efd2db228b05249060a5e6c6578706572696d656e74616cf564736f6c63430005100040",
          "opcodes": "PUSH1 0x80 PUSH1 0x40 MSTORE CALLVALUE DUP1 ISZERO PUSH2 0x10 JUMPI PUSH1 0x0 DUP1 REVERT JUMPDEST POP PUSH2 0x6C78 DUP1 PUSH3 0x21 PUSH1 0x0 CODECOPY PUSH1 0x0 RETURN INVALID PUSH1 0x80 PUSH1 0x40 MSTORE PUSH1 0x4 CALLDATASIZE LT PUSH2 0x251 JUMPI PUSH1 0x0 CALLDATALOAD PUSH1 0xE0 SHR DUP1 PUSH4 0x891DF873 GT PUSH2 0x139 JUMPI DUP1 PUSH4 0xDDF0B009 GT PUSH2 0xB6 JUMPI DUP1 PUSH4 0xF7D84293 GT PUSH2 0x7A JUMPI DUP1 PUSH4 0xF7D84293 EQ PUSH2 0x8B4 JUMPI DUP1 PUSH4 0xF81CBD26 EQ PUSH2 0x8F1 JUMPI DUP1 PUSH4 0xF851A440 EQ PUSH2 0x91C JUMPI DUP1 PUSH4 0xF9D28B80 EQ PUSH2 0x947 JUMPI DUP1 PUSH4 0xFC4EEE42 EQ PUSH2 0x970 JUMPI DUP1 PUSH4 0xFE0D94C1 EQ PUSH2 0x99B JUMPI PUSH2 0x251 JUMP JUMPDEST DUP1 PUSH4 0xDDF0B009 EQ PUSH2 0x7E1 JUMPI DUP1 PUSH4 0xDEAAA7CC EQ PUSH2 0x80A JUMPI DUP1 PUSH4 0xE23A9A52 EQ PUSH2 0x835 JUMPI DUP1 PUSH4 0xE48083FE EQ PUSH2 0x872 JUMPI DUP1 PUSH4 0xE9C714F2 EQ PUSH2 0x89D JUMPI PUSH2 0x251 JUMP JUMPDEST DUP1 PUSH4 0xC3B98D07 GT PUSH2 0xFD JUMPI DUP1 PUSH4 0xC3B98D07 EQ PUSH2 0x6F8 JUMPI DUP1 PUSH4 0xD33219B4 EQ PUSH2 0x723 JUMPI DUP1 PUSH4 0xD9BFD805 EQ PUSH2 0x74E JUMPI DUP1 PUSH4 0xDA35C664 EQ PUSH2 0x779 JUMPI DUP1 PUSH4 0xDA95691A EQ PUSH2 0x7A4 JUMPI PUSH2 0x251 JUMP JUMPDEST DUP1 PUSH4 0x891DF873 EQ PUSH2 0x623 JUMPI DUP1 PUSH4 0xA64E024A EQ PUSH2 0x64E JUMPI DUP1 PUSH4 0xB1126263 EQ PUSH2 0x679 JUMPI DUP1 PUSH4 0xB58131B0 EQ PUSH2 0x6A4 JUMPI DUP1 PUSH4 0xB71D1A0C EQ PUSH2 0x6CF JUMPI PUSH2 0x251 JUMP JUMPDEST DUP1 PUSH4 0x328DD982 GT PUSH2 0x1D2 JUMPI DUP1 PUSH4 0x56781388 GT PUSH2 0x196 JUMPI DUP1 PUSH4 0x56781388 EQ PUSH2 0x527 JUMPI DUP1 PUSH4 0x5C60DA1B EQ PUSH2 0x550 JUMPI DUP1 PUSH4 0x6DDD86D9 EQ PUSH2 0x57B JUMPI DUP1 PUSH4 0x728CDBCA EQ PUSH2 0x5A6 JUMPI DUP1 PUSH4 0x7B3C71D3 EQ PUSH2 0x5CF JUMPI DUP1 PUSH4 0x7BDBE4D0 EQ PUSH2 0x5F8 JUMPI PUSH2 0x251 JUMP JUMPDEST DUP1 PUSH4 0x328DD982 EQ PUSH2 0x42D JUMPI DUP1 PUSH4 0x3932ABB1 EQ PUSH2 0x46D JUMPI DUP1 PUSH4 0x3BCCF4FD EQ PUSH2 0x498 JUMPI DUP1 PUSH4 0x3E4F49E6 EQ PUSH2 0x4C1 JUMPI DUP1 PUSH4 0x40E58EE5 EQ PUSH2 0x4FE JUMPI PUSH2 0x251 JUMP JUMPDEST DUP1 PUSH4 0x17BA1B8B GT PUSH2 0x219 JUMPI DUP1 PUSH4 0x17BA1B8B EQ PUSH2 0x35A JUMPI DUP1 PUSH4 0x1DFB1B5A EQ PUSH2 0x383 JUMPI DUP1 PUSH4 0x20606B70 EQ PUSH2 0x3AC JUMPI DUP1 PUSH4 0x215809CA EQ PUSH2 0x3D7 JUMPI DUP1 PUSH4 0x26782247 EQ PUSH2 0x402 JUMPI PUSH2 0x251 JUMP JUMPDEST DUP1 PUSH4 0x13CF08B EQ PUSH2 0x256 JUMPI DUP1 PUSH4 0x2A251A3 EQ PUSH2 0x29E JUMPI DUP1 PUSH4 0x6FDDE03 EQ PUSH2 0x2C9 JUMPI DUP1 PUSH4 0xEA2D98C EQ PUSH2 0x2F4 JUMPI DUP1 PUSH4 0x17977C61 EQ PUSH2 0x31D JUMPI JUMPDEST PUSH1 0x0 DUP1 REVERT JUMPDEST CALLVALUE DUP1 ISZERO PUSH2 0x262 JUMPI PUSH1 0x0 DUP1 REVERT JUMPDEST POP PUSH2 0x27D PUSH1 0x4 DUP1 CALLDATASIZE SUB PUSH2 0x278 SWAP2 SWAP1 DUP2 ADD SWAP1 PUSH2 0x43AC JUMP JUMPDEST PUSH2 0x9B7 JUMP JUMPDEST PUSH1 0x40 MLOAD PUSH2 0x295 SWAP13 SWAP12 SWAP11 SWAP10 SWAP9 SWAP8 SWAP7 SWAP6 SWAP5 SWAP4 SWAP3 SWAP2 SWAP1 PUSH2 0x65B1 JUMP JUMPDEST PUSH1 0x40 MLOAD DUP1 SWAP2 SUB SWAP1 RETURN JUMPDEST CALLVALUE DUP1 ISZERO PUSH2 0x2AA JUMPI PUSH1 0x0 DUP1 REVERT JUMPDEST POP PUSH2 0x2B3 PUSH2 0xA51 JUMP JUMPDEST PUSH1 0x40 MLOAD PUSH2 0x2C0 SWAP2 SWAP1 PUSH2 0x64D7 JUMP JUMPDEST PUSH1 0x40 MLOAD DUP1 SWAP2 SUB SWAP1 RETURN JUMPDEST CALLVALUE DUP1 ISZERO PUSH2 0x2D5 JUMPI PUSH1 0x0 DUP1 REVERT JUMPDEST POP PUSH2 0x2DE PUSH2 0xA57 JUMP JUMPDEST PUSH1 0x40 MLOAD PUSH2 0x2EB SWAP2 SWAP1 PUSH2 0x5FBA JUMP JUMPDEST PUSH1 0x40 MLOAD DUP1 SWAP2 SUB SWAP1 RETURN JUMPDEST CALLVALUE DUP1 ISZERO PUSH2 0x300 JUMPI PUSH1 0x0 DUP1 REVERT JUMPDEST POP PUSH2 0x31B PUSH1 0x4 DUP1 CALLDATASIZE SUB PUSH2 0x316 SWAP2 SWAP1 DUP2 ADD SWAP1 PUSH2 0x43AC JUMP JUMPDEST PUSH2 0xA90 JUMP JUMPDEST STOP JUMPDEST CALLVALUE DUP1 ISZERO PUSH2 0x329 JUMPI PUSH1 0x0 DUP1 REVERT JUMPDEST POP PUSH2 0x344 PUSH1 0x4 DUP1 CALLDATASIZE SUB PUSH2 0x33F SWAP2 SWAP1 DUP2 ADD SWAP1 PUSH2 0x4178 JUMP JUMPDEST PUSH2 0xBC0 JUMP JUMPDEST PUSH1 0x40 MLOAD PUSH2 0x351 SWAP2 SWAP1 PUSH2 0x64D7 JUMP JUMPDEST PUSH1 0x40 MLOAD DUP1 SWAP2 SUB SWAP1 RETURN JUMPDEST CALLVALUE DUP1 ISZERO PUSH2 0x366 JUMPI PUSH1 0x0 DUP1 REVERT JUMPDEST POP PUSH2 0x381 PUSH1 0x4 DUP1 CALLDATASIZE SUB PUSH2 0x37C SWAP2 SWAP1 DUP2 ADD SWAP1 PUSH2 0x43AC JUMP JUMPDEST PUSH2 0xBD8 JUMP JUMPDEST STOP JUMPDEST CALLVALUE DUP1 ISZERO PUSH2 0x38F JUMPI PUSH1 0x0 DUP1 REVERT JUMPDEST POP PUSH2 0x3AA PUSH1 0x4 DUP1 CALLDATASIZE SUB PUSH2 0x3A5 SWAP2 SWAP1 DUP2 ADD SWAP1 PUSH2 0x43AC JUMP JUMPDEST PUSH2 0xD07 JUMP JUMPDEST STOP JUMPDEST CALLVALUE DUP1 ISZERO PUSH2 0x3B8 JUMPI PUSH1 0x0 DUP1 REVERT JUMPDEST POP PUSH2 0x3C1 PUSH2 0xE35 JUMP JUMPDEST PUSH1 0x40 MLOAD PUSH2 0x3CE SWAP2 SWAP1 PUSH2 0x5E72 JUMP JUMPDEST PUSH1 0x40 MLOAD DUP1 SWAP2 SUB SWAP1 RETURN JUMPDEST CALLVALUE DUP1 ISZERO PUSH2 0x3E3 JUMPI PUSH1 0x0 DUP1 REVERT JUMPDEST POP PUSH2 0x3EC PUSH2 0xE4C JUMP JUMPDEST PUSH1 0x40 MLOAD PUSH2 0x3F9 SWAP2 SWAP1 PUSH2 0x64D7 JUMP JUMPDEST PUSH1 0x40 MLOAD DUP1 SWAP2 SUB SWAP1 RETURN JUMPDEST CALLVALUE DUP1 ISZERO PUSH2 0x40E JUMPI PUSH1 0x0 DUP1 REVERT JUMPDEST POP PUSH2 0x417 PUSH2 0xE52 JUMP JUMPDEST PUSH1 0x40 MLOAD PUSH2 0x424 SWAP2 SWAP1 PUSH2 0x5CB9 JUMP JUMPDEST PUSH1 0x40 MLOAD DUP1 SWAP2 SUB SWAP1 RETURN JUMPDEST CALLVALUE DUP1 ISZERO PUSH2 0x439 JUMPI PUSH1 0x0 DUP1 REVERT JUMPDEST POP PUSH2 0x454 PUSH1 0x4 DUP1 CALLDATASIZE SUB PUSH2 0x44F SWAP2 SWAP1 DUP2 ADD SWAP1 PUSH2 0x43AC JUMP JUMPDEST PUSH2 0xE78 JUMP JUMPDEST PUSH1 0x40 MLOAD PUSH2 0x464 SWAP5 SWAP4 SWAP3 SWAP2 SWAP1 PUSH2 0x5E11 JUMP JUMPDEST PUSH1 0x40 MLOAD DUP1 SWAP2 SUB SWAP1 RETURN JUMPDEST CALLVALUE DUP1 ISZERO PUSH2 0x479 JUMPI PUSH1 0x0 DUP1 REVERT JUMPDEST POP PUSH2 0x482 PUSH2 0x1155 JUMP JUMPDEST PUSH1 0x40 MLOAD PUSH2 0x48F SWAP2 SWAP1 PUSH2 0x64D7 JUMP JUMPDEST PUSH1 0x40 MLOAD DUP1 SWAP2 SUB SWAP1 RETURN JUMPDEST CALLVALUE DUP1 ISZERO PUSH2 0x4A4 JUMPI PUSH1 0x0 DUP1 REVERT JUMPDEST POP PUSH2 0x4BF PUSH1 0x4 DUP1 CALLDATASIZE SUB PUSH2 0x4BA SWAP2 SWAP1 DUP2 ADD SWAP1 PUSH2 0x44E2 JUMP JUMPDEST PUSH2 0x115B JUMP JUMPDEST STOP JUMPDEST CALLVALUE DUP1 ISZERO PUSH2 0x4CD JUMPI PUSH1 0x0 DUP1 REVERT JUMPDEST POP PUSH2 0x4E8 PUSH1 0x4 DUP1 CALLDATASIZE SUB PUSH2 0x4E3 SWAP2 SWAP1 DUP2 ADD SWAP1 PUSH2 0x43AC JUMP JUMPDEST PUSH2 0x137B JUMP JUMPDEST PUSH1 0x40 MLOAD PUSH2 0x4F5 SWAP2 SWAP1 PUSH2 0x5F9F JUMP JUMPDEST PUSH1 0x40 MLOAD DUP1 SWAP2 SUB SWAP1 RETURN JUMPDEST CALLVALUE DUP1 ISZERO PUSH2 0x50A JUMPI PUSH1 0x0 DUP1 REVERT JUMPDEST POP PUSH2 0x525 PUSH1 0x4 DUP1 CALLDATASIZE SUB PUSH2 0x520 SWAP2 SWAP1 DUP2 ADD SWAP1 PUSH2 0x43AC JUMP JUMPDEST PUSH2 0x155E JUMP JUMPDEST STOP JUMPDEST CALLVALUE DUP1 ISZERO PUSH2 0x533 JUMPI PUSH1 0x0 DUP1 REVERT JUMPDEST POP PUSH2 0x54E PUSH1 0x4 DUP1 CALLDATASIZE SUB PUSH2 0x549 SWAP2 SWAP1 DUP2 ADD SWAP1 PUSH2 0x443A JUMP JUMPDEST PUSH2 0x18E6 JUMP JUMPDEST STOP JUMPDEST CALLVALUE DUP1 ISZERO PUSH2 0x55C JUMPI PUSH1 0x0 DUP1 REVERT JUMPDEST POP PUSH2 0x565 PUSH2 0x1946 JUMP JUMPDEST PUSH1 0x40 MLOAD PUSH2 0x572 SWAP2 SWAP1 PUSH2 0x5CB9 JUMP JUMPDEST PUSH1 0x40 MLOAD DUP1 SWAP2 SUB SWAP1 RETURN JUMPDEST CALLVALUE DUP1 ISZERO PUSH2 0x587 JUMPI PUSH1 0x0 DUP1 REVERT JUMPDEST POP PUSH2 0x590 PUSH2 0x196C JUMP JUMPDEST PUSH1 0x40 MLOAD PUSH2 0x59D SWAP2 SWAP1 PUSH2 0x5F84 JUMP JUMPDEST PUSH1 0x40 MLOAD DUP1 SWAP2 SUB SWAP1 RETURN JUMPDEST CALLVALUE DUP1 ISZERO PUSH2 0x5B2 JUMPI PUSH1 0x0 DUP1 REVERT JUMPDEST POP PUSH2 0x5CD PUSH1 0x4 DUP1 CALLDATASIZE SUB PUSH2 0x5C8 SWAP2 SWAP1 DUP2 ADD SWAP1 PUSH2 0x41A1 JUMP JUMPDEST PUSH2 0x1992 JUMP JUMPDEST STOP JUMPDEST CALLVALUE DUP1 ISZERO PUSH2 0x5DB JUMPI PUSH1 0x0 DUP1 REVERT JUMPDEST POP PUSH2 0x5F6 PUSH1 0x4 DUP1 CALLDATASIZE SUB PUSH2 0x5F1 SWAP2 SWAP1 DUP2 ADD SWAP1 PUSH2 0x4476 JUMP JUMPDEST PUSH2 0x1DDB JUMP JUMPDEST STOP JUMPDEST CALLVALUE DUP1 ISZERO PUSH2 0x604 JUMPI PUSH1 0x0 DUP1 REVERT JUMPDEST POP PUSH2 0x60D PUSH2 0x1E41 JUMP JUMPDEST PUSH1 0x40 MLOAD PUSH2 0x61A SWAP2 SWAP1 PUSH2 0x64D7 JUMP JUMPDEST PUSH1 0x40 MLOAD DUP1 SWAP2 SUB SWAP1 RETURN JUMPDEST CALLVALUE DUP1 ISZERO PUSH2 0x62F JUMPI PUSH1 0x0 DUP1 REVERT JUMPDEST POP PUSH2 0x638 PUSH2 0x1E46 JUMP JUMPDEST PUSH1 0x40 MLOAD PUSH2 0x645 SWAP2 SWAP1 PUSH2 0x64D7 JUMP JUMPDEST PUSH1 0x40 MLOAD DUP1 SWAP2 SUB SWAP1 RETURN JUMPDEST CALLVALUE DUP1 ISZERO PUSH2 0x65A JUMPI PUSH1 0x0 DUP1 REVERT JUMPDEST POP PUSH2 0x663 PUSH2 0x1E4C JUMP JUMPDEST PUSH1 0x40 MLOAD PUSH2 0x670 SWAP2 SWAP1 PUSH2 0x64D7 JUMP JUMPDEST PUSH1 0x40 MLOAD DUP1 SWAP2 SUB SWAP1 RETURN JUMPDEST CALLVALUE DUP1 ISZERO PUSH2 0x685 JUMPI PUSH1 0x0 DUP1 REVERT JUMPDEST POP PUSH2 0x68E PUSH2 0x1E53 JUMP JUMPDEST PUSH1 0x40 MLOAD PUSH2 0x69B SWAP2 SWAP1 PUSH2 0x64D7 JUMP JUMPDEST PUSH1 0x40 MLOAD DUP1 SWAP2 SUB SWAP1 RETURN JUMPDEST CALLVALUE DUP1 ISZERO PUSH2 0x6B0 JUMPI PUSH1 0x0 DUP1 REVERT JUMPDEST POP PUSH2 0x6B9 PUSH2 0x1E59 JUMP JUMPDEST PUSH1 0x40 MLOAD PUSH2 0x6C6 SWAP2 SWAP1 PUSH2 0x64D7 JUMP JUMPDEST PUSH1 0x40 MLOAD DUP1 SWAP2 SUB SWAP1 RETURN JUMPDEST CALLVALUE DUP1 ISZERO PUSH2 0x6DB JUMPI PUSH1 0x0 DUP1 REVERT JUMPDEST POP PUSH2 0x6F6 PUSH1 0x4 DUP1 CALLDATASIZE SUB PUSH2 0x6F1 SWAP2 SWAP1 DUP2 ADD SWAP1 PUSH2 0x4178 JUMP JUMPDEST PUSH2 0x1E5F JUMP JUMPDEST STOP JUMPDEST CALLVALUE DUP1 ISZERO PUSH2 0x704 JUMPI PUSH1 0x0 DUP1 REVERT JUMPDEST POP PUSH2 0x70D PUSH2 0x1F93 JUMP JUMPDEST PUSH1 0x40 MLOAD PUSH2 0x71A SWAP2 SWAP1 PUSH2 0x64D7 JUMP JUMPDEST PUSH1 0x40 MLOAD DUP1 SWAP2 SUB SWAP1 RETURN JUMPDEST CALLVALUE DUP1 ISZERO PUSH2 0x72F JUMPI PUSH1 0x0 DUP1 REVERT JUMPDEST POP PUSH2 0x738 PUSH2 0x1F99 JUMP JUMPDEST PUSH1 0x40 MLOAD PUSH2 0x745 SWAP2 SWAP1 PUSH2 0x5F4E JUMP JUMPDEST PUSH1 0x40 MLOAD DUP1 SWAP2 SUB SWAP1 RETURN JUMPDEST CALLVALUE DUP1 ISZERO PUSH2 0x75A JUMPI PUSH1 0x0 DUP1 REVERT JUMPDEST POP PUSH2 0x763 PUSH2 0x1FBF JUMP JUMPDEST PUSH1 0x40 MLOAD PUSH2 0x770 SWAP2 SWAP1 PUSH2 0x5F69 JUMP JUMPDEST PUSH1 0x40 MLOAD DUP1 SWAP2 SUB SWAP1 RETURN JUMPDEST CALLVALUE DUP1 ISZERO PUSH2 0x785 JUMPI PUSH1 0x0 DUP1 REVERT JUMPDEST POP PUSH2 0x78E PUSH2 0x1FE5 JUMP JUMPDEST PUSH1 0x40 MLOAD PUSH2 0x79B SWAP2 SWAP1 PUSH2 0x64D7 JUMP JUMPDEST PUSH1 0x40 MLOAD DUP1 SWAP2 SUB SWAP1 RETURN JUMPDEST CALLVALUE DUP1 ISZERO PUSH2 0x7B0 JUMPI PUSH1 0x0 DUP1 REVERT JUMPDEST POP PUSH2 0x7CB PUSH1 0x4 DUP1 CALLDATASIZE SUB PUSH2 0x7C6 SWAP2 SWAP1 DUP2 ADD SWAP1 PUSH2 0x422A JUMP JUMPDEST PUSH2 0x1FEB JUMP JUMPDEST PUSH1 0x40 MLOAD PUSH2 0x7D8 SWAP2 SWAP1 PUSH2 0x64D7 JUMP JUMPDEST PUSH1 0x40 MLOAD DUP1 SWAP2 SUB SWAP1 RETURN JUMPDEST CALLVALUE DUP1 ISZERO PUSH2 0x7ED JUMPI PUSH1 0x0 DUP1 REVERT JUMPDEST POP PUSH2 0x808 PUSH1 0x4 DUP1 CALLDATASIZE SUB PUSH2 0x803 SWAP2 SWAP1 DUP2 ADD SWAP1 PUSH2 0x43AC JUMP JUMPDEST PUSH2 0x2631 JUMP JUMPDEST STOP JUMPDEST CALLVALUE DUP1 ISZERO PUSH2 0x816 JUMPI PUSH1 0x0 DUP1 REVERT JUMPDEST POP PUSH2 0x81F PUSH2 0x2981 JUMP JUMPDEST PUSH1 0x40 MLOAD PUSH2 0x82C SWAP2 SWAP1 PUSH2 0x5E72 JUMP JUMPDEST PUSH1 0x40 MLOAD DUP1 SWAP2 SUB SWAP1 RETURN JUMPDEST CALLVALUE DUP1 ISZERO PUSH2 0x841 JUMPI PUSH1 0x0 DUP1 REVERT JUMPDEST POP PUSH2 0x85C PUSH1 0x4 DUP1 CALLDATASIZE SUB PUSH2 0x857 SWAP2 SWAP1 DUP2 ADD SWAP1 PUSH2 0x43FE JUMP JUMPDEST PUSH2 0x2998 JUMP JUMPDEST PUSH1 0x40 MLOAD PUSH2 0x869 SWAP2 SWAP1 PUSH2 0x64BC JUMP JUMPDEST PUSH1 0x40 MLOAD DUP1 SWAP2 SUB SWAP1 RETURN JUMPDEST CALLVALUE DUP1 ISZERO PUSH2 0x87E JUMPI PUSH1 0x0 DUP1 REVERT JUMPDEST POP PUSH2 0x887 PUSH2 0x2A48 JUMP JUMPDEST PUSH1 0x40 MLOAD PUSH2 0x894 SWAP2 SWAP1 PUSH2 0x64D7 JUMP JUMPDEST PUSH1 0x40 MLOAD DUP1 SWAP2 SUB SWAP1 RETURN JUMPDEST CALLVALUE DUP1 ISZERO PUSH2 0x8A9 JUMPI PUSH1 0x0 DUP1 REVERT JUMPDEST POP PUSH2 0x8B2 PUSH2 0x2A4D JUMP JUMPDEST STOP JUMPDEST CALLVALUE DUP1 ISZERO PUSH2 0x8C0 JUMPI PUSH1 0x0 DUP1 REVERT JUMPDEST POP PUSH2 0x8DB PUSH1 0x4 DUP1 CALLDATASIZE SUB PUSH2 0x8D6 SWAP2 SWAP1 DUP2 ADD SWAP1 PUSH2 0x43AC JUMP JUMPDEST PUSH2 0x2CC0 JUMP JUMPDEST PUSH1 0x40 MLOAD PUSH2 0x8E8 SWAP2 SWAP1 PUSH2 0x64D7 JUMP JUMPDEST PUSH1 0x40 MLOAD DUP1 SWAP2 SUB SWAP1 RETURN JUMPDEST CALLVALUE DUP1 ISZERO PUSH2 0x8FD JUMPI PUSH1 0x0 DUP1 REVERT JUMPDEST POP PUSH2 0x906 PUSH2 0x2E28 JUMP JUMPDEST PUSH1 0x40 MLOAD PUSH2 0x913 SWAP2 SWAP1 PUSH2 0x64D7 JUMP JUMPDEST PUSH1 0x40 MLOAD DUP1 SWAP2 SUB SWAP1 RETURN JUMPDEST CALLVALUE DUP1 ISZERO PUSH2 0x928 JUMPI PUSH1 0x0 DUP1 REVERT JUMPDEST POP PUSH2 0x931 PUSH2 0x2E2E JUMP JUMPDEST PUSH1 0x40 MLOAD PUSH2 0x93E SWAP2 SWAP1 PUSH2 0x5CB9 JUMP JUMPDEST PUSH1 0x40 MLOAD DUP1 SWAP2 SUB SWAP1 RETURN JUMPDEST CALLVALUE DUP1 ISZERO PUSH2 0x953 JUMPI PUSH1 0x0 DUP1 REVERT JUMPDEST POP PUSH2 0x96E PUSH1 0x4 DUP1 CALLDATASIZE SUB PUSH2 0x969 SWAP2 SWAP1 DUP2 ADD SWAP1 PUSH2 0x4178 JUMP JUMPDEST PUSH2 0x2E53 JUMP JUMPDEST STOP JUMPDEST CALLVALUE DUP1 ISZERO PUSH2 0x97C JUMPI PUSH1 0x0 DUP1 REVERT JUMPDEST POP PUSH2 0x985 PUSH2 0x303B JUMP JUMPDEST PUSH1 0x40 MLOAD PUSH2 0x992 SWAP2 SWAP1 PUSH2 0x64D7 JUMP JUMPDEST PUSH1 0x40 MLOAD DUP1 SWAP2 SUB SWAP1 RETURN JUMPDEST PUSH2 0x9B5 PUSH1 0x4 DUP1 CALLDATASIZE SUB PUSH2 0x9B0 SWAP2 SWAP1 DUP2 ADD SWAP1 PUSH2 0x43AC JUMP JUMPDEST PUSH2 0x3041 JUMP JUMPDEST STOP JUMPDEST PUSH1 0xB PUSH1 0x20 MSTORE DUP1 PUSH1 0x0 MSTORE PUSH1 0x40 PUSH1 0x0 KECCAK256 PUSH1 0x0 SWAP2 POP SWAP1 POP DUP1 PUSH1 0x0 ADD SLOAD SWAP1 DUP1 PUSH1 0x1 ADD PUSH1 0x0 SWAP1 SLOAD SWAP1 PUSH2 0x100 EXP SWAP1 DIV PUSH20 0xFFFFFFFFFFFFFFFFFFFFFFFFFFFFFFFFFFFFFFFF AND SWAP1 DUP1 PUSH1 0x2 ADD SLOAD SWAP1 DUP1 PUSH1 0x7 ADD SLOAD SWAP1 DUP1 PUSH1 0x8 ADD SLOAD SWAP1 DUP1 PUSH1 0x9 ADD SLOAD SWAP1 DUP1 PUSH1 0xA ADD SLOAD SWAP1 DUP1 PUSH1 0xB ADD SLOAD SWAP1 DUP1 PUSH1 0xC ADD SLOAD SWAP1 DUP1 PUSH1 0xD ADD SLOAD SWAP1 DUP1 PUSH1 0xE ADD PUSH1 0x0 SWAP1 SLOAD SWAP1 PUSH2 0x100 EXP SWAP1 DIV PUSH1 0xFF AND SWAP1 DUP1 PUSH1 0xE ADD PUSH1 0x1 SWAP1 SLOAD SWAP1 PUSH2 0x100 EXP SWAP1 DIV PUSH1 0xFF AND SWAP1 POP DUP13 JUMP JUMPDEST PUSH1 0x4 SLOAD DUP2 JUMP JUMPDEST PUSH1 0x40 MLOAD DUP1 PUSH1 0x40 ADD PUSH1 0x40 MSTORE DUP1 PUSH1 0x15 DUP2 MSTORE PUSH1 0x20 ADD PUSH32 0x4649534320476F7665726E6F7220464953436567610000000000000000000000 DUP2 MSTORE POP DUP2 JUMP JUMPDEST PUSH1 0x0 DUP1 SWAP1 SLOAD SWAP1 PUSH2 0x100 EXP SWAP1 DIV PUSH20 0xFFFFFFFFFFFFFFFFFFFFFFFFFFFFFFFFFFFFFFFF AND PUSH20 0xFFFFFFFFFFFFFFFFFFFFFFFFFFFFFFFFFFFFFFFF AND CALLER PUSH20 0xFFFFFFFFFFFFFFFFFFFFFFFFFFFFFFFFFFFFFFFF AND EQ PUSH2 0xB1F JUMPI PUSH1 0x40 MLOAD PUSH32 0x8C379A000000000000000000000000000000000000000000000000000000000 DUP2 MSTORE PUSH1 0x4 ADD PUSH2 0xB16 SWAP1 PUSH2 0x611C JUMP JUMPDEST PUSH1 0x40 MLOAD DUP1 SWAP2 SUB SWAP1 REVERT JUMPDEST PUSH2 0x1680 DUP2 LT ISZERO DUP1 ISZERO PUSH2 0xB34 JUMPI POP PUSH3 0x13B00 DUP2 GT ISZERO JUMPDEST PUSH2 0xB73 JUMPI PUSH1 0x40 MLOAD PUSH32 0x8C379A000000000000000000000000000000000000000000000000000000000 DUP2 MSTORE PUSH1 0x4 ADD PUSH2 0xB6A SWAP1 PUSH2 0x5FDC JUMP JUMPDEST PUSH1 0x40 MLOAD DUP1 SWAP2 SUB SWAP1 REVERT JUMPDEST PUSH1 0x0 PUSH1 0x4 SLOAD SWAP1 POP DUP2 PUSH1 0x4 DUP2 SWAP1 SSTORE POP PUSH32 0x7E3F7F0708A84DE9203036ABAA450DCCC85AD5FF52F78C170F3EDB55CF5E8828 DUP2 PUSH1 0x4 SLOAD PUSH1 0x40 MLOAD PUSH2 0xBB4 SWAP3 SWAP2 SWAP1 PUSH2 0x666B JUMP JUMPDEST PUSH1 0x40 MLOAD DUP1 SWAP2 SUB SWAP1 LOG1 POP POP JUMP JUMPDEST PUSH1 0xC PUSH1 0x20 MSTORE DUP1 PUSH1 0x0 MSTORE PUSH1 0x40 PUSH1 0x0 KECCAK256 PUSH1 0x0 SWAP2 POP SWAP1 POP SLOAD DUP2 JUMP JUMPDEST PUSH1 0x0 DUP1 SWAP1 SLOAD SWAP1 PUSH2 0x100 EXP SWAP1 DIV PUSH20 0xFFFFFFFFFFFFFFFFFFFFFFFFFFFFFFFFFFFFFFFF AND PUSH20 0xFFFFFFFFFFFFFFFFFFFFFFFFFFFFFFFFFFFFFFFF AND CALLER PUSH20 0xFFFFFFFFFFFFFFFFFFFFFFFFFFFFFFFFFFFFFFFF AND EQ PUSH2 0xC67 JUMPI PUSH1 0x40 MLOAD PUSH32 0x8C379A000000000000000000000000000000000000000000000000000000000 DUP2 MSTORE PUSH1 0x4 ADD PUSH2 0xC5E SWAP1 PUSH2 0x647C JUMP JUMPDEST PUSH1 0x40 MLOAD DUP1 SWAP2 SUB SWAP1 REVERT JUMPDEST PUSH2 0x1388 DUP2 LT ISZERO DUP1 ISZERO PUSH2 0xC7B JUMPI POP PUSH2 0x2710 DUP2 GT ISZERO JUMPDEST PUSH2 0xCBA JUMPI PUSH1 0x40 MLOAD PUSH32 0x8C379A000000000000000000000000000000000000000000000000000000000 DUP2 MSTORE PUSH1 0x4 ADD PUSH2 0xCB1 SWAP1 PUSH2 0x60BC JUMP JUMPDEST PUSH1 0x40 MLOAD DUP1 SWAP2 SUB SWAP1 REVERT JUMPDEST PUSH1 0x0 PUSH1 0x5 SLOAD SWAP1 POP DUP2 PUSH1 0x5 DUP2 SWAP1 SSTORE POP PUSH32 0xCCB45DA8D5717E6C4544694297C4BA5CF151D455C9BB0ED4FC7A38411BC05461 DUP2 PUSH1 0x5 SLOAD PUSH1 0x40 MLOAD PUSH2 0xCFB SWAP3 SWAP2 SWAP1 PUSH2 0x666B JUMP JUMPDEST PUSH1 0x40 MLOAD DUP1 SWAP2 SUB SWAP1 LOG1 POP POP JUMP JUMPDEST PUSH1 0x0 DUP1 SWAP1 SLOAD SWAP1 PUSH2 0x100 EXP SWAP1 DIV PUSH20 0xFFFFFFFFFFFFFFFFFFFFFFFFFFFFFFFFFFFFFFFF AND PUSH20 0xFFFFFFFFFFFFFFFFFFFFFFFFFFFFFFFFFFFFFFFF AND CALLER PUSH20 0xFFFFFFFFFFFFFFFFFFFFFFFFFFFFFFFFFFFFFFFF AND EQ PUSH2 0xD96 JUMPI PUSH1 0x40 MLOAD PUSH32 0x8C379A000000000000000000000000000000000000000000000000000000000 DUP2 MSTORE PUSH1 0x4 ADD PUSH2 0xD8D SWAP1 PUSH2 0x60FC JUMP JUMPDEST PUSH1 0x40 MLOAD DUP1 SWAP2 SUB SWAP1 REVERT JUMPDEST PUSH1 0x1 DUP2 LT ISZERO DUP1 ISZERO PUSH2 0xDA9 JUMPI POP PUSH2 0x9D80 DUP2 GT ISZERO JUMPDEST PUSH2 0xDE8 JUMPI PUSH1 0x40 MLOAD PUSH32 0x8C379A000000000000000000000000000000000000000000000000000000000 DUP2 MSTORE PUSH1 0x4 ADD PUSH2 0xDDF SWAP1 PUSH2 0x621C JUMP JUMPDEST PUSH1 0x40 MLOAD DUP1 SWAP2 SUB SWAP1 REVERT JUMPDEST PUSH1 0x0 PUSH1 0x3 SLOAD SWAP1 POP DUP2 PUSH1 0x3 DUP2 SWAP1 SSTORE POP PUSH32 0xC565B045403DC03C2EEA82B81A0465EDAD9E2E7FC4D97E11421C209DA93D7A93 DUP2 PUSH1 0x3 SLOAD PUSH1 0x40 MLOAD PUSH2 0xE29 SWAP3 SWAP2 SWAP1 PUSH2 0x666B JUMP JUMPDEST PUSH1 0x40 MLOAD DUP1 SWAP2 SUB SWAP1 LOG1 POP POP JUMP JUMPDEST PUSH1 0x40 MLOAD PUSH2 0xE41 SWAP1 PUSH2 0x5CA4 JUMP JUMPDEST PUSH1 0x40 MLOAD DUP1 SWAP2 SUB SWAP1 KECCAK256 DUP2 JUMP JUMPDEST PUSH2 0x1680 DUP2 JUMP JUMPDEST PUSH1 0x1 PUSH1 0x0 SWAP1 SLOAD SWAP1 PUSH2 0x100 EXP SWAP1 DIV PUSH20 0xFFFFFFFFFFFFFFFFFFFFFFFFFFFFFFFFFFFFFFFF AND DUP2 JUMP JUMPDEST PUSH1 0x60 DUP1 PUSH1 0x60 DUP1 PUSH1 0x0 PUSH1 0xB PUSH1 0x0 DUP8 DUP2 MSTORE PUSH1 0x20 ADD SWAP1 DUP2 MSTORE PUSH1 0x20 ADD PUSH1 0x0 KECCAK256 SWAP1 POP DUP1 PUSH1 0x3 ADD DUP2 PUSH1 0x4 ADD DUP3 PUSH1 0x5 ADD DUP4 PUSH1 0x6 ADD DUP4 DUP1 SLOAD DUP1 PUSH1 0x20 MUL PUSH1 0x20 ADD PUSH1 0x40 MLOAD SWAP1 DUP2 ADD PUSH1 0x40 MSTORE DUP1 SWAP3 SWAP2 SWAP1 DUP2 DUP2 MSTORE PUSH1 0x20 ADD DUP3 DUP1 SLOAD DUP1 ISZERO PUSH2 0xF26 JUMPI PUSH1 0x20 MUL DUP3 ADD SWAP2 SWAP1 PUSH1 0x0 MSTORE PUSH1 0x20 PUSH1 0x0 KECCAK256 SWAP1 JUMPDEST DUP2 PUSH1 0x0 SWAP1 SLOAD SWAP1 PUSH2 0x100 EXP SWAP1 DIV PUSH20 0xFFFFFFFFFFFFFFFFFFFFFFFFFFFFFFFFFFFFFFFF AND PUSH20 0xFFFFFFFFFFFFFFFFFFFFFFFFFFFFFFFFFFFFFFFF AND DUP2 MSTORE PUSH1 0x20 ADD SWAP1 PUSH1 0x1 ADD SWAP1 DUP1 DUP4 GT PUSH2 0xEDC JUMPI JUMPDEST POP POP POP POP POP SWAP4 POP DUP3 DUP1 SLOAD DUP1 PUSH1 0x20 MUL PUSH1 0x20 ADD PUSH1 0x40 MLOAD SWAP1 DUP2 ADD PUSH1 0x40 MSTORE DUP1 SWAP3 SWAP2 SWAP1 DUP2 DUP2 MSTORE PUSH1 0x20 ADD DUP3 DUP1 SLOAD DUP1 ISZERO PUSH2 0xF78 JUMPI PUSH1 0x20 MUL DUP3 ADD SWAP2 SWAP1 PUSH1 0x0 MSTORE PUSH1 0x20 PUSH1 0x0 KECCAK256 SWAP1 JUMPDEST DUP2 SLOAD DUP2 MSTORE PUSH1 0x20 ADD SWAP1 PUSH1 0x1 ADD SWAP1 DUP1 DUP4 GT PUSH2 0xF64 JUMPI JUMPDEST POP POP POP POP POP SWAP3 POP DUP2 DUP1 SLOAD DUP1 PUSH1 0x20 MUL PUSH1 0x20 ADD PUSH1 0x40 MLOAD SWAP1 DUP2 ADD PUSH1 0x40 MSTORE DUP1 SWAP3 SWAP2 SWAP1 DUP2 DUP2 MSTORE PUSH1 0x20 ADD PUSH1 0x0 SWAP1 JUMPDEST DUP3 DUP3 LT ISZERO PUSH2 0x105C JUMPI DUP4 DUP3 SWAP1 PUSH1 0x0 MSTORE PUSH1 0x20 PUSH1 0x0 KECCAK256 ADD DUP1 SLOAD PUSH1 0x1 DUP2 PUSH1 0x1 AND ISZERO PUSH2 0x100 MUL SUB AND PUSH1 0x2 SWAP1 DIV DUP1 PUSH1 0x1F ADD PUSH1 0x20 DUP1 SWAP2 DIV MUL PUSH1 0x20 ADD PUSH1 0x40 MLOAD SWAP1 DUP2 ADD PUSH1 0x40 MSTORE DUP1 SWAP3 SWAP2 SWAP1 DUP2 DUP2 MSTORE PUSH1 0x20 ADD DUP3 DUP1 SLOAD PUSH1 0x1 DUP2 PUSH1 0x1 AND ISZERO PUSH2 0x100 MUL SUB AND PUSH1 0x2 SWAP1 DIV DUP1 ISZERO PUSH2 0x1048 JUMPI DUP1 PUSH1 0x1F LT PUSH2 0x101D JUMPI PUSH2 0x100 DUP1 DUP4 SLOAD DIV MUL DUP4 MSTORE SWAP2 PUSH1 0x20 ADD SWAP2 PUSH2 0x1048 JUMP JUMPDEST DUP3 ADD SWAP2 SWAP1 PUSH1 0x0 MSTORE PUSH1 0x20 PUSH1 0x0 KECCAK256 SWAP1 JUMPDEST DUP2 SLOAD DUP2 MSTORE SWAP1 PUSH1 0x1 ADD SWAP1 PUSH1 0x20 ADD DUP1 DUP4 GT PUSH2 0x102B JUMPI DUP3 SWAP1 SUB PUSH1 0x1F AND DUP3 ADD SWAP2 JUMPDEST POP POP POP POP POP DUP2 MSTORE PUSH1 0x20 ADD SWAP1 PUSH1 0x1 ADD SWAP1 PUSH2 0xFA0 JUMP JUMPDEST POP POP POP POP SWAP2 POP DUP1 DUP1 SLOAD DUP1 PUSH1 0x20 MUL PUSH1 0x20 ADD PUSH1 0x40 MLOAD SWAP1 DUP2 ADD PUSH1 0x40 MSTORE DUP1 SWAP3 SWAP2 SWAP1 DUP2 DUP2 MSTORE PUSH1 0x20 ADD PUSH1 0x0 SWAP1 JUMPDEST DUP3 DUP3 LT ISZERO PUSH2 0x113F JUMPI DUP4 DUP3 SWAP1 PUSH1 0x0 MSTORE PUSH1 0x20 PUSH1 0x0 KECCAK256 ADD DUP1 SLOAD PUSH1 0x1 DUP2 PUSH1 0x1 AND ISZERO PUSH2 0x100 MUL SUB AND PUSH1 0x2 SWAP1 DIV DUP1 PUSH1 0x1F ADD PUSH1 0x20 DUP1 SWAP2 DIV MUL PUSH1 0x20 ADD PUSH1 0x40 MLOAD SWAP1 DUP2 ADD PUSH1 0x40 MSTORE DUP1 SWAP3 SWAP2 SWAP1 DUP2 DUP2 MSTORE PUSH1 0x20 ADD DUP3 DUP1 SLOAD PUSH1 0x1 DUP2 PUSH1 0x1 AND ISZERO PUSH2 0x100 MUL SUB AND PUSH1 0x2 SWAP1 DIV DUP1 ISZERO PUSH2 0x112B JUMPI DUP1 PUSH1 0x1F LT PUSH2 0x1100 JUMPI PUSH2 0x100 DUP1 DUP4 SLOAD DIV MUL DUP4 MSTORE SWAP2 PUSH1 0x20 ADD SWAP2 PUSH2 0x112B JUMP JUMPDEST DUP3 ADD SWAP2 SWAP1 PUSH1 0x0 MSTORE PUSH1 0x20 PUSH1 0x0 KECCAK256 SWAP1 JUMPDEST DUP2 SLOAD DUP2 MSTORE SWAP1 PUSH1 0x1 ADD SWAP1 PUSH1 0x20 ADD DUP1 DUP4 GT PUSH2 0x110E JUMPI DUP3 SWAP1 SUB PUSH1 0x1F AND DUP3 ADD SWAP2 JUMPDEST POP POP POP POP POP DUP2 MSTORE PUSH1 0x20 ADD SWAP1 PUSH1 0x1 ADD SWAP1 PUSH2 0x1083 JUMP JUMPDEST POP POP POP POP SWAP1 POP SWAP5 POP SWAP5 POP SWAP5 POP SWAP5 POP POP SWAP2 SWAP4 POP SWAP2 SWAP4 JUMP JUMPDEST PUSH1 0x3 SLOAD DUP2 JUMP JUMPDEST PUSH1 0x0 PUSH1 0x40 MLOAD PUSH2 0x1169 SWAP1 PUSH2 0x5CA4 JUMP JUMPDEST PUSH1 0x40 MLOAD DUP1 SWAP2 SUB SWAP1 KECCAK256 PUSH1 0x40 MLOAD DUP1 PUSH1 0x40 ADD PUSH1 0x40 MSTORE DUP1 PUSH1 0x15 DUP2 MSTORE PUSH1 0x20 ADD PUSH32 0x4649534320476F7665726E6F7220464953436567610000000000000000000000 DUP2 MSTORE POP DUP1 MLOAD SWAP1 PUSH1 0x20 ADD KECCAK256 PUSH2 0x11B6 PUSH2 0x328F JUMP JUMPDEST ADDRESS PUSH1 0x40 MLOAD PUSH1 0x20 ADD PUSH2 0x11CA SWAP5 SWAP4 SWAP3 SWAP2 SWAP1 PUSH2 0x5E8D JUMP JUMPDEST PUSH1 0x40 MLOAD PUSH1 0x20 DUP2 DUP4 SUB SUB DUP2 MSTORE SWAP1 PUSH1 0x40 MSTORE DUP1 MLOAD SWAP1 PUSH1 0x20 ADD KECCAK256 SWAP1 POP PUSH1 0x0 PUSH1 0x40 MLOAD PUSH2 0x11F0 SWAP1 PUSH2 0x5C58 JUMP JUMPDEST PUSH1 0x40 MLOAD DUP1 SWAP2 SUB SWAP1 KECCAK256 DUP8 DUP8 PUSH1 0x40 MLOAD PUSH1 0x20 ADD PUSH2 0x120C SWAP4 SWAP3 SWAP2 SWAP1 PUSH2 0x5ED2 JUMP JUMPDEST PUSH1 0x40 MLOAD PUSH1 0x20 DUP2 DUP4 SUB SUB DUP2 MSTORE SWAP1 PUSH1 0x40 MSTORE DUP1 MLOAD SWAP1 PUSH1 0x20 ADD KECCAK256 SWAP1 POP PUSH1 0x0 DUP3 DUP3 PUSH1 0x40 MLOAD PUSH1 0x20 ADD PUSH2 0x1239 SWAP3 SWAP2 SWAP1 PUSH2 0x5C6D JUMP JUMPDEST PUSH1 0x40 MLOAD PUSH1 0x20 DUP2 DUP4 SUB SUB DUP2 MSTORE SWAP1 PUSH1 0x40 MSTORE DUP1 MLOAD SWAP1 PUSH1 0x20 ADD KECCAK256 SWAP1 POP PUSH1 0x0 PUSH1 0x1 DUP3 DUP9 DUP9 DUP9 PUSH1 0x40 MLOAD PUSH1 0x0 DUP2 MSTORE PUSH1 0x20 ADD PUSH1 0x40 MSTORE PUSH1 0x40 MLOAD PUSH2 0x1276 SWAP5 SWAP4 SWAP3 SWAP2 SWAP1 PUSH2 0x5F09 JUMP JUMPDEST PUSH1 0x20 PUSH1 0x40 MLOAD PUSH1 0x20 DUP2 SUB SWAP1 DUP1 DUP5 SUB SWAP1 DUP6 GAS STATICCALL ISZERO DUP1 ISZERO PUSH2 0x1298 JUMPI RETURNDATASIZE PUSH1 0x0 DUP1 RETURNDATACOPY RETURNDATASIZE PUSH1 0x0 REVERT JUMPDEST POP POP POP PUSH1 0x20 PUSH1 0x40 MLOAD SUB MLOAD SWAP1 POP PUSH1 0x0 PUSH20 0xFFFFFFFFFFFFFFFFFFFFFFFFFFFFFFFFFFFFFFFF AND DUP2 PUSH20 0xFFFFFFFFFFFFFFFFFFFFFFFFFFFFFFFFFFFFFFFF AND EQ ISZERO PUSH2 0x1314 JUMPI PUSH1 0x40 MLOAD PUSH32 0x8C379A000000000000000000000000000000000000000000000000000000000 DUP2 MSTORE PUSH1 0x4 ADD PUSH2 0x130B SWAP1 PUSH2 0x62FC JUMP JUMPDEST PUSH1 0x40 MLOAD DUP1 SWAP2 SUB SWAP1 REVERT JUMPDEST DUP1 PUSH20 0xFFFFFFFFFFFFFFFFFFFFFFFFFFFFFFFFFFFFFFFF AND PUSH32 0xB8E138887D0AA13BAB447E82DE9D5C1777041ECD21CA36BA824FF1E6C07DDDA4 DUP11 DUP11 PUSH2 0x1359 DUP6 DUP15 DUP15 PUSH2 0x329C JUMP JUMPDEST PUSH1 0x40 MLOAD PUSH2 0x1368 SWAP4 SWAP3 SWAP2 SWAP1 PUSH2 0x66E2 JUMP JUMPDEST PUSH1 0x40 MLOAD DUP1 SWAP2 SUB SWAP1 LOG2 POP POP POP POP POP POP POP POP POP JUMP JUMPDEST PUSH1 0x0 DUP2 PUSH1 0x7 SLOAD LT ISZERO DUP1 ISZERO PUSH2 0x1390 JUMPI POP PUSH1 0x6 SLOAD DUP3 GT JUMPDEST PUSH2 0x13CF JUMPI PUSH1 0x40 MLOAD PUSH32 0x8C379A000000000000000000000000000000000000000000000000000000000 DUP2 MSTORE PUSH1 0x4 ADD PUSH2 0x13C6 SWAP1 PUSH2 0x605C JUMP JUMPDEST PUSH1 0x40 MLOAD DUP1 SWAP2 SUB SWAP1 REVERT JUMPDEST PUSH1 0x0 PUSH1 0xB PUSH1 0x0 DUP5 DUP2 MSTORE PUSH1 0x20 ADD SWAP1 DUP2 MSTORE PUSH1 0x20 ADD PUSH1 0x0 KECCAK256 SWAP1 POP DUP1 PUSH1 0xE ADD PUSH1 0x0 SWAP1 SLOAD SWAP1 PUSH2 0x100 EXP SWAP1 DIV PUSH1 0xFF AND ISZERO PUSH2 0x1407 JUMPI PUSH1 0x2 SWAP2 POP POP PUSH2 0x1559 JUMP JUMPDEST DUP1 PUSH1 0x7 ADD SLOAD NUMBER GT PUSH2 0x141C JUMPI PUSH1 0x0 SWAP2 POP POP PUSH2 0x1559 JUMP JUMPDEST DUP1 PUSH1 0x8 ADD SLOAD NUMBER GT PUSH2 0x1431 JUMPI PUSH1 0x1 SWAP2 POP POP PUSH2 0x1559 JUMP JUMPDEST DUP1 PUSH1 0xA ADD SLOAD DUP2 PUSH1 0x9 ADD SLOAD GT ISZERO DUP1 PUSH2 0x144F JUMPI POP DUP1 PUSH1 0xD ADD SLOAD DUP2 PUSH1 0x9 ADD SLOAD LT JUMPDEST ISZERO PUSH2 0x145E JUMPI PUSH1 0x3 SWAP2 POP POP PUSH2 0x1559 JUMP JUMPDEST PUSH1 0x0 DUP2 PUSH1 0x2 ADD SLOAD EQ ISZERO PUSH2 0x1475 JUMPI PUSH1 0x4 SWAP2 POP POP PUSH2 0x1559 JUMP JUMPDEST DUP1 PUSH1 0xE ADD PUSH1 0x1 SWAP1 SLOAD SWAP1 PUSH2 0x100 EXP SWAP1 DIV PUSH1 0xFF AND ISZERO PUSH2 0x1496 JUMPI PUSH1 0x7 SWAP2 POP POP PUSH2 0x1559 JUMP JUMPDEST PUSH2 0x1543 DUP2 PUSH1 0x2 ADD SLOAD PUSH1 0x8 PUSH1 0x0 SWAP1 SLOAD SWAP1 PUSH2 0x100 EXP SWAP1 DIV PUSH20 0xFFFFFFFFFFFFFFFFFFFFFFFFFFFFFFFFFFFFFFFF AND PUSH20 0xFFFFFFFFFFFFFFFFFFFFFFFFFFFFFFFFFFFFFFFF AND PUSH4 0xC1A287E2 PUSH1 0x40 MLOAD DUP2 PUSH4 0xFFFFFFFF AND PUSH1 0xE0 SHL DUP2 MSTORE PUSH1 0x4 ADD PUSH1 0x20 PUSH1 0x40 MLOAD DUP1 DUP4 SUB DUP2 DUP7 DUP1 EXTCODESIZE ISZERO DUP1 ISZERO PUSH2 0x1506 JUMPI PUSH1 0x0 DUP1 REVERT JUMPDEST POP GAS STATICCALL ISZERO DUP1 ISZERO PUSH2 0x151A JUMPI RETURNDATASIZE PUSH1 0x0 DUP1 RETURNDATACOPY RETURNDATASIZE PUSH1 0x0 REVERT JUMPDEST POP POP POP POP PUSH1 0x40 MLOAD RETURNDATASIZE PUSH1 0x1F NOT PUSH1 0x1F DUP3 ADD AND DUP3 ADD DUP1 PUSH1 0x40 MSTORE POP PUSH2 0x153E SWAP2 SWAP1 DUP2 ADD SWAP1 PUSH2 0x43D5 JUMP JUMPDEST PUSH2 0x3572 JUMP JUMPDEST TIMESTAMP LT PUSH2 0x1553 JUMPI PUSH1 0x6 SWAP2 POP POP PUSH2 0x1559 JUMP JUMPDEST PUSH1 0x5 SWAP2 POP POP JUMPDEST SWAP2 SWAP1 POP JUMP JUMPDEST PUSH1 0x7 DUP1 DUP2 GT ISZERO PUSH2 0x156A JUMPI INVALID JUMPDEST PUSH2 0x1573 DUP3 PUSH2 0x137B JUMP JUMPDEST PUSH1 0x7 DUP2 GT ISZERO PUSH2 0x157E JUMPI INVALID JUMPDEST EQ ISZERO PUSH2 0x15BF JUMPI PUSH1 0x40 MLOAD PUSH32 0x8C379A000000000000000000000000000000000000000000000000000000000 DUP2 MSTORE PUSH1 0x4 ADD PUSH2 0x15B6 SWAP1 PUSH2 0x613C JUMP JUMPDEST PUSH1 0x40 MLOAD DUP1 SWAP2 SUB SWAP1 REVERT JUMPDEST PUSH1 0x0 PUSH1 0xB PUSH1 0x0 DUP4 DUP2 MSTORE PUSH1 0x20 ADD SWAP1 DUP2 MSTORE PUSH1 0x20 ADD PUSH1 0x0 KECCAK256 SWAP1 POP DUP1 PUSH1 0x1 ADD PUSH1 0x0 SWAP1 SLOAD SWAP1 PUSH2 0x100 EXP SWAP1 DIV PUSH20 0xFFFFFFFFFFFFFFFFFFFFFFFFFFFFFFFFFFFFFFFF AND PUSH20 0xFFFFFFFFFFFFFFFFFFFFFFFFFFFFFFFFFFFFFFFF AND CALLER PUSH20 0xFFFFFFFFFFFFFFFFFFFFFFFFFFFFFFFFFFFFFFFF AND EQ DUP1 PUSH2 0x1711 JUMPI POP DUP1 PUSH1 0xC ADD SLOAD PUSH1 0x9 PUSH1 0x0 SWAP1 SLOAD SWAP1 PUSH2 0x100 EXP SWAP1 DIV PUSH20 0xFFFFFFFFFFFFFFFFFFFFFFFFFFFFFFFFFFFFFFFF AND PUSH20 0xFFFFFFFFFFFFFFFFFFFFFFFFFFFFFFFFFFFFFFFF AND PUSH4 0x782D6FE1 DUP4 PUSH1 0x1 ADD PUSH1 0x0 SWAP1 SLOAD SWAP1 PUSH2 0x100 EXP SWAP1 DIV PUSH20 0xFFFFFFFFFFFFFFFFFFFFFFFFFFFFFFFFFFFFFFFF AND PUSH2 0x16A2 NUMBER PUSH1 0x1 PUSH2 0x35C7 JUMP JUMPDEST PUSH1 0x40 MLOAD DUP4 PUSH4 0xFFFFFFFF AND PUSH1 0xE0 SHL DUP2 MSTORE PUSH1 0x4 ADD PUSH2 0x16BF SWAP3 SWAP2 SWAP1 PUSH2 0x5D26 JUMP JUMPDEST PUSH1 0x20 PUSH1 0x40 MLOAD DUP1 DUP4 SUB DUP2 DUP7 DUP1 EXTCODESIZE ISZERO DUP1 ISZERO PUSH2 0x16D7 JUMPI PUSH1 0x0 DUP1 REVERT JUMPDEST POP GAS STATICCALL ISZERO DUP1 ISZERO PUSH2 0x16EB JUMPI RETURNDATASIZE PUSH1 0x0 DUP1 RETURNDATACOPY RETURNDATASIZE PUSH1 0x0 REVERT JUMPDEST POP POP POP POP PUSH1 0x40 MLOAD RETURNDATASIZE PUSH1 0x1F NOT PUSH1 0x1F DUP3 ADD AND DUP3 ADD DUP1 PUSH1 0x40 MSTORE POP PUSH2 0x170F SWAP2 SWAP1 DUP2 ADD SWAP1 PUSH2 0x43D5 JUMP JUMPDEST LT JUMPDEST PUSH2 0x1750 JUMPI PUSH1 0x40 MLOAD PUSH32 0x8C379A000000000000000000000000000000000000000000000000000000000 DUP2 MSTORE PUSH1 0x4 ADD PUSH2 0x1747 SWAP1 PUSH2 0x63FC JUMP JUMPDEST PUSH1 0x40 MLOAD DUP1 SWAP2 SUB SWAP1 REVERT JUMPDEST PUSH1 0x1 DUP2 PUSH1 0xE ADD PUSH1 0x0 PUSH2 0x100 EXP DUP2 SLOAD DUP2 PUSH1 0xFF MUL NOT AND SWAP1 DUP4 ISZERO ISZERO MUL OR SWAP1 SSTORE POP PUSH1 0x0 DUP1 SWAP1 POP JUMPDEST DUP2 PUSH1 0x3 ADD DUP1 SLOAD SWAP1 POP DUP2 LT ISZERO PUSH2 0x18AA JUMPI PUSH1 0x8 PUSH1 0x0 SWAP1 SLOAD SWAP1 PUSH2 0x100 EXP SWAP1 DIV PUSH20 0xFFFFFFFFFFFFFFFFFFFFFFFFFFFFFFFFFFFFFFFF AND PUSH20 0xFFFFFFFFFFFFFFFFFFFFFFFFFFFFFFFFFFFFFFFF AND PUSH4 0x591FCDFE DUP4 PUSH1 0x3 ADD DUP4 DUP2 SLOAD DUP2 LT PUSH2 0x17CF JUMPI INVALID JUMPDEST SWAP1 PUSH1 0x0 MSTORE PUSH1 0x20 PUSH1 0x0 KECCAK256 ADD PUSH1 0x0 SWAP1 SLOAD SWAP1 PUSH2 0x100 EXP SWAP1 DIV PUSH20 0xFFFFFFFFFFFFFFFFFFFFFFFFFFFFFFFFFFFFFFFF AND DUP5 PUSH1 0x4 ADD DUP5 DUP2 SLOAD DUP2 LT PUSH2 0x1809 JUMPI INVALID JUMPDEST SWAP1 PUSH1 0x0 MSTORE PUSH1 0x20 PUSH1 0x0 KECCAK256 ADD SLOAD DUP6 PUSH1 0x5 ADD DUP6 DUP2 SLOAD DUP2 LT PUSH2 0x1823 JUMPI INVALID JUMPDEST SWAP1 PUSH1 0x0 MSTORE PUSH1 0x20 PUSH1 0x0 KECCAK256 ADD DUP7 PUSH1 0x6 ADD DUP7 DUP2 SLOAD DUP2 LT PUSH2 0x183C JUMPI INVALID JUMPDEST SWAP1 PUSH1 0x0 MSTORE PUSH1 0x20 PUSH1 0x0 KECCAK256 ADD DUP8 PUSH1 0x2 ADD SLOAD PUSH1 0x40 MLOAD DUP7 PUSH4 0xFFFFFFFF AND PUSH1 0xE0 SHL DUP2 MSTORE PUSH1 0x4 ADD PUSH2 0x186B SWAP6 SWAP5 SWAP4 SWAP3 SWAP2 SWAP1 PUSH2 0x5DB0 JUMP JUMPDEST PUSH1 0x0 PUSH1 0x40 MLOAD DUP1 DUP4 SUB DUP2 PUSH1 0x0 DUP8 DUP1 EXTCODESIZE ISZERO DUP1 ISZERO PUSH2 0x1885 JUMPI PUSH1 0x0 DUP1 REVERT JUMPDEST POP GAS CALL ISZERO DUP1 ISZERO PUSH2 0x1899 JUMPI RETURNDATASIZE PUSH1 0x0 DUP1 RETURNDATACOPY RETURNDATASIZE PUSH1 0x0 REVERT JUMPDEST POP POP POP POP DUP1 DUP1 PUSH1 0x1 ADD SWAP2 POP POP PUSH2 0x1773 JUMP JUMPDEST POP PUSH32 0x789CF55BE980739DAD1D0699B93B58E806B51C9D96619BFA8FE0A28ABAA7B30C DUP3 PUSH1 0x40 MLOAD PUSH2 0x18DA SWAP2 SWAP1 PUSH2 0x64D7 JUMP JUMPDEST PUSH1 0x40 MLOAD DUP1 SWAP2 SUB SWAP1 LOG1 POP POP JUMP JUMPDEST CALLER PUSH20 0xFFFFFFFFFFFFFFFFFFFFFFFFFFFFFFFFFFFFFFFF AND PUSH32 0xB8E138887D0AA13BAB447E82DE9D5C1777041ECD21CA36BA824FF1E6C07DDDA4 DUP4 DUP4 PUSH2 0x192B CALLER DUP8 DUP8 PUSH2 0x329C JUMP JUMPDEST PUSH1 0x40 MLOAD PUSH2 0x193A SWAP4 SWAP3 SWAP2 SWAP1 PUSH2 0x66E2 JUMP JUMPDEST PUSH1 0x40 MLOAD DUP1 SWAP2 SUB SWAP1 LOG2 POP POP JUMP JUMPDEST PUSH1 0x2 PUSH1 0x0 SWAP1 SLOAD SWAP1 PUSH2 0x100 EXP SWAP1 DIV PUSH20 0xFFFFFFFFFFFFFFFFFFFFFFFFFFFFFFFFFFFFFFFF AND DUP2 JUMP JUMPDEST PUSH1 0xA PUSH1 0x0 SWAP1 SLOAD SWAP1 PUSH2 0x100 EXP SWAP1 DIV PUSH20 0xFFFFFFFFFFFFFFFFFFFFFFFFFFFFFFFFFFFFFFFF AND DUP2 JUMP JUMPDEST PUSH1 0x0 PUSH20 0xFFFFFFFFFFFFFFFFFFFFFFFFFFFFFFFFFFFFFFFF AND PUSH1 0x8 PUSH1 0x0 SWAP1 SLOAD SWAP1 PUSH2 0x100 EXP SWAP1 DIV PUSH20 0xFFFFFFFFFFFFFFFFFFFFFFFFFFFFFFFFFFFFFFFF AND PUSH20 0xFFFFFFFFFFFFFFFFFFFFFFFFFFFFFFFFFFFFFFFF AND EQ PUSH2 0x1A23 JUMPI PUSH1 0x40 MLOAD PUSH32 0x8C379A000000000000000000000000000000000000000000000000000000000 DUP2 MSTORE PUSH1 0x4 ADD PUSH2 0x1A1A SWAP1 PUSH2 0x62BC JUMP JUMPDEST PUSH1 0x40 MLOAD DUP1 SWAP2 SUB SWAP1 REVERT JUMPDEST PUSH1 0x0 DUP1 SWAP1 SLOAD SWAP1 PUSH2 0x100 EXP SWAP1 DIV PUSH20 0xFFFFFFFFFFFFFFFFFFFFFFFFFFFFFFFFFFFFFFFF AND PUSH20 0xFFFFFFFFFFFFFFFFFFFFFFFFFFFFFFFFFFFFFFFF AND CALLER PUSH20 0xFFFFFFFFFFFFFFFFFFFFFFFFFFFFFFFFFFFFFFFF AND EQ PUSH2 0x1AB2 JUMPI PUSH1 0x40 MLOAD PUSH32 0x8C379A000000000000000000000000000000000000000000000000000000000 DUP2 MSTORE PUSH1 0x4 ADD PUSH2 0x1AA9 SWAP1 PUSH2 0x61FC JUMP JUMPDEST PUSH1 0x40 MLOAD DUP1 SWAP2 SUB SWAP1 REVERT JUMPDEST PUSH1 0x0 PUSH20 0xFFFFFFFFFFFFFFFFFFFFFFFFFFFFFFFFFFFFFFFF AND DUP7 PUSH20 0xFFFFFFFFFFFFFFFFFFFFFFFFFFFFFFFFFFFFFFFF AND EQ ISZERO PUSH2 0x1B22 JUMPI PUSH1 0x40 MLOAD PUSH32 0x8C379A000000000000000000000000000000000000000000000000000000000 DUP2 MSTORE PUSH1 0x4 ADD PUSH2 0x1B19 SWAP1 PUSH2 0x601C JUMP JUMPDEST PUSH1 0x40 MLOAD DUP1 SWAP2 SUB SWAP1 REVERT JUMPDEST PUSH1 0x0 PUSH20 0xFFFFFFFFFFFFFFFFFFFFFFFFFFFFFFFFFFFFFFFF AND DUP6 PUSH20 0xFFFFFFFFFFFFFFFFFFFFFFFFFFFFFFFFFFFFFFFF AND EQ ISZERO PUSH2 0x1B92 JUMPI PUSH1 0x40 MLOAD PUSH32 0x8C379A000000000000000000000000000000000000000000000000000000000 DUP2 MSTORE PUSH1 0x4 ADD PUSH2 0x1B89 SWAP1 PUSH2 0x603C JUMP JUMPDEST PUSH1 0x40 MLOAD DUP1 SWAP2 SUB SWAP1 REVERT JUMPDEST PUSH1 0x0 PUSH20 0xFFFFFFFFFFFFFFFFFFFFFFFFFFFFFFFFFFFFFFFF AND DUP5 PUSH20 0xFFFFFFFFFFFFFFFFFFFFFFFFFFFFFFFFFFFFFFFF AND EQ ISZERO PUSH2 0x1C02 JUMPI PUSH1 0x40 MLOAD PUSH32 0x8C379A000000000000000000000000000000000000000000000000000000000 DUP2 MSTORE PUSH1 0x4 ADD PUSH2 0x1BF9 SWAP1 PUSH2 0x641C JUMP JUMPDEST PUSH1 0x40 MLOAD DUP1 SWAP2 SUB SWAP1 REVERT JUMPDEST PUSH2 0x1680 DUP4 LT ISZERO DUP1 ISZERO PUSH2 0x1C17 JUMPI POP PUSH3 0x13B00 DUP4 GT ISZERO JUMPDEST PUSH2 0x1C56 JUMPI PUSH1 0x40 MLOAD PUSH32 0x8C379A000000000000000000000000000000000000000000000000000000000 DUP2 MSTORE PUSH1 0x4 ADD PUSH2 0x1C4D SWAP1 PUSH2 0x5FFC JUMP JUMPDEST PUSH1 0x40 MLOAD DUP1 SWAP2 SUB SWAP1 REVERT JUMPDEST PUSH1 0x1 DUP3 LT ISZERO DUP1 ISZERO PUSH2 0x1C69 JUMPI POP PUSH2 0x9D80 DUP3 GT ISZERO JUMPDEST PUSH2 0x1CA8 JUMPI PUSH1 0x40 MLOAD PUSH32 0x8C379A000000000000000000000000000000000000000000000000000000000 DUP2 MSTORE PUSH1 0x4 ADD PUSH2 0x1C9F SWAP1 PUSH2 0x62DC JUMP JUMPDEST PUSH1 0x40 MLOAD DUP1 SWAP2 SUB SWAP1 REVERT JUMPDEST PUSH2 0x1388 DUP2 LT ISZERO DUP1 ISZERO PUSH2 0x1CBC JUMPI POP PUSH2 0x2710 DUP2 GT ISZERO JUMPDEST PUSH2 0x1CFB JUMPI PUSH1 0x40 MLOAD PUSH32 0x8C379A000000000000000000000000000000000000000000000000000000000 DUP2 MSTORE PUSH1 0x4 ADD PUSH2 0x1CF2 SWAP1 PUSH2 0x643C JUMP JUMPDEST PUSH1 0x40 MLOAD DUP1 SWAP2 SUB SWAP1 REVERT JUMPDEST DUP6 PUSH1 0x8 PUSH1 0x0 PUSH2 0x100 EXP DUP2 SLOAD DUP2 PUSH20 0xFFFFFFFFFFFFFFFFFFFFFFFFFFFFFFFFFFFFFFFF MUL NOT AND SWAP1 DUP4 PUSH20 0xFFFFFFFFFFFFFFFFFFFFFFFFFFFFFFFFFFFFFFFF AND MUL OR SWAP1 SSTORE POP DUP5 PUSH1 0xA PUSH1 0x0 PUSH2 0x100 EXP DUP2 SLOAD DUP2 PUSH20 0xFFFFFFFFFFFFFFFFFFFFFFFFFFFFFFFFFFFFFFFF MUL NOT AND SWAP1 DUP4 PUSH20 0xFFFFFFFFFFFFFFFFFFFFFFFFFFFFFFFFFFFFFFFF AND MUL OR SWAP1 SSTORE POP DUP4 PUSH1 0x9 PUSH1 0x0 PUSH2 0x100 EXP DUP2 SLOAD DUP2 PUSH20 0xFFFFFFFFFFFFFFFFFFFFFFFFFFFFFFFFFFFFFFFF MUL NOT AND SWAP1 DUP4 PUSH20 0xFFFFFFFFFFFFFFFFFFFFFFFFFFFFFFFFFFFFFFFF AND MUL OR SWAP1 SSTORE POP DUP3 PUSH1 0x4 DUP2 SWAP1 SSTORE POP DUP2 PUSH1 0x3 DUP2 SWAP1 SSTORE POP DUP1 PUSH1 0x5 DUP2 SWAP1 SSTORE POP POP POP POP POP POP POP JUMP JUMPDEST CALLER PUSH20 0xFFFFFFFFFFFFFFFFFFFFFFFFFFFFFFFFFFFFFFFF AND PUSH32 0xB8E138887D0AA13BAB447E82DE9D5C1777041ECD21CA36BA824FF1E6C07DDDA4 DUP6 DUP6 PUSH2 0x1E20 CALLER DUP10 DUP10 PUSH2 0x329C JUMP JUMPDEST DUP7 DUP7 PUSH1 0x40 MLOAD PUSH2 0x1E33 SWAP6 SWAP5 SWAP4 SWAP3 SWAP2 SWAP1 PUSH2 0x6694 JUMP JUMPDEST PUSH1 0x40 MLOAD DUP1 SWAP2 SUB SWAP1 LOG2 POP POP POP POP JUMP JUMPDEST PUSH1 0xA DUP2 JUMP JUMPDEST PUSH2 0x2710 DUP2 JUMP JUMPDEST PUSH3 0x13B00 DUP2 JUMP JUMPDEST PUSH2 0x9D80 DUP2 JUMP JUMPDEST PUSH1 0x5 SLOAD DUP2 JUMP JUMPDEST PUSH1 0x0 DUP1 SWAP1 SLOAD SWAP1 PUSH2 0x100 EXP SWAP1 DIV PUSH20 0xFFFFFFFFFFFFFFFFFFFFFFFFFFFFFFFFFFFFFFFF AND PUSH20 0xFFFFFFFFFFFFFFFFFFFFFFFFFFFFFFFFFFFFFFFF AND CALLER PUSH20 0xFFFFFFFFFFFFFFFFFFFFFFFFFFFFFFFFFFFFFFFF AND EQ PUSH2 0x1EEE JUMPI PUSH1 0x40 MLOAD PUSH32 0x8C379A000000000000000000000000000000000000000000000000000000000 DUP2 MSTORE PUSH1 0x4 ADD PUSH2 0x1EE5 SWAP1 PUSH2 0x635C JUMP JUMPDEST PUSH1 0x40 MLOAD DUP1 SWAP2 SUB SWAP1 REVERT JUMPDEST PUSH1 0x0 PUSH1 0x1 PUSH1 0x0 SWAP1 SLOAD SWAP1 PUSH2 0x100 EXP SWAP1 DIV PUSH20 0xFFFFFFFFFFFFFFFFFFFFFFFFFFFFFFFFFFFFFFFF AND SWAP1 POP DUP2 PUSH1 0x1 PUSH1 0x0 PUSH2 0x100 EXP DUP2 SLOAD DUP2 PUSH20 0xFFFFFFFFFFFFFFFFFFFFFFFFFFFFFFFFFFFFFFFF MUL NOT AND SWAP1 DUP4 PUSH20 0xFFFFFFFFFFFFFFFFFFFFFFFFFFFFFFFFFFFFFFFF AND MUL OR SWAP1 SSTORE POP PUSH32 0xCA4F2F25D0898EDD99413412FB94012F9E54EC8142F9B093E7720646A95B16A9 DUP2 DUP4 PUSH1 0x40 MLOAD PUSH2 0x1F87 SWAP3 SWAP2 SWAP1 PUSH2 0x5CFD JUMP JUMPDEST PUSH1 0x40 MLOAD DUP1 SWAP2 SUB SWAP1 LOG1 POP POP JUMP JUMPDEST PUSH2 0x1388 DUP2 JUMP JUMPDEST PUSH1 0x8 PUSH1 0x0 SWAP1 SLOAD SWAP1 PUSH2 0x100 EXP SWAP1 DIV PUSH20 0xFFFFFFFFFFFFFFFFFFFFFFFFFFFFFFFFFFFFFFFF AND DUP2 JUMP JUMPDEST PUSH1 0x9 PUSH1 0x0 SWAP1 SLOAD SWAP1 PUSH2 0x100 EXP SWAP1 DIV PUSH20 0xFFFFFFFFFFFFFFFFFFFFFFFFFFFFFFFFFFFFFFFF AND DUP2 JUMP JUMPDEST PUSH1 0x7 SLOAD DUP2 JUMP JUMPDEST PUSH1 0x0 DUP1 PUSH1 0x6 SLOAD EQ ISZERO PUSH2 0x2032 JUMPI PUSH1 0x40 MLOAD PUSH32 0x8C379A000000000000000000000000000000000000000000000000000000000 DUP2 MSTORE PUSH1 0x4 ADD PUSH2 0x2029 SWAP1 PUSH2 0x607C JUMP JUMPDEST PUSH1 0x40 MLOAD DUP1 SWAP2 SUB SWAP1 REVERT JUMPDEST PUSH2 0x203D PUSH1 0x5 SLOAD PUSH2 0x2CC0 JUMP JUMPDEST PUSH1 0x9 PUSH1 0x0 SWAP1 SLOAD SWAP1 PUSH2 0x100 EXP SWAP1 DIV PUSH20 0xFFFFFFFFFFFFFFFFFFFFFFFFFFFFFFFFFFFFFFFF AND PUSH20 0xFFFFFFFFFFFFFFFFFFFFFFFFFFFFFFFFFFFFFFFF AND PUSH4 0x782D6FE1 CALLER PUSH2 0x2087 NUMBER PUSH1 0x1 PUSH2 0x35C7 JUMP JUMPDEST PUSH1 0x40 MLOAD DUP4 PUSH4 0xFFFFFFFF AND PUSH1 0xE0 SHL DUP2 MSTORE PUSH1 0x4 ADD PUSH2 0x20A4 SWAP3 SWAP2 SWAP1 PUSH2 0x5CD4 JUMP JUMPDEST PUSH1 0x20 PUSH1 0x40 MLOAD DUP1 DUP4 SUB DUP2 DUP7 DUP1 EXTCODESIZE ISZERO DUP1 ISZERO PUSH2 0x20BC JUMPI PUSH1 0x0 DUP1 REVERT JUMPDEST POP GAS STATICCALL ISZERO DUP1 ISZERO PUSH2 0x20D0 JUMPI RETURNDATASIZE PUSH1 0x0 DUP1 RETURNDATACOPY RETURNDATASIZE PUSH1 0x0 REVERT JUMPDEST POP POP POP POP PUSH1 0x40 MLOAD RETURNDATASIZE PUSH1 0x1F NOT PUSH1 0x1F DUP3 ADD AND DUP3 ADD DUP1 PUSH1 0x40 MSTORE POP PUSH2 0x20F4 SWAP2 SWAP1 DUP2 ADD SWAP1 PUSH2 0x43D5 JUMP JUMPDEST GT PUSH2 0x2134 JUMPI PUSH1 0x40 MLOAD PUSH32 0x8C379A000000000000000000000000000000000000000000000000000000000 DUP2 MSTORE PUSH1 0x4 ADD PUSH2 0x212B SWAP1 PUSH2 0x631C JUMP JUMPDEST PUSH1 0x40 MLOAD DUP1 SWAP2 SUB SWAP1 REVERT JUMPDEST DUP5 MLOAD DUP7 MLOAD EQ DUP1 ISZERO PUSH2 0x2146 JUMPI POP DUP4 MLOAD DUP7 MLOAD EQ JUMPDEST DUP1 ISZERO PUSH2 0x2153 JUMPI POP DUP3 MLOAD DUP7 MLOAD EQ JUMPDEST PUSH2 0x2192 JUMPI PUSH1 0x40 MLOAD PUSH32 0x8C379A000000000000000000000000000000000000000000000000000000000 DUP2 MSTORE PUSH1 0x4 ADD PUSH2 0x2189 SWAP1 PUSH2 0x61DC JUMP JUMPDEST PUSH1 0x40 MLOAD DUP1 SWAP2 SUB SWAP1 REVERT JUMPDEST PUSH1 0x0 DUP7 MLOAD EQ ISZERO PUSH2 0x21D7 JUMPI PUSH1 0x40 MLOAD PUSH32 0x8C379A000000000000000000000000000000000000000000000000000000000 DUP2 MSTORE PUSH1 0x4 ADD PUSH2 0x21CE SWAP1 PUSH2 0x623C JUMP JUMPDEST PUSH1 0x40 MLOAD DUP1 SWAP2 SUB SWAP1 REVERT JUMPDEST PUSH1 0xA DUP7 MLOAD GT ISZERO PUSH2 0x221C JUMPI PUSH1 0x40 MLOAD PUSH32 0x8C379A000000000000000000000000000000000000000000000000000000000 DUP2 MSTORE PUSH1 0x4 ADD PUSH2 0x2213 SWAP1 PUSH2 0x617C JUMP JUMPDEST PUSH1 0x40 MLOAD DUP1 SWAP2 SUB SWAP1 REVERT JUMPDEST PUSH1 0x0 PUSH1 0xC PUSH1 0x0 CALLER PUSH20 0xFFFFFFFFFFFFFFFFFFFFFFFFFFFFFFFFFFFFFFFF AND PUSH20 0xFFFFFFFFFFFFFFFFFFFFFFFFFFFFFFFFFFFFFFFF AND DUP2 MSTORE PUSH1 0x20 ADD SWAP1 DUP2 MSTORE PUSH1 0x20 ADD PUSH1 0x0 KECCAK256 SLOAD SWAP1 POP PUSH1 0x0 DUP2 EQ PUSH2 0x232B JUMPI PUSH1 0x0 PUSH2 0x2273 DUP3 PUSH2 0x137B JUMP JUMPDEST SWAP1 POP PUSH1 0x1 PUSH1 0x7 DUP2 GT ISZERO PUSH2 0x2282 JUMPI INVALID JUMPDEST DUP2 PUSH1 0x7 DUP2 GT ISZERO PUSH2 0x228E JUMPI INVALID JUMPDEST EQ ISZERO PUSH2 0x22CF JUMPI PUSH1 0x40 MLOAD PUSH32 0x8C379A000000000000000000000000000000000000000000000000000000000 DUP2 MSTORE PUSH1 0x4 ADD PUSH2 0x22C6 SWAP1 PUSH2 0x619C JUMP JUMPDEST PUSH1 0x40 MLOAD DUP1 SWAP2 SUB SWAP1 REVERT JUMPDEST PUSH1 0x0 PUSH1 0x7 DUP2 GT ISZERO PUSH2 0x22DC JUMPI INVALID JUMPDEST DUP2 PUSH1 0x7 DUP2 GT ISZERO PUSH2 0x22E8 JUMPI INVALID JUMPDEST EQ ISZERO PUSH2 0x2329 JUMPI PUSH1 0x40 MLOAD PUSH32 0x8C379A000000000000000000000000000000000000000000000000000000000 DUP2 MSTORE PUSH1 0x4 ADD PUSH2 0x2320 SWAP1 PUSH2 0x60DC JUMP JUMPDEST PUSH1 0x40 MLOAD DUP1 SWAP2 SUB SWAP1 REVERT JUMPDEST POP JUMPDEST PUSH1 0x0 PUSH2 0x2339 NUMBER PUSH1 0x3 SLOAD PUSH2 0x3572 JUMP JUMPDEST SWAP1 POP PUSH1 0x0 PUSH2 0x2349 DUP3 PUSH1 0x4 SLOAD PUSH2 0x3572 JUMP JUMPDEST SWAP1 POP PUSH1 0x7 PUSH1 0x0 DUP2 SLOAD DUP1 SWAP3 SWAP2 SWAP1 PUSH1 0x1 ADD SWAP2 SWAP1 POP SSTORE POP PUSH2 0x2365 PUSH2 0x38B9 JUMP JUMPDEST PUSH1 0x40 MLOAD DUP1 PUSH2 0x200 ADD PUSH1 0x40 MSTORE DUP1 PUSH1 0x7 SLOAD DUP2 MSTORE PUSH1 0x20 ADD CALLER PUSH20 0xFFFFFFFFFFFFFFFFFFFFFFFFFFFFFFFFFFFFFFFF AND DUP2 MSTORE PUSH1 0x20 ADD PUSH1 0x0 DUP2 MSTORE PUSH1 0x20 ADD DUP12 DUP2 MSTORE PUSH1 0x20 ADD DUP11 DUP2 MSTORE PUSH1 0x20 ADD DUP10 DUP2 MSTORE PUSH1 0x20 ADD DUP9 DUP2 MSTORE PUSH1 0x20 ADD DUP5 DUP2 MSTORE PUSH1 0x20 ADD DUP4 DUP2 MSTORE PUSH1 0x20 ADD PUSH1 0x0 DUP2 MSTORE PUSH1 0x20 ADD PUSH1 0x0 DUP2 MSTORE PUSH1 0x20 ADD PUSH1 0x0 DUP2 MSTORE PUSH1 0x20 ADD PUSH2 0x23E0 PUSH1 0x5 SLOAD PUSH2 0x2CC0 JUMP JUMPDEST DUP2 MSTORE PUSH1 0x20 ADD PUSH2 0x23F0 PUSH2 0x9C40 PUSH2 0x2CC0 JUMP JUMPDEST DUP2 MSTORE PUSH1 0x20 ADD PUSH1 0x0 ISZERO ISZERO DUP2 MSTORE PUSH1 0x20 ADD PUSH1 0x0 ISZERO ISZERO DUP2 MSTORE POP SWAP1 POP DUP1 PUSH1 0xB PUSH1 0x0 DUP4 PUSH1 0x0 ADD MLOAD DUP2 MSTORE PUSH1 0x20 ADD SWAP1 DUP2 MSTORE PUSH1 0x20 ADD PUSH1 0x0 KECCAK256 PUSH1 0x0 DUP3 ADD MLOAD DUP2 PUSH1 0x0 ADD SSTORE PUSH1 0x20 DUP3 ADD MLOAD DUP2 PUSH1 0x1 ADD PUSH1 0x0 PUSH2 0x100 EXP DUP2 SLOAD DUP2 PUSH20 0xFFFFFFFFFFFFFFFFFFFFFFFFFFFFFFFFFFFFFFFF MUL NOT AND SWAP1 DUP4 PUSH20 0xFFFFFFFFFFFFFFFFFFFFFFFFFFFFFFFFFFFFFFFF AND MUL OR SWAP1 SSTORE POP PUSH1 0x40 DUP3 ADD MLOAD DUP2 PUSH1 0x2 ADD SSTORE PUSH1 0x60 DUP3 ADD MLOAD DUP2 PUSH1 0x3 ADD SWAP1 DUP1 MLOAD SWAP1 PUSH1 0x20 ADD SWAP1 PUSH2 0x2496 SWAP3 SWAP2 SWAP1 PUSH2 0x3950 JUMP JUMPDEST POP PUSH1 0x80 DUP3 ADD MLOAD DUP2 PUSH1 0x4 ADD SWAP1 DUP1 MLOAD SWAP1 PUSH1 0x20 ADD SWAP1 PUSH2 0x24B3 SWAP3 SWAP2 SWAP1 PUSH2 0x39DA JUMP JUMPDEST POP PUSH1 0xA0 DUP3 ADD MLOAD DUP2 PUSH1 0x5 ADD SWAP1 DUP1 MLOAD SWAP1 PUSH1 0x20 ADD SWAP1 PUSH2 0x24D0 SWAP3 SWAP2 SWAP1 PUSH2 0x3A27 JUMP JUMPDEST POP PUSH1 0xC0 DUP3 ADD MLOAD DUP2 PUSH1 0x6 ADD SWAP1 DUP1 MLOAD SWAP1 PUSH1 0x20 ADD SWAP1 PUSH2 0x24ED SWAP3 SWAP2 SWAP1 PUSH2 0x3A87 JUMP JUMPDEST POP PUSH1 0xE0 DUP3 ADD MLOAD DUP2 PUSH1 0x7 ADD SSTORE PUSH2 0x100 DUP3 ADD MLOAD DUP2 PUSH1 0x8 ADD SSTORE PUSH2 0x120 DUP3 ADD MLOAD DUP2 PUSH1 0x9 ADD SSTORE PUSH2 0x140 DUP3 ADD MLOAD DUP2 PUSH1 0xA ADD SSTORE PUSH2 0x160 DUP3 ADD MLOAD DUP2 PUSH1 0xB ADD SSTORE PUSH2 0x180 DUP3 ADD MLOAD DUP2 PUSH1 0xC ADD SSTORE PUSH2 0x1A0 DUP3 ADD MLOAD DUP2 PUSH1 0xD ADD SSTORE PUSH2 0x1C0 DUP3 ADD MLOAD DUP2 PUSH1 0xE ADD PUSH1 0x0 PUSH2 0x100 EXP DUP2 SLOAD DUP2 PUSH1 0xFF MUL NOT AND SWAP1 DUP4 ISZERO ISZERO MUL OR SWAP1 SSTORE POP PUSH2 0x1E0 DUP3 ADD MLOAD DUP2 PUSH1 0xE ADD PUSH1 0x1 PUSH2 0x100 EXP DUP2 SLOAD DUP2 PUSH1 0xFF MUL NOT AND SWAP1 DUP4 ISZERO ISZERO MUL OR SWAP1 SSTORE POP SWAP1 POP POP DUP1 PUSH1 0x0 ADD MLOAD PUSH1 0xC PUSH1 0x0 DUP4 PUSH1 0x20 ADD MLOAD PUSH20 0xFFFFFFFFFFFFFFFFFFFFFFFFFFFFFFFFFFFFFFFF AND PUSH20 0xFFFFFFFFFFFFFFFFFFFFFFFFFFFFFFFFFFFFFFFF AND DUP2 MSTORE PUSH1 0x20 ADD SWAP1 DUP2 MSTORE PUSH1 0x20 ADD PUSH1 0x0 KECCAK256 DUP2 SWAP1 SSTORE POP PUSH32 0x5F3F8DA802EE6AFDE8D4395E43C640A216EED19AA3E90C7EDA8CE88CB2954C4D DUP2 PUSH1 0x0 ADD MLOAD CALLER DUP13 DUP13 DUP13 DUP13 DUP10 DUP10 DUP10 PUSH2 0x1A0 ADD MLOAD DUP16 PUSH1 0x40 MLOAD PUSH2 0x2615 SWAP11 SWAP10 SWAP9 SWAP8 SWAP7 SWAP6 SWAP5 SWAP4 SWAP3 SWAP2 SWAP1 PUSH2 0x64F2 JUMP JUMPDEST PUSH1 0x40 MLOAD DUP1 SWAP2 SUB SWAP1 LOG1 DUP1 PUSH1 0x0 ADD MLOAD SWAP5 POP POP POP POP POP SWAP6 SWAP5 POP POP POP POP POP JUMP JUMPDEST PUSH1 0x4 PUSH1 0x7 DUP2 GT ISZERO PUSH2 0x263E JUMPI INVALID JUMPDEST PUSH2 0x2647 DUP3 PUSH2 0x137B JUMP JUMPDEST PUSH1 0x7 DUP2 GT ISZERO PUSH2 0x2652 JUMPI INVALID JUMPDEST EQ PUSH2 0x2692 JUMPI PUSH1 0x40 MLOAD PUSH32 0x8C379A000000000000000000000000000000000000000000000000000000000 DUP2 MSTORE PUSH1 0x4 ADD PUSH2 0x2689 SWAP1 PUSH2 0x615C JUMP JUMPDEST PUSH1 0x40 MLOAD DUP1 SWAP2 SUB SWAP1 REVERT JUMPDEST PUSH1 0x0 PUSH1 0xB PUSH1 0x0 DUP4 DUP2 MSTORE PUSH1 0x20 ADD SWAP1 DUP2 MSTORE PUSH1 0x20 ADD PUSH1 0x0 KECCAK256 SWAP1 POP PUSH1 0x0 PUSH2 0x2754 TIMESTAMP PUSH1 0x8 PUSH1 0x0 SWAP1 SLOAD SWAP1 PUSH2 0x100 EXP SWAP1 DIV PUSH20 0xFFFFFFFFFFFFFFFFFFFFFFFFFFFFFFFFFFFFFFFF AND PUSH20 0xFFFFFFFFFFFFFFFFFFFFFFFFFFFFFFFFFFFFFFFF AND PUSH4 0x6A42B8F8 PUSH1 0x40 MLOAD DUP2 PUSH4 0xFFFFFFFF AND PUSH1 0xE0 SHL DUP2 MSTORE PUSH1 0x4 ADD PUSH1 0x20 PUSH1 0x40 MLOAD DUP1 DUP4 SUB DUP2 DUP7 DUP1 EXTCODESIZE ISZERO DUP1 ISZERO PUSH2 0x2717 JUMPI PUSH1 0x0 DUP1 REVERT JUMPDEST POP GAS STATICCALL ISZERO DUP1 ISZERO PUSH2 0x272B JUMPI RETURNDATASIZE PUSH1 0x0 DUP1 RETURNDATACOPY RETURNDATASIZE PUSH1 0x0 REVERT JUMPDEST POP POP POP POP PUSH1 0x40 MLOAD RETURNDATASIZE PUSH1 0x1F NOT PUSH1 0x1F DUP3 ADD AND DUP3 ADD DUP1 PUSH1 0x40 MSTORE POP PUSH2 0x274F SWAP2 SWAP1 DUP2 ADD SWAP1 PUSH2 0x43D5 JUMP JUMPDEST PUSH2 0x3572 JUMP JUMPDEST SWAP1 POP PUSH1 0x0 DUP1 SWAP1 POP JUMPDEST DUP3 PUSH1 0x3 ADD DUP1 SLOAD SWAP1 POP DUP2 LT ISZERO PUSH2 0x2939 JUMPI PUSH2 0x292C DUP4 PUSH1 0x3 ADD DUP3 DUP2 SLOAD DUP2 LT PUSH2 0x277D JUMPI INVALID JUMPDEST SWAP1 PUSH1 0x0 MSTORE PUSH1 0x20 PUSH1 0x0 KECCAK256 ADD PUSH1 0x0 SWAP1 SLOAD SWAP1 PUSH2 0x100 EXP SWAP1 DIV PUSH20 0xFFFFFFFFFFFFFFFFFFFFFFFFFFFFFFFFFFFFFFFF AND DUP5 PUSH1 0x4 ADD DUP4 DUP2 SLOAD DUP2 LT PUSH2 0x27B7 JUMPI INVALID JUMPDEST SWAP1 PUSH1 0x0 MSTORE PUSH1 0x20 PUSH1 0x0 KECCAK256 ADD SLOAD DUP6 PUSH1 0x5 ADD DUP5 DUP2 SLOAD DUP2 LT PUSH2 0x27D1 JUMPI INVALID JUMPDEST SWAP1 PUSH1 0x0 MSTORE PUSH1 0x20 PUSH1 0x0 KECCAK256 ADD DUP1 SLOAD PUSH1 0x1 DUP2 PUSH1 0x1 AND ISZERO PUSH2 0x100 MUL SUB AND PUSH1 0x2 SWAP1 DIV DUP1 PUSH1 0x1F ADD PUSH1 0x20 DUP1 SWAP2 DIV MUL PUSH1 0x20 ADD PUSH1 0x40 MLOAD SWAP1 DUP2 ADD PUSH1 0x40 MSTORE DUP1 SWAP3 SWAP2 SWAP1 DUP2 DUP2 MSTORE PUSH1 0x20 ADD DUP3 DUP1 SLOAD PUSH1 0x1 DUP2 PUSH1 0x1 AND ISZERO PUSH2 0x100 MUL SUB AND PUSH1 0x2 SWAP1 DIV DUP1 ISZERO PUSH2 0x286F JUMPI DUP1 PUSH1 0x1F LT PUSH2 0x2844 JUMPI PUSH2 0x100 DUP1 DUP4 SLOAD DIV MUL DUP4 MSTORE SWAP2 PUSH1 0x20 ADD SWAP2 PUSH2 0x286F JUMP JUMPDEST DUP3 ADD SWAP2 SWAP1 PUSH1 0x0 MSTORE PUSH1 0x20 PUSH1 0x0 KECCAK256 SWAP1 JUMPDEST DUP2 SLOAD DUP2 MSTORE SWAP1 PUSH1 0x1 ADD SWAP1 PUSH1 0x20 ADD DUP1 DUP4 GT PUSH2 0x2852 JUMPI DUP3 SWAP1 SUB PUSH1 0x1F AND DUP3 ADD SWAP2 JUMPDEST POP POP POP POP POP DUP7 PUSH1 0x6 ADD DUP6 DUP2 SLOAD DUP2 LT PUSH2 0x2883 JUMPI INVALID JUMPDEST SWAP1 PUSH1 0x0 MSTORE PUSH1 0x20 PUSH1 0x0 KECCAK256 ADD DUP1 SLOAD PUSH1 0x1 DUP2 PUSH1 0x1 AND ISZERO PUSH2 0x100 MUL SUB AND PUSH1 0x2 SWAP1 DIV DUP1 PUSH1 0x1F ADD PUSH1 0x20 DUP1 SWAP2 DIV MUL PUSH1 0x20 ADD PUSH1 0x40 MLOAD SWAP1 DUP2 ADD PUSH1 0x40 MSTORE DUP1 SWAP3 SWAP2 SWAP1 DUP2 DUP2 MSTORE PUSH1 0x20 ADD DUP3 DUP1 SLOAD PUSH1 0x1 DUP2 PUSH1 0x1 AND ISZERO PUSH2 0x100 MUL SUB AND PUSH1 0x2 SWAP1 DIV DUP1 ISZERO PUSH2 0x2921 JUMPI DUP1 PUSH1 0x1F LT PUSH2 0x28F6 JUMPI PUSH2 0x100 DUP1 DUP4 SLOAD DIV MUL DUP4 MSTORE SWAP2 PUSH1 0x20 ADD SWAP2 PUSH2 0x2921 JUMP JUMPDEST DUP3 ADD SWAP2 SWAP1 PUSH1 0x0 MSTORE PUSH1 0x20 PUSH1 0x0 KECCAK256 SWAP1 JUMPDEST DUP2 SLOAD DUP2 MSTORE SWAP1 PUSH1 0x1 ADD SWAP1 PUSH1 0x20 ADD DUP1 DUP4 GT PUSH2 0x2904 JUMPI DUP3 SWAP1 SUB PUSH1 0x1F AND DUP3 ADD SWAP2 JUMPDEST POP POP POP POP POP DUP7 PUSH2 0x3617 JUMP JUMPDEST DUP1 DUP1 PUSH1 0x1 ADD SWAP2 POP POP PUSH2 0x275C JUMP JUMPDEST POP DUP1 DUP3 PUSH1 0x2 ADD DUP2 SWAP1 SSTORE POP PUSH32 0x9A2E42FD6722813D69113E7D0079D3D940171428DF7373DF9C7F7617CFDA2892 DUP4 DUP3 PUSH1 0x40 MLOAD PUSH2 0x2974 SWAP3 SWAP2 SWAP1 PUSH2 0x666B JUMP JUMPDEST PUSH1 0x40 MLOAD DUP1 SWAP2 SUB SWAP1 LOG1 POP POP POP JUMP JUMPDEST PUSH1 0x40 MLOAD PUSH2 0x298D SWAP1 PUSH2 0x5C58 JUMP JUMPDEST PUSH1 0x40 MLOAD DUP1 SWAP2 SUB SWAP1 KECCAK256 DUP2 JUMP JUMPDEST PUSH2 0x29A0 PUSH2 0x3AE7 JUMP JUMPDEST PUSH1 0xB PUSH1 0x0 DUP5 DUP2 MSTORE PUSH1 0x20 ADD SWAP1 DUP2 MSTORE PUSH1 0x20 ADD PUSH1 0x0 KECCAK256 PUSH1 0xF ADD PUSH1 0x0 DUP4 PUSH20 0xFFFFFFFFFFFFFFFFFFFFFFFFFFFFFFFFFFFFFFFF AND PUSH20 0xFFFFFFFFFFFFFFFFFFFFFFFFFFFFFFFFFFFFFFFF AND DUP2 MSTORE PUSH1 0x20 ADD SWAP1 DUP2 MSTORE PUSH1 0x20 ADD PUSH1 0x0 KECCAK256 PUSH1 0x40 MLOAD DUP1 PUSH1 0x60 ADD PUSH1 0x40 MSTORE SWAP1 DUP2 PUSH1 0x0 DUP3 ADD PUSH1 0x0 SWAP1 SLOAD SWAP1 PUSH2 0x100 EXP SWAP1 DIV PUSH1 0xFF AND ISZERO ISZERO ISZERO ISZERO DUP2 MSTORE PUSH1 0x20 ADD PUSH1 0x0 DUP3 ADD PUSH1 0x1 SWAP1 SLOAD SWAP1 PUSH2 0x100 EXP SWAP1 DIV PUSH1 0xFF AND PUSH1 0xFF AND PUSH1 0xFF AND DUP2 MSTORE PUSH1 0x20 ADD PUSH1 0x1 DUP3 ADD SLOAD DUP2 MSTORE POP POP SWAP1 POP SWAP3 SWAP2 POP POP JUMP JUMPDEST PUSH1 0x1 DUP2 JUMP JUMPDEST PUSH1 0x1 PUSH1 0x0 SWAP1 SLOAD SWAP1 PUSH2 0x100 EXP SWAP1 DIV PUSH20 0xFFFFFFFFFFFFFFFFFFFFFFFFFFFFFFFFFFFFFFFF AND PUSH20 0xFFFFFFFFFFFFFFFFFFFFFFFFFFFFFFFFFFFFFFFF AND CALLER PUSH20 0xFFFFFFFFFFFFFFFFFFFFFFFFFFFFFFFFFFFFFFFF AND EQ DUP1 ISZERO PUSH2 0x2AD7 JUMPI POP PUSH1 0x0 PUSH20 0xFFFFFFFFFFFFFFFFFFFFFFFFFFFFFFFFFFFFFFFF AND CALLER PUSH20 0xFFFFFFFFFFFFFFFFFFFFFFFFFFFFFFFFFFFFFFFF AND EQ ISZERO JUMPDEST PUSH2 0x2B16 JUMPI PUSH1 0x40 MLOAD PUSH32 0x8C379A000000000000000000000000000000000000000000000000000000000 DUP2 MSTORE PUSH1 0x4 ADD PUSH2 0x2B0D SWAP1 PUSH2 0x633C JUMP JUMPDEST PUSH1 0x40 MLOAD DUP1 SWAP2 SUB SWAP1 REVERT JUMPDEST PUSH1 0x0 DUP1 PUSH1 0x0 SWAP1 SLOAD SWAP1 PUSH2 0x100 EXP SWAP1 DIV PUSH20 0xFFFFFFFFFFFFFFFFFFFFFFFFFFFFFFFFFFFFFFFF AND SWAP1 POP PUSH1 0x0 PUSH1 0x1 PUSH1 0x0 SWAP1 SLOAD SWAP1 PUSH2 0x100 EXP SWAP1 DIV PUSH20 0xFFFFFFFFFFFFFFFFFFFFFFFFFFFFFFFFFFFFFFFF AND SWAP1 POP PUSH1 0x1 PUSH1 0x0 SWAP1 SLOAD SWAP1 PUSH2 0x100 EXP SWAP1 DIV PUSH20 0xFFFFFFFFFFFFFFFFFFFFFFFFFFFFFFFFFFFFFFFF AND PUSH1 0x0 DUP1 PUSH2 0x100 EXP DUP2 SLOAD DUP2 PUSH20 0xFFFFFFFFFFFFFFFFFFFFFFFFFFFFFFFFFFFFFFFF MUL NOT AND SWAP1 DUP4 PUSH20 0xFFFFFFFFFFFFFFFFFFFFFFFFFFFFFFFFFFFFFFFF AND MUL OR SWAP1 SSTORE POP PUSH1 0x0 PUSH1 0x1 PUSH1 0x0 PUSH2 0x100 EXP DUP2 SLOAD DUP2 PUSH20 0xFFFFFFFFFFFFFFFFFFFFFFFFFFFFFFFFFFFFFFFF MUL NOT AND SWAP1 DUP4 PUSH20 0xFFFFFFFFFFFFFFFFFFFFFFFFFFFFFFFFFFFFFFFF AND MUL OR SWAP1 SSTORE POP PUSH32 0xF9FFABCA9C8276E99321725BCB43FB076A6C66A54B7F21C4E8146D8519B417DC DUP3 PUSH1 0x0 DUP1 SWAP1 SLOAD SWAP1 PUSH2 0x100 EXP SWAP1 DIV PUSH20 0xFFFFFFFFFFFFFFFFFFFFFFFFFFFFFFFFFFFFFFFF AND PUSH1 0x40 MLOAD PUSH2 0x2C59 SWAP3 SWAP2 SWAP1 PUSH2 0x5CFD JUMP JUMPDEST PUSH1 0x40 MLOAD DUP1 SWAP2 SUB SWAP1 LOG1 PUSH32 0xCA4F2F25D0898EDD99413412FB94012F9E54EC8142F9B093E7720646A95B16A9 DUP2 PUSH1 0x1 PUSH1 0x0 SWAP1 SLOAD SWAP1 PUSH2 0x100 EXP SWAP1 DIV PUSH20 0xFFFFFFFFFFFFFFFFFFFFFFFFFFFFFFFFFFFFFFFF AND PUSH1 0x40 MLOAD PUSH2 0x2CB4 SWAP3 SWAP2 SWAP1 PUSH2 0x5CFD JUMP JUMPDEST PUSH1 0x40 MLOAD DUP1 SWAP2 SUB SWAP1 LOG1 POP POP JUMP JUMPDEST PUSH1 0x0 PUSH1 0x9 PUSH1 0x0 SWAP1 SLOAD SWAP1 PUSH2 0x100 EXP SWAP1 DIV PUSH20 0xFFFFFFFFFFFFFFFFFFFFFFFFFFFFFFFFFFFFFFFF AND PUSH20 0xFFFFFFFFFFFFFFFFFFFFFFFFFFFFFFFFFFFFFFFF AND PUSH4 0x66A5236C PUSH2 0x2DB5 PUSH2 0x2DAC PUSH1 0xA PUSH1 0x0 SWAP1 SLOAD SWAP1 PUSH2 0x100 EXP SWAP1 DIV PUSH20 0xFFFFFFFFFFFFFFFFFFFFFFFFFFFFFFFFFFFFFFFF AND PUSH20 0xFFFFFFFFFFFFFFFFFFFFFFFFFFFFFFFFFFFFFFFF AND PUSH4 0x9358928B PUSH1 0x40 MLOAD DUP2 PUSH4 0xFFFFFFFF AND PUSH1 0xE0 SHL DUP2 MSTORE PUSH1 0x4 ADD PUSH1 0x20 PUSH1 0x40 MLOAD DUP1 DUP4 SUB DUP2 DUP7 DUP1 EXTCODESIZE ISZERO DUP1 ISZERO PUSH2 0x2D6E JUMPI PUSH1 0x0 DUP1 REVERT JUMPDEST POP GAS STATICCALL ISZERO DUP1 ISZERO PUSH2 0x2D82 JUMPI RETURNDATASIZE PUSH1 0x0 DUP1 RETURNDATACOPY RETURNDATASIZE PUSH1 0x0 REVERT JUMPDEST POP POP POP POP PUSH1 0x40 MLOAD RETURNDATASIZE PUSH1 0x1F NOT PUSH1 0x1F DUP3 ADD AND DUP3 ADD DUP1 PUSH1 0x40 MSTORE POP PUSH2 0x2DA6 SWAP2 SWAP1 DUP2 ADD SWAP1 PUSH2 0x43D5 JUMP JUMPDEST DUP7 PUSH2 0x37ED JUMP JUMPDEST PUSH3 0xF4240 PUSH2 0x385D JUMP JUMPDEST PUSH1 0x40 MLOAD DUP3 PUSH4 0xFFFFFFFF AND PUSH1 0xE0 SHL DUP2 MSTORE PUSH1 0x4 ADD PUSH2 0x2DD1 SWAP2 SWAP1 PUSH2 0x64D7 JUMP JUMPDEST PUSH1 0x20 PUSH1 0x40 MLOAD DUP1 DUP4 SUB DUP2 DUP7 DUP1 EXTCODESIZE ISZERO DUP1 ISZERO PUSH2 0x2DE9 JUMPI PUSH1 0x0 DUP1 REVERT JUMPDEST POP GAS STATICCALL ISZERO DUP1 ISZERO PUSH2 0x2DFD JUMPI RETURNDATASIZE PUSH1 0x0 DUP1 RETURNDATACOPY RETURNDATASIZE PUSH1 0x0 REVERT JUMPDEST POP POP POP POP PUSH1 0x40 MLOAD RETURNDATASIZE PUSH1 0x1F NOT PUSH1 0x1F DUP3 ADD AND DUP3 ADD DUP1 PUSH1 0x40 MSTORE POP PUSH2 0x2E21 SWAP2 SWAP1 DUP2 ADD SWAP1 PUSH2 0x43D5 JUMP JUMPDEST SWAP1 POP SWAP2 SWAP1 POP JUMP JUMPDEST PUSH2 0x9C40 DUP2 JUMP JUMPDEST PUSH1 0x0 DUP1 SWAP1 SLOAD SWAP1 PUSH2 0x100 EXP SWAP1 DIV PUSH20 0xFFFFFFFFFFFFFFFFFFFFFFFFFFFFFFFFFFFFFFFF AND DUP2 JUMP JUMPDEST PUSH1 0x0 DUP1 SWAP1 SLOAD SWAP1 PUSH2 0x100 EXP SWAP1 DIV PUSH20 0xFFFFFFFFFFFFFFFFFFFFFFFFFFFFFFFFFFFFFFFF AND PUSH20 0xFFFFFFFFFFFFFFFFFFFFFFFFFFFFFFFFFFFFFFFF AND CALLER PUSH20 0xFFFFFFFFFFFFFFFFFFFFFFFFFFFFFFFFFFFFFFFF AND EQ PUSH2 0x2EE2 JUMPI PUSH1 0x40 MLOAD PUSH32 0x8C379A000000000000000000000000000000000000000000000000000000000 DUP2 MSTORE PUSH1 0x4 ADD PUSH2 0x2ED9 SWAP1 PUSH2 0x61BC JUMP JUMPDEST PUSH1 0x40 MLOAD DUP1 SWAP2 SUB SWAP1 REVERT JUMPDEST PUSH1 0x0 PUSH1 0x6 SLOAD EQ PUSH2 0x2F27 JUMPI PUSH1 0x40 MLOAD PUSH32 0x8C379A000000000000000000000000000000000000000000000000000000000 DUP2 MSTORE PUSH1 0x4 ADD PUSH2 0x2F1E SWAP1 PUSH2 0x625C JUMP JUMPDEST PUSH1 0x40 MLOAD DUP1 SWAP2 SUB SWAP1 REVERT JUMPDEST DUP1 PUSH20 0xFFFFFFFFFFFFFFFFFFFFFFFFFFFFFFFFFFFFFFFF AND PUSH4 0xDA35C664 PUSH1 0x40 MLOAD DUP2 PUSH4 0xFFFFFFFF AND PUSH1 0xE0 SHL DUP2 MSTORE PUSH1 0x4 ADD PUSH1 0x20 PUSH1 0x40 MLOAD DUP1 DUP4 SUB DUP2 PUSH1 0x0 DUP8 DUP1 EXTCODESIZE ISZERO DUP1 ISZERO PUSH2 0x2F6F JUMPI PUSH1 0x0 DUP1 REVERT JUMPDEST POP GAS CALL ISZERO DUP1 ISZERO PUSH2 0x2F83 JUMPI RETURNDATASIZE PUSH1 0x0 DUP1 RETURNDATACOPY RETURNDATASIZE PUSH1 0x0 REVERT JUMPDEST POP POP POP POP PUSH1 0x40 MLOAD RETURNDATASIZE PUSH1 0x1F NOT PUSH1 0x1F DUP3 ADD AND DUP3 ADD DUP1 PUSH1 0x40 MSTORE POP PUSH2 0x2FA7 SWAP2 SWAP1 DUP2 ADD SWAP1 PUSH2 0x43D5 JUMP JUMPDEST PUSH1 0x7 DUP2 SWAP1 SSTORE POP PUSH1 0x7 SLOAD PUSH1 0x6 DUP2 SWAP1 SSTORE POP PUSH1 0x8 PUSH1 0x0 SWAP1 SLOAD SWAP1 PUSH2 0x100 EXP SWAP1 DIV PUSH20 0xFFFFFFFFFFFFFFFFFFFFFFFFFFFFFFFFFFFFFFFF AND PUSH20 0xFFFFFFFFFFFFFFFFFFFFFFFFFFFFFFFFFFFFFFFF AND PUSH4 0xE18B681 PUSH1 0x40 MLOAD DUP2 PUSH4 0xFFFFFFFF AND PUSH1 0xE0 SHL DUP2 MSTORE PUSH1 0x4 ADD PUSH1 0x0 PUSH1 0x40 MLOAD DUP1 DUP4 SUB DUP2 PUSH1 0x0 DUP8 DUP1 EXTCODESIZE ISZERO DUP1 ISZERO PUSH2 0x3020 JUMPI PUSH1 0x0 DUP1 REVERT JUMPDEST POP GAS CALL ISZERO DUP1 ISZERO PUSH2 0x3034 JUMPI RETURNDATASIZE PUSH1 0x0 DUP1 RETURNDATACOPY RETURNDATASIZE PUSH1 0x0 REVERT JUMPDEST POP POP POP POP POP JUMP JUMPDEST PUSH1 0x6 SLOAD DUP2 JUMP JUMPDEST PUSH1 0x5 PUSH1 0x7 DUP2 GT ISZERO PUSH2 0x304E JUMPI INVALID JUMPDEST PUSH2 0x3057 DUP3 PUSH2 0x137B JUMP JUMPDEST PUSH1 0x7 DUP2 GT ISZERO PUSH2 0x3062 JUMPI INVALID JUMPDEST EQ PUSH2 0x30A2 JUMPI PUSH1 0x40 MLOAD PUSH32 0x8C379A000000000000000000000000000000000000000000000000000000000 DUP2 MSTORE PUSH1 0x4 ADD PUSH2 0x3099 SWAP1 PUSH2 0x63DC JUMP JUMPDEST PUSH1 0x40 MLOAD DUP1 SWAP2 SUB SWAP1 REVERT JUMPDEST PUSH1 0x0 PUSH1 0xB PUSH1 0x0 DUP4 DUP2 MSTORE PUSH1 0x20 ADD SWAP1 DUP2 MSTORE PUSH1 0x20 ADD PUSH1 0x0 KECCAK256 SWAP1 POP PUSH1 0x1 DUP2 PUSH1 0xE ADD PUSH1 0x1 PUSH2 0x100 EXP DUP2 SLOAD DUP2 PUSH1 0xFF MUL NOT AND SWAP1 DUP4 ISZERO ISZERO MUL OR SWAP1 SSTORE POP PUSH1 0x0 DUP1 SWAP1 POP JUMPDEST DUP2 PUSH1 0x3 ADD DUP1 SLOAD SWAP1 POP DUP2 LT ISZERO PUSH2 0x3253 JUMPI PUSH1 0x8 PUSH1 0x0 SWAP1 SLOAD SWAP1 PUSH2 0x100 EXP SWAP1 DIV PUSH20 0xFFFFFFFFFFFFFFFFFFFFFFFFFFFFFFFFFFFFFFFF AND PUSH20 0xFFFFFFFFFFFFFFFFFFFFFFFFFFFFFFFFFFFFFFFF AND PUSH4 0x825F38F DUP4 PUSH1 0x4 ADD DUP4 DUP2 SLOAD DUP2 LT PUSH2 0x3138 JUMPI INVALID JUMPDEST SWAP1 PUSH1 0x0 MSTORE PUSH1 0x20 PUSH1 0x0 KECCAK256 ADD SLOAD DUP5 PUSH1 0x3 ADD DUP5 DUP2 SLOAD DUP2 LT PUSH2 0x3152 JUMPI INVALID JUMPDEST SWAP1 PUSH1 0x0 MSTORE PUSH1 0x20 PUSH1 0x0 KECCAK256 ADD PUSH1 0x0 SWAP1 SLOAD SWAP1 PUSH2 0x100 EXP SWAP1 DIV PUSH20 0xFFFFFFFFFFFFFFFFFFFFFFFFFFFFFFFFFFFFFFFF AND DUP6 PUSH1 0x4 ADD DUP6 DUP2 SLOAD DUP2 LT PUSH2 0x318C JUMPI INVALID JUMPDEST SWAP1 PUSH1 0x0 MSTORE PUSH1 0x20 PUSH1 0x0 KECCAK256 ADD SLOAD DUP7 PUSH1 0x5 ADD DUP7 DUP2 SLOAD DUP2 LT PUSH2 0x31A6 JUMPI INVALID JUMPDEST SWAP1 PUSH1 0x0 MSTORE PUSH1 0x20 PUSH1 0x0 KECCAK256 ADD DUP8 PUSH1 0x6 ADD DUP8 DUP2 SLOAD DUP2 LT PUSH2 0x31BF JUMPI INVALID JUMPDEST SWAP1 PUSH1 0x0 MSTORE PUSH1 0x20 PUSH1 0x0 KECCAK256 ADD DUP9 PUSH1 0x2 ADD SLOAD PUSH1 0x40 MLOAD DUP8 PUSH4 0xFFFFFFFF AND PUSH1 0xE0 SHL DUP2 MSTORE PUSH1 0x4 ADD PUSH2 0x31EE SWAP6 SWAP5 SWAP4 SWAP3 SWAP2 SWAP1 PUSH2 0x5DB0 JUMP JUMPDEST PUSH1 0x0 PUSH1 0x40 MLOAD DUP1 DUP4 SUB DUP2 DUP6 DUP9 DUP1 EXTCODESIZE ISZERO DUP1 ISZERO PUSH2 0x3207 JUMPI PUSH1 0x0 DUP1 REVERT JUMPDEST POP GAS CALL ISZERO DUP1 ISZERO PUSH2 0x321B JUMPI RETURNDATASIZE PUSH1 0x0 DUP1 RETURNDATACOPY RETURNDATASIZE PUSH1 0x0 REVERT JUMPDEST POP POP POP POP POP PUSH1 0x40 MLOAD RETURNDATASIZE PUSH1 0x0 DUP3 RETURNDATACOPY RETURNDATASIZE PUSH1 0x1F NOT PUSH1 0x1F DUP3 ADD AND DUP3 ADD DUP1 PUSH1 0x40 MSTORE POP PUSH2 0x3245 SWAP2 SWAP1 DUP2 ADD SWAP1 PUSH2 0x436B JUMP JUMPDEST POP DUP1 DUP1 PUSH1 0x1 ADD SWAP2 POP POP PUSH2 0x30DC JUMP JUMPDEST POP PUSH32 0x712AE1383F79AC853F8D882153778E0260EF8F03B504E2866E0593E04D2B291F DUP3 PUSH1 0x40 MLOAD PUSH2 0x3283 SWAP2 SWAP1 PUSH2 0x64D7 JUMP JUMPDEST PUSH1 0x40 MLOAD DUP1 SWAP2 SUB SWAP1 LOG1 POP POP JUMP JUMPDEST PUSH1 0x0 DUP1 CHAINID SWAP1 POP DUP1 SWAP2 POP POP SWAP1 JUMP JUMPDEST PUSH1 0x0 PUSH1 0x1 PUSH1 0x7 DUP2 GT ISZERO PUSH2 0x32AB JUMPI INVALID JUMPDEST PUSH2 0x32B4 DUP5 PUSH2 0x137B JUMP JUMPDEST PUSH1 0x7 DUP2 GT ISZERO PUSH2 0x32BF JUMPI INVALID JUMPDEST EQ PUSH2 0x32FF JUMPI PUSH1 0x40 MLOAD PUSH32 0x8C379A000000000000000000000000000000000000000000000000000000000 DUP2 MSTORE PUSH1 0x4 ADD PUSH2 0x32F6 SWAP1 PUSH2 0x649C JUMP JUMPDEST PUSH1 0x40 MLOAD DUP1 SWAP2 SUB SWAP1 REVERT JUMPDEST PUSH1 0x2 DUP3 PUSH1 0xFF AND GT ISZERO PUSH2 0x3346 JUMPI PUSH1 0x40 MLOAD PUSH32 0x8C379A000000000000000000000000000000000000000000000000000000000 DUP2 MSTORE PUSH1 0x4 ADD PUSH2 0x333D SWAP1 PUSH2 0x627C JUMP JUMPDEST PUSH1 0x40 MLOAD DUP1 SWAP2 SUB SWAP1 REVERT JUMPDEST PUSH1 0x0 PUSH1 0xB PUSH1 0x0 DUP6 DUP2 MSTORE PUSH1 0x20 ADD SWAP1 DUP2 MSTORE PUSH1 0x20 ADD PUSH1 0x0 KECCAK256 SWAP1 POP PUSH1 0x0 DUP2 PUSH1 0xF ADD PUSH1 0x0 DUP8 PUSH20 0xFFFFFFFFFFFFFFFFFFFFFFFFFFFFFFFFFFFFFFFF AND PUSH20 0xFFFFFFFFFFFFFFFFFFFFFFFFFFFFFFFFFFFFFFFF AND DUP2 MSTORE PUSH1 0x20 ADD SWAP1 DUP2 MSTORE PUSH1 0x20 ADD PUSH1 0x0 KECCAK256 SWAP1 POP PUSH1 0x0 ISZERO ISZERO DUP2 PUSH1 0x0 ADD PUSH1 0x0 SWAP1 SLOAD SWAP1 PUSH2 0x100 EXP SWAP1 DIV PUSH1 0xFF AND ISZERO ISZERO EQ PUSH2 0x33FA JUMPI PUSH1 0x40 MLOAD PUSH32 0x8C379A000000000000000000000000000000000000000000000000000000000 DUP2 MSTORE PUSH1 0x4 ADD PUSH2 0x33F1 SWAP1 PUSH2 0x637C JUMP JUMPDEST PUSH1 0x40 MLOAD DUP1 SWAP2 SUB SWAP1 REVERT JUMPDEST PUSH1 0x0 PUSH1 0x9 PUSH1 0x0 SWAP1 SLOAD SWAP1 PUSH2 0x100 EXP SWAP1 DIV PUSH20 0xFFFFFFFFFFFFFFFFFFFFFFFFFFFFFFFFFFFFFFFF AND PUSH20 0xFFFFFFFFFFFFFFFFFFFFFFFFFFFFFFFFFFFFFFFF AND PUSH4 0x782D6FE1 DUP9 DUP6 PUSH1 0x7 ADD SLOAD PUSH1 0x40 MLOAD DUP4 PUSH4 0xFFFFFFFF AND PUSH1 0xE0 SHL DUP2 MSTORE PUSH1 0x4 ADD PUSH2 0x345D SWAP3 SWAP2 SWAP1 PUSH2 0x5D26 JUMP JUMPDEST PUSH1 0x20 PUSH1 0x40 MLOAD DUP1 DUP4 SUB DUP2 DUP7 DUP1 EXTCODESIZE ISZERO DUP1 ISZERO PUSH2 0x3475 JUMPI PUSH1 0x0 DUP1 REVERT JUMPDEST POP GAS STATICCALL ISZERO DUP1 ISZERO PUSH2 0x3489 JUMPI RETURNDATASIZE PUSH1 0x0 DUP1 RETURNDATACOPY RETURNDATASIZE PUSH1 0x0 REVERT JUMPDEST POP POP POP POP PUSH1 0x40 MLOAD RETURNDATASIZE PUSH1 0x1F NOT PUSH1 0x1F DUP3 ADD AND DUP3 ADD DUP1 PUSH1 0x40 MSTORE POP PUSH2 0x34AD SWAP2 SWAP1 DUP2 ADD SWAP1 PUSH2 0x43D5 JUMP JUMPDEST SWAP1 POP PUSH1 0x0 DUP6 PUSH1 0xFF AND EQ ISZERO PUSH2 0x34D6 JUMPI PUSH2 0x34C9 DUP4 PUSH1 0xA ADD SLOAD DUP3 PUSH2 0x3572 JUMP JUMPDEST DUP4 PUSH1 0xA ADD DUP2 SWAP1 SSTORE POP PUSH2 0x3522 JUMP JUMPDEST PUSH1 0x1 DUP6 PUSH1 0xFF AND EQ ISZERO PUSH2 0x34FD JUMPI PUSH2 0x34F0 DUP4 PUSH1 0x9 ADD SLOAD DUP3 PUSH2 0x3572 JUMP JUMPDEST DUP4 PUSH1 0x9 ADD DUP2 SWAP1 SSTORE POP PUSH2 0x3521 JUMP JUMPDEST PUSH1 0x2 DUP6 PUSH1 0xFF AND EQ ISZERO PUSH2 0x3520 JUMPI PUSH2 0x3517 DUP4 PUSH1 0xB ADD SLOAD DUP3 PUSH2 0x3572 JUMP JUMPDEST DUP4 PUSH1 0xB ADD DUP2 SWAP1 SSTORE POP JUMPDEST JUMPDEST JUMPDEST PUSH1 0x1 DUP3 PUSH1 0x0 ADD PUSH1 0x0 PUSH2 0x100 EXP DUP2 SLOAD DUP2 PUSH1 0xFF MUL NOT AND SWAP1 DUP4 ISZERO ISZERO MUL OR SWAP1 SSTORE POP DUP5 DUP3 PUSH1 0x0 ADD PUSH1 0x1 PUSH2 0x100 EXP DUP2 SLOAD DUP2 PUSH1 0xFF MUL NOT AND SWAP1 DUP4 PUSH1 0xFF AND MUL OR SWAP1 SSTORE POP DUP1 DUP3 PUSH1 0x1 ADD DUP2 SWAP1 SSTORE POP DUP1 SWAP4 POP POP POP POP SWAP4 SWAP3 POP POP POP JUMP JUMPDEST PUSH1 0x0 DUP1 DUP3 DUP5 ADD SWAP1 POP DUP4 DUP2 LT ISZERO PUSH2 0x35BD JUMPI PUSH1 0x40 MLOAD PUSH32 0x8C379A000000000000000000000000000000000000000000000000000000000 DUP2 MSTORE PUSH1 0x4 ADD PUSH2 0x35B4 SWAP1 PUSH2 0x629C JUMP JUMPDEST PUSH1 0x40 MLOAD DUP1 SWAP2 SUB SWAP1 REVERT JUMPDEST DUP1 SWAP2 POP POP SWAP3 SWAP2 POP POP JUMP JUMPDEST PUSH1 0x0 DUP3 DUP3 GT ISZERO PUSH2 0x360C JUMPI PUSH1 0x40 MLOAD PUSH32 0x8C379A000000000000000000000000000000000000000000000000000000000 DUP2 MSTORE PUSH1 0x4 ADD PUSH2 0x3603 SWAP1 PUSH2 0x645C JUMP JUMPDEST PUSH1 0x40 MLOAD DUP1 SWAP2 SUB SWAP1 REVERT JUMPDEST DUP2 DUP4 SUB SWAP1 POP SWAP3 SWAP2 POP POP JUMP JUMPDEST PUSH1 0x8 PUSH1 0x0 SWAP1 SLOAD SWAP1 PUSH2 0x100 EXP SWAP1 DIV PUSH20 0xFFFFFFFFFFFFFFFFFFFFFFFFFFFFFFFFFFFFFFFF AND PUSH20 0xFFFFFFFFFFFFFFFFFFFFFFFFFFFFFFFFFFFFFFFF AND PUSH4 0xF2B06537 DUP7 DUP7 DUP7 DUP7 DUP7 PUSH1 0x40 MLOAD PUSH1 0x20 ADD PUSH2 0x366E SWAP6 SWAP5 SWAP4 SWAP3 SWAP2 SWAP1 PUSH2 0x5D4F JUMP JUMPDEST PUSH1 0x40 MLOAD PUSH1 0x20 DUP2 DUP4 SUB SUB DUP2 MSTORE SWAP1 PUSH1 0x40 MSTORE DUP1 MLOAD SWAP1 PUSH1 0x20 ADD KECCAK256 PUSH1 0x40 MLOAD DUP3 PUSH4 0xFFFFFFFF AND PUSH1 0xE0 SHL DUP2 MSTORE PUSH1 0x4 ADD PUSH2 0x36A0 SWAP2 SWAP1 PUSH2 0x5E72 JUMP JUMPDEST PUSH1 0x20 PUSH1 0x40 MLOAD DUP1 DUP4 SUB DUP2 DUP7 DUP1 EXTCODESIZE ISZERO DUP1 ISZERO PUSH2 0x36B8 JUMPI PUSH1 0x0 DUP1 REVERT JUMPDEST POP GAS STATICCALL ISZERO DUP1 ISZERO PUSH2 0x36CC JUMPI RETURNDATASIZE PUSH1 0x0 DUP1 RETURNDATACOPY RETURNDATASIZE PUSH1 0x0 REVERT JUMPDEST POP POP POP POP PUSH1 0x40 MLOAD RETURNDATASIZE PUSH1 0x1F NOT PUSH1 0x1F DUP3 ADD AND DUP3 ADD DUP1 PUSH1 0x40 MSTORE POP PUSH2 0x36F0 SWAP2 SWAP1 DUP2 ADD SWAP1 PUSH2 0x4319 JUMP JUMPDEST ISZERO PUSH2 0x3730 JUMPI PUSH1 0x40 MLOAD PUSH32 0x8C379A000000000000000000000000000000000000000000000000000000000 DUP2 MSTORE PUSH1 0x4 ADD PUSH2 0x3727 SWAP1 PUSH2 0x639C JUMP JUMPDEST PUSH1 0x40 MLOAD DUP1 SWAP2 SUB SWAP1 REVERT JUMPDEST PUSH1 0x8 PUSH1 0x0 SWAP1 SLOAD SWAP1 PUSH2 0x100 EXP SWAP1 DIV PUSH20 0xFFFFFFFFFFFFFFFFFFFFFFFFFFFFFFFFFFFFFFFF AND PUSH20 0xFFFFFFFFFFFFFFFFFFFFFFFFFFFFFFFFFFFFFFFF AND PUSH4 0x3A66F901 DUP7 DUP7 DUP7 DUP7 DUP7 PUSH1 0x40 MLOAD DUP7 PUSH4 0xFFFFFFFF AND PUSH1 0xE0 SHL DUP2 MSTORE PUSH1 0x4 ADD PUSH2 0x3793 SWAP6 SWAP5 SWAP4 SWAP3 SWAP2 SWAP1 PUSH2 0x5D4F JUMP JUMPDEST PUSH1 0x20 PUSH1 0x40 MLOAD DUP1 DUP4 SUB DUP2 PUSH1 0x0 DUP8 DUP1 EXTCODESIZE ISZERO DUP1 ISZERO PUSH2 0x37AD JUMPI PUSH1 0x0 DUP1 REVERT JUMPDEST POP GAS CALL ISZERO DUP1 ISZERO PUSH2 0x37C1 JUMPI RETURNDATASIZE PUSH1 0x0 DUP1 RETURNDATACOPY RETURNDATASIZE PUSH1 0x0 REVERT JUMPDEST POP POP POP POP PUSH1 0x40 MLOAD RETURNDATASIZE PUSH1 0x1F NOT PUSH1 0x1F DUP3 ADD AND DUP3 ADD DUP1 PUSH1 0x40 MSTORE POP PUSH2 0x37E5 SWAP2 SWAP1 DUP2 ADD SWAP1 PUSH2 0x4342 JUMP JUMPDEST POP POP POP POP POP POP JUMP JUMPDEST PUSH1 0x0 DUP1 DUP4 EQ ISZERO PUSH2 0x3800 JUMPI PUSH1 0x0 SWAP1 POP PUSH2 0x3857 JUMP JUMPDEST PUSH1 0x0 DUP3 DUP5 MUL SWAP1 POP DUP3 DUP5 DUP3 DUP2 PUSH2 0x3811 JUMPI INVALID JUMPDEST DIV EQ PUSH2 0x3852 JUMPI PUSH1 0x40 MLOAD PUSH32 0x8C379A000000000000000000000000000000000000000000000000000000000 DUP2 MSTORE PUSH1 0x4 ADD PUSH2 0x3849 SWAP1 PUSH2 0x609C JUMP JUMPDEST PUSH1 0x40 MLOAD DUP1 SWAP2 SUB SWAP1 REVERT JUMPDEST DUP1 SWAP2 POP POP JUMPDEST SWAP3 SWAP2 POP POP JUMP JUMPDEST PUSH1 0x0 DUP1 DUP3 GT PUSH2 0x38A1 JUMPI PUSH1 0x40 MLOAD PUSH32 0x8C379A000000000000000000000000000000000000000000000000000000000 DUP2 MSTORE PUSH1 0x4 ADD PUSH2 0x3898 SWAP1 PUSH2 0x63BC JUMP JUMPDEST PUSH1 0x40 MLOAD DUP1 SWAP2 SUB SWAP1 REVERT JUMPDEST PUSH1 0x0 DUP3 DUP5 DUP2 PUSH2 0x38AC JUMPI INVALID JUMPDEST DIV SWAP1 POP DUP1 SWAP2 POP POP SWAP3 SWAP2 POP POP JUMP JUMPDEST PUSH1 0x40 MLOAD DUP1 PUSH2 0x200 ADD PUSH1 0x40 MSTORE DUP1 PUSH1 0x0 DUP2 MSTORE PUSH1 0x20 ADD PUSH1 0x0 PUSH20 0xFFFFFFFFFFFFFFFFFFFFFFFFFFFFFFFFFFFFFFFF AND DUP2 MSTORE PUSH1 0x20 ADD PUSH1 0x0 DUP2 MSTORE PUSH1 0x20 ADD PUSH1 0x60 DUP2 MSTORE PUSH1 0x20 ADD PUSH1 0x60 DUP2 MSTORE PUSH1 0x20 ADD PUSH1 0x60 DUP2 MSTORE PUSH1 0x20 ADD PUSH1 0x60 DUP2 MSTORE PUSH1 0x20 ADD PUSH1 0x0 DUP2 MSTORE PUSH1 0x20 ADD PUSH1 0x0 DUP2 MSTORE PUSH1 0x20 ADD PUSH1 0x0 DUP2 MSTORE PUSH1 0x20 ADD PUSH1 0x0 DUP2 MSTORE PUSH1 0x20 ADD PUSH1 0x0 DUP2 MSTORE PUSH1 0x20 ADD PUSH1 0x0 DUP2 MSTORE PUSH1 0x20 ADD PUSH1 0x0 DUP2 MSTORE PUSH1 0x20 ADD PUSH1 0x0 ISZERO ISZERO DUP2 MSTORE PUSH1 0x20 ADD PUSH1 0x0 ISZERO ISZERO DUP2 MSTORE POP SWAP1 JUMP JUMPDEST DUP3 DUP1 SLOAD DUP3 DUP3 SSTORE SWAP1 PUSH1 0x0 MSTORE PUSH1 0x20 PUSH1 0x0 KECCAK256 SWAP1 DUP2 ADD SWAP3 DUP3 ISZERO PUSH2 0x39C9 JUMPI SWAP2 PUSH1 0x20 MUL DUP3 ADD JUMPDEST DUP3 DUP2 GT ISZERO PUSH2 0x39C8 JUMPI DUP3 MLOAD DUP3 PUSH1 0x0 PUSH2 0x100 EXP DUP2 SLOAD DUP2 PUSH20 0xFFFFFFFFFFFFFFFFFFFFFFFFFFFFFFFFFFFFFFFF MUL NOT AND SWAP1 DUP4 PUSH20 0xFFFFFFFFFFFFFFFFFFFFFFFFFFFFFFFFFFFFFFFF AND MUL OR SWAP1 SSTORE POP SWAP2 PUSH1 0x20 ADD SWAP2 SWAP1 PUSH1 0x1 ADD SWAP1 PUSH2 0x3970 JUMP JUMPDEST JUMPDEST POP SWAP1 POP PUSH2 0x39D6 SWAP2 SWAP1 PUSH2 0x3B0D JUMP JUMPDEST POP SWAP1 JUMP JUMPDEST DUP3 DUP1 SLOAD DUP3 DUP3 SSTORE SWAP1 PUSH1 0x0 MSTORE PUSH1 0x20 PUSH1 0x0 KECCAK256 SWAP1 DUP2 ADD SWAP3 DUP3 ISZERO PUSH2 0x3A16 JUMPI SWAP2 PUSH1 0x20 MUL DUP3 ADD JUMPDEST DUP3 DUP2 GT ISZERO PUSH2 0x3A15 JUMPI DUP3 MLOAD DUP3 SSTORE SWAP2 PUSH1 0x20 ADD SWAP2 SWAP1 PUSH1 0x1 ADD SWAP1 PUSH2 0x39FA JUMP JUMPDEST JUMPDEST POP SWAP1 POP PUSH2 0x3A23 SWAP2 SWAP1 PUSH2 0x3B50 JUMP JUMPDEST POP SWAP1 JUMP JUMPDEST DUP3 DUP1 SLOAD DUP3 DUP3 SSTORE SWAP1 PUSH1 0x0 MSTORE PUSH1 0x20 PUSH1 0x0 KECCAK256 SWAP1 DUP2 ADD SWAP3 DUP3 ISZERO PUSH2 0x3A76 JUMPI SWAP2 PUSH1 0x20 MUL DUP3 ADD JUMPDEST DUP3 DUP2 GT ISZERO PUSH2 0x3A75 JUMPI DUP3 MLOAD DUP3 SWAP1 DUP1 MLOAD SWAP1 PUSH1 0x20 ADD SWAP1 PUSH2 0x3A65 SWAP3 SWAP2 SWAP1 PUSH2 0x3B75 JUMP JUMPDEST POP SWAP2 PUSH1 0x20 ADD SWAP2 SWAP1 PUSH1 0x1 ADD SWAP1 PUSH2 0x3A47 JUMP JUMPDEST JUMPDEST POP SWAP1 POP PUSH2 0x3A83 SWAP2 SWAP1 PUSH2 0x3BF5 JUMP JUMPDEST POP SWAP1 JUMP JUMPDEST DUP3 DUP1 SLOAD DUP3 DUP3 SSTORE SWAP1 PUSH1 0x0 MSTORE PUSH1 0x20 PUSH1 0x0 KECCAK256 SWAP1 DUP2 ADD SWAP3 DUP3 ISZERO PUSH2 0x3AD6 JUMPI SWAP2 PUSH1 0x20 MUL DUP3 ADD JUMPDEST DUP3 DUP2 GT ISZERO PUSH2 0x3AD5 JUMPI DUP3 MLOAD DUP3 SWAP1 DUP1 MLOAD SWAP1 PUSH1 0x20 ADD SWAP1 PUSH2 0x3AC5 SWAP3 SWAP2 SWAP1 PUSH2 0x3C21 JUMP JUMPDEST POP SWAP2 PUSH1 0x20 ADD SWAP2 SWAP1 PUSH1 0x1 ADD SWAP1 PUSH2 0x3AA7 JUMP JUMPDEST JUMPDEST POP SWAP1 POP PUSH2 0x3AE3 SWAP2 SWAP1 PUSH2 0x3CA1 JUMP JUMPDEST POP SWAP1 JUMP JUMPDEST PUSH1 0x40 MLOAD DUP1 PUSH1 0x60 ADD PUSH1 0x40 MSTORE DUP1 PUSH1 0x0 ISZERO ISZERO DUP2 MSTORE PUSH1 0x20 ADD PUSH1 0x0 PUSH1 0xFF AND DUP2 MSTORE PUSH1 0x20 ADD PUSH1 0x0 DUP2 MSTORE POP SWAP1 JUMP JUMPDEST PUSH2 0x3B4D SWAP2 SWAP1 JUMPDEST DUP1 DUP3 GT ISZERO PUSH2 0x3B49 JUMPI PUSH1 0x0 DUP2 DUP2 PUSH2 0x100 EXP DUP2 SLOAD SWAP1 PUSH20 0xFFFFFFFFFFFFFFFFFFFFFFFFFFFFFFFFFFFFFFFF MUL NOT AND SWAP1 SSTORE POP PUSH1 0x1 ADD PUSH2 0x3B13 JUMP JUMPDEST POP SWAP1 JUMP JUMPDEST SWAP1 JUMP JUMPDEST PUSH2 0x3B72 SWAP2 SWAP1 JUMPDEST DUP1 DUP3 GT ISZERO PUSH2 0x3B6E JUMPI PUSH1 0x0 DUP2 PUSH1 0x0 SWAP1 SSTORE POP PUSH1 0x1 ADD PUSH2 0x3B56 JUMP JUMPDEST POP SWAP1 JUMP JUMPDEST SWAP1 JUMP JUMPDEST DUP3 DUP1 SLOAD PUSH1 0x1 DUP2 PUSH1 0x1 AND ISZERO PUSH2 0x100 MUL SUB AND PUSH1 0x2 SWAP1 DIV SWAP1 PUSH1 0x0 MSTORE PUSH1 0x20 PUSH1 0x0 KECCAK256 SWAP1 PUSH1 0x1F ADD PUSH1 0x20 SWAP1 DIV DUP2 ADD SWAP3 DUP3 PUSH1 0x1F LT PUSH2 0x3BB6 JUMPI DUP1 MLOAD PUSH1 0xFF NOT AND DUP4 DUP1 ADD OR DUP6 SSTORE PUSH2 0x3BE4 JUMP JUMPDEST DUP3 DUP1 ADD PUSH1 0x1 ADD DUP6 SSTORE DUP3 ISZERO PUSH2 0x3BE4 JUMPI SWAP2 DUP3 ADD JUMPDEST DUP3 DUP2 GT ISZERO PUSH2 0x3BE3 JUMPI DUP3 MLOAD DUP3 SSTORE SWAP2 PUSH1 0x20 ADD SWAP2 SWAP1 PUSH1 0x1 ADD SWAP1 PUSH2 0x3BC8 JUMP JUMPDEST JUMPDEST POP SWAP1 POP PUSH2 0x3BF1 SWAP2 SWAP1 PUSH2 0x3B50 JUMP JUMPDEST POP SWAP1 JUMP JUMPDEST PUSH2 0x3C1E SWAP2 SWAP1 JUMPDEST DUP1 DUP3 GT ISZERO PUSH2 0x3C1A JUMPI PUSH1 0x0 DUP2 DUP2 PUSH2 0x3C11 SWAP2 SWAP1 PUSH2 0x3CCD JUMP JUMPDEST POP PUSH1 0x1 ADD PUSH2 0x3BFB JUMP JUMPDEST POP SWAP1 JUMP JUMPDEST SWAP1 JUMP JUMPDEST DUP3 DUP1 SLOAD PUSH1 0x1 DUP2 PUSH1 0x1 AND ISZERO PUSH2 0x100 MUL SUB AND PUSH1 0x2 SWAP1 DIV SWAP1 PUSH1 0x0 MSTORE PUSH1 0x20 PUSH1 0x0 KECCAK256 SWAP1 PUSH1 0x1F ADD PUSH1 0x20 SWAP1 DIV DUP2 ADD SWAP3 DUP3 PUSH1 0x1F LT PUSH2 0x3C62 JUMPI DUP1 MLOAD PUSH1 0xFF NOT AND DUP4 DUP1 ADD OR DUP6 SSTORE PUSH2 0x3C90 JUMP JUMPDEST DUP3 DUP1 ADD PUSH1 0x1 ADD DUP6 SSTORE DUP3 ISZERO PUSH2 0x3C90 JUMPI SWAP2 DUP3 ADD JUMPDEST DUP3 DUP2 GT ISZERO PUSH2 0x3C8F JUMPI DUP3 MLOAD DUP3 SSTORE SWAP2 PUSH1 0x20 ADD SWAP2 SWAP1 PUSH1 0x1 ADD SWAP1 PUSH2 0x3C74 JUMP JUMPDEST JUMPDEST POP SWAP1 POP PUSH2 0x3C9D SWAP2 SWAP1 PUSH2 0x3B50 JUMP JUMPDEST POP SWAP1 JUMP JUMPDEST PUSH2 0x3CCA SWAP2 SWAP1 JUMPDEST DUP1 DUP3 GT ISZERO PUSH2 0x3CC6 JUMPI PUSH1 0x0 DUP2 DUP2 PUSH2 0x3CBD SWAP2 SWAP1 PUSH2 0x3D15 JUMP JUMPDEST POP PUSH1 0x1 ADD PUSH2 0x3CA7 JUMP JUMPDEST POP SWAP1 JUMP JUMPDEST SWAP1 JUMP JUMPDEST POP DUP1 SLOAD PUSH1 0x1 DUP2 PUSH1 0x1 AND ISZERO PUSH2 0x100 MUL SUB AND PUSH1 0x2 SWAP1 DIV PUSH1 0x0 DUP3 SSTORE DUP1 PUSH1 0x1F LT PUSH2 0x3CF3 JUMPI POP PUSH2 0x3D12 JUMP JUMPDEST PUSH1 0x1F ADD PUSH1 0x20 SWAP1 DIV SWAP1 PUSH1 0x0 MSTORE PUSH1 0x20 PUSH1 0x0 KECCAK256 SWAP1 DUP2 ADD SWAP1 PUSH2 0x3D11 SWAP2 SWAP1 PUSH2 0x3B50 JUMP JUMPDEST JUMPDEST POP JUMP JUMPDEST POP DUP1 SLOAD PUSH1 0x1 DUP2 PUSH1 0x1 AND ISZERO PUSH2 0x100 MUL SUB AND PUSH1 0x2 SWAP1 DIV PUSH1 0x0 DUP3 SSTORE DUP1 PUSH1 0x1F LT PUSH2 0x3D3B JUMPI POP PUSH2 0x3D5A JUMP JUMPDEST PUSH1 0x1F ADD PUSH1 0x20 SWAP1 DIV SWAP1 PUSH1 0x0 MSTORE PUSH1 0x20 PUSH1 0x0 KECCAK256 SWAP1 DUP2 ADD SWAP1 PUSH2 0x3D59 SWAP2 SWAP1 PUSH2 0x3B50 JUMP JUMPDEST JUMPDEST POP JUMP JUMPDEST PUSH1 0x0 DUP2 CALLDATALOAD SWAP1 POP PUSH2 0x3D6C DUP2 PUSH2 0x6BC2 JUMP JUMPDEST SWAP3 SWAP2 POP POP JUMP JUMPDEST PUSH1 0x0 DUP3 PUSH1 0x1F DUP4 ADD SLT PUSH2 0x3D83 JUMPI PUSH1 0x0 DUP1 REVERT JUMPDEST DUP2 CALLDATALOAD PUSH2 0x3D96 PUSH2 0x3D91 DUP3 PUSH2 0x6759 JUMP JUMPDEST PUSH2 0x672C JUMP JUMPDEST SWAP2 POP DUP2 DUP2 DUP4 MSTORE PUSH1 0x20 DUP5 ADD SWAP4 POP PUSH1 0x20 DUP2 ADD SWAP1 POP DUP4 DUP6 PUSH1 0x20 DUP5 MUL DUP3 ADD GT ISZERO PUSH2 0x3DBB JUMPI PUSH1 0x0 DUP1 REVERT JUMPDEST PUSH1 0x0 JUMPDEST DUP4 DUP2 LT ISZERO PUSH2 0x3DEB JUMPI DUP2 PUSH2 0x3DD1 DUP9 DUP3 PUSH2 0x3D5D JUMP JUMPDEST DUP5 MSTORE PUSH1 0x20 DUP5 ADD SWAP4 POP PUSH1 0x20 DUP4 ADD SWAP3 POP POP PUSH1 0x1 DUP2 ADD SWAP1 POP PUSH2 0x3DBE JUMP JUMPDEST POP POP POP POP SWAP3 SWAP2 POP POP JUMP JUMPDEST PUSH1 0x0 DUP3 PUSH1 0x1F DUP4 ADD SLT PUSH2 0x3E06 JUMPI PUSH1 0x0 DUP1 REVERT JUMPDEST DUP2 CALLDATALOAD PUSH2 0x3E19 PUSH2 0x3E14 DUP3 PUSH2 0x6781 JUMP JUMPDEST PUSH2 0x672C JUMP JUMPDEST SWAP2 POP DUP2 DUP2 DUP4 MSTORE PUSH1 0x20 DUP5 ADD SWAP4 POP PUSH1 0x20 DUP2 ADD SWAP1 POP DUP4 PUSH1 0x0 JUMPDEST DUP4 DUP2 LT ISZERO PUSH2 0x3E5F JUMPI DUP2 CALLDATALOAD DUP7 ADD PUSH2 0x3E45 DUP9 DUP3 PUSH2 0x3F9F JUMP JUMPDEST DUP5 MSTORE PUSH1 0x20 DUP5 ADD SWAP4 POP PUSH1 0x20 DUP4 ADD SWAP3 POP POP PUSH1 0x1 DUP2 ADD SWAP1 POP PUSH2 0x3E2F JUMP JUMPDEST POP POP POP POP SWAP3 SWAP2 POP POP JUMP JUMPDEST PUSH1 0x0 DUP3 PUSH1 0x1F DUP4 ADD SLT PUSH2 0x3E7A JUMPI PUSH1 0x0 DUP1 REVERT JUMPDEST DUP2 CALLDATALOAD PUSH2 0x3E8D PUSH2 0x3E88 DUP3 PUSH2 0x67A9 JUMP JUMPDEST PUSH2 0x672C JUMP JUMPDEST SWAP2 POP DUP2 DUP2 DUP4 MSTORE PUSH1 0x20 DUP5 ADD SWAP4 POP PUSH1 0x20 DUP2 ADD SWAP1 POP DUP4 PUSH1 0x0 JUMPDEST DUP4 DUP2 LT ISZERO PUSH2 0x3ED3 JUMPI DUP2 CALLDATALOAD DUP7 ADD PUSH2 0x3EB9 DUP9 DUP3 PUSH2 0x4091 JUMP JUMPDEST DUP5 MSTORE PUSH1 0x20 DUP5 ADD SWAP4 POP PUSH1 0x20 DUP4 ADD SWAP3 POP POP PUSH1 0x1 DUP2 ADD SWAP1 POP PUSH2 0x3EA3 JUMP JUMPDEST POP POP POP POP SWAP3 SWAP2 POP POP JUMP JUMPDEST PUSH1 0x0 DUP3 PUSH1 0x1F DUP4 ADD SLT PUSH2 0x3EEE JUMPI PUSH1 0x0 DUP1 REVERT JUMPDEST DUP2 CALLDATALOAD PUSH2 0x3F01 PUSH2 0x3EFC DUP3 PUSH2 0x67D1 JUMP JUMPDEST PUSH2 0x672C JUMP JUMPDEST SWAP2 POP DUP2 DUP2 DUP4 MSTORE PUSH1 0x20 DUP5 ADD SWAP4 POP PUSH1 0x20 DUP2 ADD SWAP1 POP DUP4 DUP6 PUSH1 0x20 DUP5 MUL DUP3 ADD GT ISZERO PUSH2 0x3F26 JUMPI PUSH1 0x0 DUP1 REVERT JUMPDEST PUSH1 0x0 JUMPDEST DUP4 DUP2 LT ISZERO PUSH2 0x3F56 JUMPI DUP2 PUSH2 0x3F3C DUP9 DUP3 PUSH2 0x4139 JUMP JUMPDEST DUP5 MSTORE PUSH1 0x20 DUP5 ADD SWAP4 POP PUSH1 0x20 DUP4 ADD SWAP3 POP POP PUSH1 0x1 DUP2 ADD SWAP1 POP PUSH2 0x3F29 JUMP JUMPDEST POP POP POP POP SWAP3 SWAP2 POP POP JUMP JUMPDEST PUSH1 0x0 DUP2 MLOAD SWAP1 POP PUSH2 0x3F6F DUP2 PUSH2 0x6BD9 JUMP JUMPDEST SWAP3 SWAP2 POP POP JUMP JUMPDEST PUSH1 0x0 DUP2 CALLDATALOAD SWAP1 POP PUSH2 0x3F84 DUP2 PUSH2 0x6BF0 JUMP JUMPDEST SWAP3 SWAP2 POP POP JUMP JUMPDEST PUSH1 0x0 DUP2 MLOAD SWAP1 POP PUSH2 0x3F99 DUP2 PUSH2 0x6BF0 JUMP JUMPDEST SWAP3 SWAP2 POP POP JUMP JUMPDEST PUSH1 0x0 DUP3 PUSH1 0x1F DUP4 ADD SLT PUSH2 0x3FB0 JUMPI PUSH1 0x0 DUP1 REVERT JUMPDEST DUP2 CALLDATALOAD PUSH2 0x3FC3 PUSH2 0x3FBE DUP3 PUSH2 0x67F9 JUMP JUMPDEST PUSH2 0x672C JUMP JUMPDEST SWAP2 POP DUP1 DUP3 MSTORE PUSH1 0x20 DUP4 ADD PUSH1 0x20 DUP4 ADD DUP6 DUP4 DUP4 ADD GT ISZERO PUSH2 0x3FDF JUMPI PUSH1 0x0 DUP1 REVERT JUMPDEST PUSH2 0x3FEA DUP4 DUP3 DUP5 PUSH2 0x6B58 JUMP JUMPDEST POP POP POP SWAP3 SWAP2 POP POP JUMP JUMPDEST PUSH1 0x0 DUP3 PUSH1 0x1F DUP4 ADD SLT PUSH2 0x4004 JUMPI PUSH1 0x0 DUP1 REVERT JUMPDEST DUP2 MLOAD PUSH2 0x4017 PUSH2 0x4012 DUP3 PUSH2 0x6825 JUMP JUMPDEST PUSH2 0x672C JUMP JUMPDEST SWAP2 POP DUP1 DUP3 MSTORE PUSH1 0x20 DUP4 ADD PUSH1 0x20 DUP4 ADD DUP6 DUP4 DUP4 ADD GT ISZERO PUSH2 0x4033 JUMPI PUSH1 0x0 DUP1 REVERT JUMPDEST PUSH2 0x403E DUP4 DUP3 DUP5 PUSH2 0x6B67 JUMP JUMPDEST POP POP POP SWAP3 SWAP2 POP POP JUMP JUMPDEST PUSH1 0x0 DUP1 DUP4 PUSH1 0x1F DUP5 ADD SLT PUSH2 0x4059 JUMPI PUSH1 0x0 DUP1 REVERT JUMPDEST DUP3 CALLDATALOAD SWAP1 POP PUSH8 0xFFFFFFFFFFFFFFFF DUP2 GT ISZERO PUSH2 0x4072 JUMPI PUSH1 0x0 DUP1 REVERT JUMPDEST PUSH1 0x20 DUP4 ADD SWAP2 POP DUP4 PUSH1 0x1 DUP3 MUL DUP4 ADD GT ISZERO PUSH2 0x408A JUMPI PUSH1 0x0 DUP1 REVERT JUMPDEST SWAP3 POP SWAP3 SWAP1 POP JUMP JUMPDEST PUSH1 0x0 DUP3 PUSH1 0x1F DUP4 ADD SLT PUSH2 0x40A2 JUMPI PUSH1 0x0 DUP1 REVERT JUMPDEST DUP2 CALLDATALOAD PUSH2 0x40B5 PUSH2 0x40B0 DUP3 PUSH2 0x6851 JUMP JUMPDEST PUSH2 0x672C JUMP JUMPDEST SWAP2 POP DUP1 DUP3 MSTORE PUSH1 0x20 DUP4 ADD PUSH1 0x20 DUP4 ADD DUP6 DUP4 DUP4 ADD GT ISZERO PUSH2 0x40D1 JUMPI PUSH1 0x0 DUP1 REVERT JUMPDEST PUSH2 0x40DC DUP4 DUP3 DUP5 PUSH2 0x6B58 JUMP JUMPDEST POP POP POP SWAP3 SWAP2 POP POP JUMP JUMPDEST PUSH1 0x0 DUP3 PUSH1 0x1F DUP4 ADD SLT PUSH2 0x40F6 JUMPI PUSH1 0x0 DUP1 REVERT JUMPDEST DUP2 CALLDATALOAD PUSH2 0x4109 PUSH2 0x4104 DUP3 PUSH2 0x687D JUMP JUMPDEST PUSH2 0x672C JUMP JUMPDEST SWAP2 POP DUP1 DUP3 MSTORE PUSH1 0x20 DUP4 ADD PUSH1 0x20 DUP4 ADD DUP6 DUP4 DUP4 ADD GT ISZERO PUSH2 0x4125 JUMPI PUSH1 0x0 DUP1 REVERT JUMPDEST PUSH2 0x4130 DUP4 DUP3 DUP5 PUSH2 0x6B58 JUMP JUMPDEST POP POP POP SWAP3 SWAP2 POP POP JUMP JUMPDEST PUSH1 0x0 DUP2 CALLDATALOAD SWAP1 POP PUSH2 0x4148 DUP2 PUSH2 0x6C07 JUMP JUMPDEST SWAP3 SWAP2 POP POP JUMP JUMPDEST PUSH1 0x0 DUP2 MLOAD SWAP1 POP PUSH2 0x415D DUP2 PUSH2 0x6C07 JUMP JUMPDEST SWAP3 SWAP2 POP POP JUMP JUMPDEST PUSH1 0x0 DUP2 CALLDATALOAD SWAP1 POP PUSH2 0x4172 DUP2 PUSH2 0x6C1E JUMP JUMPDEST SWAP3 SWAP2 POP POP JUMP JUMPDEST PUSH1 0x0 PUSH1 0x20 DUP3 DUP5 SUB SLT ISZERO PUSH2 0x418A JUMPI PUSH1 0x0 DUP1 REVERT JUMPDEST PUSH1 0x0 PUSH2 0x4198 DUP5 DUP3 DUP6 ADD PUSH2 0x3D5D JUMP JUMPDEST SWAP2 POP POP SWAP3 SWAP2 POP POP JUMP JUMPDEST PUSH1 0x0 DUP1 PUSH1 0x0 DUP1 PUSH1 0x0 DUP1 PUSH1 0xC0 DUP8 DUP10 SUB SLT ISZERO PUSH2 0x41BA JUMPI PUSH1 0x0 DUP1 REVERT JUMPDEST PUSH1 0x0 PUSH2 0x41C8 DUP10 DUP3 DUP11 ADD PUSH2 0x3D5D JUMP JUMPDEST SWAP7 POP POP PUSH1 0x20 PUSH2 0x41D9 DUP10 DUP3 DUP11 ADD PUSH2 0x3D5D JUMP JUMPDEST SWAP6 POP POP PUSH1 0x40 PUSH2 0x41EA DUP10 DUP3 DUP11 ADD PUSH2 0x3D5D JUMP JUMPDEST SWAP5 POP POP PUSH1 0x60 PUSH2 0x41FB DUP10 DUP3 DUP11 ADD PUSH2 0x4139 JUMP JUMPDEST SWAP4 POP POP PUSH1 0x80 PUSH2 0x420C DUP10 DUP3 DUP11 ADD PUSH2 0x4139 JUMP JUMPDEST SWAP3 POP POP PUSH1 0xA0 PUSH2 0x421D DUP10 DUP3 DUP11 ADD PUSH2 0x4139 JUMP JUMPDEST SWAP2 POP POP SWAP3 SWAP6 POP SWAP3 SWAP6 POP SWAP3 SWAP6 JUMP JUMPDEST PUSH1 0x0 DUP1 PUSH1 0x0 DUP1 PUSH1 0x0 PUSH1 0xA0 DUP7 DUP9 SUB SLT ISZERO PUSH2 0x4242 JUMPI PUSH1 0x0 DUP1 REVERT JUMPDEST PUSH1 0x0 DUP7 ADD CALLDATALOAD PUSH8 0xFFFFFFFFFFFFFFFF DUP2 GT ISZERO PUSH2 0x425C JUMPI PUSH1 0x0 DUP1 REVERT JUMPDEST PUSH2 0x4268 DUP9 DUP3 DUP10 ADD PUSH2 0x3D72 JUMP JUMPDEST SWAP6 POP POP PUSH1 0x20 DUP7 ADD CALLDATALOAD PUSH8 0xFFFFFFFFFFFFFFFF DUP2 GT ISZERO PUSH2 0x4285 JUMPI PUSH1 0x0 DUP1 REVERT JUMPDEST PUSH2 0x4291 DUP9 DUP3 DUP10 ADD PUSH2 0x3EDD JUMP JUMPDEST SWAP5 POP POP PUSH1 0x40 DUP7 ADD CALLDATALOAD PUSH8 0xFFFFFFFFFFFFFFFF DUP2 GT ISZERO PUSH2 0x42AE JUMPI PUSH1 0x0 DUP1 REVERT JUMPDEST PUSH2 0x42BA DUP9 DUP3 DUP10 ADD PUSH2 0x3E69 JUMP JUMPDEST SWAP4 POP POP PUSH1 0x60 DUP7 ADD CALLDATALOAD PUSH8 0xFFFFFFFFFFFFFFFF DUP2 GT ISZERO PUSH2 0x42D7 JUMPI PUSH1 0x0 DUP1 REVERT JUMPDEST PUSH2 0x42E3 DUP9 DUP3 DUP10 ADD PUSH2 0x3DF5 JUMP JUMPDEST SWAP3 POP POP PUSH1 0x80 DUP7 ADD CALLDATALOAD PUSH8 0xFFFFFFFFFFFFFFFF DUP2 GT ISZERO PUSH2 0x4300 JUMPI PUSH1 0x0 DUP1 REVERT JUMPDEST PUSH2 0x430C DUP9 DUP3 DUP10 ADD PUSH2 0x40E5 JUMP JUMPDEST SWAP2 POP POP SWAP3 SWAP6 POP SWAP3 SWAP6 SWAP1 SWAP4 POP JUMP JUMPDEST PUSH1 0x0 PUSH1 0x20 DUP3 DUP5 SUB SLT ISZERO PUSH2 0x432B JUMPI PUSH1 0x0 DUP1 REVERT JUMPDEST PUSH1 0x0 PUSH2 0x4339 DUP5 DUP3 DUP6 ADD PUSH2 0x3F60 JUMP JUMPDEST SWAP2 POP POP SWAP3 SWAP2 POP POP JUMP JUMPDEST PUSH1 0x0 PUSH1 0x20 DUP3 DUP5 SUB SLT ISZERO PUSH2 0x4354 JUMPI PUSH1 0x0 DUP1 REVERT JUMPDEST PUSH1 0x0 PUSH2 0x4362 DUP5 DUP3 DUP6 ADD PUSH2 0x3F8A JUMP JUMPDEST SWAP2 POP POP SWAP3 SWAP2 POP POP JUMP JUMPDEST PUSH1 0x0 PUSH1 0x20 DUP3 DUP5 SUB SLT ISZERO PUSH2 0x437D JUMPI PUSH1 0x0 DUP1 REVERT JUMPDEST PUSH1 0x0 DUP3 ADD MLOAD PUSH8 0xFFFFFFFFFFFFFFFF DUP2 GT ISZERO PUSH2 0x4397 JUMPI PUSH1 0x0 DUP1 REVERT JUMPDEST PUSH2 0x43A3 DUP5 DUP3 DUP6 ADD PUSH2 0x3FF3 JUMP JUMPDEST SWAP2 POP POP SWAP3 SWAP2 POP POP JUMP JUMPDEST PUSH1 0x0 PUSH1 0x20 DUP3 DUP5 SUB SLT ISZERO PUSH2 0x43BE JUMPI PUSH1 0x0 DUP1 REVERT JUMPDEST PUSH1 0x0 PUSH2 0x43CC DUP5 DUP3 DUP6 ADD PUSH2 0x4139 JUMP JUMPDEST SWAP2 POP POP SWAP3 SWAP2 POP POP JUMP JUMPDEST PUSH1 0x0 PUSH1 0x20 DUP3 DUP5 SUB SLT ISZERO PUSH2 0x43E7 JUMPI PUSH1 0x0 DUP1 REVERT JUMPDEST PUSH1 0x0 PUSH2 0x43F5 DUP5 DUP3 DUP6 ADD PUSH2 0x414E JUMP JUMPDEST SWAP2 POP POP SWAP3 SWAP2 POP POP JUMP JUMPDEST PUSH1 0x0 DUP1 PUSH1 0x40 DUP4 DUP6 SUB SLT ISZERO PUSH2 0x4411 JUMPI PUSH1 0x0 DUP1 REVERT JUMPDEST PUSH1 0x0 PUSH2 0x441F DUP6 DUP3 DUP7 ADD PUSH2 0x4139 JUMP JUMPDEST SWAP3 POP POP PUSH1 0x20 PUSH2 0x4430 DUP6 DUP3 DUP7 ADD PUSH2 0x3D5D JUMP JUMPDEST SWAP2 POP POP SWAP3 POP SWAP3 SWAP1 POP JUMP JUMPDEST PUSH1 0x0 DUP1 PUSH1 0x40 DUP4 DUP6 SUB SLT ISZERO PUSH2 0x444D JUMPI PUSH1 0x0 DUP1 REVERT JUMPDEST PUSH1 0x0 PUSH2 0x445B DUP6 DUP3 DUP7 ADD PUSH2 0x4139 JUMP JUMPDEST SWAP3 POP POP PUSH1 0x20 PUSH2 0x446C DUP6 DUP3 DUP7 ADD PUSH2 0x4163 JUMP JUMPDEST SWAP2 POP POP SWAP3 POP SWAP3 SWAP1 POP JUMP JUMPDEST PUSH1 0x0 DUP1 PUSH1 0x0 DUP1 PUSH1 0x60 DUP6 DUP8 SUB SLT ISZERO PUSH2 0x448C JUMPI PUSH1 0x0 DUP1 REVERT JUMPDEST PUSH1 0x0 PUSH2 0x449A DUP8 DUP3 DUP9 ADD PUSH2 0x4139 JUMP JUMPDEST SWAP5 POP POP PUSH1 0x20 PUSH2 0x44AB DUP8 DUP3 DUP9 ADD PUSH2 0x4163 JUMP JUMPDEST SWAP4 POP POP PUSH1 0x40 DUP6 ADD CALLDATALOAD PUSH8 0xFFFFFFFFFFFFFFFF DUP2 GT ISZERO PUSH2 0x44C8 JUMPI PUSH1 0x0 DUP1 REVERT JUMPDEST PUSH2 0x44D4 DUP8 DUP3 DUP9 ADD PUSH2 0x4047 JUMP JUMPDEST SWAP3 POP SWAP3 POP POP SWAP3 SWAP6 SWAP2 SWAP5 POP SWAP3 POP JUMP JUMPDEST PUSH1 0x0 DUP1 PUSH1 0x0 DUP1 PUSH1 0x0 PUSH1 0xA0 DUP7 DUP9 SUB SLT ISZERO PUSH2 0x44FA JUMPI PUSH1 0x0 DUP1 REVERT JUMPDEST PUSH1 0x0 PUSH2 0x4508 DUP9 DUP3 DUP10 ADD PUSH2 0x4139 JUMP JUMPDEST SWAP6 POP POP PUSH1 0x20 PUSH2 0x4519 DUP9 DUP3 DUP10 ADD PUSH2 0x4163 JUMP JUMPDEST SWAP5 POP POP PUSH1 0x40 PUSH2 0x452A DUP9 DUP3 DUP10 ADD PUSH2 0x4163 JUMP JUMPDEST SWAP4 POP POP PUSH1 0x60 PUSH2 0x453B DUP9 DUP3 DUP10 ADD PUSH2 0x3F75 JUMP JUMPDEST SWAP3 POP POP PUSH1 0x80 PUSH2 0x454C DUP9 DUP3 DUP10 ADD PUSH2 0x3F75 JUMP JUMPDEST SWAP2 POP POP SWAP3 SWAP6 POP SWAP3 SWAP6 SWAP1 SWAP4 POP JUMP JUMPDEST PUSH1 0x0 PUSH2 0x4565 DUP4 DUP4 PUSH2 0x45C0 JUMP JUMPDEST PUSH1 0x20 DUP4 ADD SWAP1 POP SWAP3 SWAP2 POP POP JUMP JUMPDEST PUSH1 0x0 PUSH2 0x457D DUP4 DUP4 PUSH2 0x4801 JUMP JUMPDEST SWAP1 POP SWAP3 SWAP2 POP POP JUMP JUMPDEST PUSH1 0x0 PUSH2 0x4591 DUP4 DUP4 PUSH2 0x496B JUMP JUMPDEST SWAP1 POP SWAP3 SWAP2 POP POP JUMP JUMPDEST PUSH1 0x0 PUSH2 0x45A5 DUP4 DUP4 PUSH2 0x5C1C JUMP JUMPDEST PUSH1 0x20 DUP4 ADD SWAP1 POP SWAP3 SWAP2 POP POP JUMP JUMPDEST PUSH2 0x45BA DUP2 PUSH2 0x6AA4 JUMP JUMPDEST DUP3 MSTORE POP POP JUMP JUMPDEST PUSH2 0x45C9 DUP2 PUSH2 0x6A32 JUMP JUMPDEST DUP3 MSTORE POP POP JUMP JUMPDEST PUSH2 0x45D8 DUP2 PUSH2 0x6A32 JUMP JUMPDEST DUP3 MSTORE POP POP JUMP JUMPDEST PUSH1 0x0 PUSH2 0x45E9 DUP3 PUSH2 0x6913 JUMP JUMPDEST PUSH2 0x45F3 DUP2 DUP6 PUSH2 0x699F JUMP JUMPDEST SWAP4 POP PUSH2 0x45FE DUP4 PUSH2 0x68A9 JUMP JUMPDEST DUP1 PUSH1 0x0 JUMPDEST DUP4 DUP2 LT ISZERO PUSH2 0x462F JUMPI DUP2 MLOAD PUSH2 0x4616 DUP9 DUP3 PUSH2 0x4559 JUMP JUMPDEST SWAP8 POP PUSH2 0x4621 DUP4 PUSH2 0x696B JUMP JUMPDEST SWAP3 POP POP PUSH1 0x1 DUP2 ADD SWAP1 POP PUSH2 0x4602 JUMP JUMPDEST POP DUP6 SWAP4 POP POP POP POP SWAP3 SWAP2 POP POP JUMP JUMPDEST PUSH1 0x0 PUSH2 0x4647 DUP3 PUSH2 0x691E JUMP JUMPDEST PUSH2 0x4651 DUP2 DUP6 PUSH2 0x69B0 JUMP JUMPDEST SWAP4 POP DUP4 PUSH1 0x20 DUP3 MUL DUP6 ADD PUSH2 0x4663 DUP6 PUSH2 0x68B9 JUMP JUMPDEST DUP1 PUSH1 0x0 JUMPDEST DUP6 DUP2 LT ISZERO PUSH2 0x469F JUMPI DUP5 DUP5 SUB DUP10 MSTORE DUP2 MLOAD PUSH2 0x4680 DUP6 DUP3 PUSH2 0x4571 JUMP JUMPDEST SWAP5 POP PUSH2 0x468B DUP4 PUSH2 0x6978 JUMP JUMPDEST SWAP3 POP PUSH1 0x20 DUP11 ADD SWAP10 POP POP PUSH1 0x1 DUP2 ADD SWAP1 POP PUSH2 0x4667 JUMP JUMPDEST POP DUP3 SWAP8 POP DUP8 SWAP6 POP POP POP POP POP POP SWAP3 SWAP2 POP POP JUMP JUMPDEST PUSH1 0x0 PUSH2 0x46BC DUP3 PUSH2 0x6929 JUMP JUMPDEST PUSH2 0x46C6 DUP2 DUP6 PUSH2 0x69C1 JUMP JUMPDEST SWAP4 POP DUP4 PUSH1 0x20 DUP3 MUL DUP6 ADD PUSH2 0x46D8 DUP6 PUSH2 0x68C9 JUMP JUMPDEST DUP1 PUSH1 0x0 JUMPDEST DUP6 DUP2 LT ISZERO PUSH2 0x4714 JUMPI DUP5 DUP5 SUB DUP10 MSTORE DUP2 MLOAD PUSH2 0x46F5 DUP6 DUP3 PUSH2 0x4585 JUMP JUMPDEST SWAP5 POP PUSH2 0x4700 DUP4 PUSH2 0x6985 JUMP JUMPDEST SWAP3 POP PUSH1 0x20 DUP11 ADD SWAP10 POP POP PUSH1 0x1 DUP2 ADD SWAP1 POP PUSH2 0x46DC JUMP JUMPDEST POP DUP3 SWAP8 POP DUP8 SWAP6 POP POP POP POP POP POP SWAP3 SWAP2 POP POP JUMP JUMPDEST PUSH1 0x0 PUSH2 0x4731 DUP3 PUSH2 0x6934 JUMP JUMPDEST PUSH2 0x473B DUP2 DUP6 PUSH2 0x69D2 JUMP JUMPDEST SWAP4 POP PUSH2 0x4746 DUP4 PUSH2 0x68D9 JUMP JUMPDEST DUP1 PUSH1 0x0 JUMPDEST DUP4 DUP2 LT ISZERO PUSH2 0x4777 JUMPI DUP2 MLOAD PUSH2 0x475E DUP9 DUP3 PUSH2 0x4599 JUMP JUMPDEST SWAP8 POP PUSH2 0x4769 DUP4 PUSH2 0x6992 JUMP JUMPDEST SWAP3 POP POP PUSH1 0x1 DUP2 ADD SWAP1 POP PUSH2 0x474A JUMP JUMPDEST POP DUP6 SWAP4 POP POP POP POP SWAP3 SWAP2 POP POP JUMP JUMPDEST PUSH2 0x478D DUP2 PUSH2 0x6A44 JUMP JUMPDEST DUP3 MSTORE POP POP JUMP JUMPDEST PUSH2 0x479C DUP2 PUSH2 0x6A44 JUMP JUMPDEST DUP3 MSTORE POP POP JUMP JUMPDEST PUSH2 0x47AB DUP2 PUSH2 0x6A50 JUMP JUMPDEST DUP3 MSTORE POP POP JUMP JUMPDEST PUSH2 0x47C2 PUSH2 0x47BD DUP3 PUSH2 0x6A50 JUMP JUMPDEST PUSH2 0x6B9A JUMP JUMPDEST DUP3 MSTORE POP POP JUMP JUMPDEST PUSH1 0x0 PUSH2 0x47D3 DUP3 PUSH2 0x694A JUMP JUMPDEST PUSH2 0x47DD DUP2 DUP6 PUSH2 0x69F4 JUMP JUMPDEST SWAP4 POP PUSH2 0x47ED DUP2 DUP6 PUSH1 0x20 DUP7 ADD PUSH2 0x6B67 JUMP JUMPDEST PUSH2 0x47F6 DUP2 PUSH2 0x6BA4 JUMP JUMPDEST DUP5 ADD SWAP2 POP POP SWAP3 SWAP2 POP POP JUMP JUMPDEST PUSH1 0x0 PUSH2 0x480C DUP3 PUSH2 0x693F JUMP JUMPDEST PUSH2 0x4816 DUP2 DUP6 PUSH2 0x69E3 JUMP JUMPDEST SWAP4 POP PUSH2 0x4826 DUP2 DUP6 PUSH1 0x20 DUP7 ADD PUSH2 0x6B67 JUMP JUMPDEST PUSH2 0x482F DUP2 PUSH2 0x6BA4 JUMP JUMPDEST DUP5 ADD SWAP2 POP POP SWAP3 SWAP2 POP POP JUMP JUMPDEST PUSH1 0x0 DUP2 SLOAD PUSH1 0x1 DUP2 AND PUSH1 0x0 DUP2 EQ PUSH2 0x4857 JUMPI PUSH1 0x1 DUP2 EQ PUSH2 0x487D JUMPI PUSH2 0x48C1 JUMP JUMPDEST PUSH1 0x7F PUSH1 0x2 DUP4 DIV AND PUSH2 0x4868 DUP2 DUP8 PUSH2 0x69F4 JUMP JUMPDEST SWAP6 POP PUSH1 0xFF NOT DUP4 AND DUP7 MSTORE PUSH1 0x20 DUP7 ADD SWAP4 POP POP PUSH2 0x48C1 JUMP JUMPDEST PUSH1 0x2 DUP3 DIV PUSH2 0x488B DUP2 DUP8 PUSH2 0x69F4 JUMP JUMPDEST SWAP6 POP PUSH2 0x4896 DUP6 PUSH2 0x68E9 JUMP JUMPDEST PUSH1 0x0 JUMPDEST DUP3 DUP2 LT ISZERO PUSH2 0x48B8 JUMPI DUP2 SLOAD DUP2 DUP10 ADD MSTORE PUSH1 0x1 DUP3 ADD SWAP2 POP PUSH1 0x20 DUP2 ADD SWAP1 POP PUSH2 0x4899 JUMP JUMPDEST DUP1 DUP9 ADD SWAP6 POP POP POP POP JUMPDEST POP POP SWAP3 SWAP2 POP POP JUMP JUMPDEST PUSH2 0x48D2 DUP2 PUSH2 0x6AB6 JUMP JUMPDEST DUP3 MSTORE POP POP JUMP JUMPDEST PUSH2 0x48E1 DUP2 PUSH2 0x6ADA JUMP JUMPDEST DUP3 MSTORE POP POP JUMP JUMPDEST PUSH2 0x48F0 DUP2 PUSH2 0x6AFE JUMP JUMPDEST DUP3 MSTORE POP POP JUMP JUMPDEST PUSH2 0x48FF DUP2 PUSH2 0x6B22 JUMP JUMPDEST DUP3 MSTORE POP POP JUMP JUMPDEST PUSH1 0x0 PUSH2 0x4911 DUP4 DUP6 PUSH2 0x6A16 JUMP JUMPDEST SWAP4 POP PUSH2 0x491E DUP4 DUP6 DUP5 PUSH2 0x6B58 JUMP JUMPDEST PUSH2 0x4927 DUP4 PUSH2 0x6BA4 JUMP JUMPDEST DUP5 ADD SWAP1 POP SWAP4 SWAP3 POP POP POP JUMP JUMPDEST PUSH1 0x0 PUSH2 0x493D DUP3 PUSH2 0x6960 JUMP JUMPDEST PUSH2 0x4947 DUP2 DUP6 PUSH2 0x6A16 JUMP JUMPDEST SWAP4 POP PUSH2 0x4957 DUP2 DUP6 PUSH1 0x20 DUP7 ADD PUSH2 0x6B67 JUMP JUMPDEST PUSH2 0x4960 DUP2 PUSH2 0x6BA4 JUMP JUMPDEST DUP5 ADD SWAP2 POP POP SWAP3 SWAP2 POP POP JUMP JUMPDEST PUSH1 0x0 PUSH2 0x4976 DUP3 PUSH2 0x6955 JUMP JUMPDEST PUSH2 0x4980 DUP2 DUP6 PUSH2 0x6A05 JUMP JUMPDEST SWAP4 POP PUSH2 0x4990 DUP2 DUP6 PUSH1 0x20 DUP7 ADD PUSH2 0x6B67 JUMP JUMPDEST PUSH2 0x4999 DUP2 PUSH2 0x6BA4 JUMP JUMPDEST DUP5 ADD SWAP2 POP POP SWAP3 SWAP2 POP POP JUMP JUMPDEST PUSH1 0x0 PUSH2 0x49AF DUP3 PUSH2 0x6955 JUMP JUMPDEST PUSH2 0x49B9 DUP2 DUP6 PUSH2 0x6A16 JUMP JUMPDEST SWAP4 POP PUSH2 0x49C9 DUP2 DUP6 PUSH1 0x20 DUP7 ADD PUSH2 0x6B67 JUMP JUMPDEST PUSH2 0x49D2 DUP2 PUSH2 0x6BA4 JUMP JUMPDEST DUP5 ADD SWAP2 POP POP SWAP3 SWAP2 POP POP JUMP JUMPDEST PUSH1 0x0 DUP2 SLOAD PUSH1 0x1 DUP2 AND PUSH1 0x0 DUP2 EQ PUSH2 0x49FA JUMPI PUSH1 0x1 DUP2 EQ PUSH2 0x4A20 JUMPI PUSH2 0x4A64 JUMP JUMPDEST PUSH1 0x7F PUSH1 0x2 DUP4 DIV AND PUSH2 0x4A0B DUP2 DUP8 PUSH2 0x6A16 JUMP JUMPDEST SWAP6 POP PUSH1 0xFF NOT DUP4 AND DUP7 MSTORE PUSH1 0x20 DUP7 ADD SWAP4 POP POP PUSH2 0x4A64 JUMP JUMPDEST PUSH1 0x2 DUP3 DIV PUSH2 0x4A2E DUP2 DUP8 PUSH2 0x6A16 JUMP JUMPDEST SWAP6 POP PUSH2 0x4A39 DUP6 PUSH2 0x68FE JUMP JUMPDEST PUSH1 0x0 JUMPDEST DUP3 DUP2 LT ISZERO PUSH2 0x4A5B JUMPI DUP2 SLOAD DUP2 DUP10 ADD MSTORE PUSH1 0x1 DUP3 ADD SWAP2 POP PUSH1 0x20 DUP2 ADD SWAP1 POP PUSH2 0x4A3C JUMP JUMPDEST DUP1 DUP9 ADD SWAP6 POP POP POP POP JUMPDEST POP POP SWAP3 SWAP2 POP POP JUMP JUMPDEST PUSH1 0x0 PUSH2 0x4A79 PUSH1 0x38 DUP4 PUSH2 0x6A16 JUMP JUMPDEST SWAP2 POP PUSH32 0x476F7665726E6F72464953436567613A3A5F736574566F74696E67506572696F PUSH1 0x0 DUP4 ADD MSTORE PUSH32 0x643A20696E76616C696420766F74696E6720706572696F640000000000000000 PUSH1 0x20 DUP4 ADD MSTORE PUSH1 0x40 DUP3 ADD SWAP1 POP SWAP2 SWAP1 POP JUMP JUMPDEST PUSH1 0x0 PUSH2 0x4ADF PUSH1 0x32 DUP4 PUSH2 0x6A16 JUMP JUMPDEST SWAP2 POP PUSH32 0x476F7665726E6F72464953436567613A3A696E697469616C697A653A20696E76 PUSH1 0x0 DUP4 ADD MSTORE PUSH32 0x616C696420766F74696E6720706572696F640000000000000000000000000000 PUSH1 0x20 DUP4 ADD MSTORE PUSH1 0x40 DUP3 ADD SWAP1 POP SWAP2 SWAP1 POP JUMP JUMPDEST PUSH1 0x0 PUSH2 0x4B45 PUSH1 0x28 DUP4 PUSH2 0x6A27 JUMP JUMPDEST SWAP2 POP PUSH32 0x42616C6C6F742875696E743235362070726F706F73616C49642C75696E743820 PUSH1 0x0 DUP4 ADD MSTORE PUSH32 0x737570706F727429000000000000000000000000000000000000000000000000 PUSH1 0x20 DUP4 ADD MSTORE PUSH1 0x28 DUP3 ADD SWAP1 POP SWAP2 SWAP1 POP JUMP JUMPDEST PUSH1 0x0 PUSH2 0x4BAB PUSH1 0x35 DUP4 PUSH2 0x6A16 JUMP JUMPDEST SWAP2 POP PUSH32 0x476F7665726E6F72464953436567613A3A696E697469616C697A653A20696E76 PUSH1 0x0 DUP4 ADD MSTORE PUSH32 0x616C69642074696D656C6F636B20616464726573730000000000000000000000 PUSH1 0x20 DUP4 ADD MSTORE PUSH1 0x40 DUP3 ADD SWAP1 POP SWAP2 SWAP1 POP JUMP JUMPDEST PUSH1 0x0 PUSH2 0x4C11 PUSH1 0x32 DUP4 PUSH2 0x6A16 JUMP JUMPDEST SWAP2 POP PUSH32 0x476F7665726E6F72464953436567613A3A696E697469616C697A653A20696E76 PUSH1 0x0 DUP4 ADD MSTORE PUSH32 0x616C696420734649534320616464726573730000000000000000000000000000 PUSH1 0x20 DUP4 ADD MSTORE PUSH1 0x40 DUP3 ADD SWAP1 POP SWAP2 SWAP1 POP JUMP JUMPDEST PUSH1 0x0 PUSH2 0x4C77 PUSH1 0x2 DUP4 PUSH2 0x6A27 JUMP JUMPDEST SWAP2 POP PUSH32 0x1901000000000000000000000000000000000000000000000000000000000000 PUSH1 0x0 DUP4 ADD MSTORE PUSH1 0x2 DUP3 ADD SWAP1 POP SWAP2 SWAP1 POP JUMP JUMPDEST PUSH1 0x0 PUSH2 0x4CB7 PUSH1 0x2B DUP4 PUSH2 0x6A16 JUMP JUMPDEST SWAP2 POP PUSH32 0x476F7665726E6F72464953436567613A3A73746174653A20696E76616C696420 PUSH1 0x0 DUP4 ADD MSTORE PUSH32 0x70726F706F73616C206964000000000000000000000000000000000000000000 PUSH1 0x20 DUP4 ADD MSTORE PUSH1 0x40 DUP3 ADD SWAP1 POP SWAP2 SWAP1 POP JUMP JUMPDEST PUSH1 0x0 PUSH2 0x4D1D PUSH1 0x35 DUP4 PUSH2 0x6A16 JUMP JUMPDEST SWAP2 POP PUSH32 0x476F7665726E6F72464953436567613A3A70726F706F73653A20476F7665726E PUSH1 0x0 DUP4 ADD MSTORE PUSH32 0x6F722046495343656761206E6F74206163746976650000000000000000000000 PUSH1 0x20 DUP4 ADD MSTORE PUSH1 0x40 DUP3 ADD SWAP1 POP SWAP2 SWAP1 POP JUMP JUMPDEST PUSH1 0x0 PUSH2 0x4D83 PUSH1 0x17 DUP4 PUSH2 0x6A16 JUMP JUMPDEST SWAP2 POP PUSH32 0x6D756C7469706C69636174696F6E206F766572666C6F77000000000000000000 PUSH1 0x0 DUP4 ADD MSTORE PUSH1 0x20 DUP3 ADD SWAP1 POP SWAP2 SWAP1 POP JUMP JUMPDEST PUSH1 0x0 PUSH2 0x4DC3 PUSH1 0x42 DUP4 PUSH2 0x6A16 JUMP JUMPDEST SWAP2 POP PUSH32 0x476F7665726E6F72464953436567613A3A5F73657450726F706F73616C546872 PUSH1 0x0 DUP4 ADD MSTORE PUSH32 0x6573686F6C643A20696E76616C69642070726F706F73616C207468726573686F PUSH1 0x20 DUP4 ADD MSTORE PUSH32 0x6C64000000000000000000000000000000000000000000000000000000000000 PUSH1 0x40 DUP4 ADD MSTORE PUSH1 0x60 DUP3 ADD SWAP1 POP SWAP2 SWAP1 POP JUMP JUMPDEST PUSH1 0x0 PUSH2 0x4E4F PUSH1 0x5B DUP4 PUSH2 0x6A16 JUMP JUMPDEST SWAP2 POP PUSH32 0x476F7665726E6F72464953436567613A3A70726F706F73653A206F6E65206C69 PUSH1 0x0 DUP4 ADD MSTORE PUSH32 0x76652070726F706F73616C207065722070726F706F7365722C20666F756E6420 PUSH1 0x20 DUP4 ADD MSTORE PUSH32 0x616E20616C72656164792070656E64696E672070726F706F73616C0000000000 PUSH1 0x40 DUP4 ADD MSTORE PUSH1 0x60 DUP3 ADD SWAP1 POP SWAP2 SWAP1 POP JUMP JUMPDEST PUSH1 0x0 PUSH2 0x4EDB PUSH1 0x2C DUP4 PUSH2 0x6A16 JUMP JUMPDEST SWAP2 POP PUSH32 0x476F7665726E6F72464953436567613A3A5F736574566F74696E6744656C6179 PUSH1 0x0 DUP4 ADD MSTORE PUSH32 0x3A2061646D696E206F6E6C790000000000000000000000000000000000000000 PUSH1 0x20 DUP4 ADD MSTORE PUSH1 0x40 DUP3 ADD SWAP1 POP SWAP2 SWAP1 POP JUMP JUMPDEST PUSH1 0x0 PUSH2 0x4F41 PUSH1 0x2D DUP4 PUSH2 0x6A16 JUMP JUMPDEST SWAP2 POP PUSH32 0x476F7665726E6F72464953436567613A3A5F736574566F74696E67506572696F PUSH1 0x0 DUP4 ADD MSTORE PUSH32 0x643A2061646D696E206F6E6C7900000000000000000000000000000000000000 PUSH1 0x20 DUP4 ADD MSTORE PUSH1 0x40 DUP3 ADD SWAP1 POP SWAP2 SWAP1 POP JUMP JUMPDEST PUSH1 0x0 PUSH2 0x4FA7 PUSH1 0x38 DUP4 PUSH2 0x6A16 JUMP JUMPDEST SWAP2 POP PUSH32 0x476F7665726E6F72464953436567613A3A63616E63656C3A2063616E6E6F7420 PUSH1 0x0 DUP4 ADD MSTORE PUSH32 0x63616E63656C2065786563757465642070726F706F73616C0000000000000000 PUSH1 0x20 DUP4 ADD MSTORE PUSH1 0x40 DUP3 ADD SWAP1 POP SWAP2 SWAP1 POP JUMP JUMPDEST PUSH1 0x0 PUSH2 0x500D PUSH1 0x46 DUP4 PUSH2 0x6A16 JUMP JUMPDEST SWAP2 POP PUSH32 0x476F7665726E6F72464953436567613A3A71756575653A2070726F706F73616C PUSH1 0x0 DUP4 ADD MSTORE PUSH32 0x2063616E206F6E6C792062652071756575656420696620697420697320737563 PUSH1 0x20 DUP4 ADD MSTORE PUSH32 0x6365656465640000000000000000000000000000000000000000000000000000 PUSH1 0x40 DUP4 ADD MSTORE PUSH1 0x60 DUP3 ADD SWAP1 POP SWAP2 SWAP1 POP JUMP JUMPDEST PUSH1 0x0 PUSH2 0x5099 PUSH1 0x2A DUP4 PUSH2 0x6A16 JUMP JUMPDEST SWAP2 POP PUSH32 0x476F7665726E6F72464953436567613A3A70726F706F73653A20746F6F206D61 PUSH1 0x0 DUP4 ADD MSTORE PUSH32 0x6E7920616374696F6E7300000000000000000000000000000000000000000000 PUSH1 0x20 DUP4 ADD MSTORE PUSH1 0x40 DUP3 ADD SWAP1 POP SWAP2 SWAP1 POP JUMP JUMPDEST PUSH1 0x0 PUSH2 0x50FF PUSH1 0x5A DUP4 PUSH2 0x6A16 JUMP JUMPDEST SWAP2 POP PUSH32 0x476F7665726E6F72464953436567613A3A70726F706F73653A206F6E65206C69 PUSH1 0x0 DUP4 ADD MSTORE PUSH32 0x76652070726F706F73616C207065722070726F706F7365722C20666F756E6420 PUSH1 0x20 DUP4 ADD MSTORE PUSH32 0x616E20616C7265616479206163746976652070726F706F73616C000000000000 PUSH1 0x40 DUP4 ADD MSTORE PUSH1 0x60 DUP3 ADD SWAP1 POP SWAP2 SWAP1 POP JUMP JUMPDEST PUSH1 0x0 PUSH2 0x518B PUSH1 0x26 DUP4 PUSH2 0x6A16 JUMP JUMPDEST SWAP2 POP PUSH32 0x476F7665726E6F72464953436567613A3A5F696E6974696174653A2061646D69 PUSH1 0x0 DUP4 ADD MSTORE PUSH32 0x6E206F6E6C790000000000000000000000000000000000000000000000000000 PUSH1 0x20 DUP4 ADD MSTORE PUSH1 0x40 DUP3 ADD SWAP1 POP SWAP2 SWAP1 POP JUMP JUMPDEST PUSH1 0x0 PUSH2 0x51F1 PUSH1 0x46 DUP4 PUSH2 0x6A16 JUMP JUMPDEST SWAP2 POP PUSH32 0x476F7665726E6F72464953436567613A3A70726F706F73653A2070726F706F73 PUSH1 0x0 DUP4 ADD MSTORE PUSH32 0x616C2066756E6374696F6E20696E666F726D6174696F6E206172697479206D69 PUSH1 0x20 DUP4 ADD MSTORE PUSH32 0x736D617463680000000000000000000000000000000000000000000000000000 PUSH1 0x40 DUP4 ADD MSTORE PUSH1 0x60 DUP3 ADD SWAP1 POP SWAP2 SWAP1 POP JUMP JUMPDEST PUSH1 0x0 PUSH2 0x527D PUSH1 0x28 DUP4 PUSH2 0x6A16 JUMP JUMPDEST SWAP2 POP PUSH32 0x20476F7665726E6F72464953436567613A3A696E697469616C697A653A206164 PUSH1 0x0 DUP4 ADD MSTORE PUSH32 0x6D696E206F6E6C79000000000000000000000000000000000000000000000000 PUSH1 0x20 DUP4 ADD MSTORE PUSH1 0x40 DUP3 ADD SWAP1 POP SWAP2 SWAP1 POP JUMP JUMPDEST PUSH1 0x0 PUSH2 0x52E3 PUSH1 0x36 DUP4 PUSH2 0x6A16 JUMP JUMPDEST SWAP2 POP PUSH32 0x476F7665726E6F72464953436567613A3A5F736574566F74696E6744656C6179 PUSH1 0x0 DUP4 ADD MSTORE PUSH32 0x3A20696E76616C696420766F74696E672064656C617900000000000000000000 PUSH1 0x20 DUP4 ADD MSTORE PUSH1 0x40 DUP3 ADD SWAP1 POP SWAP2 SWAP1 POP JUMP JUMPDEST PUSH1 0x0 PUSH2 0x5349 PUSH1 0x2E DUP4 PUSH2 0x6A16 JUMP JUMPDEST SWAP2 POP PUSH32 0x476F7665726E6F72464953436567613A3A70726F706F73653A206D7573742070 PUSH1 0x0 DUP4 ADD MSTORE PUSH32 0x726F7669646520616374696F6E73000000000000000000000000000000000000 PUSH1 0x20 DUP4 ADD MSTORE PUSH1 0x40 DUP3 ADD SWAP1 POP SWAP2 SWAP1 POP JUMP JUMPDEST PUSH1 0x0 PUSH2 0x53AF PUSH1 0x32 DUP4 PUSH2 0x6A16 JUMP JUMPDEST SWAP2 POP PUSH32 0x476F7665726E6F72464953436567613A3A5F696E6974696174653A2063616E20 PUSH1 0x0 DUP4 ADD MSTORE PUSH32 0x6F6E6C7920696E697469617465206F6E63650000000000000000000000000000 PUSH1 0x20 DUP4 ADD MSTORE PUSH1 0x40 DUP3 ADD SWAP1 POP SWAP2 SWAP1 POP JUMP JUMPDEST PUSH1 0x0 PUSH2 0x5415 PUSH1 0x34 DUP4 PUSH2 0x6A16 JUMP JUMPDEST SWAP2 POP PUSH32 0x476F7665726E6F72464953436567613A3A63617374566F7465496E7465726E61 PUSH1 0x0 DUP4 ADD MSTORE PUSH32 0x6C3A20696E76616C696420766F74652074797065000000000000000000000000 PUSH1 0x20 DUP4 ADD MSTORE PUSH1 0x40 DUP3 ADD SWAP1 POP SWAP2 SWAP1 POP JUMP JUMPDEST PUSH1 0x0 PUSH2 0x547B PUSH1 0x11 DUP4 PUSH2 0x6A16 JUMP JUMPDEST SWAP2 POP PUSH32 0x6164646974696F6E206F766572666C6F77000000000000000000000000000000 PUSH1 0x0 DUP4 ADD MSTORE PUSH1 0x20 DUP3 ADD SWAP1 POP SWAP2 SWAP1 POP JUMP JUMPDEST PUSH1 0x0 PUSH2 0x54BB PUSH1 0x43 DUP4 PUSH2 0x6A27 JUMP JUMPDEST SWAP2 POP PUSH32 0x454950373132446F6D61696E28737472696E67206E616D652C75696E74323536 PUSH1 0x0 DUP4 ADD MSTORE PUSH32 0x20636861696E49642C6164647265737320766572696679696E67436F6E747261 PUSH1 0x20 DUP4 ADD MSTORE PUSH32 0x6374290000000000000000000000000000000000000000000000000000000000 PUSH1 0x40 DUP4 ADD MSTORE PUSH1 0x43 DUP3 ADD SWAP1 POP SWAP2 SWAP1 POP JUMP JUMPDEST PUSH1 0x0 PUSH2 0x5547 PUSH1 0x35 DUP4 PUSH2 0x6A16 JUMP JUMPDEST SWAP2 POP PUSH32 0x476F7665726E6F72464953436567613A3A696E697469616C697A653A2063616E PUSH1 0x0 DUP4 ADD MSTORE PUSH32 0x206F6E6C7920696E697469616C697A65206F6E63650000000000000000000000 PUSH1 0x20 DUP4 ADD MSTORE PUSH1 0x40 DUP3 ADD SWAP1 POP SWAP2 SWAP1 POP JUMP JUMPDEST PUSH1 0x0 PUSH2 0x55AD PUSH1 0x31 DUP4 PUSH2 0x6A16 JUMP JUMPDEST SWAP2 POP PUSH32 0x476F7665726E6F72464953436567613A3A696E697469616C697A653A20696E76 PUSH1 0x0 DUP4 ADD MSTORE PUSH32 0x616C696420766F74696E672064656C6179000000000000000000000000000000 PUSH1 0x20 DUP4 ADD MSTORE PUSH1 0x40 DUP3 ADD SWAP1 POP SWAP2 SWAP1 POP JUMP JUMPDEST PUSH1 0x0 PUSH2 0x5613 PUSH1 0x31 DUP4 PUSH2 0x6A16 JUMP JUMPDEST SWAP2 POP PUSH32 0x476F7665726E6F72464953436567613A3A63617374566F746542795369673A20 PUSH1 0x0 DUP4 ADD MSTORE PUSH32 0x696E76616C6964207369676E6174757265000000000000000000000000000000 PUSH1 0x20 DUP4 ADD MSTORE PUSH1 0x40 DUP3 ADD SWAP1 POP SWAP2 SWAP1 POP JUMP JUMPDEST PUSH1 0x0 PUSH2 0x5679 PUSH1 0x41 DUP4 PUSH2 0x6A16 JUMP JUMPDEST SWAP2 POP PUSH32 0x476F7665726E6F72464953436567613A3A70726F706F73653A2070726F706F73 PUSH1 0x0 DUP4 ADD MSTORE PUSH32 0x657220766F7465732062656C6F772070726F706F73616C207468726573686F6C PUSH1 0x20 DUP4 ADD MSTORE PUSH32 0x6400000000000000000000000000000000000000000000000000000000000000 PUSH1 0x40 DUP4 ADD MSTORE PUSH1 0x60 DUP3 ADD SWAP1 POP SWAP2 SWAP1 POP JUMP JUMPDEST PUSH1 0x0 PUSH2 0x5705 PUSH1 0x30 DUP4 PUSH2 0x6A16 JUMP JUMPDEST SWAP2 POP PUSH32 0x476F7665726E6F72464953436567613A5F61636365707441646D696E3A207065 PUSH1 0x0 DUP4 ADD MSTORE PUSH32 0x6E64696E672061646D696E206F6E6C7900000000000000000000000000000000 PUSH1 0x20 DUP4 ADD MSTORE PUSH1 0x40 DUP3 ADD SWAP1 POP SWAP2 SWAP1 POP JUMP JUMPDEST PUSH1 0x0 PUSH2 0x576B PUSH1 0x2C DUP4 PUSH2 0x6A16 JUMP JUMPDEST SWAP2 POP PUSH32 0x476F7665726E6F72464953436567613A5F73657450656E64696E6741646D696E PUSH1 0x0 DUP4 ADD MSTORE PUSH32 0x3A2061646D696E206F6E6C790000000000000000000000000000000000000000 PUSH1 0x20 DUP4 ADD MSTORE PUSH1 0x40 DUP3 ADD SWAP1 POP SWAP2 SWAP1 POP JUMP JUMPDEST PUSH1 0x0 PUSH2 0x57D1 PUSH1 0x36 DUP4 PUSH2 0x6A16 JUMP JUMPDEST SWAP2 POP PUSH32 0x476F7665726E6F72464953436567613A3A63617374566F7465496E7465726E61 PUSH1 0x0 DUP4 ADD MSTORE PUSH32 0x6C3A20766F74657220616C726561647920766F74656400000000000000000000 PUSH1 0x20 DUP4 ADD MSTORE PUSH1 0x40 DUP3 ADD SWAP1 POP SWAP2 SWAP1 POP JUMP JUMPDEST PUSH1 0x0 PUSH2 0x5837 PUSH1 0x0 DUP4 PUSH2 0x6A16 JUMP JUMPDEST SWAP2 POP PUSH1 0x0 DUP3 ADD SWAP1 POP SWAP2 SWAP1 POP JUMP JUMPDEST PUSH1 0x0 PUSH2 0x5851 PUSH1 0x57 DUP4 PUSH2 0x6A16 JUMP JUMPDEST SWAP2 POP PUSH32 0x476F7665726E6F72464953436567613A3A71756575654F72526576657274496E PUSH1 0x0 DUP4 ADD MSTORE PUSH32 0x7465726E616C3A206964656E746963616C2070726F706F73616C20616374696F PUSH1 0x20 DUP4 ADD MSTORE PUSH32 0x6E20616C72656164792071756575656420617420657461000000000000000000 PUSH1 0x40 DUP4 ADD MSTORE PUSH1 0x60 DUP3 ADD SWAP1 POP SWAP2 SWAP1 POP JUMP JUMPDEST PUSH1 0x0 PUSH2 0x58DD PUSH1 0x10 DUP4 PUSH2 0x6A16 JUMP JUMPDEST SWAP2 POP PUSH32 0x6469766973696F6E206279207A65726F00000000000000000000000000000000 PUSH1 0x0 DUP4 ADD MSTORE PUSH1 0x20 DUP3 ADD SWAP1 POP SWAP2 SWAP1 POP JUMP JUMPDEST PUSH1 0x0 PUSH2 0x591D PUSH1 0x47 DUP4 PUSH2 0x6A16 JUMP JUMPDEST SWAP2 POP PUSH32 0x476F7665726E6F72464953436567613A3A657865637574653A2070726F706F73 PUSH1 0x0 DUP4 ADD MSTORE PUSH32 0x616C2063616E206F6E6C79206265206578656375746564206966206974206973 PUSH1 0x20 DUP4 ADD MSTORE PUSH32 0x2071756575656400000000000000000000000000000000000000000000000000 PUSH1 0x40 DUP4 ADD MSTORE PUSH1 0x60 DUP3 ADD SWAP1 POP SWAP2 SWAP1 POP JUMP JUMPDEST PUSH1 0x0 PUSH2 0x59A9 PUSH1 0x31 DUP4 PUSH2 0x6A16 JUMP JUMPDEST SWAP2 POP PUSH32 0x476F7665726E6F72464953436567613A3A63616E63656C3A2070726F706F7365 PUSH1 0x0 DUP4 ADD MSTORE PUSH32 0x722061626F7665207468726573686F6C64000000000000000000000000000000 PUSH1 0x20 DUP4 ADD MSTORE PUSH1 0x40 DUP3 ADD SWAP1 POP SWAP2 SWAP1 POP JUMP JUMPDEST PUSH1 0x0 PUSH2 0x5A0F PUSH1 0x32 DUP4 PUSH2 0x6A16 JUMP JUMPDEST SWAP2 POP PUSH32 0x476F7665726E6F72464953436567613A3A696E697469616C697A653A20696E76 PUSH1 0x0 DUP4 ADD MSTORE PUSH32 0x616C696420674649534320616464726573730000000000000000000000000000 PUSH1 0x20 DUP4 ADD MSTORE PUSH1 0x40 DUP3 ADD SWAP1 POP SWAP2 SWAP1 POP JUMP JUMPDEST PUSH1 0x0 PUSH2 0x5A75 PUSH1 0x37 DUP4 PUSH2 0x6A16 JUMP JUMPDEST SWAP2 POP PUSH32 0x476F7665726E6F72464953436567613A3A696E697469616C697A653A20696E76 PUSH1 0x0 DUP4 ADD MSTORE PUSH32 0x616C69642070726F706F73616C207468726573686F6C64000000000000000000 PUSH1 0x20 DUP4 ADD MSTORE PUSH1 0x40 DUP3 ADD SWAP1 POP SWAP2 SWAP1 POP JUMP JUMPDEST PUSH1 0x0 PUSH2 0x5ADB PUSH1 0x15 DUP4 PUSH2 0x6A16 JUMP JUMPDEST SWAP2 POP PUSH32 0x7375627472616374696F6E20756E646572666C6F770000000000000000000000 PUSH1 0x0 DUP4 ADD MSTORE PUSH1 0x20 DUP3 ADD SWAP1 POP SWAP2 SWAP1 POP JUMP JUMPDEST PUSH1 0x0 PUSH2 0x5B1B PUSH1 0x32 DUP4 PUSH2 0x6A16 JUMP JUMPDEST SWAP2 POP PUSH32 0x476F7665726E6F72464953436567613A3A5F73657450726F706F73616C546872 PUSH1 0x0 DUP4 ADD MSTORE PUSH32 0x6573686F6C643A2061646D696E206F6E6C790000000000000000000000000000 PUSH1 0x20 DUP4 ADD MSTORE PUSH1 0x40 DUP3 ADD SWAP1 POP SWAP2 SWAP1 POP JUMP JUMPDEST PUSH1 0x0 PUSH2 0x5B81 PUSH1 0x33 DUP4 PUSH2 0x6A16 JUMP JUMPDEST SWAP2 POP PUSH32 0x476F7665726E6F72464953436567613A3A63617374566F7465496E7465726E61 PUSH1 0x0 DUP4 ADD MSTORE PUSH32 0x6C3A20766F74696E6720697320636C6F73656400000000000000000000000000 PUSH1 0x20 DUP4 ADD MSTORE PUSH1 0x40 DUP3 ADD SWAP1 POP SWAP2 SWAP1 POP JUMP JUMPDEST PUSH1 0x60 DUP3 ADD PUSH1 0x0 DUP3 ADD MLOAD PUSH2 0x5BF0 PUSH1 0x0 DUP6 ADD DUP3 PUSH2 0x4784 JUMP JUMPDEST POP PUSH1 0x20 DUP3 ADD MLOAD PUSH2 0x5C03 PUSH1 0x20 DUP6 ADD DUP3 PUSH2 0x5C3A JUMP JUMPDEST POP PUSH1 0x40 DUP3 ADD MLOAD PUSH2 0x5C16 PUSH1 0x40 DUP6 ADD DUP3 PUSH2 0x5C1C JUMP JUMPDEST POP POP POP POP JUMP JUMPDEST PUSH2 0x5C25 DUP2 PUSH2 0x6A8D JUMP JUMPDEST DUP3 MSTORE POP POP JUMP JUMPDEST PUSH2 0x5C34 DUP2 PUSH2 0x6A8D JUMP JUMPDEST DUP3 MSTORE POP POP JUMP JUMPDEST PUSH2 0x5C43 DUP2 PUSH2 0x6A97 JUMP JUMPDEST DUP3 MSTORE POP POP JUMP JUMPDEST PUSH2 0x5C52 DUP2 PUSH2 0x6A97 JUMP JUMPDEST DUP3 MSTORE POP POP JUMP JUMPDEST PUSH1 0x0 PUSH2 0x5C63 DUP3 PUSH2 0x4B38 JUMP JUMPDEST SWAP2 POP DUP2 SWAP1 POP SWAP2 SWAP1 POP JUMP JUMPDEST PUSH1 0x0 PUSH2 0x5C78 DUP3 PUSH2 0x4C6A JUMP JUMPDEST SWAP2 POP PUSH2 0x5C84 DUP3 DUP6 PUSH2 0x47B1 JUMP JUMPDEST PUSH1 0x20 DUP3 ADD SWAP2 POP PUSH2 0x5C94 DUP3 DUP5 PUSH2 0x47B1 JUMP JUMPDEST PUSH1 0x20 DUP3 ADD SWAP2 POP DUP2 SWAP1 POP SWAP4 SWAP3 POP POP POP JUMP JUMPDEST PUSH1 0x0 PUSH2 0x5CAF DUP3 PUSH2 0x54AE JUMP JUMPDEST SWAP2 POP DUP2 SWAP1 POP SWAP2 SWAP1 POP JUMP JUMPDEST PUSH1 0x0 PUSH1 0x20 DUP3 ADD SWAP1 POP PUSH2 0x5CCE PUSH1 0x0 DUP4 ADD DUP5 PUSH2 0x45CF JUMP JUMPDEST SWAP3 SWAP2 POP POP JUMP JUMPDEST PUSH1 0x0 PUSH1 0x40 DUP3 ADD SWAP1 POP PUSH2 0x5CE9 PUSH1 0x0 DUP4 ADD DUP6 PUSH2 0x45B1 JUMP JUMPDEST PUSH2 0x5CF6 PUSH1 0x20 DUP4 ADD DUP5 PUSH2 0x5C2B JUMP JUMPDEST SWAP4 SWAP3 POP POP POP JUMP JUMPDEST PUSH1 0x0 PUSH1 0x40 DUP3 ADD SWAP1 POP PUSH2 0x5D12 PUSH1 0x0 DUP4 ADD DUP6 PUSH2 0x45CF JUMP JUMPDEST PUSH2 0x5D1F PUSH1 0x20 DUP4 ADD DUP5 PUSH2 0x45CF JUMP JUMPDEST SWAP4 SWAP3 POP POP POP JUMP JUMPDEST PUSH1 0x0 PUSH1 0x40 DUP3 ADD SWAP1 POP PUSH2 0x5D3B PUSH1 0x0 DUP4 ADD DUP6 PUSH2 0x45CF JUMP JUMPDEST PUSH2 0x5D48 PUSH1 0x20 DUP4 ADD DUP5 PUSH2 0x5C2B JUMP JUMPDEST SWAP4 SWAP3 POP POP POP JUMP JUMPDEST PUSH1 0x0 PUSH1 0xA0 DUP3 ADD SWAP1 POP PUSH2 0x5D64 PUSH1 0x0 DUP4 ADD DUP9 PUSH2 0x45CF JUMP JUMPDEST PUSH2 0x5D71 PUSH1 0x20 DUP4 ADD DUP8 PUSH2 0x5C2B JUMP JUMPDEST DUP2 DUP2 SUB PUSH1 0x40 DUP4 ADD MSTORE PUSH2 0x5D83 DUP2 DUP7 PUSH2 0x4932 JUMP JUMPDEST SWAP1 POP DUP2 DUP2 SUB PUSH1 0x60 DUP4 ADD MSTORE PUSH2 0x5D97 DUP2 DUP6 PUSH2 0x47C8 JUMP JUMPDEST SWAP1 POP PUSH2 0x5DA6 PUSH1 0x80 DUP4 ADD DUP5 PUSH2 0x5C2B JUMP JUMPDEST SWAP7 SWAP6 POP POP POP POP POP POP JUMP JUMPDEST PUSH1 0x0 PUSH1 0xA0 DUP3 ADD SWAP1 POP PUSH2 0x5DC5 PUSH1 0x0 DUP4 ADD DUP9 PUSH2 0x45CF JUMP JUMPDEST PUSH2 0x5DD2 PUSH1 0x20 DUP4 ADD DUP8 PUSH2 0x5C2B JUMP JUMPDEST DUP2 DUP2 SUB PUSH1 0x40 DUP4 ADD MSTORE PUSH2 0x5DE4 DUP2 DUP7 PUSH2 0x49DD JUMP JUMPDEST SWAP1 POP DUP2 DUP2 SUB PUSH1 0x60 DUP4 ADD MSTORE PUSH2 0x5DF8 DUP2 DUP6 PUSH2 0x483A JUMP JUMPDEST SWAP1 POP PUSH2 0x5E07 PUSH1 0x80 DUP4 ADD DUP5 PUSH2 0x5C2B JUMP JUMPDEST SWAP7 SWAP6 POP POP POP POP POP POP JUMP JUMPDEST PUSH1 0x0 PUSH1 0x80 DUP3 ADD SWAP1 POP DUP2 DUP2 SUB PUSH1 0x0 DUP4 ADD MSTORE PUSH2 0x5E2B DUP2 DUP8 PUSH2 0x45DE JUMP JUMPDEST SWAP1 POP DUP2 DUP2 SUB PUSH1 0x20 DUP4 ADD MSTORE PUSH2 0x5E3F DUP2 DUP7 PUSH2 0x4726 JUMP JUMPDEST SWAP1 POP DUP2 DUP2 SUB PUSH1 0x40 DUP4 ADD MSTORE PUSH2 0x5E53 DUP2 DUP6 PUSH2 0x46B1 JUMP JUMPDEST SWAP1 POP DUP2 DUP2 SUB PUSH1 0x60 DUP4 ADD MSTORE PUSH2 0x5E67 DUP2 DUP5 PUSH2 0x463C JUMP JUMPDEST SWAP1 POP SWAP6 SWAP5 POP POP POP POP POP JUMP JUMPDEST PUSH1 0x0 PUSH1 0x20 DUP3 ADD SWAP1 POP PUSH2 0x5E87 PUSH1 0x0 DUP4 ADD DUP5 PUSH2 0x47A2 JUMP JUMPDEST SWAP3 SWAP2 POP POP JUMP JUMPDEST PUSH1 0x0 PUSH1 0x80 DUP3 ADD SWAP1 POP PUSH2 0x5EA2 PUSH1 0x0 DUP4 ADD DUP8 PUSH2 0x47A2 JUMP JUMPDEST PUSH2 0x5EAF PUSH1 0x20 DUP4 ADD DUP7 PUSH2 0x47A2 JUMP JUMPDEST PUSH2 0x5EBC PUSH1 0x40 DUP4 ADD DUP6 PUSH2 0x5C2B JUMP JUMPDEST PUSH2 0x5EC9 PUSH1 0x60 DUP4 ADD DUP5 PUSH2 0x45CF JUMP JUMPDEST SWAP6 SWAP5 POP POP POP POP POP JUMP JUMPDEST PUSH1 0x0 PUSH1 0x60 DUP3 ADD SWAP1 POP PUSH2 0x5EE7 PUSH1 0x0 DUP4 ADD DUP7 PUSH2 0x47A2 JUMP JUMPDEST PUSH2 0x5EF4 PUSH1 0x20 DUP4 ADD DUP6 PUSH2 0x5C2B JUMP JUMPDEST PUSH2 0x5F01 PUSH1 0x40 DUP4 ADD DUP5 PUSH2 0x5C49 JUMP JUMPDEST SWAP5 SWAP4 POP POP POP POP JUMP JUMPDEST PUSH1 0x0 PUSH1 0x80 DUP3 ADD SWAP1 POP PUSH2 0x5F1E PUSH1 0x0 DUP4 ADD DUP8 PUSH2 0x47A2 JUMP JUMPDEST PUSH2 0x5F2B PUSH1 0x20 DUP4 ADD DUP7 PUSH2 0x5C49 JUMP JUMPDEST PUSH2 0x5F38 PUSH1 0x40 DUP4 ADD DUP6 PUSH2 0x47A2 JUMP JUMPDEST PUSH2 0x5F45 PUSH1 0x60 DUP4 ADD DUP5 PUSH2 0x47A2 JUMP JUMPDEST SWAP6 SWAP5 POP POP POP POP POP JUMP JUMPDEST PUSH1 0x0 PUSH1 0x20 DUP3 ADD SWAP1 POP PUSH2 0x5F63 PUSH1 0x0 DUP4 ADD DUP5 PUSH2 0x48C9 JUMP JUMPDEST SWAP3 SWAP2 POP POP JUMP JUMPDEST PUSH1 0x0 PUSH1 0x20 DUP3 ADD SWAP1 POP PUSH2 0x5F7E PUSH1 0x0 DUP4 ADD DUP5 PUSH2 0x48D8 JUMP JUMPDEST SWAP3 SWAP2 POP POP JUMP JUMPDEST PUSH1 0x0 PUSH1 0x20 DUP3 ADD SWAP1 POP PUSH2 0x5F99 PUSH1 0x0 DUP4 ADD DUP5 PUSH2 0x48E7 JUMP JUMPDEST SWAP3 SWAP2 POP POP JUMP JUMPDEST PUSH1 0x0 PUSH1 0x20 DUP3 ADD SWAP1 POP PUSH2 0x5FB4 PUSH1 0x0 DUP4 ADD DUP5 PUSH2 0x48F6 JUMP JUMPDEST SWAP3 SWAP2 POP POP JUMP JUMPDEST PUSH1 0x0 PUSH1 0x20 DUP3 ADD SWAP1 POP DUP2 DUP2 SUB PUSH1 0x0 DUP4 ADD MSTORE PUSH2 0x5FD4 DUP2 DUP5 PUSH2 0x49A4 JUMP JUMPDEST SWAP1 POP SWAP3 SWAP2 POP POP JUMP JUMPDEST PUSH1 0x0 PUSH1 0x20 DUP3 ADD SWAP1 POP DUP2 DUP2 SUB PUSH1 0x0 DUP4 ADD MSTORE PUSH2 0x5FF5 DUP2 PUSH2 0x4A6C JUMP JUMPDEST SWAP1 POP SWAP2 SWAP1 POP JUMP JUMPDEST PUSH1 0x0 PUSH1 0x20 DUP3 ADD SWAP1 POP DUP2 DUP2 SUB PUSH1 0x0 DUP4 ADD MSTORE PUSH2 0x6015 DUP2 PUSH2 0x4AD2 JUMP JUMPDEST SWAP1 POP SWAP2 SWAP1 POP JUMP JUMPDEST PUSH1 0x0 PUSH1 0x20 DUP3 ADD SWAP1 POP DUP2 DUP2 SUB PUSH1 0x0 DUP4 ADD MSTORE PUSH2 0x6035 DUP2 PUSH2 0x4B9E JUMP JUMPDEST SWAP1 POP SWAP2 SWAP1 POP JUMP JUMPDEST PUSH1 0x0 PUSH1 0x20 DUP3 ADD SWAP1 POP DUP2 DUP2 SUB PUSH1 0x0 DUP4 ADD MSTORE PUSH2 0x6055 DUP2 PUSH2 0x4C04 JUMP JUMPDEST SWAP1 POP SWAP2 SWAP1 POP JUMP JUMPDEST PUSH1 0x0 PUSH1 0x20 DUP3 ADD SWAP1 POP DUP2 DUP2 SUB PUSH1 0x0 DUP4 ADD MSTORE PUSH2 0x6075 DUP2 PUSH2 0x4CAA JUMP JUMPDEST SWAP1 POP SWAP2 SWAP1 POP JUMP JUMPDEST PUSH1 0x0 PUSH1 0x20 DUP3 ADD SWAP1 POP DUP2 DUP2 SUB PUSH1 0x0 DUP4 ADD MSTORE PUSH2 0x6095 DUP2 PUSH2 0x4D10 JUMP JUMPDEST SWAP1 POP SWAP2 SWAP1 POP JUMP JUMPDEST PUSH1 0x0 PUSH1 0x20 DUP3 ADD SWAP1 POP DUP2 DUP2 SUB PUSH1 0x0 DUP4 ADD MSTORE PUSH2 0x60B5 DUP2 PUSH2 0x4D76 JUMP JUMPDEST SWAP1 POP SWAP2 SWAP1 POP JUMP JUMPDEST PUSH1 0x0 PUSH1 0x20 DUP3 ADD SWAP1 POP DUP2 DUP2 SUB PUSH1 0x0 DUP4 ADD MSTORE PUSH2 0x60D5 DUP2 PUSH2 0x4DB6 JUMP JUMPDEST SWAP1 POP SWAP2 SWAP1 POP JUMP JUMPDEST PUSH1 0x0 PUSH1 0x20 DUP3 ADD SWAP1 POP DUP2 DUP2 SUB PUSH1 0x0 DUP4 ADD MSTORE PUSH2 0x60F5 DUP2 PUSH2 0x4E42 JUMP JUMPDEST SWAP1 POP SWAP2 SWAP1 POP JUMP JUMPDEST PUSH1 0x0 PUSH1 0x20 DUP3 ADD SWAP1 POP DUP2 DUP2 SUB PUSH1 0x0 DUP4 ADD MSTORE PUSH2 0x6115 DUP2 PUSH2 0x4ECE JUMP JUMPDEST SWAP1 POP SWAP2 SWAP1 POP JUMP JUMPDEST PUSH1 0x0 PUSH1 0x20 DUP3 ADD SWAP1 POP DUP2 DUP2 SUB PUSH1 0x0 DUP4 ADD MSTORE PUSH2 0x6135 DUP2 PUSH2 0x4F34 JUMP JUMPDEST SWAP1 POP SWAP2 SWAP1 POP JUMP JUMPDEST PUSH1 0x0 PUSH1 0x20 DUP3 ADD SWAP1 POP DUP2 DUP2 SUB PUSH1 0x0 DUP4 ADD MSTORE PUSH2 0x6155 DUP2 PUSH2 0x4F9A JUMP JUMPDEST SWAP1 POP SWAP2 SWAP1 POP JUMP JUMPDEST PUSH1 0x0 PUSH1 0x20 DUP3 ADD SWAP1 POP DUP2 DUP2 SUB PUSH1 0x0 DUP4 ADD MSTORE PUSH2 0x6175 DUP2 PUSH2 0x5000 JUMP JUMPDEST SWAP1 POP SWAP2 SWAP1 POP JUMP JUMPDEST PUSH1 0x0 PUSH1 0x20 DUP3 ADD SWAP1 POP DUP2 DUP2 SUB PUSH1 0x0 DUP4 ADD MSTORE PUSH2 0x6195 DUP2 PUSH2 0x508C JUMP JUMPDEST SWAP1 POP SWAP2 SWAP1 POP JUMP JUMPDEST PUSH1 0x0 PUSH1 0x20 DUP3 ADD SWAP1 POP DUP2 DUP2 SUB PUSH1 0x0 DUP4 ADD MSTORE PUSH2 0x61B5 DUP2 PUSH2 0x50F2 JUMP JUMPDEST SWAP1 POP SWAP2 SWAP1 POP JUMP JUMPDEST PUSH1 0x0 PUSH1 0x20 DUP3 ADD SWAP1 POP DUP2 DUP2 SUB PUSH1 0x0 DUP4 ADD MSTORE PUSH2 0x61D5 DUP2 PUSH2 0x517E JUMP JUMPDEST SWAP1 POP SWAP2 SWAP1 POP JUMP JUMPDEST PUSH1 0x0 PUSH1 0x20 DUP3 ADD SWAP1 POP DUP2 DUP2 SUB PUSH1 0x0 DUP4 ADD MSTORE PUSH2 0x61F5 DUP2 PUSH2 0x51E4 JUMP JUMPDEST SWAP1 POP SWAP2 SWAP1 POP JUMP JUMPDEST PUSH1 0x0 PUSH1 0x20 DUP3 ADD SWAP1 POP DUP2 DUP2 SUB PUSH1 0x0 DUP4 ADD MSTORE PUSH2 0x6215 DUP2 PUSH2 0x5270 JUMP JUMPDEST SWAP1 POP SWAP2 SWAP1 POP JUMP JUMPDEST PUSH1 0x0 PUSH1 0x20 DUP3 ADD SWAP1 POP DUP2 DUP2 SUB PUSH1 0x0 DUP4 ADD MSTORE PUSH2 0x6235 DUP2 PUSH2 0x52D6 JUMP JUMPDEST SWAP1 POP SWAP2 SWAP1 POP JUMP JUMPDEST PUSH1 0x0 PUSH1 0x20 DUP3 ADD SWAP1 POP DUP2 DUP2 SUB PUSH1 0x0 DUP4 ADD MSTORE PUSH2 0x6255 DUP2 PUSH2 0x533C JUMP JUMPDEST SWAP1 POP SWAP2 SWAP1 POP JUMP JUMPDEST PUSH1 0x0 PUSH1 0x20 DUP3 ADD SWAP1 POP DUP2 DUP2 SUB PUSH1 0x0 DUP4 ADD MSTORE PUSH2 0x6275 DUP2 PUSH2 0x53A2 JUMP JUMPDEST SWAP1 POP SWAP2 SWAP1 POP JUMP JUMPDEST PUSH1 0x0 PUSH1 0x20 DUP3 ADD SWAP1 POP DUP2 DUP2 SUB PUSH1 0x0 DUP4 ADD MSTORE PUSH2 0x6295 DUP2 PUSH2 0x5408 JUMP JUMPDEST SWAP1 POP SWAP2 SWAP1 POP JUMP JUMPDEST PUSH1 0x0 PUSH1 0x20 DUP3 ADD SWAP1 POP DUP2 DUP2 SUB PUSH1 0x0 DUP4 ADD MSTORE PUSH2 0x62B5 DUP2 PUSH2 0x546E JUMP JUMPDEST SWAP1 POP SWAP2 SWAP1 POP JUMP JUMPDEST PUSH1 0x0 PUSH1 0x20 DUP3 ADD SWAP1 POP DUP2 DUP2 SUB PUSH1 0x0 DUP4 ADD MSTORE PUSH2 0x62D5 DUP2 PUSH2 0x553A JUMP JUMPDEST SWAP1 POP SWAP2 SWAP1 POP JUMP JUMPDEST PUSH1 0x0 PUSH1 0x20 DUP3 ADD SWAP1 POP DUP2 DUP2 SUB PUSH1 0x0 DUP4 ADD MSTORE PUSH2 0x62F5 DUP2 PUSH2 0x55A0 JUMP JUMPDEST SWAP1 POP SWAP2 SWAP1 POP JUMP JUMPDEST PUSH1 0x0 PUSH1 0x20 DUP3 ADD SWAP1 POP DUP2 DUP2 SUB PUSH1 0x0 DUP4 ADD MSTORE PUSH2 0x6315 DUP2 PUSH2 0x5606 JUMP JUMPDEST SWAP1 POP SWAP2 SWAP1 POP JUMP JUMPDEST PUSH1 0x0 PUSH1 0x20 DUP3 ADD SWAP1 POP DUP2 DUP2 SUB PUSH1 0x0 DUP4 ADD MSTORE PUSH2 0x6335 DUP2 PUSH2 0x566C JUMP JUMPDEST SWAP1 POP SWAP2 SWAP1 POP JUMP JUMPDEST PUSH1 0x0 PUSH1 0x20 DUP3 ADD SWAP1 POP DUP2 DUP2 SUB PUSH1 0x0 DUP4 ADD MSTORE PUSH2 0x6355 DUP2 PUSH2 0x56F8 JUMP JUMPDEST SWAP1 POP SWAP2 SWAP1 POP JUMP JUMPDEST PUSH1 0x0 PUSH1 0x20 DUP3 ADD SWAP1 POP DUP2 DUP2 SUB PUSH1 0x0 DUP4 ADD MSTORE PUSH2 0x6375 DUP2 PUSH2 0x575E JUMP JUMPDEST SWAP1 POP SWAP2 SWAP1 POP JUMP JUMPDEST PUSH1 0x0 PUSH1 0x20 DUP3 ADD SWAP1 POP DUP2 DUP2 SUB PUSH1 0x0 DUP4 ADD MSTORE PUSH2 0x6395 DUP2 PUSH2 0x57C4 JUMP JUMPDEST SWAP1 POP SWAP2 SWAP1 POP JUMP JUMPDEST PUSH1 0x0 PUSH1 0x20 DUP3 ADD SWAP1 POP DUP2 DUP2 SUB PUSH1 0x0 DUP4 ADD MSTORE PUSH2 0x63B5 DUP2 PUSH2 0x5844 JUMP JUMPDEST SWAP1 POP SWAP2 SWAP1 POP JUMP JUMPDEST PUSH1 0x0 PUSH1 0x20 DUP3 ADD SWAP1 POP DUP2 DUP2 SUB PUSH1 0x0 DUP4 ADD MSTORE PUSH2 0x63D5 DUP2 PUSH2 0x58D0 JUMP JUMPDEST SWAP1 POP SWAP2 SWAP1 POP JUMP JUMPDEST PUSH1 0x0 PUSH1 0x20 DUP3 ADD SWAP1 POP DUP2 DUP2 SUB PUSH1 0x0 DUP4 ADD MSTORE PUSH2 0x63F5 DUP2 PUSH2 0x5910 JUMP JUMPDEST SWAP1 POP SWAP2 SWAP1 POP JUMP JUMPDEST PUSH1 0x0 PUSH1 0x20 DUP3 ADD SWAP1 POP DUP2 DUP2 SUB PUSH1 0x0 DUP4 ADD MSTORE PUSH2 0x6415 DUP2 PUSH2 0x599C JUMP JUMPDEST SWAP1 POP SWAP2 SWAP1 POP JUMP JUMPDEST PUSH1 0x0 PUSH1 0x20 DUP3 ADD SWAP1 POP DUP2 DUP2 SUB PUSH1 0x0 DUP4 ADD MSTORE PUSH2 0x6435 DUP2 PUSH2 0x5A02 JUMP JUMPDEST SWAP1 POP SWAP2 SWAP1 POP JUMP JUMPDEST PUSH1 0x0 PUSH1 0x20 DUP3 ADD SWAP1 POP DUP2 DUP2 SUB PUSH1 0x0 DUP4 ADD MSTORE PUSH2 0x6455 DUP2 PUSH2 0x5A68 JUMP JUMPDEST SWAP1 POP SWAP2 SWAP1 POP JUMP JUMPDEST PUSH1 0x0 PUSH1 0x20 DUP3 ADD SWAP1 POP DUP2 DUP2 SUB PUSH1 0x0 DUP4 ADD MSTORE PUSH2 0x6475 DUP2 PUSH2 0x5ACE JUMP JUMPDEST SWAP1 POP SWAP2 SWAP1 POP JUMP JUMPDEST PUSH1 0x0 PUSH1 0x20 DUP3 ADD SWAP1 POP DUP2 DUP2 SUB PUSH1 0x0 DUP4 ADD MSTORE PUSH2 0x6495 DUP2 PUSH2 0x5B0E JUMP JUMPDEST SWAP1 POP SWAP2 SWAP1 POP JUMP JUMPDEST PUSH1 0x0 PUSH1 0x20 DUP3 ADD SWAP1 POP DUP2 DUP2 SUB PUSH1 0x0 DUP4 ADD MSTORE PUSH2 0x64B5 DUP2 PUSH2 0x5B74 JUMP JUMPDEST SWAP1 POP SWAP2 SWAP1 POP JUMP JUMPDEST PUSH1 0x0 PUSH1 0x60 DUP3 ADD SWAP1 POP PUSH2 0x64D1 PUSH1 0x0 DUP4 ADD DUP5 PUSH2 0x5BDA JUMP JUMPDEST SWAP3 SWAP2 POP POP JUMP JUMPDEST PUSH1 0x0 PUSH1 0x20 DUP3 ADD SWAP1 POP PUSH2 0x64EC PUSH1 0x0 DUP4 ADD DUP5 PUSH2 0x5C2B JUMP JUMPDEST SWAP3 SWAP2 POP POP JUMP JUMPDEST PUSH1 0x0 PUSH2 0x140 DUP3 ADD SWAP1 POP PUSH2 0x6508 PUSH1 0x0 DUP4 ADD DUP14 PUSH2 0x5C2B JUMP JUMPDEST PUSH2 0x6515 PUSH1 0x20 DUP4 ADD DUP13 PUSH2 0x45B1 JUMP JUMPDEST DUP2 DUP2 SUB PUSH1 0x40 DUP4 ADD MSTORE PUSH2 0x6527 DUP2 DUP12 PUSH2 0x45DE JUMP JUMPDEST SWAP1 POP DUP2 DUP2 SUB PUSH1 0x60 DUP4 ADD MSTORE PUSH2 0x653B DUP2 DUP11 PUSH2 0x4726 JUMP JUMPDEST SWAP1 POP DUP2 DUP2 SUB PUSH1 0x80 DUP4 ADD MSTORE PUSH2 0x654F DUP2 DUP10 PUSH2 0x46B1 JUMP JUMPDEST SWAP1 POP DUP2 DUP2 SUB PUSH1 0xA0 DUP4 ADD MSTORE PUSH2 0x6563 DUP2 DUP9 PUSH2 0x463C JUMP JUMPDEST SWAP1 POP PUSH2 0x6572 PUSH1 0xC0 DUP4 ADD DUP8 PUSH2 0x5C2B JUMP JUMPDEST PUSH2 0x657F PUSH1 0xE0 DUP4 ADD DUP7 PUSH2 0x5C2B JUMP JUMPDEST PUSH2 0x658D PUSH2 0x100 DUP4 ADD DUP6 PUSH2 0x5C2B JUMP JUMPDEST DUP2 DUP2 SUB PUSH2 0x120 DUP4 ADD MSTORE PUSH2 0x65A0 DUP2 DUP5 PUSH2 0x4932 JUMP JUMPDEST SWAP1 POP SWAP12 SWAP11 POP POP POP POP POP POP POP POP POP POP POP JUMP JUMPDEST PUSH1 0x0 PUSH2 0x180 DUP3 ADD SWAP1 POP PUSH2 0x65C7 PUSH1 0x0 DUP4 ADD DUP16 PUSH2 0x5C2B JUMP JUMPDEST PUSH2 0x65D4 PUSH1 0x20 DUP4 ADD DUP15 PUSH2 0x45CF JUMP JUMPDEST PUSH2 0x65E1 PUSH1 0x40 DUP4 ADD DUP14 PUSH2 0x5C2B JUMP JUMPDEST PUSH2 0x65EE PUSH1 0x60 DUP4 ADD DUP13 PUSH2 0x5C2B JUMP JUMPDEST PUSH2 0x65FB PUSH1 0x80 DUP4 ADD DUP12 PUSH2 0x5C2B JUMP JUMPDEST PUSH2 0x6608 PUSH1 0xA0 DUP4 ADD DUP11 PUSH2 0x5C2B JUMP JUMPDEST PUSH2 0x6615 PUSH1 0xC0 DUP4 ADD DUP10 PUSH2 0x5C2B JUMP JUMPDEST PUSH2 0x6622 PUSH1 0xE0 DUP4 ADD DUP9 PUSH2 0x5C2B JUMP JUMPDEST PUSH2 0x6630 PUSH2 0x100 DUP4 ADD DUP8 PUSH2 0x5C2B JUMP JUMPDEST PUSH2 0x663E PUSH2 0x120 DUP4 ADD DUP7 PUSH2 0x5C2B JUMP JUMPDEST PUSH2 0x664C PUSH2 0x140 DUP4 ADD DUP6 PUSH2 0x4793 JUMP JUMPDEST PUSH2 0x665A PUSH2 0x160 DUP4 ADD DUP5 PUSH2 0x4793 JUMP JUMPDEST SWAP14 SWAP13 POP POP POP POP POP POP POP POP POP POP POP POP POP JUMP JUMPDEST PUSH1 0x0 PUSH1 0x40 DUP3 ADD SWAP1 POP PUSH2 0x6680 PUSH1 0x0 DUP4 ADD DUP6 PUSH2 0x5C2B JUMP JUMPDEST PUSH2 0x668D PUSH1 0x20 DUP4 ADD DUP5 PUSH2 0x5C2B JUMP JUMPDEST SWAP4 SWAP3 POP POP POP JUMP JUMPDEST PUSH1 0x0 PUSH1 0x80 DUP3 ADD SWAP1 POP PUSH2 0x66A9 PUSH1 0x0 DUP4 ADD DUP9 PUSH2 0x5C2B JUMP JUMPDEST PUSH2 0x66B6 PUSH1 0x20 DUP4 ADD DUP8 PUSH2 0x5C49 JUMP JUMPDEST PUSH2 0x66C3 PUSH1 0x40 DUP4 ADD DUP7 PUSH2 0x5C2B JUMP JUMPDEST DUP2 DUP2 SUB PUSH1 0x60 DUP4 ADD MSTORE PUSH2 0x66D6 DUP2 DUP5 DUP7 PUSH2 0x4905 JUMP JUMPDEST SWAP1 POP SWAP7 SWAP6 POP POP POP POP POP POP JUMP JUMPDEST PUSH1 0x0 PUSH1 0x80 DUP3 ADD SWAP1 POP PUSH2 0x66F7 PUSH1 0x0 DUP4 ADD DUP7 PUSH2 0x5C2B JUMP JUMPDEST PUSH2 0x6704 PUSH1 0x20 DUP4 ADD DUP6 PUSH2 0x5C49 JUMP JUMPDEST PUSH2 0x6711 PUSH1 0x40 DUP4 ADD DUP5 PUSH2 0x5C2B JUMP JUMPDEST DUP2 DUP2 SUB PUSH1 0x60 DUP4 ADD MSTORE PUSH2 0x6722 DUP2 PUSH2 0x582A JUMP JUMPDEST SWAP1 POP SWAP5 SWAP4 POP POP POP POP JUMP JUMPDEST PUSH1 0x0 PUSH1 0x40 MLOAD SWAP1 POP DUP2 DUP2 ADD DUP2 DUP2 LT PUSH8 0xFFFFFFFFFFFFFFFF DUP3 GT OR ISZERO PUSH2 0x674F JUMPI PUSH1 0x0 DUP1 REVERT JUMPDEST DUP1 PUSH1 0x40 MSTORE POP SWAP2 SWAP1 POP JUMP JUMPDEST PUSH1 0x0 PUSH8 0xFFFFFFFFFFFFFFFF DUP3 GT ISZERO PUSH2 0x6770 JUMPI PUSH1 0x0 DUP1 REVERT JUMPDEST PUSH1 0x20 DUP3 MUL SWAP1 POP PUSH1 0x20 DUP2 ADD SWAP1 POP SWAP2 SWAP1 POP JUMP JUMPDEST PUSH1 0x0 PUSH8 0xFFFFFFFFFFFFFFFF DUP3 GT ISZERO PUSH2 0x6798 JUMPI PUSH1 0x0 DUP1 REVERT JUMPDEST PUSH1 0x20 DUP3 MUL SWAP1 POP PUSH1 0x20 DUP2 ADD SWAP1 POP SWAP2 SWAP1 POP JUMP JUMPDEST PUSH1 0x0 PUSH8 0xFFFFFFFFFFFFFFFF DUP3 GT ISZERO PUSH2 0x67C0 JUMPI PUSH1 0x0 DUP1 REVERT JUMPDEST PUSH1 0x20 DUP3 MUL SWAP1 POP PUSH1 0x20 DUP2 ADD SWAP1 POP SWAP2 SWAP1 POP JUMP JUMPDEST PUSH1 0x0 PUSH8 0xFFFFFFFFFFFFFFFF DUP3 GT ISZERO PUSH2 0x67E8 JUMPI PUSH1 0x0 DUP1 REVERT JUMPDEST PUSH1 0x20 DUP3 MUL SWAP1 POP PUSH1 0x20 DUP2 ADD SWAP1 POP SWAP2 SWAP1 POP JUMP JUMPDEST PUSH1 0x0 PUSH8 0xFFFFFFFFFFFFFFFF DUP3 GT ISZERO PUSH2 0x6810 JUMPI PUSH1 0x0 DUP1 REVERT JUMPDEST PUSH1 0x1F NOT PUSH1 0x1F DUP4 ADD AND SWAP1 POP PUSH1 0x20 DUP2 ADD SWAP1 POP SWAP2 SWAP1 POP JUMP JUMPDEST PUSH1 0x0 PUSH8 0xFFFFFFFFFFFFFFFF DUP3 GT ISZERO PUSH2 0x683C JUMPI PUSH1 0x0 DUP1 REVERT JUMPDEST PUSH1 0x1F NOT PUSH1 0x1F DUP4 ADD AND SWAP1 POP PUSH1 0x20 DUP2 ADD SWAP1 POP SWAP2 SWAP1 POP JUMP JUMPDEST PUSH1 0x0 PUSH8 0xFFFFFFFFFFFFFFFF DUP3 GT ISZERO PUSH2 0x6868 JUMPI PUSH1 0x0 DUP1 REVERT JUMPDEST PUSH1 0x1F NOT PUSH1 0x1F DUP4 ADD AND SWAP1 POP PUSH1 0x20 DUP2 ADD SWAP1 POP SWAP2 SWAP1 POP JUMP JUMPDEST PUSH1 0x0 PUSH8 0xFFFFFFFFFFFFFFFF DUP3 GT ISZERO PUSH2 0x6894 JUMPI PUSH1 0x0 DUP1 REVERT JUMPDEST PUSH1 0x1F NOT PUSH1 0x1F DUP4 ADD AND SWAP1 POP PUSH1 0x20 DUP2 ADD SWAP1 POP SWAP2 SWAP1 POP JUMP JUMPDEST PUSH1 0x0 DUP2 SWAP1 POP PUSH1 0x20 DUP3 ADD SWAP1 POP SWAP2 SWAP1 POP JUMP JUMPDEST PUSH1 0x0 DUP2 SWAP1 POP PUSH1 0x20 DUP3 ADD SWAP1 POP SWAP2 SWAP1 POP JUMP JUMPDEST PUSH1 0x0 DUP2 SWAP1 POP PUSH1 0x20 DUP3 ADD SWAP1 POP SWAP2 SWAP1 POP JUMP JUMPDEST PUSH1 0x0 DUP2 SWAP1 POP PUSH1 0x20 DUP3 ADD SWAP1 POP SWAP2 SWAP1 POP JUMP JUMPDEST PUSH1 0x0 DUP2 SWAP1 POP DUP2 PUSH1 0x0 MSTORE PUSH1 0x20 PUSH1 0x0 KECCAK256 SWAP1 POP SWAP2 SWAP1 POP JUMP JUMPDEST PUSH1 0x0 DUP2 SWAP1 POP DUP2 PUSH1 0x0 MSTORE PUSH1 0x20 PUSH1 0x0 KECCAK256 SWAP1 POP SWAP2 SWAP1 POP JUMP JUMPDEST PUSH1 0x0 DUP2 MLOAD SWAP1 POP SWAP2 SWAP1 POP JUMP JUMPDEST PUSH1 0x0 DUP2 MLOAD SWAP1 POP SWAP2 SWAP1 POP JUMP JUMPDEST PUSH1 0x0 DUP2 MLOAD SWAP1 POP SWAP2 SWAP1 POP JUMP JUMPDEST PUSH1 0x0 DUP2 MLOAD SWAP1 POP SWAP2 SWAP1 POP JUMP JUMPDEST PUSH1 0x0 DUP2 MLOAD SWAP1 POP SWAP2 SWAP1 POP JUMP JUMPDEST PUSH1 0x0 DUP2 MLOAD SWAP1 POP SWAP2 SWAP1 POP JUMP JUMPDEST PUSH1 0x0 DUP2 MLOAD SWAP1 POP SWAP2 SWAP1 POP JUMP JUMPDEST PUSH1 0x0 DUP2 MLOAD SWAP1 POP SWAP2 SWAP1 POP JUMP JUMPDEST PUSH1 0x0 PUSH1 0x20 DUP3 ADD SWAP1 POP SWAP2 SWAP1 POP JUMP JUMPDEST PUSH1 0x0 PUSH1 0x20 DUP3 ADD SWAP1 POP SWAP2 SWAP1 POP JUMP JUMPDEST PUSH1 0x0 PUSH1 0x20 DUP3 ADD SWAP1 POP SWAP2 SWAP1 POP JUMP JUMPDEST PUSH1 0x0 PUSH1 0x20 DUP3 ADD SWAP1 POP SWAP2 SWAP1 POP JUMP JUMPDEST PUSH1 0x0 DUP3 DUP3 MSTORE PUSH1 0x20 DUP3 ADD SWAP1 POP SWAP3 SWAP2 POP POP JUMP JUMPDEST PUSH1 0x0 DUP3 DUP3 MSTORE PUSH1 0x20 DUP3 ADD SWAP1 POP SWAP3 SWAP2 POP POP JUMP JUMPDEST PUSH1 0x0 DUP3 DUP3 MSTORE PUSH1 0x20 DUP3 ADD SWAP1 POP SWAP3 SWAP2 POP POP JUMP JUMPDEST PUSH1 0x0 DUP3 DUP3 MSTORE PUSH1 0x20 DUP3 ADD SWAP1 POP SWAP3 SWAP2 POP POP JUMP JUMPDEST PUSH1 0x0 DUP3 DUP3 MSTORE PUSH1 0x20 DUP3 ADD SWAP1 POP SWAP3 SWAP2 POP POP JUMP JUMPDEST PUSH1 0x0 DUP3 DUP3 MSTORE PUSH1 0x20 DUP3 ADD SWAP1 POP SWAP3 SWAP2 POP POP JUMP JUMPDEST PUSH1 0x0 DUP3 DUP3 MSTORE PUSH1 0x20 DUP3 ADD SWAP1 POP SWAP3 SWAP2 POP POP JUMP JUMPDEST PUSH1 0x0 DUP3 DUP3 MSTORE PUSH1 0x20 DUP3 ADD SWAP1 POP SWAP3 SWAP2 POP POP JUMP JUMPDEST PUSH1 0x0 DUP2 SWAP1 POP SWAP3 SWAP2 POP POP JUMP JUMPDEST PUSH1 0x0 PUSH2 0x6A3D DUP3 PUSH2 0x6A6D JUMP JUMPDEST SWAP1 POP SWAP2 SWAP1 POP JUMP JUMPDEST PUSH1 0x0 DUP2 ISZERO ISZERO SWAP1 POP SWAP2 SWAP1 POP JUMP JUMPDEST PUSH1 0x0 DUP2 SWAP1 POP SWAP2 SWAP1 POP JUMP JUMPDEST PUSH1 0x0 DUP2 SWAP1 POP PUSH2 0x6A68 DUP3 PUSH2 0x6BB5 JUMP JUMPDEST SWAP2 SWAP1 POP JUMP JUMPDEST PUSH1 0x0 PUSH20 0xFFFFFFFFFFFFFFFFFFFFFFFFFFFFFFFFFFFFFFFF DUP3 AND SWAP1 POP SWAP2 SWAP1 POP JUMP JUMPDEST PUSH1 0x0 DUP2 SWAP1 POP SWAP2 SWAP1 POP JUMP JUMPDEST PUSH1 0x0 PUSH1 0xFF DUP3 AND SWAP1 POP SWAP2 SWAP1 POP JUMP JUMPDEST PUSH1 0x0 PUSH2 0x6AAF DUP3 PUSH2 0x6B34 JUMP JUMPDEST SWAP1 POP SWAP2 SWAP1 POP JUMP JUMPDEST PUSH1 0x0 PUSH2 0x6AC1 DUP3 PUSH2 0x6AC8 JUMP JUMPDEST SWAP1 POP SWAP2 SWAP1 POP JUMP JUMPDEST PUSH1 0x0 PUSH2 0x6AD3 DUP3 PUSH2 0x6A6D JUMP JUMPDEST SWAP1 POP SWAP2 SWAP1 POP JUMP JUMPDEST PUSH1 0x0 PUSH2 0x6AE5 DUP3 PUSH2 0x6AEC JUMP JUMPDEST SWAP1 POP SWAP2 SWAP1 POP JUMP JUMPDEST PUSH1 0x0 PUSH2 0x6AF7 DUP3 PUSH2 0x6A6D JUMP JUMPDEST SWAP1 POP SWAP2 SWAP1 POP JUMP JUMPDEST PUSH1 0x0 PUSH2 0x6B09 DUP3 PUSH2 0x6B10 JUMP JUMPDEST SWAP1 POP SWAP2 SWAP1 POP JUMP JUMPDEST PUSH1 0x0 PUSH2 0x6B1B DUP3 PUSH2 0x6A6D JUMP JUMPDEST SWAP1 POP SWAP2 SWAP1 POP JUMP JUMPDEST PUSH1 0x0 PUSH2 0x6B2D DUP3 PUSH2 0x6A5A JUMP JUMPDEST SWAP1 POP SWAP2 SWAP1 POP JUMP JUMPDEST PUSH1 0x0 PUSH2 0x6B3F DUP3 PUSH2 0x6B46 JUMP JUMPDEST SWAP1 POP SWAP2 SWAP1 POP JUMP JUMPDEST PUSH1 0x0 PUSH2 0x6B51 DUP3 PUSH2 0x6A6D JUMP JUMPDEST SWAP1 POP SWAP2 SWAP1 POP JUMP JUMPDEST DUP3 DUP2 DUP4 CALLDATACOPY PUSH1 0x0 DUP4 DUP4 ADD MSTORE POP POP POP JUMP JUMPDEST PUSH1 0x0 JUMPDEST DUP4 DUP2 LT ISZERO PUSH2 0x6B85 JUMPI DUP1 DUP3 ADD MLOAD DUP2 DUP5 ADD MSTORE PUSH1 0x20 DUP2 ADD SWAP1 POP PUSH2 0x6B6A JUMP JUMPDEST DUP4 DUP2 GT ISZERO PUSH2 0x6B94 JUMPI PUSH1 0x0 DUP5 DUP5 ADD MSTORE JUMPDEST POP POP POP POP JUMP JUMPDEST PUSH1 0x0 DUP2 SWAP1 POP SWAP2 SWAP1 POP JUMP JUMPDEST PUSH1 0x0 PUSH1 0x1F NOT PUSH1 0x1F DUP4 ADD AND SWAP1 POP SWAP2 SWAP1 POP JUMP JUMPDEST PUSH1 0x8 DUP2 LT PUSH2 0x6BBF JUMPI INVALID JUMPDEST POP JUMP JUMPDEST PUSH2 0x6BCB DUP2 PUSH2 0x6A32 JUMP JUMPDEST DUP2 EQ PUSH2 0x6BD6 JUMPI PUSH1 0x0 DUP1 REVERT JUMPDEST POP JUMP JUMPDEST PUSH2 0x6BE2 DUP2 PUSH2 0x6A44 JUMP JUMPDEST DUP2 EQ PUSH2 0x6BED JUMPI PUSH1 0x0 DUP1 REVERT JUMPDEST POP JUMP JUMPDEST PUSH2 0x6BF9 DUP2 PUSH2 0x6A50 JUMP JUMPDEST DUP2 EQ PUSH2 0x6C04 JUMPI PUSH1 0x0 DUP1 REVERT JUMPDEST POP JUMP JUMPDEST PUSH2 0x6C10 DUP2 PUSH2 0x6A8D JUMP JUMPDEST DUP2 EQ PUSH2 0x6C1B JUMPI PUSH1 0x0 DUP1 REVERT JUMPDEST POP JUMP JUMPDEST PUSH2 0x6C27 DUP2 PUSH2 0x6A97 JUMP JUMPDEST DUP2 EQ PUSH2 0x6C32 JUMPI PUSH1 0x0 DUP1 REVERT JUMPDEST POP JUMP INVALID LOG3 PUSH6 0x627A7A723158 KECCAK256 PUSH13 0x3E2C6A01C7A6B950A989EF31C4 0x4B 0x4F 0xC1 DUP15 BALANCE PUSH1 0x75 0x5E REVERT 0x2D 0xB2 0x28 0xB0 MSTORE 0x49 MOD EXP 0x5E PUSH13 0x6578706572696D656E74616CF5 PUSH5 0x736F6C6343 STOP SDIV LT STOP BLOCKHASH "
        },
        "gasEstimates": {
          "creation": {
            "codeDepositCost": "5553600",
            "executionCost": "6730",
            "totalCost": "5560330"
          },
          "external": {
            "BALLOT_TYPEHASH()": "651",
            "DOMAIN_TYPEHASH()": "698",
            "MAX_PROPOSAL_THRESHOLDPERCENT()": "375",
            "MAX_VOTING_DELAY()": "419",
            "MAX_VOTING_PERIOD()": "397",
            "MIN_PROPOSAL_THRESHOLDPERCENT()": "374",
            "MIN_VOTING_DELAY()": "440",
            "MIN_VOTING_PERIOD()": "441",
            "_acceptAdmin()": "infinite",
            "_initiate(address)": "infinite",
            "_setPendingAdmin(address)": "infinite",
            "_setProposalThreshold(uint256)": "infinite",
            "_setVotingDelay(uint256)": "infinite",
            "_setVotingPeriod(uint256)": "infinite",
            "admin()": "1302",
            "cancel(uint256)": "infinite",
            "castVote(uint256,uint8)": "infinite",
            "castVoteBySig(uint256,uint8,uint8,bytes32,bytes32)": "infinite",
            "castVoteWithReason(uint256,uint8,string)": "infinite",
            "execute(uint256)": "infinite",
            "gFISC()": "1346",
            "getActions(uint256)": "infinite",
            "getReceipt(uint256,address)": "infinite",
            "getVotesFromPercentOfsFISCSupply(uint256)": "infinite",
            "implementation()": "1281",
            "initialProposalId()": "1261",
            "initialize(address,address,address,uint256,uint256,uint256)": "infinite",
            "latestProposalIds(address)": "1649",
            "name()": "infinite",
            "pendingAdmin()": "1348",
            "proposalCount()": "1240",
            "proposalMaxOperations()": "484",
            "proposalThreshold()": "1241",
            "proposals(uint256)": "infinite",
            "propose(address[],uint256[],string[],bytes[],string)": "infinite",
            "queue(uint256)": "infinite",
            "quorumPercent()": "395",
            "sFISC()": "1346",
            "state(uint256)": "infinite",
            "timelock()": "1324",
            "votingDelay()": "1197",
            "votingPeriod()": "1198"
          },
          "internal": {
            "add256(uint256,uint256)": "infinite",
            "castVoteInternal(address,uint256,uint8)": "infinite",
            "div256(uint256,uint256)": "infinite",
            "getChainIdInternal()": "35",
            "mul256(uint256,uint256)": "infinite",
            "queueOrRevertInternal(address,uint256,string memory,bytes memory,uint256)": "infinite",
            "sub256(uint256,uint256)": "infinite"
          }
        },
        "methodIdentifiers": {
          "BALLOT_TYPEHASH()": "deaaa7cc",
          "DOMAIN_TYPEHASH()": "20606b70",
          "MAX_PROPOSAL_THRESHOLDPERCENT()": "891df873",
          "MAX_VOTING_DELAY()": "b1126263",
          "MAX_VOTING_PERIOD()": "a64e024a",
          "MIN_PROPOSAL_THRESHOLDPERCENT()": "c3b98d07",
          "MIN_VOTING_DELAY()": "e48083fe",
          "MIN_VOTING_PERIOD()": "215809ca",
          "_acceptAdmin()": "e9c714f2",
          "_initiate(address)": "f9d28b80",
          "_setPendingAdmin(address)": "b71d1a0c",
          "_setProposalThreshold(uint256)": "17ba1b8b",
          "_setVotingDelay(uint256)": "1dfb1b5a",
          "_setVotingPeriod(uint256)": "0ea2d98c",
          "admin()": "f851a440",
          "cancel(uint256)": "40e58ee5",
          "castVote(uint256,uint8)": "56781388",
          "castVoteBySig(uint256,uint8,uint8,bytes32,bytes32)": "3bccf4fd",
          "castVoteWithReason(uint256,uint8,string)": "7b3c71d3",
          "execute(uint256)": "fe0d94c1",
          "gFISC()": "d9bfd805",
          "getActions(uint256)": "328dd982",
          "getReceipt(uint256,address)": "e23a9a52",
          "getVotesFromPercentOfsFISCSupply(uint256)": "f7d84293",
          "implementation()": "5c60da1b",
          "initialProposalId()": "fc4eee42",
          "initialize(address,address,address,uint256,uint256,uint256)": "728cdbca",
          "latestProposalIds(address)": "17977c61",
          "name()": "06fdde03",
          "pendingAdmin()": "26782247",
          "proposalCount()": "da35c664",
          "proposalMaxOperations()": "7bdbe4d0",
          "proposalThreshold()": "b58131b0",
          "proposals(uint256)": "013cf08b",
          "propose(address[],uint256[],string[],bytes[],string)": "da95691a",
          "queue(uint256)": "ddf0b009",
          "quorumPercent()": "f81cbd26",
          "sFISC()": "6ddd86d9",
          "state(uint256)": "3e4f49e6",
          "timelock()": "d33219b4",
          "votingDelay()": "3932abb1",
          "votingPeriod()": "02a251a3"
        }
      },
      "storageLayout": {
        "storage": [
          {
            "astId": 3002,
            "contract": "contracts/governance/GovernorFISCegaDelegate.sol:GovernorFISCegaDelegate",
            "label": "admin",
            "offset": 0,
            "slot": "0",
            "type": "t_address"
          },
          {
            "astId": 3004,
            "contract": "contracts/governance/GovernorFISCegaDelegate.sol:GovernorFISCegaDelegate",
            "label": "pendingAdmin",
            "offset": 0,
            "slot": "1",
            "type": "t_address"
          },
          {
            "astId": 3006,
            "contract": "contracts/governance/GovernorFISCegaDelegate.sol:GovernorFISCegaDelegate",
            "label": "implementation",
            "offset": 0,
            "slot": "2",
            "type": "t_address"
          },
          {
            "astId": 3011,
            "contract": "contracts/governance/GovernorFISCegaDelegate.sol:GovernorFISCegaDelegate",
            "label": "votingDelay",
            "offset": 0,
            "slot": "3",
            "type": "t_uint256"
          },
          {
            "astId": 3013,
            "contract": "contracts/governance/GovernorFISCegaDelegate.sol:GovernorFISCegaDelegate",
            "label": "votingPeriod",
            "offset": 0,
            "slot": "4",
            "type": "t_uint256"
          },
          {
            "astId": 3015,
            "contract": "contracts/governance/GovernorFISCegaDelegate.sol:GovernorFISCegaDelegate",
            "label": "proposalThreshold",
            "offset": 0,
            "slot": "5",
            "type": "t_uint256"
          },
          {
            "astId": 3017,
            "contract": "contracts/governance/GovernorFISCegaDelegate.sol:GovernorFISCegaDelegate",
            "label": "initialProposalId",
            "offset": 0,
            "slot": "6",
            "type": "t_uint256"
          },
          {
            "astId": 3019,
            "contract": "contracts/governance/GovernorFISCegaDelegate.sol:GovernorFISCegaDelegate",
            "label": "proposalCount",
            "offset": 0,
            "slot": "7",
            "type": "t_uint256"
          },
          {
            "astId": 3021,
            "contract": "contracts/governance/GovernorFISCegaDelegate.sol:GovernorFISCegaDelegate",
            "label": "timelock",
            "offset": 0,
            "slot": "8",
            "type": "t_contract(TimelockInterface)3155"
          },
          {
            "astId": 3023,
            "contract": "contracts/governance/GovernorFISCegaDelegate.sol:GovernorFISCegaDelegate",
            "label": "gFISC",
            "offset": 0,
            "slot": "9",
            "type": "t_contract(gFISCInterface)3179"
          },
          {
            "astId": 3025,
            "contract": "contracts/governance/GovernorFISCegaDelegate.sol:GovernorFISCegaDelegate",
            "label": "sFISC",
            "offset": 0,
            "slot": "10",
            "type": "t_contract(sFISCInterface)3185"
          },
          {
            "astId": 3029,
            "contract": "contracts/governance/GovernorFISCegaDelegate.sol:GovernorFISCegaDelegate",
            "label": "proposals",
            "offset": 0,
            "slot": "11",
            "type": "t_mapping(t_uint256,t_struct(Proposal)3074_storage)"
          },
          {
            "astId": 3033,
            "contract": "contracts/governance/GovernorFISCegaDelegate.sol:GovernorFISCegaDelegate",
            "label": "latestProposalIds",
            "offset": 0,
            "slot": "12",
            "type": "t_mapping(t_address,t_uint256)"
          }
        ],
        "types": {
          "t_address": {
            "encoding": "inplace",
            "label": "address",
            "numberOfBytes": "20"
          },
          "t_array(t_address)dyn_storage": {
            "base": "t_address",
            "encoding": "dynamic_array",
            "label": "address[]",
            "numberOfBytes": "32"
          },
          "t_array(t_bytes_storage)dyn_storage": {
            "base": "t_bytes_storage",
            "encoding": "dynamic_array",
            "label": "bytes[]",
            "numberOfBytes": "32"
          },
          "t_array(t_string_storage)dyn_storage": {
            "base": "t_string_storage",
            "encoding": "dynamic_array",
            "label": "string[]",
            "numberOfBytes": "32"
          },
          "t_array(t_uint256)dyn_storage": {
            "base": "t_uint256",
            "encoding": "dynamic_array",
            "label": "uint256[]",
            "numberOfBytes": "32"
          },
          "t_bool": {
            "encoding": "inplace",
            "label": "bool",
            "numberOfBytes": "1"
          },
          "t_bytes_storage": {
            "encoding": "bytes",
            "label": "bytes",
            "numberOfBytes": "32"
          },
          "t_contract(TimelockInterface)3155": {
            "encoding": "inplace",
            "label": "contract TimelockInterface",
            "numberOfBytes": "20"
          },
          "t_contract(gFISCInterface)3179": {
            "encoding": "inplace",
            "label": "contract gFISCInterface",
            "numberOfBytes": "20"
          },
          "t_contract(sFISCInterface)3185": {
            "encoding": "inplace",
            "label": "contract sFISCInterface",
            "numberOfBytes": "20"
          },
          "t_mapping(t_address,t_struct(Receipt)3081_storage)": {
            "encoding": "mapping",
            "key": "t_address",
            "label": "mapping(address => struct GovernorFISCegaDelegateStorageV1.Receipt)",
            "numberOfBytes": "32",
            "value": "t_struct(Receipt)3081_storage"
          },
          "t_mapping(t_address,t_uint256)": {
            "encoding": "mapping",
            "key": "t_address",
            "label": "mapping(address => uint256)",
            "numberOfBytes": "32",
            "value": "t_uint256"
          },
          "t_mapping(t_uint256,t_struct(Proposal)3074_storage)": {
            "encoding": "mapping",
            "key": "t_uint256",
            "label": "mapping(uint256 => struct GovernorFISCegaDelegateStorageV1.Proposal)",
            "numberOfBytes": "32",
            "value": "t_struct(Proposal)3074_storage"
          },
          "t_string_storage": {
            "encoding": "bytes",
            "label": "string",
            "numberOfBytes": "32"
          },
          "t_struct(Proposal)3074_storage": {
            "encoding": "inplace",
            "label": "struct GovernorFISCegaDelegateStorageV1.Proposal",
            "members": [
              {
                "astId": 3035,
                "contract": "contracts/governance/GovernorFISCegaDelegate.sol:GovernorFISCegaDelegate",
                "label": "id",
                "offset": 0,
                "slot": "0",
                "type": "t_uint256"
              },
              {
                "astId": 3037,
                "contract": "contracts/governance/GovernorFISCegaDelegate.sol:GovernorFISCegaDelegate",
                "label": "proposer",
                "offset": 0,
                "slot": "1",
                "type": "t_address"
              },
              {
                "astId": 3039,
                "contract": "contracts/governance/GovernorFISCegaDelegate.sol:GovernorFISCegaDelegate",
                "label": "eta",
                "offset": 0,
                "slot": "2",
                "type": "t_uint256"
              },
              {
                "astId": 3042,
                "contract": "contracts/governance/GovernorFISCegaDelegate.sol:GovernorFISCegaDelegate",
                "label": "targets",
                "offset": 0,
                "slot": "3",
                "type": "t_array(t_address)dyn_storage"
              },
              {
                "astId": 3045,
                "contract": "contracts/governance/GovernorFISCegaDelegate.sol:GovernorFISCegaDelegate",
                "label": "values",
                "offset": 0,
                "slot": "4",
                "type": "t_array(t_uint256)dyn_storage"
              },
              {
                "astId": 3048,
                "contract": "contracts/governance/GovernorFISCegaDelegate.sol:GovernorFISCegaDelegate",
                "label": "signatures",
                "offset": 0,
                "slot": "5",
                "type": "t_array(t_string_storage)dyn_storage"
              },
              {
                "astId": 3051,
                "contract": "contracts/governance/GovernorFISCegaDelegate.sol:GovernorFISCegaDelegate",
                "label": "calldatas",
                "offset": 0,
                "slot": "6",
                "type": "t_array(t_bytes_storage)dyn_storage"
              },
              {
                "astId": 3053,
                "contract": "contracts/governance/GovernorFISCegaDelegate.sol:GovernorFISCegaDelegate",
                "label": "startBlock",
                "offset": 0,
                "slot": "7",
                "type": "t_uint256"
              },
              {
                "astId": 3055,
                "contract": "contracts/governance/GovernorFISCegaDelegate.sol:GovernorFISCegaDelegate",
                "label": "endBlock",
                "offset": 0,
                "slot": "8",
                "type": "t_uint256"
              },
              {
                "astId": 3057,
                "contract": "contracts/governance/GovernorFISCegaDelegate.sol:GovernorFISCegaDelegate",
                "label": "forVotes",
                "offset": 0,
                "slot": "9",
                "type": "t_uint256"
              },
              {
                "astId": 3059,
                "contract": "contracts/governance/GovernorFISCegaDelegate.sol:GovernorFISCegaDelegate",
                "label": "againstVotes",
                "offset": 0,
                "slot": "10",
                "type": "t_uint256"
              },
              {
                "astId": 3061,
                "contract": "contracts/governance/GovernorFISCegaDelegate.sol:GovernorFISCegaDelegate",
                "label": "abstainVotes",
                "offset": 0,
                "slot": "11",
                "type": "t_uint256"
              },
              {
                "astId": 3063,
                "contract": "contracts/governance/GovernorFISCegaDelegate.sol:GovernorFISCegaDelegate",
                "label": "thresholdAtStart",
                "offset": 0,
                "slot": "12",
                "type": "t_uint256"
              },
              {
                "astId": 3065,
                "contract": "contracts/governance/GovernorFISCegaDelegate.sol:GovernorFISCegaDelegate",
                "label": "votesNeeded",
                "offset": 0,
                "slot": "13",
                "type": "t_uint256"
              },
              {
                "astId": 3067,
                "contract": "contracts/governance/GovernorFISCegaDelegate.sol:GovernorFISCegaDelegate",
                "label": "canceled",
                "offset": 0,
                "slot": "14",
                "type": "t_bool"
              },
              {
                "astId": 3069,
                "contract": "contracts/governance/GovernorFISCegaDelegate.sol:GovernorFISCegaDelegate",
                "label": "executed",
                "offset": 1,
                "slot": "14",
                "type": "t_bool"
              },
              {
                "astId": 3073,
                "contract": "contracts/governance/GovernorFISCegaDelegate.sol:GovernorFISCegaDelegate",
                "label": "receipts",
                "offset": 0,
                "slot": "15",
                "type": "t_mapping(t_address,t_struct(Receipt)3081_storage)"
              }
            ],
            "numberOfBytes": "512"
          },
          "t_struct(Receipt)3081_storage": {
            "encoding": "inplace",
            "label": "struct GovernorFISCegaDelegateStorageV1.Receipt",
            "members": [
              {
                "astId": 3076,
                "contract": "contracts/governance/GovernorFISCegaDelegate.sol:GovernorFISCegaDelegate",
                "label": "hasVoted",
                "offset": 0,
                "slot": "0",
                "type": "t_bool"
              },
              {
                "astId": 3078,
                "contract": "contracts/governance/GovernorFISCegaDelegate.sol:GovernorFISCegaDelegate",
                "label": "support",
                "offset": 1,
                "slot": "0",
                "type": "t_uint8"
              },
              {
                "astId": 3080,
                "contract": "contracts/governance/GovernorFISCegaDelegate.sol:GovernorFISCegaDelegate",
                "label": "votes",
                "offset": 0,
                "slot": "1",
                "type": "t_uint256"
              }
            ],
            "numberOfBytes": "64"
          },
          "t_uint256": {
            "encoding": "inplace",
            "label": "uint256",
            "numberOfBytes": "32"
          },
          "t_uint8": {
            "encoding": "inplace",
            "label": "uint8",
            "numberOfBytes": "1"
          }
        }
      },
      "userdoc": {
        "methods": {
          "_acceptAdmin()": {
            "notice": "Accepts transfer of admin rights. msg.sender must be pendingAdmin"
          },
          "_initiate(address)": {
            "notice": "Initiate the GovernorFISCega contract"
          },
          "_setPendingAdmin(address)": {
            "notice": "Begins transfer of admin rights. The newPendingAdmin must call `_acceptAdmin` to finalize the transfer."
          },
          "_setProposalThreshold(uint256)": {
            "notice": "Admin function for setting the proposal threshold"
          },
          "_setVotingDelay(uint256)": {
            "notice": "Admin function for setting the voting delay"
          },
          "_setVotingPeriod(uint256)": {
            "notice": "Admin function for setting the voting period"
          },
          "cancel(uint256)": {
            "notice": "Cancels a proposal only if sender is the proposer, or proposer delegates dropped below proposal threshold"
          },
          "castVote(uint256,uint8)": {
            "notice": "Cast a vote for a proposal"
          },
          "castVoteBySig(uint256,uint8,uint8,bytes32,bytes32)": {
            "notice": "Cast a vote for a proposal by signature"
          },
          "castVoteWithReason(uint256,uint8,string)": {
            "notice": "Cast a vote for a proposal with a reason"
          },
          "execute(uint256)": {
            "notice": "Executes a queued proposal if eta has passed"
          },
          "getActions(uint256)": {
            "notice": "Gets actions of a proposal"
          },
          "getReceipt(uint256,address)": {
            "notice": "Gets the receipt for a voter on a given proposal"
          },
          "getVotesFromPercentOfsFISCSupply(uint256)": {
            "notice": "change from original contract"
          },
          "initialize(address,address,address,uint256,uint256,uint256)": {
            "notice": "Used to initialize the contract during delegator contructor"
          },
          "propose(address[],uint256[],string[],bytes[],string)": {
            "notice": "Function used to propose a new proposal. Sender must have delegates above the proposal threshold"
          },
          "queue(uint256)": {
            "notice": "Queues a proposal of state succeeded"
          },
          "state(uint256)": {
            "notice": "Gets the state of a proposal"
          }
        }
      }
    }
  }
}