{
  "contracts/governance/GovernorAlpha.sol": {
    "GovernorAlpha": {
      "abi": [
        {
          "inputs": [
            {
              "internalType": "address",
              "name": "timelock_",
              "type": "address"
            },
            {
              "internalType": "address",
              "name": "sFISC_",
              "type": "address"
            },
            {
              "internalType": "address",
              "name": "gFISC_",
              "type": "address"
            },
            {
              "internalType": "address",
              "name": "guardian_",
              "type": "address"
            }
          ],
          "payable": false,
          "stateMutability": "nonpayable",
          "type": "constructor"
        },
        {
          "anonymous": false,
          "inputs": [
            {
              "indexed": false,
              "internalType": "uint256",
              "name": "id",
              "type": "uint256"
            }
          ],
          "name": "ProposalCanceled",
          "type": "event"
        },
        {
          "anonymous": false,
          "inputs": [
            {
              "indexed": false,
              "internalType": "uint256",
              "name": "id",
              "type": "uint256"
            },
            {
              "indexed": false,
              "internalType": "address",
              "name": "proposer",
              "type": "address"
            },
            {
              "indexed": false,
              "internalType": "address[]",
              "name": "targets",
              "type": "address[]"
            },
            {
              "indexed": false,
              "internalType": "uint256[]",
              "name": "values",
              "type": "uint256[]"
            },
            {
              "indexed": false,
              "internalType": "string[]",
              "name": "signatures",
              "type": "string[]"
            },
            {
              "indexed": false,
              "internalType": "bytes[]",
              "name": "calldatas",
              "type": "bytes[]"
            },
            {
              "indexed": false,
              "internalType": "uint256",
              "name": "startBlock",
              "type": "uint256"
            },
            {
              "indexed": false,
              "internalType": "uint256",
              "name": "endBlock",
              "type": "uint256"
            },
            {
              "indexed": false,
              "internalType": "string",
              "name": "description",
              "type": "string"
            }
          ],
          "name": "ProposalCreated",
          "type": "event"
        },
        {
          "anonymous": false,
          "inputs": [
            {
              "indexed": false,
              "internalType": "uint256",
              "name": "id",
              "type": "uint256"
            }
          ],
          "name": "ProposalExecuted",
          "type": "event"
        },
        {
          "anonymous": false,
          "inputs": [
            {
              "indexed": false,
              "internalType": "uint256",
              "name": "id",
              "type": "uint256"
            },
            {
              "indexed": false,
              "internalType": "uint256",
              "name": "eta",
              "type": "uint256"
            }
          ],
          "name": "ProposalQueued",
          "type": "event"
        },
        {
          "anonymous": false,
          "inputs": [
            {
              "indexed": false,
              "internalType": "address",
              "name": "voter",
              "type": "address"
            },
            {
              "indexed": false,
              "internalType": "uint256",
              "name": "proposalId",
              "type": "uint256"
            },
            {
              "indexed": false,
              "internalType": "bool",
              "name": "support",
              "type": "bool"
            },
            {
              "indexed": false,
              "internalType": "uint256",
              "name": "votes",
              "type": "uint256"
            }
          ],
          "name": "VoteCast",
          "type": "event"
        },
        {
          "constant": true,
          "inputs": [],
          "name": "BALLOT_TYPEHASH",
          "outputs": [
            {
              "internalType": "bytes32",
              "name": "",
              "type": "bytes32"
            }
          ],
          "payable": false,
          "stateMutability": "view",
          "type": "function"
        },
        {
          "constant": true,
          "inputs": [],
          "name": "DOMAIN_TYPEHASH",
          "outputs": [
            {
              "internalType": "bytes32",
              "name": "",
              "type": "bytes32"
            }
          ],
          "payable": false,
          "stateMutability": "view",
          "type": "function"
        },
        {
          "constant": false,
          "inputs": [],
          "name": "__abdicate",
          "outputs": [],
          "payable": false,
          "stateMutability": "nonpayable",
          "type": "function"
        },
        {
          "constant": false,
          "inputs": [],
          "name": "__acceptAdmin",
          "outputs": [],
          "payable": false,
          "stateMutability": "nonpayable",
          "type": "function"
        },
        {
          "constant": false,
          "inputs": [
            {
              "internalType": "address",
              "name": "newPendingAdmin",
              "type": "address"
            },
            {
              "internalType": "uint256",
              "name": "eta",
              "type": "uint256"
            }
          ],
          "name": "__executeSetTimelockPendingAdmin",
          "outputs": [],
          "payable": false,
          "stateMutability": "nonpayable",
          "type": "function"
        },
        {
          "constant": false,
          "inputs": [
            {
              "internalType": "address",
              "name": "newPendingAdmin",
              "type": "address"
            },
            {
              "internalType": "uint256",
              "name": "eta",
              "type": "uint256"
            }
          ],
          "name": "__queueSetTimelockPendingAdmin",
          "outputs": [],
          "payable": false,
          "stateMutability": "nonpayable",
          "type": "function"
        },
        {
          "constant": false,
          "inputs": [
            {
              "internalType": "uint256",
              "name": "proposalId",
              "type": "uint256"
            }
          ],
          "name": "cancel",
          "outputs": [],
          "payable": false,
          "stateMutability": "nonpayable",
          "type": "function"
        },
        {
          "constant": false,
          "inputs": [
            {
              "internalType": "uint256",
              "name": "proposalId",
              "type": "uint256"
            },
            {
              "internalType": "bool",
              "name": "support",
              "type": "bool"
            }
          ],
          "name": "castVote",
          "outputs": [],
          "payable": false,
          "stateMutability": "nonpayable",
          "type": "function"
        },
        {
          "constant": false,
          "inputs": [
            {
              "internalType": "uint256",
              "name": "proposalId",
              "type": "uint256"
            },
            {
              "internalType": "bool",
              "name": "support",
              "type": "bool"
            },
            {
              "internalType": "uint8",
              "name": "v",
              "type": "uint8"
            },
            {
              "internalType": "bytes32",
              "name": "r",
              "type": "bytes32"
            },
            {
              "internalType": "bytes32",
              "name": "s",
              "type": "bytes32"
            }
          ],
          "name": "castVoteBySig",
          "outputs": [],
          "payable": false,
          "stateMutability": "nonpayable",
          "type": "function"
        },
        {
          "constant": false,
          "inputs": [
            {
              "internalType": "uint256",
              "name": "proposalId",
              "type": "uint256"
            }
          ],
          "name": "execute",
          "outputs": [],
          "payable": true,
          "stateMutability": "payable",
          "type": "function"
        },
        {
          "constant": true,
          "inputs": [],
          "name": "gFISC",
          "outputs": [
            {
              "internalType": "contract gFISCInterface",
              "name": "",
              "type": "address"
            }
          ],
          "payable": false,
          "stateMutability": "view",
          "type": "function"
        },
        {
          "constant": true,
          "inputs": [
            {
              "internalType": "uint256",
              "name": "proposalId",
              "type": "uint256"
            }
          ],
          "name": "getActions",
          "outputs": [
            {
              "internalType": "address[]",
              "name": "targets",
              "type": "address[]"
            },
            {
              "internalType": "uint256[]",
              "name": "values",
              "type": "uint256[]"
            },
            {
              "internalType": "string[]",
              "name": "signatures",
              "type": "string[]"
            },
            {
              "internalType": "bytes[]",
              "name": "calldatas",
              "type": "bytes[]"
            }
          ],
          "payable": false,
          "stateMutability": "view",
          "type": "function"
        },
        {
          "constant": true,
          "inputs": [
            {
              "internalType": "uint256",
              "name": "proposalId",
              "type": "uint256"
            },
            {
              "internalType": "address",
              "name": "voter",
              "type": "address"
            }
          ],
          "name": "getReceipt",
          "outputs": [
            {
              "components": [
                {
                  "internalType": "bool",
                  "name": "hasVoted",
                  "type": "bool"
                },
                {
                  "internalType": "bool",
                  "name": "support",
                  "type": "bool"
                },
                {
                  "internalType": "uint256",
                  "name": "votes",
                  "type": "uint256"
                }
              ],
              "internalType": "struct GovernorAlpha.Receipt",
              "name": "",
              "type": "tuple"
            }
          ],
          "payable": false,
          "stateMutability": "view",
          "type": "function"
        },
        {
          "constant": true,
          "inputs": [
            {
              "internalType": "uint256",
              "name": "percent",
              "type": "uint256"
            }
          ],
          "name": "getVotesFromPercentOfsFISCSupply",
          "outputs": [
            {
              "internalType": "uint256",
              "name": "votes",
              "type": "uint256"
            }
          ],
          "payable": false,
          "stateMutability": "view",
          "type": "function"
        },
        {
          "constant": true,
          "inputs": [],
          "name": "guardian",
          "outputs": [
            {
              "internalType": "address",
              "name": "",
              "type": "address"
            }
          ],
          "payable": false,
          "stateMutability": "view",
          "type": "function"
        },
        {
          "constant": true,
          "inputs": [
            {
              "internalType": "address",
              "name": "",
              "type": "address"
            }
          ],
          "name": "latestProposalIds",
          "outputs": [
            {
              "internalType": "uint256",
              "name": "",
              "type": "uint256"
            }
          ],
          "payable": false,
          "stateMutability": "view",
          "type": "function"
        },
        {
          "constant": true,
          "inputs": [],
          "name": "name",
          "outputs": [
            {
              "internalType": "string",
              "name": "",
              "type": "string"
            }
          ],
          "payable": false,
          "stateMutability": "view",
          "type": "function"
        },
        {
          "constant": true,
          "inputs": [],
          "name": "proposalCount",
          "outputs": [
            {
              "internalType": "uint256",
              "name": "",
              "type": "uint256"
            }
          ],
          "payable": false,
          "stateMutability": "view",
          "type": "function"
        },
        {
          "constant": true,
          "inputs": [],
          "name": "proposalMaxOperations",
          "outputs": [
            {
              "internalType": "uint256",
              "name": "",
              "type": "uint256"
            }
          ],
          "payable": false,
          "stateMutability": "pure",
          "type": "function"
        },
        {
          "constant": true,
          "inputs": [],
          "name": "proposalThresholdPercent",
          "outputs": [
            {
              "internalType": "uint256",
              "name": "",
              "type": "uint256"
            }
          ],
          "payable": false,
          "stateMutability": "pure",
          "type": "function"
        },
        {
          "constant": true,
          "inputs": [
            {
              "internalType": "uint256",
              "name": "",
              "type": "uint256"
            }
          ],
          "name": "proposals",
          "outputs": [
            {
              "internalType": "uint256",
              "name": "id",
              "type": "uint256"
            },
            {
              "internalType": "address",
              "name": "proposer",
              "type": "address"
            },
            {
              "internalType": "uint256",
              "name": "eta",
              "type": "uint256"
            },
            {
              "internalType": "uint256",
              "name": "startBlock",
              "type": "uint256"
            },
            {
              "internalType": "uint256",
              "name": "endBlock",
              "type": "uint256"
            },
            {
              "internalType": "uint256",
              "name": "forVotes",
              "type": "uint256"
            },
            {
              "internalType": "uint256",
              "name": "againstVotes",
              "type": "uint256"
            },
            {
              "internalType": "uint256",
              "name": "thresholdAtStart",
              "type": "uint256"
            },
            {
              "internalType": "uint256",
              "name": "votesNeeded",
              "type": "uint256"
            },
            {
              "internalType": "bool",
              "name": "canceled",
              "type": "bool"
            },
            {
              "internalType": "bool",
              "name": "executed",
              "type": "bool"
            }
          ],
          "payable": false,
          "stateMutability": "view",
          "type": "function"
        },
        {
          "constant": false,
          "inputs": [
            {
              "internalType": "address[]",
              "name": "targets",
              "type": "address[]"
            },
            {
              "internalType": "uint256[]",
              "name": "values",
              "type": "uint256[]"
            },
            {
              "internalType": "string[]",
              "name": "signatures",
              "type": "string[]"
            },
            {
              "internalType": "bytes[]",
              "name": "calldatas",
              "type": "bytes[]"
            },
            {
              "internalType": "string",
              "name": "description",
              "type": "string"
            }
          ],
          "name": "propose",
          "outputs": [
            {
              "internalType": "uint256",
              "name": "",
              "type": "uint256"
            }
          ],
          "payable": false,
          "stateMutability": "nonpayable",
          "type": "function"
        },
        {
          "constant": false,
          "inputs": [
            {
              "internalType": "uint256",
              "name": "proposalId",
              "type": "uint256"
            }
          ],
          "name": "queue",
          "outputs": [],
          "payable": false,
          "stateMutability": "nonpayable",
          "type": "function"
        },
        {
          "constant": true,
          "inputs": [],
          "name": "quorumPercent",
          "outputs": [
            {
              "internalType": "uint256",
              "name": "",
              "type": "uint256"
            }
          ],
          "payable": false,
          "stateMutability": "pure",
          "type": "function"
        },
        {
          "constant": true,
          "inputs": [],
          "name": "sFISC",
          "outputs": [
            {
              "internalType": "contract sFISCInterface",
              "name": "",
              "type": "address"
            }
          ],
          "payable": false,
          "stateMutability": "view",
          "type": "function"
        },
        {
          "constant": true,
          "inputs": [
            {
              "internalType": "uint256",
              "name": "proposalId",
              "type": "uint256"
            }
          ],
          "name": "state",
          "outputs": [
            {
              "internalType": "enum GovernorAlpha.ProposalState",
              "name": "",
              "type": "uint8"
            }
          ],
          "payable": false,
          "stateMutability": "view",
          "type": "function"
        },
        {
          "constant": true,
          "inputs": [],
          "name": "timelock",
          "outputs": [
            {
              "internalType": "contract TimelockInterface",
              "name": "",
              "type": "address"
            }
          ],
          "payable": false,
          "stateMutability": "view",
          "type": "function"
        },
        {
          "constant": true,
          "inputs": [],
          "name": "votingDelay",
          "outputs": [
            {
              "internalType": "uint256",
              "name": "",
              "type": "uint256"
            }
          ],
          "payable": false,
          "stateMutability": "pure",
          "type": "function"
        },
        {
          "constant": true,
          "inputs": [],
          "name": "votingPeriod",
          "outputs": [
            {
              "internalType": "uint256",
              "name": "",
              "type": "uint256"
            }
          ],
          "payable": false,
          "stateMutability": "pure",
          "type": "function"
        }
      ],
      "devdoc": {
        "methods": {}
      },
      "evm": {
        "bytecode": {
          "linkReferences": {},
          "object": "60806040523480156200001157600080fd5b50604051620057e3380380620057e383398181016040526200003791908101906200015b565b836000806101000a81548173ffffffffffffffffffffffffffffffffffffffff021916908373ffffffffffffffffffffffffffffffffffffffff16021790555082600260006101000a81548173ffffffffffffffffffffffffffffffffffffffff021916908373ffffffffffffffffffffffffffffffffffffffff16021790555081600160006101000a81548173ffffffffffffffffffffffffffffffffffffffff021916908373ffffffffffffffffffffffffffffffffffffffff16021790555080600360006101000a81548173ffffffffffffffffffffffffffffffffffffffff021916908373ffffffffffffffffffffffffffffffffffffffff1602179055505050505062000215565b6000815190506200015581620001fb565b92915050565b600080600080608085870312156200017257600080fd5b6000620001828782880162000144565b9450506020620001958782880162000144565b9350506040620001a88782880162000144565b9250506060620001bb8782880162000144565b91505092959194509250565b6000620001d482620001db565b9050919050565b600073ffffffffffffffffffffffffffffffffffffffff82169050919050565b6200020681620001c7565b81146200021257600080fd5b50565b6155be80620002256000396000f3fe6080604052600436106101c25760003560e01c8063760fbc13116100f7578063da35c66411610095578063e23a9a5211610064578063e23a9a521461062d578063f7d842931461066a578063f81cbd26146106a7578063fe0d94c1146106d2576101c2565b8063da35c66414610571578063da95691a1461059c578063ddf0b009146105d9578063deaaa7cc14610602576101c2565b8063a0ad9f93116100d1578063a0ad9f93146104d9578063b9a6196114610504578063d33219b41461051b578063d9bfd80514610546576101c2565b8063760fbc131461046e5780637bdbe4d01461048557806391500671146104b0576101c2565b8063328dd9821161016457806340e58ee51161013e57806340e58ee5146103c6578063452a9320146103ef5780634634c61f1461041a5780636ddd86d914610443576101c2565b8063328dd9821461031e5780633932abb11461035e5780633e4f49e614610389576101c2565b806315373e3d116101a057806315373e3d1461026457806317977c611461028d57806320606b70146102ca57806321f43e42146102f5576101c2565b8063013cf08b146101c757806302a251a31461020e57806306fdde0314610239575b600080fd5b3480156101d357600080fd5b506101ee60048036036101e991908101906135ee565b6106ee565b6040516102059b9a99989796959493929190614f8c565b60405180910390f35b34801561021a57600080fd5b50610223610782565b6040516102309190614ec1565b60405180910390f35b34801561024557600080fd5b5061024e61078c565b60405161025b9190614ba4565b60405180910390f35b34801561027057600080fd5b5061028b6004803603610286919081019061367c565b6107c5565b005b34801561029957600080fd5b506102b460048036036102af9190810190613407565b6107d4565b6040516102c19190614ec1565b60405180910390f35b3480156102d657600080fd5b506102df6107ec565b6040516102ec9190614a5c565b60405180910390f35b34801561030157600080fd5b5061031c60048036036103179190810190613430565b610803565b005b34801561032a57600080fd5b50610345600480360361034091908101906135ee565b610990565b60405161035594939291906149fb565b60405180910390f35b34801561036a57600080fd5b50610373610c6d565b6040516103809190614ec1565b60405180910390f35b34801561039557600080fd5b506103b060048036036103ab91908101906135ee565b610c76565b6040516103bd9190614b89565b60405180910390f35b3480156103d257600080fd5b506103ed60048036036103e891908101906135ee565b610e57565b005b3480156103fb57600080fd5b506104046111e2565b6040516104119190614828565b60405180910390f35b34801561042657600080fd5b50610441600480360361043c91908101906136b8565b611208565b005b34801561044f57600080fd5b506104586113d7565b6040516104659190614b6e565b60405180910390f35b34801561047a57600080fd5b506104836113fd565b005b34801561049157600080fd5b5061049a6114d1565b6040516104a79190614ec1565b60405180910390f35b3480156104bc57600080fd5b506104d760048036036104d29190810190613430565b6114da565b005b3480156104e557600080fd5b506104ee611662565b6040516104fb9190614ec1565b60405180910390f35b34801561051057600080fd5b5061051961166c565b005b34801561052757600080fd5b5061053061177f565b60405161053d9190614b38565b60405180910390f35b34801561055257600080fd5b5061055b6117a4565b6040516105689190614b53565b60405180910390f35b34801561057d57600080fd5b506105866117ca565b6040516105939190614ec1565b60405180910390f35b3480156105a857600080fd5b506105c360048036036105be919081019061346c565b6117d0565b6040516105d09190614ec1565b60405180910390f35b3480156105e557600080fd5b5061060060048036036105fb91908101906135ee565b611dd7565b005b34801561060e57600080fd5b50610617612126565b6040516106249190614a5c565b60405180910390f35b34801561063957600080fd5b50610654600480360361064f9190810190613640565b61213d565b6040516106619190614ea6565b60405180910390f35b34801561067657600080fd5b50610691600480360361068c91908101906135ee565b6121eb565b60405161069e9190614ec1565b60405180910390f35b3480156106b357600080fd5b506106bc612353565b6040516106c99190614ec1565b60405180910390f35b6106ec60048036036106e791908101906135ee565b61235d565b005b60056020528060005260406000206000915090508060000154908060010160009054906101000a900473ffffffffffffffffffffffffffffffffffffffff169080600201549080600701549080600801549080600901549080600a01549080600b01549080600c01549080600d0160009054906101000a900460ff169080600d0160019054906101000a900460ff1690508b565b6000614380905090565b6040518060400160405280601781526020017f46697363757320476f7665726e6f72204649534365676100000000000000000081525081565b6107d03383836125aa565b5050565b60066020528060005260406000206000915090505481565b6040516107f8906147fe565b604051809103902081565b600360009054906101000a900473ffffffffffffffffffffffffffffffffffffffff1673ffffffffffffffffffffffffffffffffffffffff163373ffffffffffffffffffffffffffffffffffffffff1614610893576040517f08c379a000000000000000000000000000000000000000000000000000000000815260040161088a90614c26565b60405180910390fd5b6000809054906101000a900473ffffffffffffffffffffffffffffffffffffffff1673ffffffffffffffffffffffffffffffffffffffff16630825f38f6000809054906101000a900473ffffffffffffffffffffffffffffffffffffffff166000856040516020016109059190614828565b604051602081830303815290604052856040518563ffffffff1660e01b8152600401610934949392919061486c565b600060405180830381600087803b15801561094e57600080fd5b505af1158015610962573d6000803e3d6000fd5b505050506040513d6000823e3d601f19601f8201168201806040525061098b91908101906135ad565b505050565b60608060608060006005600087815260200190815260200160002090508060030181600401826005018360060183805480602002602001604051908101604052809291908181526020018280548015610a3e57602002820191906000526020600020905b8160009054906101000a900473ffffffffffffffffffffffffffffffffffffffff1673ffffffffffffffffffffffffffffffffffffffff16815260200190600101908083116109f4575b5050505050935082805480602002602001604051908101604052809291908181526020018280548015610a9057602002820191906000526020600020905b815481526020019060010190808311610a7c575b5050505050925081805480602002602001604051908101604052809291908181526020016000905b82821015610b74578382906000526020600020018054600181600116156101000203166002900480601f016020809104026020016040519081016040528092919081815260200182805460018160011615610100020316600290048015610b605780601f10610b3557610100808354040283529160200191610b60565b820191906000526020600020905b815481529060010190602001808311610b4357829003601f168201915b505050505081526020019060010190610ab8565b50505050915080805480602002602001604051908101604052809291908181526020016000905b82821015610c57578382906000526020600020018054600181600116156101000203166002900480601f016020809104026020016040519081016040528092919081815260200182805460018160011615610100020316600290048015610c435780601f10610c1857610100808354040283529160200191610c43565b820191906000526020600020905b815481529060010190602001808311610c2657829003601f168201915b505050505081526020019060010190610b9b565b5050505090509450945094509450509193509193565b60006001905090565b60008160045410158015610c8a5750600082115b610cc9576040517f08c379a0000000000000000000000000000000000000000000000000000000008152600401610cc090614c66565b60405180910390fd5b600060056000848152602001908152602001600020905080600d0160009054906101000a900460ff1615610d01576002915050610e52565b80600701544311610d16576000915050610e52565b80600801544311610d2b576001915050610e52565b80600a01548160090154111580610d49575080600c01548160090154105b15610d58576003915050610e52565b600081600201541415610d6f576004915050610e52565b80600d0160019054906101000a900460ff1615610d90576007915050610e52565b610e3c81600201546000809054906101000a900473ffffffffffffffffffffffffffffffffffffffff1673ffffffffffffffffffffffffffffffffffffffff1663c1a287e26040518163ffffffff1660e01b815260040160206040518083038186803b158015610dff57600080fd5b505afa158015610e13573d6000803e3d6000fd5b505050506040513d601f19601f82011682018060405250610e379190810190613617565b612833565b4210610e4c576006915050610e52565b60059150505b919050565b6000610e6282610c76565b9050600780811115610e7057fe5b816007811115610e7c57fe5b1415610ebd576040517f08c379a0000000000000000000000000000000000000000000000000000000008152600401610eb490614e26565b60405180910390fd5b6000600560008481526020019081526020016000209050600360009054906101000a900473ffffffffffffffffffffffffffffffffffffffff1673ffffffffffffffffffffffffffffffffffffffff163373ffffffffffffffffffffffffffffffffffffffff16148061100d575080600b0154600160009054906101000a900473ffffffffffffffffffffffffffffffffffffffff1673ffffffffffffffffffffffffffffffffffffffff1663782d6fe18360010160009054906101000a900473ffffffffffffffffffffffffffffffffffffffff16610f9e436001612888565b6040518363ffffffff1660e01b8152600401610fbb9291906148cb565b60206040518083038186803b158015610fd357600080fd5b505afa158015610fe7573d6000803e3d6000fd5b505050506040513d601f19601f8201168201806040525061100b9190810190613617565b105b61104c576040517f08c379a000000000000000000000000000000000000000000000000000000000815260040161104390614d46565b60405180910390fd5b600181600d0160006101000a81548160ff02191690831515021790555060008090505b81600301805490508110156111a5576000809054906101000a900473ffffffffffffffffffffffffffffffffffffffff1673ffffffffffffffffffffffffffffffffffffffff1663591fcdfe8360030183815481106110ca57fe5b9060005260206000200160009054906101000a900473ffffffffffffffffffffffffffffffffffffffff1684600401848154811061110457fe5b906000526020600020015485600501858154811061111e57fe5b9060005260206000200186600601868154811061113757fe5b9060005260206000200187600201546040518663ffffffff1660e01b815260040161116695949392919061499a565b600060405180830381600087803b15801561118057600080fd5b505af1158015611194573d6000803e3d6000fd5b50505050808060010191505061106f565b507f789cf55be980739dad1d0699b93b58e806b51c9d96619bfa8fe0a28abaa7b30c836040516111d59190614ec1565b60405180910390a1505050565b600360009054906101000a900473ffffffffffffffffffffffffffffffffffffffff1681565b6000604051611216906147fe565b60405180910390206040518060400160405280601781526020017f46697363757320476f7665726e6f722046495343656761000000000000000000815250805190602001206112636128d8565b306040516020016112779493929190614a77565b604051602081830303815290604052805190602001209050600060405161129d90614813565b604051809103902087876040516020016112b993929190614abc565b604051602081830303815290604052805190602001209050600082826040516020016112e69291906147c7565b6040516020818303038152906040528051906020012090506000600182888888604051600081526020016040526040516113239493929190614af3565b6020604051602081039080840390855afa158015611345573d6000803e3d6000fd5b505050602060405103519050600073ffffffffffffffffffffffffffffffffffffffff168173ffffffffffffffffffffffffffffffffffffffff1614156113c1576040517f08c379a00000000000000000000000000000000000000000000000000000000081526004016113b890614dc6565b60405180910390fd5b6113cc818a8a6125aa565b505050505050505050565b600260009054906101000a900473ffffffffffffffffffffffffffffffffffffffff1681565b600360009054906101000a900473ffffffffffffffffffffffffffffffffffffffff1673ffffffffffffffffffffffffffffffffffffffff163373ffffffffffffffffffffffffffffffffffffffff161461148d576040517f08c379a000000000000000000000000000000000000000000000000000000000815260040161148490614e86565b60405180910390fd5b6000600360006101000a81548173ffffffffffffffffffffffffffffffffffffffff021916908373ffffffffffffffffffffffffffffffffffffffff160217905550565b6000600a905090565b600360009054906101000a900473ffffffffffffffffffffffffffffffffffffffff1673ffffffffffffffffffffffffffffffffffffffff163373ffffffffffffffffffffffffffffffffffffffff161461156a576040517f08c379a000000000000000000000000000000000000000000000000000000000815260040161156190614cc6565b60405180910390fd5b6000809054906101000a900473ffffffffffffffffffffffffffffffffffffffff1673ffffffffffffffffffffffffffffffffffffffff16633a66f9016000809054906101000a900473ffffffffffffffffffffffffffffffffffffffff166000856040516020016115dc9190614828565b604051602081830303815290604052856040518563ffffffff1660e01b815260040161160b949392919061486c565b602060405180830381600087803b15801561162557600080fd5b505af1158015611639573d6000803e3d6000fd5b505050506040513d601f19601f8201168201806040525061165d9190810190613584565b505050565b6000612710905090565b600360009054906101000a900473ffffffffffffffffffffffffffffffffffffffff1673ffffffffffffffffffffffffffffffffffffffff163373ffffffffffffffffffffffffffffffffffffffff16146116fc576040517f08c379a00000000000000000000000000000000000000000000000000000000081526004016116f390614bc6565b60405180910390fd5b6000809054906101000a900473ffffffffffffffffffffffffffffffffffffffff1673ffffffffffffffffffffffffffffffffffffffff16630e18b6816040518163ffffffff1660e01b8152600401600060405180830381600087803b15801561176557600080fd5b505af1158015611779573d6000803e3d6000fd5b50505050565b6000809054906101000a900473ffffffffffffffffffffffffffffffffffffffff1681565b600160009054906101000a900473ffffffffffffffffffffffffffffffffffffffff1681565b60045481565b60006117e26117dd611662565b6121eb565b600160009054906101000a900473ffffffffffffffffffffffffffffffffffffffff1673ffffffffffffffffffffffffffffffffffffffff1663782d6fe13361182c436001612888565b6040518363ffffffff1660e01b8152600401611849929190614843565b60206040518083038186803b15801561186157600080fd5b505afa158015611875573d6000803e3d6000fd5b505050506040513d601f19601f820116820180604052506118999190810190613617565b116118d9576040517f08c379a00000000000000000000000000000000000000000000000000000000081526004016118d090614da6565b60405180910390fd5b845186511480156118eb575083518651145b80156118f8575082518651145b611937576040517f08c379a000000000000000000000000000000000000000000000000000000000815260040161192e90614d26565b60405180910390fd5b60008651141561197c576040517f08c379a000000000000000000000000000000000000000000000000000000000815260040161197390614d86565b60405180910390fd5b6119846114d1565b865111156119c7576040517f08c379a00000000000000000000000000000000000000000000000000000000081526004016119be90614ce6565b60405180910390fd5b6000600660003373ffffffffffffffffffffffffffffffffffffffff1673ffffffffffffffffffffffffffffffffffffffff16815260200190815260200160002054905060008114611ad6576000611a1e82610c76565b905060016007811115611a2d57fe5b816007811115611a3957fe5b1415611a7a576040517f08c379a0000000000000000000000000000000000000000000000000000000008152600401611a7190614e06565b60405180910390fd5b60006007811115611a8757fe5b816007811115611a9357fe5b1415611ad4576040517f08c379a0000000000000000000000000000000000000000000000000000000008152600401611acb90614ca6565b60405180910390fd5b505b6000611ae943611ae4610c6d565b612833565b90506000611afe82611af9610782565b612833565b9050600460008154809291906001019190505550611b1a612b85565b604051806101e0016040528060045481526020013373ffffffffffffffffffffffffffffffffffffffff168152602001600081526020018b81526020018a81526020018981526020018881526020018481526020018381526020016000815260200160008152602001611b93611b8e611662565b6121eb565b8152602001611ba8611ba3612353565b6121eb565b81526020016000151581526020016000151581525090508060056000836000015181526020019081526020016000206000820151816000015560208201518160010160006101000a81548173ffffffffffffffffffffffffffffffffffffffff021916908373ffffffffffffffffffffffffffffffffffffffff160217905550604082015181600201556060820151816003019080519060200190611c4e929190612c15565b506080820151816004019080519060200190611c6b929190612c9f565b5060a0820151816005019080519060200190611c88929190612cec565b5060c0820151816006019080519060200190611ca5929190612d4c565b5060e082015181600701556101008201518160080155610120820151816009015561014082015181600a015561016082015181600b015561018082015181600c01556101a082015181600d0160006101000a81548160ff0219169083151502179055506101c082015181600d0160016101000a81548160ff021916908315150217905550905050806000015160066000836020015173ffffffffffffffffffffffffffffffffffffffff1673ffffffffffffffffffffffffffffffffffffffff168152602001908152602001600020819055507f7d84a6263ae0d98d3329bd7b46bb4e8d6f98cd35a7adb45c274c8b7fd5ebd5e08160000151338c8c8c8c89898e604051611dbb99989796959493929190614edc565b60405180910390a1806000015194505050505095945050505050565b60046007811115611de457fe5b611ded82610c76565b6007811115611df857fe5b14611e38576040517f08c379a0000000000000000000000000000000000000000000000000000000008152600401611e2f90614be6565b60405180910390fd5b60006005600083815260200190815260200160002090506000611ef9426000809054906101000a900473ffffffffffffffffffffffffffffffffffffffff1673ffffffffffffffffffffffffffffffffffffffff16636a42b8f86040518163ffffffff1660e01b815260040160206040518083038186803b158015611ebc57600080fd5b505afa158015611ed0573d6000803e3d6000fd5b505050506040513d601f19601f82011682018060405250611ef49190810190613617565b612833565b905060008090505b82600301805490508110156120de576120d1836003018281548110611f2257fe5b9060005260206000200160009054906101000a900473ffffffffffffffffffffffffffffffffffffffff16846004018381548110611f5c57fe5b9060005260206000200154856005018481548110611f7657fe5b906000526020600020018054600181600116156101000203166002900480601f0160208091040260200160405190810160405280929190818152602001828054600181600116156101000203166002900480156120145780601f10611fe957610100808354040283529160200191612014565b820191906000526020600020905b815481529060010190602001808311611ff757829003601f168201915b505050505086600601858154811061202857fe5b906000526020600020018054600181600116156101000203166002900480601f0160208091040260200160405190810160405280929190818152602001828054600181600116156101000203166002900480156120c65780601f1061209b576101008083540402835291602001916120c6565b820191906000526020600020905b8154815290600101906020018083116120a957829003601f168201915b5050505050866128e5565b8080600101915050611f01565b508082600201819055507f9a2e42fd6722813d69113e7d0079d3d940171428df7373df9c7f7617cfda28928382604051612119929190615037565b60405180910390a1505050565b60405161213290614813565b604051809103902081565b612145612dac565b60056000848152602001908152602001600020600e0160008373ffffffffffffffffffffffffffffffffffffffff1673ffffffffffffffffffffffffffffffffffffffff1681526020019081526020016000206040518060600160405290816000820160009054906101000a900460ff161515151581526020016000820160019054906101000a900460ff16151515158152602001600182015481525050905092915050565b6000600160009054906101000a900473ffffffffffffffffffffffffffffffffffffffff1673ffffffffffffffffffffffffffffffffffffffff166366a5236c6122e06122d7600260009054906101000a900473ffffffffffffffffffffffffffffffffffffffff1673ffffffffffffffffffffffffffffffffffffffff16639358928b6040518163ffffffff1660e01b815260040160206040518083038186803b15801561229957600080fd5b505afa1580156122ad573d6000803e3d6000fd5b505050506040513d601f19601f820116820180604052506122d19190810190613617565b86612ab9565b620f4240612b29565b6040518263ffffffff1660e01b81526004016122fc9190614ec1565b60206040518083038186803b15801561231457600080fd5b505afa158015612328573d6000803e3d6000fd5b505050506040513d601f19601f8201168201806040525061234c9190810190613617565b9050919050565b6000619c40905090565b6005600781111561236a57fe5b61237382610c76565b600781111561237e57fe5b146123be576040517f08c379a00000000000000000000000000000000000000000000000000000000081526004016123b590614c06565b60405180910390fd5b6000600560008381526020019081526020016000209050600181600d0160016101000a81548160ff02191690831515021790555060008090505b816003018054905081101561256e576000809054906101000a900473ffffffffffffffffffffffffffffffffffffffff1673ffffffffffffffffffffffffffffffffffffffff16630825f38f83600401838154811061245357fe5b906000526020600020015484600301848154811061246d57fe5b9060005260206000200160009054906101000a900473ffffffffffffffffffffffffffffffffffffffff168560040185815481106124a757fe5b90600052602060002001548660050186815481106124c157fe5b906000526020600020018760060187815481106124da57fe5b9060005260206000200188600201546040518763ffffffff1660e01b815260040161250995949392919061499a565b6000604051808303818588803b15801561252257600080fd5b505af1158015612536573d6000803e3d6000fd5b50505050506040513d6000823e3d601f19601f8201168201806040525061256091908101906135ad565b5080806001019150506123f8565b507f712ae1383f79ac853f8d882153778e0260ef8f03b504e2866e0593e04d2b291f8260405161259e9190614ec1565b60405180910390a15050565b600160078111156125b757fe5b6125c083610c76565b60078111156125cb57fe5b1461260b576040517f08c379a000000000000000000000000000000000000000000000000000000000815260040161260290614e46565b60405180910390fd5b6000600560008481526020019081526020016000209050600081600e0160008673ffffffffffffffffffffffffffffffffffffffff1673ffffffffffffffffffffffffffffffffffffffff1681526020019081526020016000209050600015158160000160009054906101000a900460ff161515146126bf576040517f08c379a00000000000000000000000000000000000000000000000000000000081526004016126b690614c86565b60405180910390fd5b6000600160009054906101000a900473ffffffffffffffffffffffffffffffffffffffff1673ffffffffffffffffffffffffffffffffffffffff1663782d6fe18785600701546040518363ffffffff1660e01b81526004016127229291906148cb565b60206040518083038186803b15801561273a57600080fd5b505afa15801561274e573d6000803e3d6000fd5b505050506040513d601f19601f820116820180604052506127729190810190613617565b9050831561279557612788836009015482612833565b83600901819055506127ac565b6127a383600a015482612833565b83600a01819055505b60018260000160006101000a81548160ff021916908315150217905550838260000160016101000a81548160ff0219169083151502179055508082600101819055507f877856338e13f63d0c36822ff0ef736b80934cd90574a3a5bc9262c39d217c468686868460405161282394939291906148f4565b60405180910390a1505050505050565b60008082840190508381101561287e576040517f08c379a000000000000000000000000000000000000000000000000000000000815260040161287590614d06565b60405180910390fd5b8091505092915050565b6000828211156128cd576040517f08c379a00000000000000000000000000000000000000000000000000000000081526004016128c490614e66565b60405180910390fd5b818303905092915050565b6000804690508091505090565b6000809054906101000a900473ffffffffffffffffffffffffffffffffffffffff1673ffffffffffffffffffffffffffffffffffffffff1663f2b06537868686868660405160200161293b959493929190614939565b604051602081830303815290604052805190602001206040518263ffffffff1660e01b815260040161296d9190614a5c565b60206040518083038186803b15801561298557600080fd5b505afa158015612999573d6000803e3d6000fd5b505050506040513d601f19601f820116820180604052506129bd919081019061355b565b156129fd576040517f08c379a00000000000000000000000000000000000000000000000000000000081526004016129f490614d66565b60405180910390fd5b6000809054906101000a900473ffffffffffffffffffffffffffffffffffffffff1673ffffffffffffffffffffffffffffffffffffffff16633a66f90186868686866040518663ffffffff1660e01b8152600401612a5f959493929190614939565b602060405180830381600087803b158015612a7957600080fd5b505af1158015612a8d573d6000803e3d6000fd5b505050506040513d601f19601f82011682018060405250612ab19190810190613584565b505050505050565b600080831415612acc5760009050612b23565b6000828402905082848281612add57fe5b0414612b1e576040517f08c379a0000000000000000000000000000000000000000000000000000000008152600401612b1590614c46565b60405180910390fd5b809150505b92915050565b6000808211612b6d576040517f08c379a0000000000000000000000000000000000000000000000000000000008152600401612b6490614de6565b60405180910390fd5b6000828481612b7857fe5b0490508091505092915050565b604051806101e0016040528060008152602001600073ffffffffffffffffffffffffffffffffffffffff16815260200160008152602001606081526020016060815260200160608152602001606081526020016000815260200160008152602001600081526020016000815260200160008152602001600081526020016000151581526020016000151581525090565b828054828255906000526020600020908101928215612c8e579160200282015b82811115612c8d5782518260006101000a81548173ffffffffffffffffffffffffffffffffffffffff021916908373ffffffffffffffffffffffffffffffffffffffff16021790555091602001919060010190612c35565b5b509050612c9b9190612dd1565b5090565b828054828255906000526020600020908101928215612cdb579160200282015b82811115612cda578251825591602001919060010190612cbf565b5b509050612ce89190612e14565b5090565b828054828255906000526020600020908101928215612d3b579160200282015b82811115612d3a578251829080519060200190612d2a929190612e39565b5091602001919060010190612d0c565b5b509050612d489190612eb9565b5090565b828054828255906000526020600020908101928215612d9b579160200282015b82811115612d9a578251829080519060200190612d8a929190612ee5565b5091602001919060010190612d6c565b5b509050612da89190612f65565b5090565b6040518060600160405280600015158152602001600015158152602001600081525090565b612e1191905b80821115612e0d57600081816101000a81549073ffffffffffffffffffffffffffffffffffffffff021916905550600101612dd7565b5090565b90565b612e3691905b80821115612e32576000816000905550600101612e1a565b5090565b90565b828054600181600116156101000203166002900490600052602060002090601f016020900481019282601f10612e7a57805160ff1916838001178555612ea8565b82800160010185558215612ea8579182015b82811115612ea7578251825591602001919060010190612e8c565b5b509050612eb59190612e14565b5090565b612ee291905b80821115612ede5760008181612ed59190612f91565b50600101612ebf565b5090565b90565b828054600181600116156101000203166002900490600052602060002090601f016020900481019282601f10612f2657805160ff1916838001178555612f54565b82800160010185558215612f54579182015b82811115612f53578251825591602001919060010190612f38565b5b509050612f619190612e14565b5090565b612f8e91905b80821115612f8a5760008181612f819190612fd9565b50600101612f6b565b5090565b90565b50805460018160011615610100020316600290046000825580601f10612fb75750612fd6565b601f016020900490600052602060002090810190612fd59190612e14565b5b50565b50805460018160011615610100020316600290046000825580601f10612fff575061301e565b601f01602090049060005260206000209081019061301d9190612e14565b5b50565b60008135905061303081615508565b92915050565b600082601f83011261304757600080fd5b813561305a6130558261508d565b615060565b9150818183526020840193506020810190508385602084028201111561307f57600080fd5b60005b838110156130af57816130958882613021565b845260208401935060208301925050600181019050613082565b5050505092915050565b600082601f8301126130ca57600080fd5b81356130dd6130d8826150b5565b615060565b9150818183526020840193506020810190508360005b8381101561312357813586016131098882613278565b8452602084019350602083019250506001810190506130f3565b5050505092915050565b600082601f83011261313e57600080fd5b813561315161314c826150dd565b615060565b9150818183526020840193506020810190508360005b83811015613197578135860161317d8882613320565b845260208401935060208301925050600181019050613167565b5050505092915050565b600082601f8301126131b257600080fd5b81356131c56131c082615105565b615060565b915081818352602084019350602081019050838560208402820111156131ea57600080fd5b60005b8381101561321a578161320088826133c8565b8452602084019350602083019250506001810190506131ed565b5050505092915050565b6000813590506132338161551f565b92915050565b6000815190506132488161551f565b92915050565b60008135905061325d81615536565b92915050565b60008151905061327281615536565b92915050565b600082601f83011261328957600080fd5b813561329c6132978261512d565b615060565b915080825260208301602083018583830111156132b857600080fd5b6132c383828461549e565b50505092915050565b600082601f8301126132dd57600080fd5b81516132f06132eb82615159565b615060565b9150808252602083016020830185838301111561330c57600080fd5b6133178382846154ad565b50505092915050565b600082601f83011261333157600080fd5b813561334461333f82615185565b615060565b9150808252602083016020830185838301111561336057600080fd5b61336b83828461549e565b50505092915050565b600082601f83011261338557600080fd5b8135613398613393826151b1565b615060565b915080825260208301602083018583830111156133b457600080fd5b6133bf83828461549e565b50505092915050565b6000813590506133d78161554d565b92915050565b6000815190506133ec8161554d565b92915050565b60008135905061340181615564565b92915050565b60006020828403121561341957600080fd5b600061342784828501613021565b91505092915050565b6000806040838503121561344357600080fd5b600061345185828601613021565b9250506020613462858286016133c8565b9150509250929050565b600080600080600060a0868803121561348457600080fd5b600086013567ffffffffffffffff81111561349e57600080fd5b6134aa88828901613036565b955050602086013567ffffffffffffffff8111156134c757600080fd5b6134d3888289016131a1565b945050604086013567ffffffffffffffff8111156134f057600080fd5b6134fc8882890161312d565b935050606086013567ffffffffffffffff81111561351957600080fd5b613525888289016130b9565b925050608086013567ffffffffffffffff81111561354257600080fd5b61354e88828901613374565b9150509295509295909350565b60006020828403121561356d57600080fd5b600061357b84828501613239565b91505092915050565b60006020828403121561359657600080fd5b60006135a484828501613263565b91505092915050565b6000602082840312156135bf57600080fd5b600082015167ffffffffffffffff8111156135d957600080fd5b6135e5848285016132cc565b91505092915050565b60006020828403121561360057600080fd5b600061360e848285016133c8565b91505092915050565b60006020828403121561362957600080fd5b6000613637848285016133dd565b91505092915050565b6000806040838503121561365357600080fd5b6000613661858286016133c8565b925050602061367285828601613021565b9150509250929050565b6000806040838503121561368f57600080fd5b600061369d858286016133c8565b92505060206136ae85828601613224565b9150509250929050565b600080600080600060a086880312156136d057600080fd5b60006136de888289016133c8565b95505060206136ef88828901613224565b9450506040613700888289016133f2565b93505060606137118882890161324e565b92505060806137228882890161324e565b9150509295509295909350565b600061373b8383613796565b60208301905092915050565b600061375383836139d7565b905092915050565b60006137678383613b23565b905092915050565b600061377b838361479a565b60208301905092915050565b613790816153d8565b82525050565b61379f81615366565b82525050565b6137ae81615366565b82525050565b60006137bf82615247565b6137c981856152d3565b93506137d4836151dd565b8060005b838110156138055781516137ec888261372f565b97506137f78361529f565b9250506001810190506137d8565b5085935050505092915050565b600061381d82615252565b61382781856152e4565b935083602082028501613839856151ed565b8060005b8581101561387557848403895281516138568582613747565b9450613861836152ac565b925060208a0199505060018101905061383d565b50829750879550505050505092915050565b60006138928261525d565b61389c81856152f5565b9350836020820285016138ae856151fd565b8060005b858110156138ea57848403895281516138cb858261375b565b94506138d6836152b9565b925060208a019950506001810190506138b2565b50829750879550505050505092915050565b600061390782615268565b6139118185615306565b935061391c8361520d565b8060005b8381101561394d578151613934888261376f565b975061393f836152c6565b925050600181019050613920565b5085935050505092915050565b61396381615378565b82525050565b61397281615378565b82525050565b61398181615384565b82525050565b61399861399382615384565b6154e0565b82525050565b60006139a98261527e565b6139b38185615328565b93506139c38185602086016154ad565b6139cc816154ea565b840191505092915050565b60006139e282615273565b6139ec8185615317565b93506139fc8185602086016154ad565b613a05816154ea565b840191505092915050565b600081546001811660008114613a2d5760018114613a5357613a97565b607f6002830416613a3e8187615328565b955060ff198316865260208601935050613a97565b60028204613a618187615328565b9550613a6c8561521d565b60005b82811015613a8e57815481890152600182019150602081019050613a6f565b80880195505050505b505092915050565b613aa8816153ea565b82525050565b613ab78161540e565b82525050565b613ac681615432565b82525050565b613ad581615456565b82525050565b613ae481615468565b82525050565b6000613af582615294565b613aff818561534a565b9350613b0f8185602086016154ad565b613b18816154ea565b840191505092915050565b6000613b2e82615289565b613b388185615339565b9350613b488185602086016154ad565b613b51816154ea565b840191505092915050565b6000613b6782615289565b613b71818561534a565b9350613b818185602086016154ad565b613b8a816154ea565b840191505092915050565b600081546001811660008114613bb25760018114613bd857613c1c565b607f6002830416613bc3818761534a565b955060ff198316865260208601935050613c1c565b60028204613be6818761534a565b9550613bf185615232565b60005b82811015613c1357815481890152600182019150602081019050613bf4565b80880195505050505b505092915050565b6000613c3160398361534a565b91507f476f7665726e6f72416c7068613a3a5f5f61636365707441646d696e3a20736560008301527f6e646572206d75737420626520676f7620677561726469616e000000000000006020830152604082019050919050565b6000613c9760448361534a565b91507f476f7665726e6f72416c7068613a3a71756575653a2070726f706f73616c206360008301527f616e206f6e6c792062652071756575656420696620697420697320737563636560208301527f65646564000000000000000000000000000000000000000000000000000000006040830152606082019050919050565b6000613d2360458361534a565b91507f476f7665726e6f72416c7068613a3a657865637574653a2070726f706f73616c60008301527f2063616e206f6e6c79206265206578656375746564206966206974206973207160208301527f75657565640000000000000000000000000000000000000000000000000000006040830152606082019050919050565b6000613daf60028361535b565b91507f19010000000000000000000000000000000000000000000000000000000000006000830152600282019050919050565b6000613def604c8361534a565b91507f476f7665726e6f72416c7068613a3a5f5f6578656375746553657454696d656c60008301527f6f636b50656e64696e6741646d696e3a2073656e646572206d7573742062652060208301527f676f7620677561726469616e00000000000000000000000000000000000000006040830152606082019050919050565b6000613e7b60178361534a565b91507f6d756c7469706c69636174696f6e206f766572666c6f770000000000000000006000830152602082019050919050565b6000613ebb60188361534a565b91507f73657450656e64696e6741646d696e28616464726573732900000000000000006000830152602082019050919050565b6000613efb60298361534a565b91507f476f7665726e6f72416c7068613a3a73746174653a20696e76616c696420707260008301527f6f706f73616c20696400000000000000000000000000000000000000000000006020830152604082019050919050565b6000613f61602d8361534a565b91507f476f7665726e6f72416c7068613a3a5f63617374566f74653a20766f7465722060008301527f616c726561647920766f746564000000000000000000000000000000000000006020830152604082019050919050565b6000613fc760598361534a565b91507f476f7665726e6f72416c7068613a3a70726f706f73653a206f6e65206c69766560008301527f2070726f706f73616c207065722070726f706f7365722c20666f756e6420616e60208301527f20616c72656164792070656e64696e672070726f706f73616c000000000000006040830152606082019050919050565b6000614053604a8361534a565b91507f476f7665726e6f72416c7068613a3a5f5f717565756553657454696d656c6f6360008301527f6b50656e64696e6741646d696e3a2073656e646572206d75737420626520676f60208301527f7620677561726469616e000000000000000000000000000000000000000000006040830152606082019050919050565b60006140df60288361534a565b91507f476f7665726e6f72416c7068613a3a70726f706f73653a20746f6f206d616e7960008301527f20616374696f6e730000000000000000000000000000000000000000000000006020830152604082019050919050565b600061414560118361534a565b91507f6164646974696f6e206f766572666c6f770000000000000000000000000000006000830152602082019050919050565b600061418560438361535b565b91507f454950373132446f6d61696e28737472696e67206e616d652c75696e7432353660008301527f20636861696e49642c6164647265737320766572696679696e67436f6e74726160208301527f63742900000000000000000000000000000000000000000000000000000000006040830152604382019050919050565b600061421160278361535b565b91507f42616c6c6f742875696e743235362070726f706f73616c49642c626f6f6c207360008301527f7570706f727429000000000000000000000000000000000000000000000000006020830152602782019050919050565b600061427760448361534a565b91507f476f7665726e6f72416c7068613a3a70726f706f73653a2070726f706f73616c60008301527f2066756e6374696f6e20696e666f726d6174696f6e206172697479206d69736d60208301527f61746368000000000000000000000000000000000000000000000000000000006040830152606082019050919050565b6000614303602f8361534a565b91507f476f7665726e6f72416c7068613a3a63616e63656c3a2070726f706f7365722060008301527f61626f7665207468726573686f6c6400000000000000000000000000000000006020830152604082019050919050565b600061436960448361534a565b91507f476f7665726e6f72416c7068613a3a5f71756575654f725265766572743a207060008301527f726f706f73616c20616374696f6e20616c72656164792071756575656420617460208301527f20657461000000000000000000000000000000000000000000000000000000006040830152606082019050919050565b60006143f5602c8361534a565b91507f476f7665726e6f72416c7068613a3a70726f706f73653a206d7573742070726f60008301527f7669646520616374696f6e7300000000000000000000000000000000000000006020830152604082019050919050565b600061445b603f8361534a565b91507f476f7665726e6f72416c7068613a3a70726f706f73653a2070726f706f73657260008301527f20766f7465732062656c6f772070726f706f73616c207468726573686f6c64006020830152604082019050919050565b60006144c1602f8361534a565b91507f476f7665726e6f72416c7068613a3a63617374566f746542795369673a20696e60008301527f76616c6964207369676e617475726500000000000000000000000000000000006020830152604082019050919050565b600061452760108361534a565b91507f6469766973696f6e206279207a65726f000000000000000000000000000000006000830152602082019050919050565b600061456760588361534a565b91507f476f7665726e6f72416c7068613a3a70726f706f73653a206f6e65206c69766560008301527f2070726f706f73616c207065722070726f706f7365722c20666f756e6420616e60208301527f20616c7265616479206163746976652070726f706f73616c00000000000000006040830152606082019050919050565b60006145f360368361534a565b91507f476f7665726e6f72416c7068613a3a63616e63656c3a2063616e6e6f7420636160008301527f6e63656c2065786563757465642070726f706f73616c000000000000000000006020830152604082019050919050565b6000614659602a8361534a565b91507f476f7665726e6f72416c7068613a3a5f63617374566f74653a20766f74696e6760008301527f20697320636c6f736564000000000000000000000000000000000000000000006020830152604082019050919050565b60006146bf60158361534a565b91507f7375627472616374696f6e20756e646572666c6f7700000000000000000000006000830152602082019050919050565b60006146ff60368361534a565b91507f476f7665726e6f72416c7068613a3a5f5f61626469636174653a2073656e646560008301527f72206d75737420626520676f7620677561726469616e000000000000000000006020830152604082019050919050565b60608201600082015161476e600085018261395a565b506020820151614781602085018261395a565b506040820151614794604085018261479a565b50505050565b6147a3816153c1565b82525050565b6147b2816153c1565b82525050565b6147c1816153cb565b82525050565b60006147d282613da2565b91506147de8285613987565b6020820191506147ee8284613987565b6020820191508190509392505050565b600061480982614178565b9150819050919050565b600061481e82614204565b9150819050919050565b600060208201905061483d60008301846137a5565b92915050565b60006040820190506148586000830185613787565b61486560208301846147a9565b9392505050565b600060a08201905061488160008301876137a5565b61488e6020830186613adb565b818103604083015261489f81613eae565b905081810360608301526148b3818561399e565b90506148c260808301846147a9565b95945050505050565b60006040820190506148e060008301856137a5565b6148ed60208301846147a9565b9392505050565b600060808201905061490960008301876137a5565b61491660208301866147a9565b6149236040830185613969565b61493060608301846147a9565b95945050505050565b600060a08201905061494e60008301886137a5565b61495b60208301876147a9565b818103604083015261496d8186613aea565b90508181036060830152614981818561399e565b905061499060808301846147a9565b9695505050505050565b600060a0820190506149af60008301886137a5565b6149bc60208301876147a9565b81810360408301526149ce8186613b95565b905081810360608301526149e28185613a10565b90506149f160808301846147a9565b9695505050505050565b60006080820190508181036000830152614a1581876137b4565b90508181036020830152614a2981866138fc565b90508181036040830152614a3d8185613887565b90508181036060830152614a518184613812565b905095945050505050565b6000602082019050614a716000830184613978565b92915050565b6000608082019050614a8c6000830187613978565b614a996020830186613978565b614aa660408301856147a9565b614ab360608301846137a5565b95945050505050565b6000606082019050614ad16000830186613978565b614ade60208301856147a9565b614aeb6040830184613969565b949350505050565b6000608082019050614b086000830187613978565b614b1560208301866147b8565b614b226040830185613978565b614b2f6060830184613978565b95945050505050565b6000602082019050614b4d6000830184613a9f565b92915050565b6000602082019050614b686000830184613aae565b92915050565b6000602082019050614b836000830184613abd565b92915050565b6000602082019050614b9e6000830184613acc565b92915050565b60006020820190508181036000830152614bbe8184613b5c565b905092915050565b60006020820190508181036000830152614bdf81613c24565b9050919050565b60006020820190508181036000830152614bff81613c8a565b9050919050565b60006020820190508181036000830152614c1f81613d16565b9050919050565b60006020820190508181036000830152614c3f81613de2565b9050919050565b60006020820190508181036000830152614c5f81613e6e565b9050919050565b60006020820190508181036000830152614c7f81613eee565b9050919050565b60006020820190508181036000830152614c9f81613f54565b9050919050565b60006020820190508181036000830152614cbf81613fba565b9050919050565b60006020820190508181036000830152614cdf81614046565b9050919050565b60006020820190508181036000830152614cff816140d2565b9050919050565b60006020820190508181036000830152614d1f81614138565b9050919050565b60006020820190508181036000830152614d3f8161426a565b9050919050565b60006020820190508181036000830152614d5f816142f6565b9050919050565b60006020820190508181036000830152614d7f8161435c565b9050919050565b60006020820190508181036000830152614d9f816143e8565b9050919050565b60006020820190508181036000830152614dbf8161444e565b9050919050565b60006020820190508181036000830152614ddf816144b4565b9050919050565b60006020820190508181036000830152614dff8161451a565b9050919050565b60006020820190508181036000830152614e1f8161455a565b9050919050565b60006020820190508181036000830152614e3f816145e6565b9050919050565b60006020820190508181036000830152614e5f8161464c565b9050919050565b60006020820190508181036000830152614e7f816146b2565b9050919050565b60006020820190508181036000830152614e9f816146f2565b9050919050565b6000606082019050614ebb6000830184614758565b92915050565b6000602082019050614ed660008301846147a9565b92915050565b600061012082019050614ef2600083018c6147a9565b614eff602083018b613787565b8181036040830152614f11818a6137b4565b90508181036060830152614f2581896138fc565b90508181036080830152614f398188613887565b905081810360a0830152614f4d8187613812565b9050614f5c60c08301866147a9565b614f6960e08301856147a9565b818103610100830152614f7c8184613aea565b90509a9950505050505050505050565b600061016082019050614fa2600083018e6147a9565b614faf602083018d6137a5565b614fbc604083018c6147a9565b614fc9606083018b6147a9565b614fd6608083018a6147a9565b614fe360a08301896147a9565b614ff060c08301886147a9565b614ffd60e08301876147a9565b61500b6101008301866147a9565b615019610120830185613969565b615027610140830184613969565b9c9b505050505050505050505050565b600060408201905061504c60008301856147a9565b61505960208301846147a9565b9392505050565b6000604051905081810181811067ffffffffffffffff8211171561508357600080fd5b8060405250919050565b600067ffffffffffffffff8211156150a457600080fd5b602082029050602081019050919050565b600067ffffffffffffffff8211156150cc57600080fd5b602082029050602081019050919050565b600067ffffffffffffffff8211156150f457600080fd5b602082029050602081019050919050565b600067ffffffffffffffff82111561511c57600080fd5b602082029050602081019050919050565b600067ffffffffffffffff82111561514457600080fd5b601f19601f8301169050602081019050919050565b600067ffffffffffffffff82111561517057600080fd5b601f19601f8301169050602081019050919050565b600067ffffffffffffffff82111561519c57600080fd5b601f19601f8301169050602081019050919050565b600067ffffffffffffffff8211156151c857600080fd5b601f19601f8301169050602081019050919050565b6000819050602082019050919050565b6000819050602082019050919050565b6000819050602082019050919050565b6000819050602082019050919050565b60008190508160005260206000209050919050565b60008190508160005260206000209050919050565b600081519050919050565b600081519050919050565b600081519050919050565b600081519050919050565b600081519050919050565b600081519050919050565b600081519050919050565b600081519050919050565b6000602082019050919050565b6000602082019050919050565b6000602082019050919050565b6000602082019050919050565b600082825260208201905092915050565b600082825260208201905092915050565b600082825260208201905092915050565b600082825260208201905092915050565b600082825260208201905092915050565b600082825260208201905092915050565b600082825260208201905092915050565b600082825260208201905092915050565b600081905092915050565b6000615371826153a1565b9050919050565b60008115159050919050565b6000819050919050565b600081905061539c826154fb565b919050565b600073ffffffffffffffffffffffffffffffffffffffff82169050919050565b6000819050919050565b600060ff82169050919050565b60006153e38261547a565b9050919050565b60006153f5826153fc565b9050919050565b6000615407826153a1565b9050919050565b600061541982615420565b9050919050565b600061542b826153a1565b9050919050565b600061543d82615444565b9050919050565b600061544f826153a1565b9050919050565b60006154618261538e565b9050919050565b6000615473826153c1565b9050919050565b60006154858261548c565b9050919050565b6000615497826153a1565b9050919050565b82818337600083830152505050565b60005b838110156154cb5780820151818401526020810190506154b0565b838111156154da576000848401525b50505050565b6000819050919050565b6000601f19601f8301169050919050565b6008811061550557fe5b50565b61551181615366565b811461551c57600080fd5b50565b61552881615378565b811461553357600080fd5b50565b61553f81615384565b811461554a57600080fd5b50565b615556816153c1565b811461556157600080fd5b50565b61556d816153cb565b811461557857600080fd5b5056fea365627a7a7231582006efee293a59faf5e05f5d908be1cb9fe00d72623bcd4eafd504393151c993aa6c6578706572696d656e74616cf564736f6c63430005100040",
          "opcodes": "PUSH1 0x80 PUSH1 0x40 MSTORE CALLVALUE DUP1 ISZERO PUSH3 0x11 JUMPI PUSH1 0x0 DUP1 REVERT JUMPDEST POP PUSH1 0x40 MLOAD PUSH3 0x57E3 CODESIZE SUB DUP1 PUSH3 0x57E3 DUP4 CODECOPY DUP2 DUP2 ADD PUSH1 0x40 MSTORE PUSH3 0x37 SWAP2 SWAP1 DUP2 ADD SWAP1 PUSH3 0x15B JUMP JUMPDEST DUP4 PUSH1 0x0 DUP1 PUSH2 0x100 EXP DUP2 SLOAD DUP2 PUSH20 0xFFFFFFFFFFFFFFFFFFFFFFFFFFFFFFFFFFFFFFFF MUL NOT AND SWAP1 DUP4 PUSH20 0xFFFFFFFFFFFFFFFFFFFFFFFFFFFFFFFFFFFFFFFF AND MUL OR SWAP1 SSTORE POP DUP3 PUSH1 0x2 PUSH1 0x0 PUSH2 0x100 EXP DUP2 SLOAD DUP2 PUSH20 0xFFFFFFFFFFFFFFFFFFFFFFFFFFFFFFFFFFFFFFFF MUL NOT AND SWAP1 DUP4 PUSH20 0xFFFFFFFFFFFFFFFFFFFFFFFFFFFFFFFFFFFFFFFF AND MUL OR SWAP1 SSTORE POP DUP2 PUSH1 0x1 PUSH1 0x0 PUSH2 0x100 EXP DUP2 SLOAD DUP2 PUSH20 0xFFFFFFFFFFFFFFFFFFFFFFFFFFFFFFFFFFFFFFFF MUL NOT AND SWAP1 DUP4 PUSH20 0xFFFFFFFFFFFFFFFFFFFFFFFFFFFFFFFFFFFFFFFF AND MUL OR SWAP1 SSTORE POP DUP1 PUSH1 0x3 PUSH1 0x0 PUSH2 0x100 EXP DUP2 SLOAD DUP2 PUSH20 0xFFFFFFFFFFFFFFFFFFFFFFFFFFFFFFFFFFFFFFFF MUL NOT AND SWAP1 DUP4 PUSH20 0xFFFFFFFFFFFFFFFFFFFFFFFFFFFFFFFFFFFFFFFF AND MUL OR SWAP1 SSTORE POP POP POP POP POP PUSH3 0x215 JUMP JUMPDEST PUSH1 0x0 DUP2 MLOAD SWAP1 POP PUSH3 0x155 DUP2 PUSH3 0x1FB JUMP JUMPDEST SWAP3 SWAP2 POP POP JUMP JUMPDEST PUSH1 0x0 DUP1 PUSH1 0x0 DUP1 PUSH1 0x80 DUP6 DUP8 SUB SLT ISZERO PUSH3 0x172 JUMPI PUSH1 0x0 DUP1 REVERT JUMPDEST PUSH1 0x0 PUSH3 0x182 DUP8 DUP3 DUP9 ADD PUSH3 0x144 JUMP JUMPDEST SWAP5 POP POP PUSH1 0x20 PUSH3 0x195 DUP8 DUP3 DUP9 ADD PUSH3 0x144 JUMP JUMPDEST SWAP4 POP POP PUSH1 0x40 PUSH3 0x1A8 DUP8 DUP3 DUP9 ADD PUSH3 0x144 JUMP JUMPDEST SWAP3 POP POP PUSH1 0x60 PUSH3 0x1BB DUP8 DUP3 DUP9 ADD PUSH3 0x144 JUMP JUMPDEST SWAP2 POP POP SWAP3 SWAP6 SWAP2 SWAP5 POP SWAP3 POP JUMP JUMPDEST PUSH1 0x0 PUSH3 0x1D4 DUP3 PUSH3 0x1DB JUMP JUMPDEST SWAP1 POP SWAP2 SWAP1 POP JUMP JUMPDEST PUSH1 0x0 PUSH20 0xFFFFFFFFFFFFFFFFFFFFFFFFFFFFFFFFFFFFFFFF DUP3 AND SWAP1 POP SWAP2 SWAP1 POP JUMP JUMPDEST PUSH3 0x206 DUP2 PUSH3 0x1C7 JUMP JUMPDEST DUP2 EQ PUSH3 0x212 JUMPI PUSH1 0x0 DUP1 REVERT JUMPDEST POP JUMP JUMPDEST PUSH2 0x55BE DUP1 PUSH3 0x225 PUSH1 0x0 CODECOPY PUSH1 0x0 RETURN INVALID PUSH1 0x80 PUSH1 0x40 MSTORE PUSH1 0x4 CALLDATASIZE LT PUSH2 0x1C2 JUMPI PUSH1 0x0 CALLDATALOAD PUSH1 0xE0 SHR DUP1 PUSH4 0x760FBC13 GT PUSH2 0xF7 JUMPI DUP1 PUSH4 0xDA35C664 GT PUSH2 0x95 JUMPI DUP1 PUSH4 0xE23A9A52 GT PUSH2 0x64 JUMPI DUP1 PUSH4 0xE23A9A52 EQ PUSH2 0x62D JUMPI DUP1 PUSH4 0xF7D84293 EQ PUSH2 0x66A JUMPI DUP1 PUSH4 0xF81CBD26 EQ PUSH2 0x6A7 JUMPI DUP1 PUSH4 0xFE0D94C1 EQ PUSH2 0x6D2 JUMPI PUSH2 0x1C2 JUMP JUMPDEST DUP1 PUSH4 0xDA35C664 EQ PUSH2 0x571 JUMPI DUP1 PUSH4 0xDA95691A EQ PUSH2 0x59C JUMPI DUP1 PUSH4 0xDDF0B009 EQ PUSH2 0x5D9 JUMPI DUP1 PUSH4 0xDEAAA7CC EQ PUSH2 0x602 JUMPI PUSH2 0x1C2 JUMP JUMPDEST DUP1 PUSH4 0xA0AD9F93 GT PUSH2 0xD1 JUMPI DUP1 PUSH4 0xA0AD9F93 EQ PUSH2 0x4D9 JUMPI DUP1 PUSH4 0xB9A61961 EQ PUSH2 0x504 JUMPI DUP1 PUSH4 0xD33219B4 EQ PUSH2 0x51B JUMPI DUP1 PUSH4 0xD9BFD805 EQ PUSH2 0x546 JUMPI PUSH2 0x1C2 JUMP JUMPDEST DUP1 PUSH4 0x760FBC13 EQ PUSH2 0x46E JUMPI DUP1 PUSH4 0x7BDBE4D0 EQ PUSH2 0x485 JUMPI DUP1 PUSH4 0x91500671 EQ PUSH2 0x4B0 JUMPI PUSH2 0x1C2 JUMP JUMPDEST DUP1 PUSH4 0x328DD982 GT PUSH2 0x164 JUMPI DUP1 PUSH4 0x40E58EE5 GT PUSH2 0x13E JUMPI DUP1 PUSH4 0x40E58EE5 EQ PUSH2 0x3C6 JUMPI DUP1 PUSH4 0x452A9320 EQ PUSH2 0x3EF JUMPI DUP1 PUSH4 0x4634C61F EQ PUSH2 0x41A JUMPI DUP1 PUSH4 0x6DDD86D9 EQ PUSH2 0x443 JUMPI PUSH2 0x1C2 JUMP JUMPDEST DUP1 PUSH4 0x328DD982 EQ PUSH2 0x31E JUMPI DUP1 PUSH4 0x3932ABB1 EQ PUSH2 0x35E JUMPI DUP1 PUSH4 0x3E4F49E6 EQ PUSH2 0x389 JUMPI PUSH2 0x1C2 JUMP JUMPDEST DUP1 PUSH4 0x15373E3D GT PUSH2 0x1A0 JUMPI DUP1 PUSH4 0x15373E3D EQ PUSH2 0x264 JUMPI DUP1 PUSH4 0x17977C61 EQ PUSH2 0x28D JUMPI DUP1 PUSH4 0x20606B70 EQ PUSH2 0x2CA JUMPI DUP1 PUSH4 0x21F43E42 EQ PUSH2 0x2F5 JUMPI PUSH2 0x1C2 JUMP JUMPDEST DUP1 PUSH4 0x13CF08B EQ PUSH2 0x1C7 JUMPI DUP1 PUSH4 0x2A251A3 EQ PUSH2 0x20E JUMPI DUP1 PUSH4 0x6FDDE03 EQ PUSH2 0x239 JUMPI JUMPDEST PUSH1 0x0 DUP1 REVERT JUMPDEST CALLVALUE DUP1 ISZERO PUSH2 0x1D3 JUMPI PUSH1 0x0 DUP1 REVERT JUMPDEST POP PUSH2 0x1EE PUSH1 0x4 DUP1 CALLDATASIZE SUB PUSH2 0x1E9 SWAP2 SWAP1 DUP2 ADD SWAP1 PUSH2 0x35EE JUMP JUMPDEST PUSH2 0x6EE JUMP JUMPDEST PUSH1 0x40 MLOAD PUSH2 0x205 SWAP12 SWAP11 SWAP10 SWAP9 SWAP8 SWAP7 SWAP6 SWAP5 SWAP4 SWAP3 SWAP2 SWAP1 PUSH2 0x4F8C JUMP JUMPDEST PUSH1 0x40 MLOAD DUP1 SWAP2 SUB SWAP1 RETURN JUMPDEST CALLVALUE DUP1 ISZERO PUSH2 0x21A JUMPI PUSH1 0x0 DUP1 REVERT JUMPDEST POP PUSH2 0x223 PUSH2 0x782 JUMP JUMPDEST PUSH1 0x40 MLOAD PUSH2 0x230 SWAP2 SWAP1 PUSH2 0x4EC1 JUMP JUMPDEST PUSH1 0x40 MLOAD DUP1 SWAP2 SUB SWAP1 RETURN JUMPDEST CALLVALUE DUP1 ISZERO PUSH2 0x245 JUMPI PUSH1 0x0 DUP1 REVERT JUMPDEST POP PUSH2 0x24E PUSH2 0x78C JUMP JUMPDEST PUSH1 0x40 MLOAD PUSH2 0x25B SWAP2 SWAP1 PUSH2 0x4BA4 JUMP JUMPDEST PUSH1 0x40 MLOAD DUP1 SWAP2 SUB SWAP1 RETURN JUMPDEST CALLVALUE DUP1 ISZERO PUSH2 0x270 JUMPI PUSH1 0x0 DUP1 REVERT JUMPDEST POP PUSH2 0x28B PUSH1 0x4 DUP1 CALLDATASIZE SUB PUSH2 0x286 SWAP2 SWAP1 DUP2 ADD SWAP1 PUSH2 0x367C JUMP JUMPDEST PUSH2 0x7C5 JUMP JUMPDEST STOP JUMPDEST CALLVALUE DUP1 ISZERO PUSH2 0x299 JUMPI PUSH1 0x0 DUP1 REVERT JUMPDEST POP PUSH2 0x2B4 PUSH1 0x4 DUP1 CALLDATASIZE SUB PUSH2 0x2AF SWAP2 SWAP1 DUP2 ADD SWAP1 PUSH2 0x3407 JUMP JUMPDEST PUSH2 0x7D4 JUMP JUMPDEST PUSH1 0x40 MLOAD PUSH2 0x2C1 SWAP2 SWAP1 PUSH2 0x4EC1 JUMP JUMPDEST PUSH1 0x40 MLOAD DUP1 SWAP2 SUB SWAP1 RETURN JUMPDEST CALLVALUE DUP1 ISZERO PUSH2 0x2D6 JUMPI PUSH1 0x0 DUP1 REVERT JUMPDEST POP PUSH2 0x2DF PUSH2 0x7EC JUMP JUMPDEST PUSH1 0x40 MLOAD PUSH2 0x2EC SWAP2 SWAP1 PUSH2 0x4A5C JUMP JUMPDEST PUSH1 0x40 MLOAD DUP1 SWAP2 SUB SWAP1 RETURN JUMPDEST CALLVALUE DUP1 ISZERO PUSH2 0x301 JUMPI PUSH1 0x0 DUP1 REVERT JUMPDEST POP PUSH2 0x31C PUSH1 0x4 DUP1 CALLDATASIZE SUB PUSH2 0x317 SWAP2 SWAP1 DUP2 ADD SWAP1 PUSH2 0x3430 JUMP JUMPDEST PUSH2 0x803 JUMP JUMPDEST STOP JUMPDEST CALLVALUE DUP1 ISZERO PUSH2 0x32A JUMPI PUSH1 0x0 DUP1 REVERT JUMPDEST POP PUSH2 0x345 PUSH1 0x4 DUP1 CALLDATASIZE SUB PUSH2 0x340 SWAP2 SWAP1 DUP2 ADD SWAP1 PUSH2 0x35EE JUMP JUMPDEST PUSH2 0x990 JUMP JUMPDEST PUSH1 0x40 MLOAD PUSH2 0x355 SWAP5 SWAP4 SWAP3 SWAP2 SWAP1 PUSH2 0x49FB JUMP JUMPDEST PUSH1 0x40 MLOAD DUP1 SWAP2 SUB SWAP1 RETURN JUMPDEST CALLVALUE DUP1 ISZERO PUSH2 0x36A JUMPI PUSH1 0x0 DUP1 REVERT JUMPDEST POP PUSH2 0x373 PUSH2 0xC6D JUMP JUMPDEST PUSH1 0x40 MLOAD PUSH2 0x380 SWAP2 SWAP1 PUSH2 0x4EC1 JUMP JUMPDEST PUSH1 0x40 MLOAD DUP1 SWAP2 SUB SWAP1 RETURN JUMPDEST CALLVALUE DUP1 ISZERO PUSH2 0x395 JUMPI PUSH1 0x0 DUP1 REVERT JUMPDEST POP PUSH2 0x3B0 PUSH1 0x4 DUP1 CALLDATASIZE SUB PUSH2 0x3AB SWAP2 SWAP1 DUP2 ADD SWAP1 PUSH2 0x35EE JUMP JUMPDEST PUSH2 0xC76 JUMP JUMPDEST PUSH1 0x40 MLOAD PUSH2 0x3BD SWAP2 SWAP1 PUSH2 0x4B89 JUMP JUMPDEST PUSH1 0x40 MLOAD DUP1 SWAP2 SUB SWAP1 RETURN JUMPDEST CALLVALUE DUP1 ISZERO PUSH2 0x3D2 JUMPI PUSH1 0x0 DUP1 REVERT JUMPDEST POP PUSH2 0x3ED PUSH1 0x4 DUP1 CALLDATASIZE SUB PUSH2 0x3E8 SWAP2 SWAP1 DUP2 ADD SWAP1 PUSH2 0x35EE JUMP JUMPDEST PUSH2 0xE57 JUMP JUMPDEST STOP JUMPDEST CALLVALUE DUP1 ISZERO PUSH2 0x3FB JUMPI PUSH1 0x0 DUP1 REVERT JUMPDEST POP PUSH2 0x404 PUSH2 0x11E2 JUMP JUMPDEST PUSH1 0x40 MLOAD PUSH2 0x411 SWAP2 SWAP1 PUSH2 0x4828 JUMP JUMPDEST PUSH1 0x40 MLOAD DUP1 SWAP2 SUB SWAP1 RETURN JUMPDEST CALLVALUE DUP1 ISZERO PUSH2 0x426 JUMPI PUSH1 0x0 DUP1 REVERT JUMPDEST POP PUSH2 0x441 PUSH1 0x4 DUP1 CALLDATASIZE SUB PUSH2 0x43C SWAP2 SWAP1 DUP2 ADD SWAP1 PUSH2 0x36B8 JUMP JUMPDEST PUSH2 0x1208 JUMP JUMPDEST STOP JUMPDEST CALLVALUE DUP1 ISZERO PUSH2 0x44F JUMPI PUSH1 0x0 DUP1 REVERT JUMPDEST POP PUSH2 0x458 PUSH2 0x13D7 JUMP JUMPDEST PUSH1 0x40 MLOAD PUSH2 0x465 SWAP2 SWAP1 PUSH2 0x4B6E JUMP JUMPDEST PUSH1 0x40 MLOAD DUP1 SWAP2 SUB SWAP1 RETURN JUMPDEST CALLVALUE DUP1 ISZERO PUSH2 0x47A JUMPI PUSH1 0x0 DUP1 REVERT JUMPDEST POP PUSH2 0x483 PUSH2 0x13FD JUMP JUMPDEST STOP JUMPDEST CALLVALUE DUP1 ISZERO PUSH2 0x491 JUMPI PUSH1 0x0 DUP1 REVERT JUMPDEST POP PUSH2 0x49A PUSH2 0x14D1 JUMP JUMPDEST PUSH1 0x40 MLOAD PUSH2 0x4A7 SWAP2 SWAP1 PUSH2 0x4EC1 JUMP JUMPDEST PUSH1 0x40 MLOAD DUP1 SWAP2 SUB SWAP1 RETURN JUMPDEST CALLVALUE DUP1 ISZERO PUSH2 0x4BC JUMPI PUSH1 0x0 DUP1 REVERT JUMPDEST POP PUSH2 0x4D7 PUSH1 0x4 DUP1 CALLDATASIZE SUB PUSH2 0x4D2 SWAP2 SWAP1 DUP2 ADD SWAP1 PUSH2 0x3430 JUMP JUMPDEST PUSH2 0x14DA JUMP JUMPDEST STOP JUMPDEST CALLVALUE DUP1 ISZERO PUSH2 0x4E5 JUMPI PUSH1 0x0 DUP1 REVERT JUMPDEST POP PUSH2 0x4EE PUSH2 0x1662 JUMP JUMPDEST PUSH1 0x40 MLOAD PUSH2 0x4FB SWAP2 SWAP1 PUSH2 0x4EC1 JUMP JUMPDEST PUSH1 0x40 MLOAD DUP1 SWAP2 SUB SWAP1 RETURN JUMPDEST CALLVALUE DUP1 ISZERO PUSH2 0x510 JUMPI PUSH1 0x0 DUP1 REVERT JUMPDEST POP PUSH2 0x519 PUSH2 0x166C JUMP JUMPDEST STOP JUMPDEST CALLVALUE DUP1 ISZERO PUSH2 0x527 JUMPI PUSH1 0x0 DUP1 REVERT JUMPDEST POP PUSH2 0x530 PUSH2 0x177F JUMP JUMPDEST PUSH1 0x40 MLOAD PUSH2 0x53D SWAP2 SWAP1 PUSH2 0x4B38 JUMP JUMPDEST PUSH1 0x40 MLOAD DUP1 SWAP2 SUB SWAP1 RETURN JUMPDEST CALLVALUE DUP1 ISZERO PUSH2 0x552 JUMPI PUSH1 0x0 DUP1 REVERT JUMPDEST POP PUSH2 0x55B PUSH2 0x17A4 JUMP JUMPDEST PUSH1 0x40 MLOAD PUSH2 0x568 SWAP2 SWAP1 PUSH2 0x4B53 JUMP JUMPDEST PUSH1 0x40 MLOAD DUP1 SWAP2 SUB SWAP1 RETURN JUMPDEST CALLVALUE DUP1 ISZERO PUSH2 0x57D JUMPI PUSH1 0x0 DUP1 REVERT JUMPDEST POP PUSH2 0x586 PUSH2 0x17CA JUMP JUMPDEST PUSH1 0x40 MLOAD PUSH2 0x593 SWAP2 SWAP1 PUSH2 0x4EC1 JUMP JUMPDEST PUSH1 0x40 MLOAD DUP1 SWAP2 SUB SWAP1 RETURN JUMPDEST CALLVALUE DUP1 ISZERO PUSH2 0x5A8 JUMPI PUSH1 0x0 DUP1 REVERT JUMPDEST POP PUSH2 0x5C3 PUSH1 0x4 DUP1 CALLDATASIZE SUB PUSH2 0x5BE SWAP2 SWAP1 DUP2 ADD SWAP1 PUSH2 0x346C JUMP JUMPDEST PUSH2 0x17D0 JUMP JUMPDEST PUSH1 0x40 MLOAD PUSH2 0x5D0 SWAP2 SWAP1 PUSH2 0x4EC1 JUMP JUMPDEST PUSH1 0x40 MLOAD DUP1 SWAP2 SUB SWAP1 RETURN JUMPDEST CALLVALUE DUP1 ISZERO PUSH2 0x5E5 JUMPI PUSH1 0x0 DUP1 REVERT JUMPDEST POP PUSH2 0x600 PUSH1 0x4 DUP1 CALLDATASIZE SUB PUSH2 0x5FB SWAP2 SWAP1 DUP2 ADD SWAP1 PUSH2 0x35EE JUMP JUMPDEST PUSH2 0x1DD7 JUMP JUMPDEST STOP JUMPDEST CALLVALUE DUP1 ISZERO PUSH2 0x60E JUMPI PUSH1 0x0 DUP1 REVERT JUMPDEST POP PUSH2 0x617 PUSH2 0x2126 JUMP JUMPDEST PUSH1 0x40 MLOAD PUSH2 0x624 SWAP2 SWAP1 PUSH2 0x4A5C JUMP JUMPDEST PUSH1 0x40 MLOAD DUP1 SWAP2 SUB SWAP1 RETURN JUMPDEST CALLVALUE DUP1 ISZERO PUSH2 0x639 JUMPI PUSH1 0x0 DUP1 REVERT JUMPDEST POP PUSH2 0x654 PUSH1 0x4 DUP1 CALLDATASIZE SUB PUSH2 0x64F SWAP2 SWAP1 DUP2 ADD SWAP1 PUSH2 0x3640 JUMP JUMPDEST PUSH2 0x213D JUMP JUMPDEST PUSH1 0x40 MLOAD PUSH2 0x661 SWAP2 SWAP1 PUSH2 0x4EA6 JUMP JUMPDEST PUSH1 0x40 MLOAD DUP1 SWAP2 SUB SWAP1 RETURN JUMPDEST CALLVALUE DUP1 ISZERO PUSH2 0x676 JUMPI PUSH1 0x0 DUP1 REVERT JUMPDEST POP PUSH2 0x691 PUSH1 0x4 DUP1 CALLDATASIZE SUB PUSH2 0x68C SWAP2 SWAP1 DUP2 ADD SWAP1 PUSH2 0x35EE JUMP JUMPDEST PUSH2 0x21EB JUMP JUMPDEST PUSH1 0x40 MLOAD PUSH2 0x69E SWAP2 SWAP1 PUSH2 0x4EC1 JUMP JUMPDEST PUSH1 0x40 MLOAD DUP1 SWAP2 SUB SWAP1 RETURN JUMPDEST CALLVALUE DUP1 ISZERO PUSH2 0x6B3 JUMPI PUSH1 0x0 DUP1 REVERT JUMPDEST POP PUSH2 0x6BC PUSH2 0x2353 JUMP JUMPDEST PUSH1 0x40 MLOAD PUSH2 0x6C9 SWAP2 SWAP1 PUSH2 0x4EC1 JUMP JUMPDEST PUSH1 0x40 MLOAD DUP1 SWAP2 SUB SWAP1 RETURN JUMPDEST PUSH2 0x6EC PUSH1 0x4 DUP1 CALLDATASIZE SUB PUSH2 0x6E7 SWAP2 SWAP1 DUP2 ADD SWAP1 PUSH2 0x35EE JUMP JUMPDEST PUSH2 0x235D JUMP JUMPDEST STOP JUMPDEST PUSH1 0x5 PUSH1 0x20 MSTORE DUP1 PUSH1 0x0 MSTORE PUSH1 0x40 PUSH1 0x0 KECCAK256 PUSH1 0x0 SWAP2 POP SWAP1 POP DUP1 PUSH1 0x0 ADD SLOAD SWAP1 DUP1 PUSH1 0x1 ADD PUSH1 0x0 SWAP1 SLOAD SWAP1 PUSH2 0x100 EXP SWAP1 DIV PUSH20 0xFFFFFFFFFFFFFFFFFFFFFFFFFFFFFFFFFFFFFFFF AND SWAP1 DUP1 PUSH1 0x2 ADD SLOAD SWAP1 DUP1 PUSH1 0x7 ADD SLOAD SWAP1 DUP1 PUSH1 0x8 ADD SLOAD SWAP1 DUP1 PUSH1 0x9 ADD SLOAD SWAP1 DUP1 PUSH1 0xA ADD SLOAD SWAP1 DUP1 PUSH1 0xB ADD SLOAD SWAP1 DUP1 PUSH1 0xC ADD SLOAD SWAP1 DUP1 PUSH1 0xD ADD PUSH1 0x0 SWAP1 SLOAD SWAP1 PUSH2 0x100 EXP SWAP1 DIV PUSH1 0xFF AND SWAP1 DUP1 PUSH1 0xD ADD PUSH1 0x1 SWAP1 SLOAD SWAP1 PUSH2 0x100 EXP SWAP1 DIV PUSH1 0xFF AND SWAP1 POP DUP12 JUMP JUMPDEST PUSH1 0x0 PUSH2 0x4380 SWAP1 POP SWAP1 JUMP JUMPDEST PUSH1 0x40 MLOAD DUP1 PUSH1 0x40 ADD PUSH1 0x40 MSTORE DUP1 PUSH1 0x17 DUP2 MSTORE PUSH1 0x20 ADD PUSH32 0x46697363757320476F7665726E6F722046495343656761000000000000000000 DUP2 MSTORE POP DUP2 JUMP JUMPDEST PUSH2 0x7D0 CALLER DUP4 DUP4 PUSH2 0x25AA JUMP JUMPDEST POP POP JUMP JUMPDEST PUSH1 0x6 PUSH1 0x20 MSTORE DUP1 PUSH1 0x0 MSTORE PUSH1 0x40 PUSH1 0x0 KECCAK256 PUSH1 0x0 SWAP2 POP SWAP1 POP SLOAD DUP2 JUMP JUMPDEST PUSH1 0x40 MLOAD PUSH2 0x7F8 SWAP1 PUSH2 0x47FE JUMP JUMPDEST PUSH1 0x40 MLOAD DUP1 SWAP2 SUB SWAP1 KECCAK256 DUP2 JUMP JUMPDEST PUSH1 0x3 PUSH1 0x0 SWAP1 SLOAD SWAP1 PUSH2 0x100 EXP SWAP1 DIV PUSH20 0xFFFFFFFFFFFFFFFFFFFFFFFFFFFFFFFFFFFFFFFF AND PUSH20 0xFFFFFFFFFFFFFFFFFFFFFFFFFFFFFFFFFFFFFFFF AND CALLER PUSH20 0xFFFFFFFFFFFFFFFFFFFFFFFFFFFFFFFFFFFFFFFF AND EQ PUSH2 0x893 JUMPI PUSH1 0x40 MLOAD PUSH32 0x8C379A000000000000000000000000000000000000000000000000000000000 DUP2 MSTORE PUSH1 0x4 ADD PUSH2 0x88A SWAP1 PUSH2 0x4C26 JUMP JUMPDEST PUSH1 0x40 MLOAD DUP1 SWAP2 SUB SWAP1 REVERT JUMPDEST PUSH1 0x0 DUP1 SWAP1 SLOAD SWAP1 PUSH2 0x100 EXP SWAP1 DIV PUSH20 0xFFFFFFFFFFFFFFFFFFFFFFFFFFFFFFFFFFFFFFFF AND PUSH20 0xFFFFFFFFFFFFFFFFFFFFFFFFFFFFFFFFFFFFFFFF AND PUSH4 0x825F38F PUSH1 0x0 DUP1 SWAP1 SLOAD SWAP1 PUSH2 0x100 EXP SWAP1 DIV PUSH20 0xFFFFFFFFFFFFFFFFFFFFFFFFFFFFFFFFFFFFFFFF AND PUSH1 0x0 DUP6 PUSH1 0x40 MLOAD PUSH1 0x20 ADD PUSH2 0x905 SWAP2 SWAP1 PUSH2 0x4828 JUMP JUMPDEST PUSH1 0x40 MLOAD PUSH1 0x20 DUP2 DUP4 SUB SUB DUP2 MSTORE SWAP1 PUSH1 0x40 MSTORE DUP6 PUSH1 0x40 MLOAD DUP6 PUSH4 0xFFFFFFFF AND PUSH1 0xE0 SHL DUP2 MSTORE PUSH1 0x4 ADD PUSH2 0x934 SWAP5 SWAP4 SWAP3 SWAP2 SWAP1 PUSH2 0x486C JUMP JUMPDEST PUSH1 0x0 PUSH1 0x40 MLOAD DUP1 DUP4 SUB DUP2 PUSH1 0x0 DUP8 DUP1 EXTCODESIZE ISZERO DUP1 ISZERO PUSH2 0x94E JUMPI PUSH1 0x0 DUP1 REVERT JUMPDEST POP GAS CALL ISZERO DUP1 ISZERO PUSH2 0x962 JUMPI RETURNDATASIZE PUSH1 0x0 DUP1 RETURNDATACOPY RETURNDATASIZE PUSH1 0x0 REVERT JUMPDEST POP POP POP POP PUSH1 0x40 MLOAD RETURNDATASIZE PUSH1 0x0 DUP3 RETURNDATACOPY RETURNDATASIZE PUSH1 0x1F NOT PUSH1 0x1F DUP3 ADD AND DUP3 ADD DUP1 PUSH1 0x40 MSTORE POP PUSH2 0x98B SWAP2 SWAP1 DUP2 ADD SWAP1 PUSH2 0x35AD JUMP JUMPDEST POP POP POP JUMP JUMPDEST PUSH1 0x60 DUP1 PUSH1 0x60 DUP1 PUSH1 0x0 PUSH1 0x5 PUSH1 0x0 DUP8 DUP2 MSTORE PUSH1 0x20 ADD SWAP1 DUP2 MSTORE PUSH1 0x20 ADD PUSH1 0x0 KECCAK256 SWAP1 POP DUP1 PUSH1 0x3 ADD DUP2 PUSH1 0x4 ADD DUP3 PUSH1 0x5 ADD DUP4 PUSH1 0x6 ADD DUP4 DUP1 SLOAD DUP1 PUSH1 0x20 MUL PUSH1 0x20 ADD PUSH1 0x40 MLOAD SWAP1 DUP2 ADD PUSH1 0x40 MSTORE DUP1 SWAP3 SWAP2 SWAP1 DUP2 DUP2 MSTORE PUSH1 0x20 ADD DUP3 DUP1 SLOAD DUP1 ISZERO PUSH2 0xA3E JUMPI PUSH1 0x20 MUL DUP3 ADD SWAP2 SWAP1 PUSH1 0x0 MSTORE PUSH1 0x20 PUSH1 0x0 KECCAK256 SWAP1 JUMPDEST DUP2 PUSH1 0x0 SWAP1 SLOAD SWAP1 PUSH2 0x100 EXP SWAP1 DIV PUSH20 0xFFFFFFFFFFFFFFFFFFFFFFFFFFFFFFFFFFFFFFFF AND PUSH20 0xFFFFFFFFFFFFFFFFFFFFFFFFFFFFFFFFFFFFFFFF AND DUP2 MSTORE PUSH1 0x20 ADD SWAP1 PUSH1 0x1 ADD SWAP1 DUP1 DUP4 GT PUSH2 0x9F4 JUMPI JUMPDEST POP POP POP POP POP SWAP4 POP DUP3 DUP1 SLOAD DUP1 PUSH1 0x20 MUL PUSH1 0x20 ADD PUSH1 0x40 MLOAD SWAP1 DUP2 ADD PUSH1 0x40 MSTORE DUP1 SWAP3 SWAP2 SWAP1 DUP2 DUP2 MSTORE PUSH1 0x20 ADD DUP3 DUP1 SLOAD DUP1 ISZERO PUSH2 0xA90 JUMPI PUSH1 0x20 MUL DUP3 ADD SWAP2 SWAP1 PUSH1 0x0 MSTORE PUSH1 0x20 PUSH1 0x0 KECCAK256 SWAP1 JUMPDEST DUP2 SLOAD DUP2 MSTORE PUSH1 0x20 ADD SWAP1 PUSH1 0x1 ADD SWAP1 DUP1 DUP4 GT PUSH2 0xA7C JUMPI JUMPDEST POP POP POP POP POP SWAP3 POP DUP2 DUP1 SLOAD DUP1 PUSH1 0x20 MUL PUSH1 0x20 ADD PUSH1 0x40 MLOAD SWAP1 DUP2 ADD PUSH1 0x40 MSTORE DUP1 SWAP3 SWAP2 SWAP1 DUP2 DUP2 MSTORE PUSH1 0x20 ADD PUSH1 0x0 SWAP1 JUMPDEST DUP3 DUP3 LT ISZERO PUSH2 0xB74 JUMPI DUP4 DUP3 SWAP1 PUSH1 0x0 MSTORE PUSH1 0x20 PUSH1 0x0 KECCAK256 ADD DUP1 SLOAD PUSH1 0x1 DUP2 PUSH1 0x1 AND ISZERO PUSH2 0x100 MUL SUB AND PUSH1 0x2 SWAP1 DIV DUP1 PUSH1 0x1F ADD PUSH1 0x20 DUP1 SWAP2 DIV MUL PUSH1 0x20 ADD PUSH1 0x40 MLOAD SWAP1 DUP2 ADD PUSH1 0x40 MSTORE DUP1 SWAP3 SWAP2 SWAP1 DUP2 DUP2 MSTORE PUSH1 0x20 ADD DUP3 DUP1 SLOAD PUSH1 0x1 DUP2 PUSH1 0x1 AND ISZERO PUSH2 0x100 MUL SUB AND PUSH1 0x2 SWAP1 DIV DUP1 ISZERO PUSH2 0xB60 JUMPI DUP1 PUSH1 0x1F LT PUSH2 0xB35 JUMPI PUSH2 0x100 DUP1 DUP4 SLOAD DIV MUL DUP4 MSTORE SWAP2 PUSH1 0x20 ADD SWAP2 PUSH2 0xB60 JUMP JUMPDEST DUP3 ADD SWAP2 SWAP1 PUSH1 0x0 MSTORE PUSH1 0x20 PUSH1 0x0 KECCAK256 SWAP1 JUMPDEST DUP2 SLOAD DUP2 MSTORE SWAP1 PUSH1 0x1 ADD SWAP1 PUSH1 0x20 ADD DUP1 DUP4 GT PUSH2 0xB43 JUMPI DUP3 SWAP1 SUB PUSH1 0x1F AND DUP3 ADD SWAP2 JUMPDEST POP POP POP POP POP DUP2 MSTORE PUSH1 0x20 ADD SWAP1 PUSH1 0x1 ADD SWAP1 PUSH2 0xAB8 JUMP JUMPDEST POP POP POP POP SWAP2 POP DUP1 DUP1 SLOAD DUP1 PUSH1 0x20 MUL PUSH1 0x20 ADD PUSH1 0x40 MLOAD SWAP1 DUP2 ADD PUSH1 0x40 MSTORE DUP1 SWAP3 SWAP2 SWAP1 DUP2 DUP2 MSTORE PUSH1 0x20 ADD PUSH1 0x0 SWAP1 JUMPDEST DUP3 DUP3 LT ISZERO PUSH2 0xC57 JUMPI DUP4 DUP3 SWAP1 PUSH1 0x0 MSTORE PUSH1 0x20 PUSH1 0x0 KECCAK256 ADD DUP1 SLOAD PUSH1 0x1 DUP2 PUSH1 0x1 AND ISZERO PUSH2 0x100 MUL SUB AND PUSH1 0x2 SWAP1 DIV DUP1 PUSH1 0x1F ADD PUSH1 0x20 DUP1 SWAP2 DIV MUL PUSH1 0x20 ADD PUSH1 0x40 MLOAD SWAP1 DUP2 ADD PUSH1 0x40 MSTORE DUP1 SWAP3 SWAP2 SWAP1 DUP2 DUP2 MSTORE PUSH1 0x20 ADD DUP3 DUP1 SLOAD PUSH1 0x1 DUP2 PUSH1 0x1 AND ISZERO PUSH2 0x100 MUL SUB AND PUSH1 0x2 SWAP1 DIV DUP1 ISZERO PUSH2 0xC43 JUMPI DUP1 PUSH1 0x1F LT PUSH2 0xC18 JUMPI PUSH2 0x100 DUP1 DUP4 SLOAD DIV MUL DUP4 MSTORE SWAP2 PUSH1 0x20 ADD SWAP2 PUSH2 0xC43 JUMP JUMPDEST DUP3 ADD SWAP2 SWAP1 PUSH1 0x0 MSTORE PUSH1 0x20 PUSH1 0x0 KECCAK256 SWAP1 JUMPDEST DUP2 SLOAD DUP2 MSTORE SWAP1 PUSH1 0x1 ADD SWAP1 PUSH1 0x20 ADD DUP1 DUP4 GT PUSH2 0xC26 JUMPI DUP3 SWAP1 SUB PUSH1 0x1F AND DUP3 ADD SWAP2 JUMPDEST POP POP POP POP POP DUP2 MSTORE PUSH1 0x20 ADD SWAP1 PUSH1 0x1 ADD SWAP1 PUSH2 0xB9B JUMP JUMPDEST POP POP POP POP SWAP1 POP SWAP5 POP SWAP5 POP SWAP5 POP SWAP5 POP POP SWAP2 SWAP4 POP SWAP2 SWAP4 JUMP JUMPDEST PUSH1 0x0 PUSH1 0x1 SWAP1 POP SWAP1 JUMP JUMPDEST PUSH1 0x0 DUP2 PUSH1 0x4 SLOAD LT ISZERO DUP1 ISZERO PUSH2 0xC8A JUMPI POP PUSH1 0x0 DUP3 GT JUMPDEST PUSH2 0xCC9 JUMPI PUSH1 0x40 MLOAD PUSH32 0x8C379A000000000000000000000000000000000000000000000000000000000 DUP2 MSTORE PUSH1 0x4 ADD PUSH2 0xCC0 SWAP1 PUSH2 0x4C66 JUMP JUMPDEST PUSH1 0x40 MLOAD DUP1 SWAP2 SUB SWAP1 REVERT JUMPDEST PUSH1 0x0 PUSH1 0x5 PUSH1 0x0 DUP5 DUP2 MSTORE PUSH1 0x20 ADD SWAP1 DUP2 MSTORE PUSH1 0x20 ADD PUSH1 0x0 KECCAK256 SWAP1 POP DUP1 PUSH1 0xD ADD PUSH1 0x0 SWAP1 SLOAD SWAP1 PUSH2 0x100 EXP SWAP1 DIV PUSH1 0xFF AND ISZERO PUSH2 0xD01 JUMPI PUSH1 0x2 SWAP2 POP POP PUSH2 0xE52 JUMP JUMPDEST DUP1 PUSH1 0x7 ADD SLOAD NUMBER GT PUSH2 0xD16 JUMPI PUSH1 0x0 SWAP2 POP POP PUSH2 0xE52 JUMP JUMPDEST DUP1 PUSH1 0x8 ADD SLOAD NUMBER GT PUSH2 0xD2B JUMPI PUSH1 0x1 SWAP2 POP POP PUSH2 0xE52 JUMP JUMPDEST DUP1 PUSH1 0xA ADD SLOAD DUP2 PUSH1 0x9 ADD SLOAD GT ISZERO DUP1 PUSH2 0xD49 JUMPI POP DUP1 PUSH1 0xC ADD SLOAD DUP2 PUSH1 0x9 ADD SLOAD LT JUMPDEST ISZERO PUSH2 0xD58 JUMPI PUSH1 0x3 SWAP2 POP POP PUSH2 0xE52 JUMP JUMPDEST PUSH1 0x0 DUP2 PUSH1 0x2 ADD SLOAD EQ ISZERO PUSH2 0xD6F JUMPI PUSH1 0x4 SWAP2 POP POP PUSH2 0xE52 JUMP JUMPDEST DUP1 PUSH1 0xD ADD PUSH1 0x1 SWAP1 SLOAD SWAP1 PUSH2 0x100 EXP SWAP1 DIV PUSH1 0xFF AND ISZERO PUSH2 0xD90 JUMPI PUSH1 0x7 SWAP2 POP POP PUSH2 0xE52 JUMP JUMPDEST PUSH2 0xE3C DUP2 PUSH1 0x2 ADD SLOAD PUSH1 0x0 DUP1 SWAP1 SLOAD SWAP1 PUSH2 0x100 EXP SWAP1 DIV PUSH20 0xFFFFFFFFFFFFFFFFFFFFFFFFFFFFFFFFFFFFFFFF AND PUSH20 0xFFFFFFFFFFFFFFFFFFFFFFFFFFFFFFFFFFFFFFFF AND PUSH4 0xC1A287E2 PUSH1 0x40 MLOAD DUP2 PUSH4 0xFFFFFFFF AND PUSH1 0xE0 SHL DUP2 MSTORE PUSH1 0x4 ADD PUSH1 0x20 PUSH1 0x40 MLOAD DUP1 DUP4 SUB DUP2 DUP7 DUP1 EXTCODESIZE ISZERO DUP1 ISZERO PUSH2 0xDFF JUMPI PUSH1 0x0 DUP1 REVERT JUMPDEST POP GAS STATICCALL ISZERO DUP1 ISZERO PUSH2 0xE13 JUMPI RETURNDATASIZE PUSH1 0x0 DUP1 RETURNDATACOPY RETURNDATASIZE PUSH1 0x0 REVERT JUMPDEST POP POP POP POP PUSH1 0x40 MLOAD RETURNDATASIZE PUSH1 0x1F NOT PUSH1 0x1F DUP3 ADD AND DUP3 ADD DUP1 PUSH1 0x40 MSTORE POP PUSH2 0xE37 SWAP2 SWAP1 DUP2 ADD SWAP1 PUSH2 0x3617 JUMP JUMPDEST PUSH2 0x2833 JUMP JUMPDEST TIMESTAMP LT PUSH2 0xE4C JUMPI PUSH1 0x6 SWAP2 POP POP PUSH2 0xE52 JUMP JUMPDEST PUSH1 0x5 SWAP2 POP POP JUMPDEST SWAP2 SWAP1 POP JUMP JUMPDEST PUSH1 0x0 PUSH2 0xE62 DUP3 PUSH2 0xC76 JUMP JUMPDEST SWAP1 POP PUSH1 0x7 DUP1 DUP2 GT ISZERO PUSH2 0xE70 JUMPI INVALID JUMPDEST DUP2 PUSH1 0x7 DUP2 GT ISZERO PUSH2 0xE7C JUMPI INVALID JUMPDEST EQ ISZERO PUSH2 0xEBD JUMPI PUSH1 0x40 MLOAD PUSH32 0x8C379A000000000000000000000000000000000000000000000000000000000 DUP2 MSTORE PUSH1 0x4 ADD PUSH2 0xEB4 SWAP1 PUSH2 0x4E26 JUMP JUMPDEST PUSH1 0x40 MLOAD DUP1 SWAP2 SUB SWAP1 REVERT JUMPDEST PUSH1 0x0 PUSH1 0x5 PUSH1 0x0 DUP5 DUP2 MSTORE PUSH1 0x20 ADD SWAP1 DUP2 MSTORE PUSH1 0x20 ADD PUSH1 0x0 KECCAK256 SWAP1 POP PUSH1 0x3 PUSH1 0x0 SWAP1 SLOAD SWAP1 PUSH2 0x100 EXP SWAP1 DIV PUSH20 0xFFFFFFFFFFFFFFFFFFFFFFFFFFFFFFFFFFFFFFFF AND PUSH20 0xFFFFFFFFFFFFFFFFFFFFFFFFFFFFFFFFFFFFFFFF AND CALLER PUSH20 0xFFFFFFFFFFFFFFFFFFFFFFFFFFFFFFFFFFFFFFFF AND EQ DUP1 PUSH2 0x100D JUMPI POP DUP1 PUSH1 0xB ADD SLOAD PUSH1 0x1 PUSH1 0x0 SWAP1 SLOAD SWAP1 PUSH2 0x100 EXP SWAP1 DIV PUSH20 0xFFFFFFFFFFFFFFFFFFFFFFFFFFFFFFFFFFFFFFFF AND PUSH20 0xFFFFFFFFFFFFFFFFFFFFFFFFFFFFFFFFFFFFFFFF AND PUSH4 0x782D6FE1 DUP4 PUSH1 0x1 ADD PUSH1 0x0 SWAP1 SLOAD SWAP1 PUSH2 0x100 EXP SWAP1 DIV PUSH20 0xFFFFFFFFFFFFFFFFFFFFFFFFFFFFFFFFFFFFFFFF AND PUSH2 0xF9E NUMBER PUSH1 0x1 PUSH2 0x2888 JUMP JUMPDEST PUSH1 0x40 MLOAD DUP4 PUSH4 0xFFFFFFFF AND PUSH1 0xE0 SHL DUP2 MSTORE PUSH1 0x4 ADD PUSH2 0xFBB SWAP3 SWAP2 SWAP1 PUSH2 0x48CB JUMP JUMPDEST PUSH1 0x20 PUSH1 0x40 MLOAD DUP1 DUP4 SUB DUP2 DUP7 DUP1 EXTCODESIZE ISZERO DUP1 ISZERO PUSH2 0xFD3 JUMPI PUSH1 0x0 DUP1 REVERT JUMPDEST POP GAS STATICCALL ISZERO DUP1 ISZERO PUSH2 0xFE7 JUMPI RETURNDATASIZE PUSH1 0x0 DUP1 RETURNDATACOPY RETURNDATASIZE PUSH1 0x0 REVERT JUMPDEST POP POP POP POP PUSH1 0x40 MLOAD RETURNDATASIZE PUSH1 0x1F NOT PUSH1 0x1F DUP3 ADD AND DUP3 ADD DUP1 PUSH1 0x40 MSTORE POP PUSH2 0x100B SWAP2 SWAP1 DUP2 ADD SWAP1 PUSH2 0x3617 JUMP JUMPDEST LT JUMPDEST PUSH2 0x104C JUMPI PUSH1 0x40 MLOAD PUSH32 0x8C379A000000000000000000000000000000000000000000000000000000000 DUP2 MSTORE PUSH1 0x4 ADD PUSH2 0x1043 SWAP1 PUSH2 0x4D46 JUMP JUMPDEST PUSH1 0x40 MLOAD DUP1 SWAP2 SUB SWAP1 REVERT JUMPDEST PUSH1 0x1 DUP2 PUSH1 0xD ADD PUSH1 0x0 PUSH2 0x100 EXP DUP2 SLOAD DUP2 PUSH1 0xFF MUL NOT AND SWAP1 DUP4 ISZERO ISZERO MUL OR SWAP1 SSTORE POP PUSH1 0x0 DUP1 SWAP1 POP JUMPDEST DUP2 PUSH1 0x3 ADD DUP1 SLOAD SWAP1 POP DUP2 LT ISZERO PUSH2 0x11A5 JUMPI PUSH1 0x0 DUP1 SWAP1 SLOAD SWAP1 PUSH2 0x100 EXP SWAP1 DIV PUSH20 0xFFFFFFFFFFFFFFFFFFFFFFFFFFFFFFFFFFFFFFFF AND PUSH20 0xFFFFFFFFFFFFFFFFFFFFFFFFFFFFFFFFFFFFFFFF AND PUSH4 0x591FCDFE DUP4 PUSH1 0x3 ADD DUP4 DUP2 SLOAD DUP2 LT PUSH2 0x10CA JUMPI INVALID JUMPDEST SWAP1 PUSH1 0x0 MSTORE PUSH1 0x20 PUSH1 0x0 KECCAK256 ADD PUSH1 0x0 SWAP1 SLOAD SWAP1 PUSH2 0x100 EXP SWAP1 DIV PUSH20 0xFFFFFFFFFFFFFFFFFFFFFFFFFFFFFFFFFFFFFFFF AND DUP5 PUSH1 0x4 ADD DUP5 DUP2 SLOAD DUP2 LT PUSH2 0x1104 JUMPI INVALID JUMPDEST SWAP1 PUSH1 0x0 MSTORE PUSH1 0x20 PUSH1 0x0 KECCAK256 ADD SLOAD DUP6 PUSH1 0x5 ADD DUP6 DUP2 SLOAD DUP2 LT PUSH2 0x111E JUMPI INVALID JUMPDEST SWAP1 PUSH1 0x0 MSTORE PUSH1 0x20 PUSH1 0x0 KECCAK256 ADD DUP7 PUSH1 0x6 ADD DUP7 DUP2 SLOAD DUP2 LT PUSH2 0x1137 JUMPI INVALID JUMPDEST SWAP1 PUSH1 0x0 MSTORE PUSH1 0x20 PUSH1 0x0 KECCAK256 ADD DUP8 PUSH1 0x2 ADD SLOAD PUSH1 0x40 MLOAD DUP7 PUSH4 0xFFFFFFFF AND PUSH1 0xE0 SHL DUP2 MSTORE PUSH1 0x4 ADD PUSH2 0x1166 SWAP6 SWAP5 SWAP4 SWAP3 SWAP2 SWAP1 PUSH2 0x499A JUMP JUMPDEST PUSH1 0x0 PUSH1 0x40 MLOAD DUP1 DUP4 SUB DUP2 PUSH1 0x0 DUP8 DUP1 EXTCODESIZE ISZERO DUP1 ISZERO PUSH2 0x1180 JUMPI PUSH1 0x0 DUP1 REVERT JUMPDEST POP GAS CALL ISZERO DUP1 ISZERO PUSH2 0x1194 JUMPI RETURNDATASIZE PUSH1 0x0 DUP1 RETURNDATACOPY RETURNDATASIZE PUSH1 0x0 REVERT JUMPDEST POP POP POP POP DUP1 DUP1 PUSH1 0x1 ADD SWAP2 POP POP PUSH2 0x106F JUMP JUMPDEST POP PUSH32 0x789CF55BE980739DAD1D0699B93B58E806B51C9D96619BFA8FE0A28ABAA7B30C DUP4 PUSH1 0x40 MLOAD PUSH2 0x11D5 SWAP2 SWAP1 PUSH2 0x4EC1 JUMP JUMPDEST PUSH1 0x40 MLOAD DUP1 SWAP2 SUB SWAP1 LOG1 POP POP POP JUMP JUMPDEST PUSH1 0x3 PUSH1 0x0 SWAP1 SLOAD SWAP1 PUSH2 0x100 EXP SWAP1 DIV PUSH20 0xFFFFFFFFFFFFFFFFFFFFFFFFFFFFFFFFFFFFFFFF AND DUP2 JUMP JUMPDEST PUSH1 0x0 PUSH1 0x40 MLOAD PUSH2 0x1216 SWAP1 PUSH2 0x47FE JUMP JUMPDEST PUSH1 0x40 MLOAD DUP1 SWAP2 SUB SWAP1 KECCAK256 PUSH1 0x40 MLOAD DUP1 PUSH1 0x40 ADD PUSH1 0x40 MSTORE DUP1 PUSH1 0x17 DUP2 MSTORE PUSH1 0x20 ADD PUSH32 0x46697363757320476F7665726E6F722046495343656761000000000000000000 DUP2 MSTORE POP DUP1 MLOAD SWAP1 PUSH1 0x20 ADD KECCAK256 PUSH2 0x1263 PUSH2 0x28D8 JUMP JUMPDEST ADDRESS PUSH1 0x40 MLOAD PUSH1 0x20 ADD PUSH2 0x1277 SWAP5 SWAP4 SWAP3 SWAP2 SWAP1 PUSH2 0x4A77 JUMP JUMPDEST PUSH1 0x40 MLOAD PUSH1 0x20 DUP2 DUP4 SUB SUB DUP2 MSTORE SWAP1 PUSH1 0x40 MSTORE DUP1 MLOAD SWAP1 PUSH1 0x20 ADD KECCAK256 SWAP1 POP PUSH1 0x0 PUSH1 0x40 MLOAD PUSH2 0x129D SWAP1 PUSH2 0x4813 JUMP JUMPDEST PUSH1 0x40 MLOAD DUP1 SWAP2 SUB SWAP1 KECCAK256 DUP8 DUP8 PUSH1 0x40 MLOAD PUSH1 0x20 ADD PUSH2 0x12B9 SWAP4 SWAP3 SWAP2 SWAP1 PUSH2 0x4ABC JUMP JUMPDEST PUSH1 0x40 MLOAD PUSH1 0x20 DUP2 DUP4 SUB SUB DUP2 MSTORE SWAP1 PUSH1 0x40 MSTORE DUP1 MLOAD SWAP1 PUSH1 0x20 ADD KECCAK256 SWAP1 POP PUSH1 0x0 DUP3 DUP3 PUSH1 0x40 MLOAD PUSH1 0x20 ADD PUSH2 0x12E6 SWAP3 SWAP2 SWAP1 PUSH2 0x47C7 JUMP JUMPDEST PUSH1 0x40 MLOAD PUSH1 0x20 DUP2 DUP4 SUB SUB DUP2 MSTORE SWAP1 PUSH1 0x40 MSTORE DUP1 MLOAD SWAP1 PUSH1 0x20 ADD KECCAK256 SWAP1 POP PUSH1 0x0 PUSH1 0x1 DUP3 DUP9 DUP9 DUP9 PUSH1 0x40 MLOAD PUSH1 0x0 DUP2 MSTORE PUSH1 0x20 ADD PUSH1 0x40 MSTORE PUSH1 0x40 MLOAD PUSH2 0x1323 SWAP5 SWAP4 SWAP3 SWAP2 SWAP1 PUSH2 0x4AF3 JUMP JUMPDEST PUSH1 0x20 PUSH1 0x40 MLOAD PUSH1 0x20 DUP2 SUB SWAP1 DUP1 DUP5 SUB SWAP1 DUP6 GAS STATICCALL ISZERO DUP1 ISZERO PUSH2 0x1345 JUMPI RETURNDATASIZE PUSH1 0x0 DUP1 RETURNDATACOPY RETURNDATASIZE PUSH1 0x0 REVERT JUMPDEST POP POP POP PUSH1 0x20 PUSH1 0x40 MLOAD SUB MLOAD SWAP1 POP PUSH1 0x0 PUSH20 0xFFFFFFFFFFFFFFFFFFFFFFFFFFFFFFFFFFFFFFFF AND DUP2 PUSH20 0xFFFFFFFFFFFFFFFFFFFFFFFFFFFFFFFFFFFFFFFF AND EQ ISZERO PUSH2 0x13C1 JUMPI PUSH1 0x40 MLOAD PUSH32 0x8C379A000000000000000000000000000000000000000000000000000000000 DUP2 MSTORE PUSH1 0x4 ADD PUSH2 0x13B8 SWAP1 PUSH2 0x4DC6 JUMP JUMPDEST PUSH1 0x40 MLOAD DUP1 SWAP2 SUB SWAP1 REVERT JUMPDEST PUSH2 0x13CC DUP2 DUP11 DUP11 PUSH2 0x25AA JUMP JUMPDEST POP POP POP POP POP POP POP POP POP JUMP JUMPDEST PUSH1 0x2 PUSH1 0x0 SWAP1 SLOAD SWAP1 PUSH2 0x100 EXP SWAP1 DIV PUSH20 0xFFFFFFFFFFFFFFFFFFFFFFFFFFFFFFFFFFFFFFFF AND DUP2 JUMP JUMPDEST PUSH1 0x3 PUSH1 0x0 SWAP1 SLOAD SWAP1 PUSH2 0x100 EXP SWAP1 DIV PUSH20 0xFFFFFFFFFFFFFFFFFFFFFFFFFFFFFFFFFFFFFFFF AND PUSH20 0xFFFFFFFFFFFFFFFFFFFFFFFFFFFFFFFFFFFFFFFF AND CALLER PUSH20 0xFFFFFFFFFFFFFFFFFFFFFFFFFFFFFFFFFFFFFFFF AND EQ PUSH2 0x148D JUMPI PUSH1 0x40 MLOAD PUSH32 0x8C379A000000000000000000000000000000000000000000000000000000000 DUP2 MSTORE PUSH1 0x4 ADD PUSH2 0x1484 SWAP1 PUSH2 0x4E86 JUMP JUMPDEST PUSH1 0x40 MLOAD DUP1 SWAP2 SUB SWAP1 REVERT JUMPDEST PUSH1 0x0 PUSH1 0x3 PUSH1 0x0 PUSH2 0x100 EXP DUP2 SLOAD DUP2 PUSH20 0xFFFFFFFFFFFFFFFFFFFFFFFFFFFFFFFFFFFFFFFF MUL NOT AND SWAP1 DUP4 PUSH20 0xFFFFFFFFFFFFFFFFFFFFFFFFFFFFFFFFFFFFFFFF AND MUL OR SWAP1 SSTORE POP JUMP JUMPDEST PUSH1 0x0 PUSH1 0xA SWAP1 POP SWAP1 JUMP JUMPDEST PUSH1 0x3 PUSH1 0x0 SWAP1 SLOAD SWAP1 PUSH2 0x100 EXP SWAP1 DIV PUSH20 0xFFFFFFFFFFFFFFFFFFFFFFFFFFFFFFFFFFFFFFFF AND PUSH20 0xFFFFFFFFFFFFFFFFFFFFFFFFFFFFFFFFFFFFFFFF AND CALLER PUSH20 0xFFFFFFFFFFFFFFFFFFFFFFFFFFFFFFFFFFFFFFFF AND EQ PUSH2 0x156A JUMPI PUSH1 0x40 MLOAD PUSH32 0x8C379A000000000000000000000000000000000000000000000000000000000 DUP2 MSTORE PUSH1 0x4 ADD PUSH2 0x1561 SWAP1 PUSH2 0x4CC6 JUMP JUMPDEST PUSH1 0x40 MLOAD DUP1 SWAP2 SUB SWAP1 REVERT JUMPDEST PUSH1 0x0 DUP1 SWAP1 SLOAD SWAP1 PUSH2 0x100 EXP SWAP1 DIV PUSH20 0xFFFFFFFFFFFFFFFFFFFFFFFFFFFFFFFFFFFFFFFF AND PUSH20 0xFFFFFFFFFFFFFFFFFFFFFFFFFFFFFFFFFFFFFFFF AND PUSH4 0x3A66F901 PUSH1 0x0 DUP1 SWAP1 SLOAD SWAP1 PUSH2 0x100 EXP SWAP1 DIV PUSH20 0xFFFFFFFFFFFFFFFFFFFFFFFFFFFFFFFFFFFFFFFF AND PUSH1 0x0 DUP6 PUSH1 0x40 MLOAD PUSH1 0x20 ADD PUSH2 0x15DC SWAP2 SWAP1 PUSH2 0x4828 JUMP JUMPDEST PUSH1 0x40 MLOAD PUSH1 0x20 DUP2 DUP4 SUB SUB DUP2 MSTORE SWAP1 PUSH1 0x40 MSTORE DUP6 PUSH1 0x40 MLOAD DUP6 PUSH4 0xFFFFFFFF AND PUSH1 0xE0 SHL DUP2 MSTORE PUSH1 0x4 ADD PUSH2 0x160B SWAP5 SWAP4 SWAP3 SWAP2 SWAP1 PUSH2 0x486C JUMP JUMPDEST PUSH1 0x20 PUSH1 0x40 MLOAD DUP1 DUP4 SUB DUP2 PUSH1 0x0 DUP8 DUP1 EXTCODESIZE ISZERO DUP1 ISZERO PUSH2 0x1625 JUMPI PUSH1 0x0 DUP1 REVERT JUMPDEST POP GAS CALL ISZERO DUP1 ISZERO PUSH2 0x1639 JUMPI RETURNDATASIZE PUSH1 0x0 DUP1 RETURNDATACOPY RETURNDATASIZE PUSH1 0x0 REVERT JUMPDEST POP POP POP POP PUSH1 0x40 MLOAD RETURNDATASIZE PUSH1 0x1F NOT PUSH1 0x1F DUP3 ADD AND DUP3 ADD DUP1 PUSH1 0x40 MSTORE POP PUSH2 0x165D SWAP2 SWAP1 DUP2 ADD SWAP1 PUSH2 0x3584 JUMP JUMPDEST POP POP POP JUMP JUMPDEST PUSH1 0x0 PUSH2 0x2710 SWAP1 POP SWAP1 JUMP JUMPDEST PUSH1 0x3 PUSH1 0x0 SWAP1 SLOAD SWAP1 PUSH2 0x100 EXP SWAP1 DIV PUSH20 0xFFFFFFFFFFFFFFFFFFFFFFFFFFFFFFFFFFFFFFFF AND PUSH20 0xFFFFFFFFFFFFFFFFFFFFFFFFFFFFFFFFFFFFFFFF AND CALLER PUSH20 0xFFFFFFFFFFFFFFFFFFFFFFFFFFFFFFFFFFFFFFFF AND EQ PUSH2 0x16FC JUMPI PUSH1 0x40 MLOAD PUSH32 0x8C379A000000000000000000000000000000000000000000000000000000000 DUP2 MSTORE PUSH1 0x4 ADD PUSH2 0x16F3 SWAP1 PUSH2 0x4BC6 JUMP JUMPDEST PUSH1 0x40 MLOAD DUP1 SWAP2 SUB SWAP1 REVERT JUMPDEST PUSH1 0x0 DUP1 SWAP1 SLOAD SWAP1 PUSH2 0x100 EXP SWAP1 DIV PUSH20 0xFFFFFFFFFFFFFFFFFFFFFFFFFFFFFFFFFFFFFFFF AND PUSH20 0xFFFFFFFFFFFFFFFFFFFFFFFFFFFFFFFFFFFFFFFF AND PUSH4 0xE18B681 PUSH1 0x40 MLOAD DUP2 PUSH4 0xFFFFFFFF AND PUSH1 0xE0 SHL DUP2 MSTORE PUSH1 0x4 ADD PUSH1 0x0 PUSH1 0x40 MLOAD DUP1 DUP4 SUB DUP2 PUSH1 0x0 DUP8 DUP1 EXTCODESIZE ISZERO DUP1 ISZERO PUSH2 0x1765 JUMPI PUSH1 0x0 DUP1 REVERT JUMPDEST POP GAS CALL ISZERO DUP1 ISZERO PUSH2 0x1779 JUMPI RETURNDATASIZE PUSH1 0x0 DUP1 RETURNDATACOPY RETURNDATASIZE PUSH1 0x0 REVERT JUMPDEST POP POP POP POP JUMP JUMPDEST PUSH1 0x0 DUP1 SWAP1 SLOAD SWAP1 PUSH2 0x100 EXP SWAP1 DIV PUSH20 0xFFFFFFFFFFFFFFFFFFFFFFFFFFFFFFFFFFFFFFFF AND DUP2 JUMP JUMPDEST PUSH1 0x1 PUSH1 0x0 SWAP1 SLOAD SWAP1 PUSH2 0x100 EXP SWAP1 DIV PUSH20 0xFFFFFFFFFFFFFFFFFFFFFFFFFFFFFFFFFFFFFFFF AND DUP2 JUMP JUMPDEST PUSH1 0x4 SLOAD DUP2 JUMP JUMPDEST PUSH1 0x0 PUSH2 0x17E2 PUSH2 0x17DD PUSH2 0x1662 JUMP JUMPDEST PUSH2 0x21EB JUMP JUMPDEST PUSH1 0x1 PUSH1 0x0 SWAP1 SLOAD SWAP1 PUSH2 0x100 EXP SWAP1 DIV PUSH20 0xFFFFFFFFFFFFFFFFFFFFFFFFFFFFFFFFFFFFFFFF AND PUSH20 0xFFFFFFFFFFFFFFFFFFFFFFFFFFFFFFFFFFFFFFFF AND PUSH4 0x782D6FE1 CALLER PUSH2 0x182C NUMBER PUSH1 0x1 PUSH2 0x2888 JUMP JUMPDEST PUSH1 0x40 MLOAD DUP4 PUSH4 0xFFFFFFFF AND PUSH1 0xE0 SHL DUP2 MSTORE PUSH1 0x4 ADD PUSH2 0x1849 SWAP3 SWAP2 SWAP1 PUSH2 0x4843 JUMP JUMPDEST PUSH1 0x20 PUSH1 0x40 MLOAD DUP1 DUP4 SUB DUP2 DUP7 DUP1 EXTCODESIZE ISZERO DUP1 ISZERO PUSH2 0x1861 JUMPI PUSH1 0x0 DUP1 REVERT JUMPDEST POP GAS STATICCALL ISZERO DUP1 ISZERO PUSH2 0x1875 JUMPI RETURNDATASIZE PUSH1 0x0 DUP1 RETURNDATACOPY RETURNDATASIZE PUSH1 0x0 REVERT JUMPDEST POP POP POP POP PUSH1 0x40 MLOAD RETURNDATASIZE PUSH1 0x1F NOT PUSH1 0x1F DUP3 ADD AND DUP3 ADD DUP1 PUSH1 0x40 MSTORE POP PUSH2 0x1899 SWAP2 SWAP1 DUP2 ADD SWAP1 PUSH2 0x3617 JUMP JUMPDEST GT PUSH2 0x18D9 JUMPI PUSH1 0x40 MLOAD PUSH32 0x8C379A000000000000000000000000000000000000000000000000000000000 DUP2 MSTORE PUSH1 0x4 ADD PUSH2 0x18D0 SWAP1 PUSH2 0x4DA6 JUMP JUMPDEST PUSH1 0x40 MLOAD DUP1 SWAP2 SUB SWAP1 REVERT JUMPDEST DUP5 MLOAD DUP7 MLOAD EQ DUP1 ISZERO PUSH2 0x18EB JUMPI POP DUP4 MLOAD DUP7 MLOAD EQ JUMPDEST DUP1 ISZERO PUSH2 0x18F8 JUMPI POP DUP3 MLOAD DUP7 MLOAD EQ JUMPDEST PUSH2 0x1937 JUMPI PUSH1 0x40 MLOAD PUSH32 0x8C379A000000000000000000000000000000000000000000000000000000000 DUP2 MSTORE PUSH1 0x4 ADD PUSH2 0x192E SWAP1 PUSH2 0x4D26 JUMP JUMPDEST PUSH1 0x40 MLOAD DUP1 SWAP2 SUB SWAP1 REVERT JUMPDEST PUSH1 0x0 DUP7 MLOAD EQ ISZERO PUSH2 0x197C JUMPI PUSH1 0x40 MLOAD PUSH32 0x8C379A000000000000000000000000000000000000000000000000000000000 DUP2 MSTORE PUSH1 0x4 ADD PUSH2 0x1973 SWAP1 PUSH2 0x4D86 JUMP JUMPDEST PUSH1 0x40 MLOAD DUP1 SWAP2 SUB SWAP1 REVERT JUMPDEST PUSH2 0x1984 PUSH2 0x14D1 JUMP JUMPDEST DUP7 MLOAD GT ISZERO PUSH2 0x19C7 JUMPI PUSH1 0x40 MLOAD PUSH32 0x8C379A000000000000000000000000000000000000000000000000000000000 DUP2 MSTORE PUSH1 0x4 ADD PUSH2 0x19BE SWAP1 PUSH2 0x4CE6 JUMP JUMPDEST PUSH1 0x40 MLOAD DUP1 SWAP2 SUB SWAP1 REVERT JUMPDEST PUSH1 0x0 PUSH1 0x6 PUSH1 0x0 CALLER PUSH20 0xFFFFFFFFFFFFFFFFFFFFFFFFFFFFFFFFFFFFFFFF AND PUSH20 0xFFFFFFFFFFFFFFFFFFFFFFFFFFFFFFFFFFFFFFFF AND DUP2 MSTORE PUSH1 0x20 ADD SWAP1 DUP2 MSTORE PUSH1 0x20 ADD PUSH1 0x0 KECCAK256 SLOAD SWAP1 POP PUSH1 0x0 DUP2 EQ PUSH2 0x1AD6 JUMPI PUSH1 0x0 PUSH2 0x1A1E DUP3 PUSH2 0xC76 JUMP JUMPDEST SWAP1 POP PUSH1 0x1 PUSH1 0x7 DUP2 GT ISZERO PUSH2 0x1A2D JUMPI INVALID JUMPDEST DUP2 PUSH1 0x7 DUP2 GT ISZERO PUSH2 0x1A39 JUMPI INVALID JUMPDEST EQ ISZERO PUSH2 0x1A7A JUMPI PUSH1 0x40 MLOAD PUSH32 0x8C379A000000000000000000000000000000000000000000000000000000000 DUP2 MSTORE PUSH1 0x4 ADD PUSH2 0x1A71 SWAP1 PUSH2 0x4E06 JUMP JUMPDEST PUSH1 0x40 MLOAD DUP1 SWAP2 SUB SWAP1 REVERT JUMPDEST PUSH1 0x0 PUSH1 0x7 DUP2 GT ISZERO PUSH2 0x1A87 JUMPI INVALID JUMPDEST DUP2 PUSH1 0x7 DUP2 GT ISZERO PUSH2 0x1A93 JUMPI INVALID JUMPDEST EQ ISZERO PUSH2 0x1AD4 JUMPI PUSH1 0x40 MLOAD PUSH32 0x8C379A000000000000000000000000000000000000000000000000000000000 DUP2 MSTORE PUSH1 0x4 ADD PUSH2 0x1ACB SWAP1 PUSH2 0x4CA6 JUMP JUMPDEST PUSH1 0x40 MLOAD DUP1 SWAP2 SUB SWAP1 REVERT JUMPDEST POP JUMPDEST PUSH1 0x0 PUSH2 0x1AE9 NUMBER PUSH2 0x1AE4 PUSH2 0xC6D JUMP JUMPDEST PUSH2 0x2833 JUMP JUMPDEST SWAP1 POP PUSH1 0x0 PUSH2 0x1AFE DUP3 PUSH2 0x1AF9 PUSH2 0x782 JUMP JUMPDEST PUSH2 0x2833 JUMP JUMPDEST SWAP1 POP PUSH1 0x4 PUSH1 0x0 DUP2 SLOAD DUP1 SWAP3 SWAP2 SWAP1 PUSH1 0x1 ADD SWAP2 SWAP1 POP SSTORE POP PUSH2 0x1B1A PUSH2 0x2B85 JUMP JUMPDEST PUSH1 0x40 MLOAD DUP1 PUSH2 0x1E0 ADD PUSH1 0x40 MSTORE DUP1 PUSH1 0x4 SLOAD DUP2 MSTORE PUSH1 0x20 ADD CALLER PUSH20 0xFFFFFFFFFFFFFFFFFFFFFFFFFFFFFFFFFFFFFFFF AND DUP2 MSTORE PUSH1 0x20 ADD PUSH1 0x0 DUP2 MSTORE PUSH1 0x20 ADD DUP12 DUP2 MSTORE PUSH1 0x20 ADD DUP11 DUP2 MSTORE PUSH1 0x20 ADD DUP10 DUP2 MSTORE PUSH1 0x20 ADD DUP9 DUP2 MSTORE PUSH1 0x20 ADD DUP5 DUP2 MSTORE PUSH1 0x20 ADD DUP4 DUP2 MSTORE PUSH1 0x20 ADD PUSH1 0x0 DUP2 MSTORE PUSH1 0x20 ADD PUSH1 0x0 DUP2 MSTORE PUSH1 0x20 ADD PUSH2 0x1B93 PUSH2 0x1B8E PUSH2 0x1662 JUMP JUMPDEST PUSH2 0x21EB JUMP JUMPDEST DUP2 MSTORE PUSH1 0x20 ADD PUSH2 0x1BA8 PUSH2 0x1BA3 PUSH2 0x2353 JUMP JUMPDEST PUSH2 0x21EB JUMP JUMPDEST DUP2 MSTORE PUSH1 0x20 ADD PUSH1 0x0 ISZERO ISZERO DUP2 MSTORE PUSH1 0x20 ADD PUSH1 0x0 ISZERO ISZERO DUP2 MSTORE POP SWAP1 POP DUP1 PUSH1 0x5 PUSH1 0x0 DUP4 PUSH1 0x0 ADD MLOAD DUP2 MSTORE PUSH1 0x20 ADD SWAP1 DUP2 MSTORE PUSH1 0x20 ADD PUSH1 0x0 KECCAK256 PUSH1 0x0 DUP3 ADD MLOAD DUP2 PUSH1 0x0 ADD SSTORE PUSH1 0x20 DUP3 ADD MLOAD DUP2 PUSH1 0x1 ADD PUSH1 0x0 PUSH2 0x100 EXP DUP2 SLOAD DUP2 PUSH20 0xFFFFFFFFFFFFFFFFFFFFFFFFFFFFFFFFFFFFFFFF MUL NOT AND SWAP1 DUP4 PUSH20 0xFFFFFFFFFFFFFFFFFFFFFFFFFFFFFFFFFFFFFFFF AND MUL OR SWAP1 SSTORE POP PUSH1 0x40 DUP3 ADD MLOAD DUP2 PUSH1 0x2 ADD SSTORE PUSH1 0x60 DUP3 ADD MLOAD DUP2 PUSH1 0x3 ADD SWAP1 DUP1 MLOAD SWAP1 PUSH1 0x20 ADD SWAP1 PUSH2 0x1C4E SWAP3 SWAP2 SWAP1 PUSH2 0x2C15 JUMP JUMPDEST POP PUSH1 0x80 DUP3 ADD MLOAD DUP2 PUSH1 0x4 ADD SWAP1 DUP1 MLOAD SWAP1 PUSH1 0x20 ADD SWAP1 PUSH2 0x1C6B SWAP3 SWAP2 SWAP1 PUSH2 0x2C9F JUMP JUMPDEST POP PUSH1 0xA0 DUP3 ADD MLOAD DUP2 PUSH1 0x5 ADD SWAP1 DUP1 MLOAD SWAP1 PUSH1 0x20 ADD SWAP1 PUSH2 0x1C88 SWAP3 SWAP2 SWAP1 PUSH2 0x2CEC JUMP JUMPDEST POP PUSH1 0xC0 DUP3 ADD MLOAD DUP2 PUSH1 0x6 ADD SWAP1 DUP1 MLOAD SWAP1 PUSH1 0x20 ADD SWAP1 PUSH2 0x1CA5 SWAP3 SWAP2 SWAP1 PUSH2 0x2D4C JUMP JUMPDEST POP PUSH1 0xE0 DUP3 ADD MLOAD DUP2 PUSH1 0x7 ADD SSTORE PUSH2 0x100 DUP3 ADD MLOAD DUP2 PUSH1 0x8 ADD SSTORE PUSH2 0x120 DUP3 ADD MLOAD DUP2 PUSH1 0x9 ADD SSTORE PUSH2 0x140 DUP3 ADD MLOAD DUP2 PUSH1 0xA ADD SSTORE PUSH2 0x160 DUP3 ADD MLOAD DUP2 PUSH1 0xB ADD SSTORE PUSH2 0x180 DUP3 ADD MLOAD DUP2 PUSH1 0xC ADD SSTORE PUSH2 0x1A0 DUP3 ADD MLOAD DUP2 PUSH1 0xD ADD PUSH1 0x0 PUSH2 0x100 EXP DUP2 SLOAD DUP2 PUSH1 0xFF MUL NOT AND SWAP1 DUP4 ISZERO ISZERO MUL OR SWAP1 SSTORE POP PUSH2 0x1C0 DUP3 ADD MLOAD DUP2 PUSH1 0xD ADD PUSH1 0x1 PUSH2 0x100 EXP DUP2 SLOAD DUP2 PUSH1 0xFF MUL NOT AND SWAP1 DUP4 ISZERO ISZERO MUL OR SWAP1 SSTORE POP SWAP1 POP POP DUP1 PUSH1 0x0 ADD MLOAD PUSH1 0x6 PUSH1 0x0 DUP4 PUSH1 0x20 ADD MLOAD PUSH20 0xFFFFFFFFFFFFFFFFFFFFFFFFFFFFFFFFFFFFFFFF AND PUSH20 0xFFFFFFFFFFFFFFFFFFFFFFFFFFFFFFFFFFFFFFFF AND DUP2 MSTORE PUSH1 0x20 ADD SWAP1 DUP2 MSTORE PUSH1 0x20 ADD PUSH1 0x0 KECCAK256 DUP2 SWAP1 SSTORE POP PUSH32 0x7D84A6263AE0D98D3329BD7B46BB4E8D6F98CD35A7ADB45C274C8B7FD5EBD5E0 DUP2 PUSH1 0x0 ADD MLOAD CALLER DUP13 DUP13 DUP13 DUP13 DUP10 DUP10 DUP15 PUSH1 0x40 MLOAD PUSH2 0x1DBB SWAP10 SWAP9 SWAP8 SWAP7 SWAP6 SWAP5 SWAP4 SWAP3 SWAP2 SWAP1 PUSH2 0x4EDC JUMP JUMPDEST PUSH1 0x40 MLOAD DUP1 SWAP2 SUB SWAP1 LOG1 DUP1 PUSH1 0x0 ADD MLOAD SWAP5 POP POP POP POP POP SWAP6 SWAP5 POP POP POP POP POP JUMP JUMPDEST PUSH1 0x4 PUSH1 0x7 DUP2 GT ISZERO PUSH2 0x1DE4 JUMPI INVALID JUMPDEST PUSH2 0x1DED DUP3 PUSH2 0xC76 JUMP JUMPDEST PUSH1 0x7 DUP2 GT ISZERO PUSH2 0x1DF8 JUMPI INVALID JUMPDEST EQ PUSH2 0x1E38 JUMPI PUSH1 0x40 MLOAD PUSH32 0x8C379A000000000000000000000000000000000000000000000000000000000 DUP2 MSTORE PUSH1 0x4 ADD PUSH2 0x1E2F SWAP1 PUSH2 0x4BE6 JUMP JUMPDEST PUSH1 0x40 MLOAD DUP1 SWAP2 SUB SWAP1 REVERT JUMPDEST PUSH1 0x0 PUSH1 0x5 PUSH1 0x0 DUP4 DUP2 MSTORE PUSH1 0x20 ADD SWAP1 DUP2 MSTORE PUSH1 0x20 ADD PUSH1 0x0 KECCAK256 SWAP1 POP PUSH1 0x0 PUSH2 0x1EF9 TIMESTAMP PUSH1 0x0 DUP1 SWAP1 SLOAD SWAP1 PUSH2 0x100 EXP SWAP1 DIV PUSH20 0xFFFFFFFFFFFFFFFFFFFFFFFFFFFFFFFFFFFFFFFF AND PUSH20 0xFFFFFFFFFFFFFFFFFFFFFFFFFFFFFFFFFFFFFFFF AND PUSH4 0x6A42B8F8 PUSH1 0x40 MLOAD DUP2 PUSH4 0xFFFFFFFF AND PUSH1 0xE0 SHL DUP2 MSTORE PUSH1 0x4 ADD PUSH1 0x20 PUSH1 0x40 MLOAD DUP1 DUP4 SUB DUP2 DUP7 DUP1 EXTCODESIZE ISZERO DUP1 ISZERO PUSH2 0x1EBC JUMPI PUSH1 0x0 DUP1 REVERT JUMPDEST POP GAS STATICCALL ISZERO DUP1 ISZERO PUSH2 0x1ED0 JUMPI RETURNDATASIZE PUSH1 0x0 DUP1 RETURNDATACOPY RETURNDATASIZE PUSH1 0x0 REVERT JUMPDEST POP POP POP POP PUSH1 0x40 MLOAD RETURNDATASIZE PUSH1 0x1F NOT PUSH1 0x1F DUP3 ADD AND DUP3 ADD DUP1 PUSH1 0x40 MSTORE POP PUSH2 0x1EF4 SWAP2 SWAP1 DUP2 ADD SWAP1 PUSH2 0x3617 JUMP JUMPDEST PUSH2 0x2833 JUMP JUMPDEST SWAP1 POP PUSH1 0x0 DUP1 SWAP1 POP JUMPDEST DUP3 PUSH1 0x3 ADD DUP1 SLOAD SWAP1 POP DUP2 LT ISZERO PUSH2 0x20DE JUMPI PUSH2 0x20D1 DUP4 PUSH1 0x3 ADD DUP3 DUP2 SLOAD DUP2 LT PUSH2 0x1F22 JUMPI INVALID JUMPDEST SWAP1 PUSH1 0x0 MSTORE PUSH1 0x20 PUSH1 0x0 KECCAK256 ADD PUSH1 0x0 SWAP1 SLOAD SWAP1 PUSH2 0x100 EXP SWAP1 DIV PUSH20 0xFFFFFFFFFFFFFFFFFFFFFFFFFFFFFFFFFFFFFFFF AND DUP5 PUSH1 0x4 ADD DUP4 DUP2 SLOAD DUP2 LT PUSH2 0x1F5C JUMPI INVALID JUMPDEST SWAP1 PUSH1 0x0 MSTORE PUSH1 0x20 PUSH1 0x0 KECCAK256 ADD SLOAD DUP6 PUSH1 0x5 ADD DUP5 DUP2 SLOAD DUP2 LT PUSH2 0x1F76 JUMPI INVALID JUMPDEST SWAP1 PUSH1 0x0 MSTORE PUSH1 0x20 PUSH1 0x0 KECCAK256 ADD DUP1 SLOAD PUSH1 0x1 DUP2 PUSH1 0x1 AND ISZERO PUSH2 0x100 MUL SUB AND PUSH1 0x2 SWAP1 DIV DUP1 PUSH1 0x1F ADD PUSH1 0x20 DUP1 SWAP2 DIV MUL PUSH1 0x20 ADD PUSH1 0x40 MLOAD SWAP1 DUP2 ADD PUSH1 0x40 MSTORE DUP1 SWAP3 SWAP2 SWAP1 DUP2 DUP2 MSTORE PUSH1 0x20 ADD DUP3 DUP1 SLOAD PUSH1 0x1 DUP2 PUSH1 0x1 AND ISZERO PUSH2 0x100 MUL SUB AND PUSH1 0x2 SWAP1 DIV DUP1 ISZERO PUSH2 0x2014 JUMPI DUP1 PUSH1 0x1F LT PUSH2 0x1FE9 JUMPI PUSH2 0x100 DUP1 DUP4 SLOAD DIV MUL DUP4 MSTORE SWAP2 PUSH1 0x20 ADD SWAP2 PUSH2 0x2014 JUMP JUMPDEST DUP3 ADD SWAP2 SWAP1 PUSH1 0x0 MSTORE PUSH1 0x20 PUSH1 0x0 KECCAK256 SWAP1 JUMPDEST DUP2 SLOAD DUP2 MSTORE SWAP1 PUSH1 0x1 ADD SWAP1 PUSH1 0x20 ADD DUP1 DUP4 GT PUSH2 0x1FF7 JUMPI DUP3 SWAP1 SUB PUSH1 0x1F AND DUP3 ADD SWAP2 JUMPDEST POP POP POP POP POP DUP7 PUSH1 0x6 ADD DUP6 DUP2 SLOAD DUP2 LT PUSH2 0x2028 JUMPI INVALID JUMPDEST SWAP1 PUSH1 0x0 MSTORE PUSH1 0x20 PUSH1 0x0 KECCAK256 ADD DUP1 SLOAD PUSH1 0x1 DUP2 PUSH1 0x1 AND ISZERO PUSH2 0x100 MUL SUB AND PUSH1 0x2 SWAP1 DIV DUP1 PUSH1 0x1F ADD PUSH1 0x20 DUP1 SWAP2 DIV MUL PUSH1 0x20 ADD PUSH1 0x40 MLOAD SWAP1 DUP2 ADD PUSH1 0x40 MSTORE DUP1 SWAP3 SWAP2 SWAP1 DUP2 DUP2 MSTORE PUSH1 0x20 ADD DUP3 DUP1 SLOAD PUSH1 0x1 DUP2 PUSH1 0x1 AND ISZERO PUSH2 0x100 MUL SUB AND PUSH1 0x2 SWAP1 DIV DUP1 ISZERO PUSH2 0x20C6 JUMPI DUP1 PUSH1 0x1F LT PUSH2 0x209B JUMPI PUSH2 0x100 DUP1 DUP4 SLOAD DIV MUL DUP4 MSTORE SWAP2 PUSH1 0x20 ADD SWAP2 PUSH2 0x20C6 JUMP JUMPDEST DUP3 ADD SWAP2 SWAP1 PUSH1 0x0 MSTORE PUSH1 0x20 PUSH1 0x0 KECCAK256 SWAP1 JUMPDEST DUP2 SLOAD DUP2 MSTORE SWAP1 PUSH1 0x1 ADD SWAP1 PUSH1 0x20 ADD DUP1 DUP4 GT PUSH2 0x20A9 JUMPI DUP3 SWAP1 SUB PUSH1 0x1F AND DUP3 ADD SWAP2 JUMPDEST POP POP POP POP POP DUP7 PUSH2 0x28E5 JUMP JUMPDEST DUP1 DUP1 PUSH1 0x1 ADD SWAP2 POP POP PUSH2 0x1F01 JUMP JUMPDEST POP DUP1 DUP3 PUSH1 0x2 ADD DUP2 SWAP1 SSTORE POP PUSH32 0x9A2E42FD6722813D69113E7D0079D3D940171428DF7373DF9C7F7617CFDA2892 DUP4 DUP3 PUSH1 0x40 MLOAD PUSH2 0x2119 SWAP3 SWAP2 SWAP1 PUSH2 0x5037 JUMP JUMPDEST PUSH1 0x40 MLOAD DUP1 SWAP2 SUB SWAP1 LOG1 POP POP POP JUMP JUMPDEST PUSH1 0x40 MLOAD PUSH2 0x2132 SWAP1 PUSH2 0x4813 JUMP JUMPDEST PUSH1 0x40 MLOAD DUP1 SWAP2 SUB SWAP1 KECCAK256 DUP2 JUMP JUMPDEST PUSH2 0x2145 PUSH2 0x2DAC JUMP JUMPDEST PUSH1 0x5 PUSH1 0x0 DUP5 DUP2 MSTORE PUSH1 0x20 ADD SWAP1 DUP2 MSTORE PUSH1 0x20 ADD PUSH1 0x0 KECCAK256 PUSH1 0xE ADD PUSH1 0x0 DUP4 PUSH20 0xFFFFFFFFFFFFFFFFFFFFFFFFFFFFFFFFFFFFFFFF AND PUSH20 0xFFFFFFFFFFFFFFFFFFFFFFFFFFFFFFFFFFFFFFFF AND DUP2 MSTORE PUSH1 0x20 ADD SWAP1 DUP2 MSTORE PUSH1 0x20 ADD PUSH1 0x0 KECCAK256 PUSH1 0x40 MLOAD DUP1 PUSH1 0x60 ADD PUSH1 0x40 MSTORE SWAP1 DUP2 PUSH1 0x0 DUP3 ADD PUSH1 0x0 SWAP1 SLOAD SWAP1 PUSH2 0x100 EXP SWAP1 DIV PUSH1 0xFF AND ISZERO ISZERO ISZERO ISZERO DUP2 MSTORE PUSH1 0x20 ADD PUSH1 0x0 DUP3 ADD PUSH1 0x1 SWAP1 SLOAD SWAP1 PUSH2 0x100 EXP SWAP1 DIV PUSH1 0xFF AND ISZERO ISZERO ISZERO ISZERO DUP2 MSTORE PUSH1 0x20 ADD PUSH1 0x1 DUP3 ADD SLOAD DUP2 MSTORE POP POP SWAP1 POP SWAP3 SWAP2 POP POP JUMP JUMPDEST PUSH1 0x0 PUSH1 0x1 PUSH1 0x0 SWAP1 SLOAD SWAP1 PUSH2 0x100 EXP SWAP1 DIV PUSH20 0xFFFFFFFFFFFFFFFFFFFFFFFFFFFFFFFFFFFFFFFF AND PUSH20 0xFFFFFFFFFFFFFFFFFFFFFFFFFFFFFFFFFFFFFFFF AND PUSH4 0x66A5236C PUSH2 0x22E0 PUSH2 0x22D7 PUSH1 0x2 PUSH1 0x0 SWAP1 SLOAD SWAP1 PUSH2 0x100 EXP SWAP1 DIV PUSH20 0xFFFFFFFFFFFFFFFFFFFFFFFFFFFFFFFFFFFFFFFF AND PUSH20 0xFFFFFFFFFFFFFFFFFFFFFFFFFFFFFFFFFFFFFFFF AND PUSH4 0x9358928B PUSH1 0x40 MLOAD DUP2 PUSH4 0xFFFFFFFF AND PUSH1 0xE0 SHL DUP2 MSTORE PUSH1 0x4 ADD PUSH1 0x20 PUSH1 0x40 MLOAD DUP1 DUP4 SUB DUP2 DUP7 DUP1 EXTCODESIZE ISZERO DUP1 ISZERO PUSH2 0x2299 JUMPI PUSH1 0x0 DUP1 REVERT JUMPDEST POP GAS STATICCALL ISZERO DUP1 ISZERO PUSH2 0x22AD JUMPI RETURNDATASIZE PUSH1 0x0 DUP1 RETURNDATACOPY RETURNDATASIZE PUSH1 0x0 REVERT JUMPDEST POP POP POP POP PUSH1 0x40 MLOAD RETURNDATASIZE PUSH1 0x1F NOT PUSH1 0x1F DUP3 ADD AND DUP3 ADD DUP1 PUSH1 0x40 MSTORE POP PUSH2 0x22D1 SWAP2 SWAP1 DUP2 ADD SWAP1 PUSH2 0x3617 JUMP JUMPDEST DUP7 PUSH2 0x2AB9 JUMP JUMPDEST PUSH3 0xF4240 PUSH2 0x2B29 JUMP JUMPDEST PUSH1 0x40 MLOAD DUP3 PUSH4 0xFFFFFFFF AND PUSH1 0xE0 SHL DUP2 MSTORE PUSH1 0x4 ADD PUSH2 0x22FC SWAP2 SWAP1 PUSH2 0x4EC1 JUMP JUMPDEST PUSH1 0x20 PUSH1 0x40 MLOAD DUP1 DUP4 SUB DUP2 DUP7 DUP1 EXTCODESIZE ISZERO DUP1 ISZERO PUSH2 0x2314 JUMPI PUSH1 0x0 DUP1 REVERT JUMPDEST POP GAS STATICCALL ISZERO DUP1 ISZERO PUSH2 0x2328 JUMPI RETURNDATASIZE PUSH1 0x0 DUP1 RETURNDATACOPY RETURNDATASIZE PUSH1 0x0 REVERT JUMPDEST POP POP POP POP PUSH1 0x40 MLOAD RETURNDATASIZE PUSH1 0x1F NOT PUSH1 0x1F DUP3 ADD AND DUP3 ADD DUP1 PUSH1 0x40 MSTORE POP PUSH2 0x234C SWAP2 SWAP1 DUP2 ADD SWAP1 PUSH2 0x3617 JUMP JUMPDEST SWAP1 POP SWAP2 SWAP1 POP JUMP JUMPDEST PUSH1 0x0 PUSH2 0x9C40 SWAP1 POP SWAP1 JUMP JUMPDEST PUSH1 0x5 PUSH1 0x7 DUP2 GT ISZERO PUSH2 0x236A JUMPI INVALID JUMPDEST PUSH2 0x2373 DUP3 PUSH2 0xC76 JUMP JUMPDEST PUSH1 0x7 DUP2 GT ISZERO PUSH2 0x237E JUMPI INVALID JUMPDEST EQ PUSH2 0x23BE JUMPI PUSH1 0x40 MLOAD PUSH32 0x8C379A000000000000000000000000000000000000000000000000000000000 DUP2 MSTORE PUSH1 0x4 ADD PUSH2 0x23B5 SWAP1 PUSH2 0x4C06 JUMP JUMPDEST PUSH1 0x40 MLOAD DUP1 SWAP2 SUB SWAP1 REVERT JUMPDEST PUSH1 0x0 PUSH1 0x5 PUSH1 0x0 DUP4 DUP2 MSTORE PUSH1 0x20 ADD SWAP1 DUP2 MSTORE PUSH1 0x20 ADD PUSH1 0x0 KECCAK256 SWAP1 POP PUSH1 0x1 DUP2 PUSH1 0xD ADD PUSH1 0x1 PUSH2 0x100 EXP DUP2 SLOAD DUP2 PUSH1 0xFF MUL NOT AND SWAP1 DUP4 ISZERO ISZERO MUL OR SWAP1 SSTORE POP PUSH1 0x0 DUP1 SWAP1 POP JUMPDEST DUP2 PUSH1 0x3 ADD DUP1 SLOAD SWAP1 POP DUP2 LT ISZERO PUSH2 0x256E JUMPI PUSH1 0x0 DUP1 SWAP1 SLOAD SWAP1 PUSH2 0x100 EXP SWAP1 DIV PUSH20 0xFFFFFFFFFFFFFFFFFFFFFFFFFFFFFFFFFFFFFFFF AND PUSH20 0xFFFFFFFFFFFFFFFFFFFFFFFFFFFFFFFFFFFFFFFF AND PUSH4 0x825F38F DUP4 PUSH1 0x4 ADD DUP4 DUP2 SLOAD DUP2 LT PUSH2 0x2453 JUMPI INVALID JUMPDEST SWAP1 PUSH1 0x0 MSTORE PUSH1 0x20 PUSH1 0x0 KECCAK256 ADD SLOAD DUP5 PUSH1 0x3 ADD DUP5 DUP2 SLOAD DUP2 LT PUSH2 0x246D JUMPI INVALID JUMPDEST SWAP1 PUSH1 0x0 MSTORE PUSH1 0x20 PUSH1 0x0 KECCAK256 ADD PUSH1 0x0 SWAP1 SLOAD SWAP1 PUSH2 0x100 EXP SWAP1 DIV PUSH20 0xFFFFFFFFFFFFFFFFFFFFFFFFFFFFFFFFFFFFFFFF AND DUP6 PUSH1 0x4 ADD DUP6 DUP2 SLOAD DUP2 LT PUSH2 0x24A7 JUMPI INVALID JUMPDEST SWAP1 PUSH1 0x0 MSTORE PUSH1 0x20 PUSH1 0x0 KECCAK256 ADD SLOAD DUP7 PUSH1 0x5 ADD DUP7 DUP2 SLOAD DUP2 LT PUSH2 0x24C1 JUMPI INVALID JUMPDEST SWAP1 PUSH1 0x0 MSTORE PUSH1 0x20 PUSH1 0x0 KECCAK256 ADD DUP8 PUSH1 0x6 ADD DUP8 DUP2 SLOAD DUP2 LT PUSH2 0x24DA JUMPI INVALID JUMPDEST SWAP1 PUSH1 0x0 MSTORE PUSH1 0x20 PUSH1 0x0 KECCAK256 ADD DUP9 PUSH1 0x2 ADD SLOAD PUSH1 0x40 MLOAD DUP8 PUSH4 0xFFFFFFFF AND PUSH1 0xE0 SHL DUP2 MSTORE PUSH1 0x4 ADD PUSH2 0x2509 SWAP6 SWAP5 SWAP4 SWAP3 SWAP2 SWAP1 PUSH2 0x499A JUMP JUMPDEST PUSH1 0x0 PUSH1 0x40 MLOAD DUP1 DUP4 SUB DUP2 DUP6 DUP9 DUP1 EXTCODESIZE ISZERO DUP1 ISZERO PUSH2 0x2522 JUMPI PUSH1 0x0 DUP1 REVERT JUMPDEST POP GAS CALL ISZERO DUP1 ISZERO PUSH2 0x2536 JUMPI RETURNDATASIZE PUSH1 0x0 DUP1 RETURNDATACOPY RETURNDATASIZE PUSH1 0x0 REVERT JUMPDEST POP POP POP POP POP PUSH1 0x40 MLOAD RETURNDATASIZE PUSH1 0x0 DUP3 RETURNDATACOPY RETURNDATASIZE PUSH1 0x1F NOT PUSH1 0x1F DUP3 ADD AND DUP3 ADD DUP1 PUSH1 0x40 MSTORE POP PUSH2 0x2560 SWAP2 SWAP1 DUP2 ADD SWAP1 PUSH2 0x35AD JUMP JUMPDEST POP DUP1 DUP1 PUSH1 0x1 ADD SWAP2 POP POP PUSH2 0x23F8 JUMP JUMPDEST POP PUSH32 0x712AE1383F79AC853F8D882153778E0260EF8F03B504E2866E0593E04D2B291F DUP3 PUSH1 0x40 MLOAD PUSH2 0x259E SWAP2 SWAP1 PUSH2 0x4EC1 JUMP JUMPDEST PUSH1 0x40 MLOAD DUP1 SWAP2 SUB SWAP1 LOG1 POP POP JUMP JUMPDEST PUSH1 0x1 PUSH1 0x7 DUP2 GT ISZERO PUSH2 0x25B7 JUMPI INVALID JUMPDEST PUSH2 0x25C0 DUP4 PUSH2 0xC76 JUMP JUMPDEST PUSH1 0x7 DUP2 GT ISZERO PUSH2 0x25CB JUMPI INVALID JUMPDEST EQ PUSH2 0x260B JUMPI PUSH1 0x40 MLOAD PUSH32 0x8C379A000000000000000000000000000000000000000000000000000000000 DUP2 MSTORE PUSH1 0x4 ADD PUSH2 0x2602 SWAP1 PUSH2 0x4E46 JUMP JUMPDEST PUSH1 0x40 MLOAD DUP1 SWAP2 SUB SWAP1 REVERT JUMPDEST PUSH1 0x0 PUSH1 0x5 PUSH1 0x0 DUP5 DUP2 MSTORE PUSH1 0x20 ADD SWAP1 DUP2 MSTORE PUSH1 0x20 ADD PUSH1 0x0 KECCAK256 SWAP1 POP PUSH1 0x0 DUP2 PUSH1 0xE ADD PUSH1 0x0 DUP7 PUSH20 0xFFFFFFFFFFFFFFFFFFFFFFFFFFFFFFFFFFFFFFFF AND PUSH20 0xFFFFFFFFFFFFFFFFFFFFFFFFFFFFFFFFFFFFFFFF AND DUP2 MSTORE PUSH1 0x20 ADD SWAP1 DUP2 MSTORE PUSH1 0x20 ADD PUSH1 0x0 KECCAK256 SWAP1 POP PUSH1 0x0 ISZERO ISZERO DUP2 PUSH1 0x0 ADD PUSH1 0x0 SWAP1 SLOAD SWAP1 PUSH2 0x100 EXP SWAP1 DIV PUSH1 0xFF AND ISZERO ISZERO EQ PUSH2 0x26BF JUMPI PUSH1 0x40 MLOAD PUSH32 0x8C379A000000000000000000000000000000000000000000000000000000000 DUP2 MSTORE PUSH1 0x4 ADD PUSH2 0x26B6 SWAP1 PUSH2 0x4C86 JUMP JUMPDEST PUSH1 0x40 MLOAD DUP1 SWAP2 SUB SWAP1 REVERT JUMPDEST PUSH1 0x0 PUSH1 0x1 PUSH1 0x0 SWAP1 SLOAD SWAP1 PUSH2 0x100 EXP SWAP1 DIV PUSH20 0xFFFFFFFFFFFFFFFFFFFFFFFFFFFFFFFFFFFFFFFF AND PUSH20 0xFFFFFFFFFFFFFFFFFFFFFFFFFFFFFFFFFFFFFFFF AND PUSH4 0x782D6FE1 DUP8 DUP6 PUSH1 0x7 ADD SLOAD PUSH1 0x40 MLOAD DUP4 PUSH4 0xFFFFFFFF AND PUSH1 0xE0 SHL DUP2 MSTORE PUSH1 0x4 ADD PUSH2 0x2722 SWAP3 SWAP2 SWAP1 PUSH2 0x48CB JUMP JUMPDEST PUSH1 0x20 PUSH1 0x40 MLOAD DUP1 DUP4 SUB DUP2 DUP7 DUP1 EXTCODESIZE ISZERO DUP1 ISZERO PUSH2 0x273A JUMPI PUSH1 0x0 DUP1 REVERT JUMPDEST POP GAS STATICCALL ISZERO DUP1 ISZERO PUSH2 0x274E JUMPI RETURNDATASIZE PUSH1 0x0 DUP1 RETURNDATACOPY RETURNDATASIZE PUSH1 0x0 REVERT JUMPDEST POP POP POP POP PUSH1 0x40 MLOAD RETURNDATASIZE PUSH1 0x1F NOT PUSH1 0x1F DUP3 ADD AND DUP3 ADD DUP1 PUSH1 0x40 MSTORE POP PUSH2 0x2772 SWAP2 SWAP1 DUP2 ADD SWAP1 PUSH2 0x3617 JUMP JUMPDEST SWAP1 POP DUP4 ISZERO PUSH2 0x2795 JUMPI PUSH2 0x2788 DUP4 PUSH1 0x9 ADD SLOAD DUP3 PUSH2 0x2833 JUMP JUMPDEST DUP4 PUSH1 0x9 ADD DUP2 SWAP1 SSTORE POP PUSH2 0x27AC JUMP JUMPDEST PUSH2 0x27A3 DUP4 PUSH1 0xA ADD SLOAD DUP3 PUSH2 0x2833 JUMP JUMPDEST DUP4 PUSH1 0xA ADD DUP2 SWAP1 SSTORE POP JUMPDEST PUSH1 0x1 DUP3 PUSH1 0x0 ADD PUSH1 0x0 PUSH2 0x100 EXP DUP2 SLOAD DUP2 PUSH1 0xFF MUL NOT AND SWAP1 DUP4 ISZERO ISZERO MUL OR SWAP1 SSTORE POP DUP4 DUP3 PUSH1 0x0 ADD PUSH1 0x1 PUSH2 0x100 EXP DUP2 SLOAD DUP2 PUSH1 0xFF MUL NOT AND SWAP1 DUP4 ISZERO ISZERO MUL OR SWAP1 SSTORE POP DUP1 DUP3 PUSH1 0x1 ADD DUP2 SWAP1 SSTORE POP PUSH32 0x877856338E13F63D0C36822FF0EF736B80934CD90574A3A5BC9262C39D217C46 DUP7 DUP7 DUP7 DUP5 PUSH1 0x40 MLOAD PUSH2 0x2823 SWAP5 SWAP4 SWAP3 SWAP2 SWAP1 PUSH2 0x48F4 JUMP JUMPDEST PUSH1 0x40 MLOAD DUP1 SWAP2 SUB SWAP1 LOG1 POP POP POP POP POP POP JUMP JUMPDEST PUSH1 0x0 DUP1 DUP3 DUP5 ADD SWAP1 POP DUP4 DUP2 LT ISZERO PUSH2 0x287E JUMPI PUSH1 0x40 MLOAD PUSH32 0x8C379A000000000000000000000000000000000000000000000000000000000 DUP2 MSTORE PUSH1 0x4 ADD PUSH2 0x2875 SWAP1 PUSH2 0x4D06 JUMP JUMPDEST PUSH1 0x40 MLOAD DUP1 SWAP2 SUB SWAP1 REVERT JUMPDEST DUP1 SWAP2 POP POP SWAP3 SWAP2 POP POP JUMP JUMPDEST PUSH1 0x0 DUP3 DUP3 GT ISZERO PUSH2 0x28CD JUMPI PUSH1 0x40 MLOAD PUSH32 0x8C379A000000000000000000000000000000000000000000000000000000000 DUP2 MSTORE PUSH1 0x4 ADD PUSH2 0x28C4 SWAP1 PUSH2 0x4E66 JUMP JUMPDEST PUSH1 0x40 MLOAD DUP1 SWAP2 SUB SWAP1 REVERT JUMPDEST DUP2 DUP4 SUB SWAP1 POP SWAP3 SWAP2 POP POP JUMP JUMPDEST PUSH1 0x0 DUP1 CHAINID SWAP1 POP DUP1 SWAP2 POP POP SWAP1 JUMP JUMPDEST PUSH1 0x0 DUP1 SWAP1 SLOAD SWAP1 PUSH2 0x100 EXP SWAP1 DIV PUSH20 0xFFFFFFFFFFFFFFFFFFFFFFFFFFFFFFFFFFFFFFFF AND PUSH20 0xFFFFFFFFFFFFFFFFFFFFFFFFFFFFFFFFFFFFFFFF AND PUSH4 0xF2B06537 DUP7 DUP7 DUP7 DUP7 DUP7 PUSH1 0x40 MLOAD PUSH1 0x20 ADD PUSH2 0x293B SWAP6 SWAP5 SWAP4 SWAP3 SWAP2 SWAP1 PUSH2 0x4939 JUMP JUMPDEST PUSH1 0x40 MLOAD PUSH1 0x20 DUP2 DUP4 SUB SUB DUP2 MSTORE SWAP1 PUSH1 0x40 MSTORE DUP1 MLOAD SWAP1 PUSH1 0x20 ADD KECCAK256 PUSH1 0x40 MLOAD DUP3 PUSH4 0xFFFFFFFF AND PUSH1 0xE0 SHL DUP2 MSTORE PUSH1 0x4 ADD PUSH2 0x296D SWAP2 SWAP1 PUSH2 0x4A5C JUMP JUMPDEST PUSH1 0x20 PUSH1 0x40 MLOAD DUP1 DUP4 SUB DUP2 DUP7 DUP1 EXTCODESIZE ISZERO DUP1 ISZERO PUSH2 0x2985 JUMPI PUSH1 0x0 DUP1 REVERT JUMPDEST POP GAS STATICCALL ISZERO DUP1 ISZERO PUSH2 0x2999 JUMPI RETURNDATASIZE PUSH1 0x0 DUP1 RETURNDATACOPY RETURNDATASIZE PUSH1 0x0 REVERT JUMPDEST POP POP POP POP PUSH1 0x40 MLOAD RETURNDATASIZE PUSH1 0x1F NOT PUSH1 0x1F DUP3 ADD AND DUP3 ADD DUP1 PUSH1 0x40 MSTORE POP PUSH2 0x29BD SWAP2 SWAP1 DUP2 ADD SWAP1 PUSH2 0x355B JUMP JUMPDEST ISZERO PUSH2 0x29FD JUMPI PUSH1 0x40 MLOAD PUSH32 0x8C379A000000000000000000000000000000000000000000000000000000000 DUP2 MSTORE PUSH1 0x4 ADD PUSH2 0x29F4 SWAP1 PUSH2 0x4D66 JUMP JUMPDEST PUSH1 0x40 MLOAD DUP1 SWAP2 SUB SWAP1 REVERT JUMPDEST PUSH1 0x0 DUP1 SWAP1 SLOAD SWAP1 PUSH2 0x100 EXP SWAP1 DIV PUSH20 0xFFFFFFFFFFFFFFFFFFFFFFFFFFFFFFFFFFFFFFFF AND PUSH20 0xFFFFFFFFFFFFFFFFFFFFFFFFFFFFFFFFFFFFFFFF AND PUSH4 0x3A66F901 DUP7 DUP7 DUP7 DUP7 DUP7 PUSH1 0x40 MLOAD DUP7 PUSH4 0xFFFFFFFF AND PUSH1 0xE0 SHL DUP2 MSTORE PUSH1 0x4 ADD PUSH2 0x2A5F SWAP6 SWAP5 SWAP4 SWAP3 SWAP2 SWAP1 PUSH2 0x4939 JUMP JUMPDEST PUSH1 0x20 PUSH1 0x40 MLOAD DUP1 DUP4 SUB DUP2 PUSH1 0x0 DUP8 DUP1 EXTCODESIZE ISZERO DUP1 ISZERO PUSH2 0x2A79 JUMPI PUSH1 0x0 DUP1 REVERT JUMPDEST POP GAS CALL ISZERO DUP1 ISZERO PUSH2 0x2A8D JUMPI RETURNDATASIZE PUSH1 0x0 DUP1 RETURNDATACOPY RETURNDATASIZE PUSH1 0x0 REVERT JUMPDEST POP POP POP POP PUSH1 0x40 MLOAD RETURNDATASIZE PUSH1 0x1F NOT PUSH1 0x1F DUP3 ADD AND DUP3 ADD DUP1 PUSH1 0x40 MSTORE POP PUSH2 0x2AB1 SWAP2 SWAP1 DUP2 ADD SWAP1 PUSH2 0x3584 JUMP JUMPDEST POP POP POP POP POP POP JUMP JUMPDEST PUSH1 0x0 DUP1 DUP4 EQ ISZERO PUSH2 0x2ACC JUMPI PUSH1 0x0 SWAP1 POP PUSH2 0x2B23 JUMP JUMPDEST PUSH1 0x0 DUP3 DUP5 MUL SWAP1 POP DUP3 DUP5 DUP3 DUP2 PUSH2 0x2ADD JUMPI INVALID JUMPDEST DIV EQ PUSH2 0x2B1E JUMPI PUSH1 0x40 MLOAD PUSH32 0x8C379A000000000000000000000000000000000000000000000000000000000 DUP2 MSTORE PUSH1 0x4 ADD PUSH2 0x2B15 SWAP1 PUSH2 0x4C46 JUMP JUMPDEST PUSH1 0x40 MLOAD DUP1 SWAP2 SUB SWAP1 REVERT JUMPDEST DUP1 SWAP2 POP POP JUMPDEST SWAP3 SWAP2 POP POP JUMP JUMPDEST PUSH1 0x0 DUP1 DUP3 GT PUSH2 0x2B6D JUMPI PUSH1 0x40 MLOAD PUSH32 0x8C379A000000000000000000000000000000000000000000000000000000000 DUP2 MSTORE PUSH1 0x4 ADD PUSH2 0x2B64 SWAP1 PUSH2 0x4DE6 JUMP JUMPDEST PUSH1 0x40 MLOAD DUP1 SWAP2 SUB SWAP1 REVERT JUMPDEST PUSH1 0x0 DUP3 DUP5 DUP2 PUSH2 0x2B78 JUMPI INVALID JUMPDEST DIV SWAP1 POP DUP1 SWAP2 POP POP SWAP3 SWAP2 POP POP JUMP JUMPDEST PUSH1 0x40 MLOAD DUP1 PUSH2 0x1E0 ADD PUSH1 0x40 MSTORE DUP1 PUSH1 0x0 DUP2 MSTORE PUSH1 0x20 ADD PUSH1 0x0 PUSH20 0xFFFFFFFFFFFFFFFFFFFFFFFFFFFFFFFFFFFFFFFF AND DUP2 MSTORE PUSH1 0x20 ADD PUSH1 0x0 DUP2 MSTORE PUSH1 0x20 ADD PUSH1 0x60 DUP2 MSTORE PUSH1 0x20 ADD PUSH1 0x60 DUP2 MSTORE PUSH1 0x20 ADD PUSH1 0x60 DUP2 MSTORE PUSH1 0x20 ADD PUSH1 0x60 DUP2 MSTORE PUSH1 0x20 ADD PUSH1 0x0 DUP2 MSTORE PUSH1 0x20 ADD PUSH1 0x0 DUP2 MSTORE PUSH1 0x20 ADD PUSH1 0x0 DUP2 MSTORE PUSH1 0x20 ADD PUSH1 0x0 DUP2 MSTORE PUSH1 0x20 ADD PUSH1 0x0 DUP2 MSTORE PUSH1 0x20 ADD PUSH1 0x0 DUP2 MSTORE PUSH1 0x20 ADD PUSH1 0x0 ISZERO ISZERO DUP2 MSTORE PUSH1 0x20 ADD PUSH1 0x0 ISZERO ISZERO DUP2 MSTORE POP SWAP1 JUMP JUMPDEST DUP3 DUP1 SLOAD DUP3 DUP3 SSTORE SWAP1 PUSH1 0x0 MSTORE PUSH1 0x20 PUSH1 0x0 KECCAK256 SWAP1 DUP2 ADD SWAP3 DUP3 ISZERO PUSH2 0x2C8E JUMPI SWAP2 PUSH1 0x20 MUL DUP3 ADD JUMPDEST DUP3 DUP2 GT ISZERO PUSH2 0x2C8D JUMPI DUP3 MLOAD DUP3 PUSH1 0x0 PUSH2 0x100 EXP DUP2 SLOAD DUP2 PUSH20 0xFFFFFFFFFFFFFFFFFFFFFFFFFFFFFFFFFFFFFFFF MUL NOT AND SWAP1 DUP4 PUSH20 0xFFFFFFFFFFFFFFFFFFFFFFFFFFFFFFFFFFFFFFFF AND MUL OR SWAP1 SSTORE POP SWAP2 PUSH1 0x20 ADD SWAP2 SWAP1 PUSH1 0x1 ADD SWAP1 PUSH2 0x2C35 JUMP JUMPDEST JUMPDEST POP SWAP1 POP PUSH2 0x2C9B SWAP2 SWAP1 PUSH2 0x2DD1 JUMP JUMPDEST POP SWAP1 JUMP JUMPDEST DUP3 DUP1 SLOAD DUP3 DUP3 SSTORE SWAP1 PUSH1 0x0 MSTORE PUSH1 0x20 PUSH1 0x0 KECCAK256 SWAP1 DUP2 ADD SWAP3 DUP3 ISZERO PUSH2 0x2CDB JUMPI SWAP2 PUSH1 0x20 MUL DUP3 ADD JUMPDEST DUP3 DUP2 GT ISZERO PUSH2 0x2CDA JUMPI DUP3 MLOAD DUP3 SSTORE SWAP2 PUSH1 0x20 ADD SWAP2 SWAP1 PUSH1 0x1 ADD SWAP1 PUSH2 0x2CBF JUMP JUMPDEST JUMPDEST POP SWAP1 POP PUSH2 0x2CE8 SWAP2 SWAP1 PUSH2 0x2E14 JUMP JUMPDEST POP SWAP1 JUMP JUMPDEST DUP3 DUP1 SLOAD DUP3 DUP3 SSTORE SWAP1 PUSH1 0x0 MSTORE PUSH1 0x20 PUSH1 0x0 KECCAK256 SWAP1 DUP2 ADD SWAP3 DUP3 ISZERO PUSH2 0x2D3B JUMPI SWAP2 PUSH1 0x20 MUL DUP3 ADD JUMPDEST DUP3 DUP2 GT ISZERO PUSH2 0x2D3A JUMPI DUP3 MLOAD DUP3 SWAP1 DUP1 MLOAD SWAP1 PUSH1 0x20 ADD SWAP1 PUSH2 0x2D2A SWAP3 SWAP2 SWAP1 PUSH2 0x2E39 JUMP JUMPDEST POP SWAP2 PUSH1 0x20 ADD SWAP2 SWAP1 PUSH1 0x1 ADD SWAP1 PUSH2 0x2D0C JUMP JUMPDEST JUMPDEST POP SWAP1 POP PUSH2 0x2D48 SWAP2 SWAP1 PUSH2 0x2EB9 JUMP JUMPDEST POP SWAP1 JUMP JUMPDEST DUP3 DUP1 SLOAD DUP3 DUP3 SSTORE SWAP1 PUSH1 0x0 MSTORE PUSH1 0x20 PUSH1 0x0 KECCAK256 SWAP1 DUP2 ADD SWAP3 DUP3 ISZERO PUSH2 0x2D9B JUMPI SWAP2 PUSH1 0x20 MUL DUP3 ADD JUMPDEST DUP3 DUP2 GT ISZERO PUSH2 0x2D9A JUMPI DUP3 MLOAD DUP3 SWAP1 DUP1 MLOAD SWAP1 PUSH1 0x20 ADD SWAP1 PUSH2 0x2D8A SWAP3 SWAP2 SWAP1 PUSH2 0x2EE5 JUMP JUMPDEST POP SWAP2 PUSH1 0x20 ADD SWAP2 SWAP1 PUSH1 0x1 ADD SWAP1 PUSH2 0x2D6C JUMP JUMPDEST JUMPDEST POP SWAP1 POP PUSH2 0x2DA8 SWAP2 SWAP1 PUSH2 0x2F65 JUMP JUMPDEST POP SWAP1 JUMP JUMPDEST PUSH1 0x40 MLOAD DUP1 PUSH1 0x60 ADD PUSH1 0x40 MSTORE DUP1 PUSH1 0x0 ISZERO ISZERO DUP2 MSTORE PUSH1 0x20 ADD PUSH1 0x0 ISZERO ISZERO DUP2 MSTORE PUSH1 0x20 ADD PUSH1 0x0 DUP2 MSTORE POP SWAP1 JUMP JUMPDEST PUSH2 0x2E11 SWAP2 SWAP1 JUMPDEST DUP1 DUP3 GT ISZERO PUSH2 0x2E0D JUMPI PUSH1 0x0 DUP2 DUP2 PUSH2 0x100 EXP DUP2 SLOAD SWAP1 PUSH20 0xFFFFFFFFFFFFFFFFFFFFFFFFFFFFFFFFFFFFFFFF MUL NOT AND SWAP1 SSTORE POP PUSH1 0x1 ADD PUSH2 0x2DD7 JUMP JUMPDEST POP SWAP1 JUMP JUMPDEST SWAP1 JUMP JUMPDEST PUSH2 0x2E36 SWAP2 SWAP1 JUMPDEST DUP1 DUP3 GT ISZERO PUSH2 0x2E32 JUMPI PUSH1 0x0 DUP2 PUSH1 0x0 SWAP1 SSTORE POP PUSH1 0x1 ADD PUSH2 0x2E1A JUMP JUMPDEST POP SWAP1 JUMP JUMPDEST SWAP1 JUMP JUMPDEST DUP3 DUP1 SLOAD PUSH1 0x1 DUP2 PUSH1 0x1 AND ISZERO PUSH2 0x100 MUL SUB AND PUSH1 0x2 SWAP1 DIV SWAP1 PUSH1 0x0 MSTORE PUSH1 0x20 PUSH1 0x0 KECCAK256 SWAP1 PUSH1 0x1F ADD PUSH1 0x20 SWAP1 DIV DUP2 ADD SWAP3 DUP3 PUSH1 0x1F LT PUSH2 0x2E7A JUMPI DUP1 MLOAD PUSH1 0xFF NOT AND DUP4 DUP1 ADD OR DUP6 SSTORE PUSH2 0x2EA8 JUMP JUMPDEST DUP3 DUP1 ADD PUSH1 0x1 ADD DUP6 SSTORE DUP3 ISZERO PUSH2 0x2EA8 JUMPI SWAP2 DUP3 ADD JUMPDEST DUP3 DUP2 GT ISZERO PUSH2 0x2EA7 JUMPI DUP3 MLOAD DUP3 SSTORE SWAP2 PUSH1 0x20 ADD SWAP2 SWAP1 PUSH1 0x1 ADD SWAP1 PUSH2 0x2E8C JUMP JUMPDEST JUMPDEST POP SWAP1 POP PUSH2 0x2EB5 SWAP2 SWAP1 PUSH2 0x2E14 JUMP JUMPDEST POP SWAP1 JUMP JUMPDEST PUSH2 0x2EE2 SWAP2 SWAP1 JUMPDEST DUP1 DUP3 GT ISZERO PUSH2 0x2EDE JUMPI PUSH1 0x0 DUP2 DUP2 PUSH2 0x2ED5 SWAP2 SWAP1 PUSH2 0x2F91 JUMP JUMPDEST POP PUSH1 0x1 ADD PUSH2 0x2EBF JUMP JUMPDEST POP SWAP1 JUMP JUMPDEST SWAP1 JUMP JUMPDEST DUP3 DUP1 SLOAD PUSH1 0x1 DUP2 PUSH1 0x1 AND ISZERO PUSH2 0x100 MUL SUB AND PUSH1 0x2 SWAP1 DIV SWAP1 PUSH1 0x0 MSTORE PUSH1 0x20 PUSH1 0x0 KECCAK256 SWAP1 PUSH1 0x1F ADD PUSH1 0x20 SWAP1 DIV DUP2 ADD SWAP3 DUP3 PUSH1 0x1F LT PUSH2 0x2F26 JUMPI DUP1 MLOAD PUSH1 0xFF NOT AND DUP4 DUP1 ADD OR DUP6 SSTORE PUSH2 0x2F54 JUMP JUMPDEST DUP3 DUP1 ADD PUSH1 0x1 ADD DUP6 SSTORE DUP3 ISZERO PUSH2 0x2F54 JUMPI SWAP2 DUP3 ADD JUMPDEST DUP3 DUP2 GT ISZERO PUSH2 0x2F53 JUMPI DUP3 MLOAD DUP3 SSTORE SWAP2 PUSH1 0x20 ADD SWAP2 SWAP1 PUSH1 0x1 ADD SWAP1 PUSH2 0x2F38 JUMP JUMPDEST JUMPDEST POP SWAP1 POP PUSH2 0x2F61 SWAP2 SWAP1 PUSH2 0x2E14 JUMP JUMPDEST POP SWAP1 JUMP JUMPDEST PUSH2 0x2F8E SWAP2 SWAP1 JUMPDEST DUP1 DUP3 GT ISZERO PUSH2 0x2F8A JUMPI PUSH1 0x0 DUP2 DUP2 PUSH2 0x2F81 SWAP2 SWAP1 PUSH2 0x2FD9 JUMP JUMPDEST POP PUSH1 0x1 ADD PUSH2 0x2F6B JUMP JUMPDEST POP SWAP1 JUMP JUMPDEST SWAP1 JUMP JUMPDEST POP DUP1 SLOAD PUSH1 0x1 DUP2 PUSH1 0x1 AND ISZERO PUSH2 0x100 MUL SUB AND PUSH1 0x2 SWAP1 DIV PUSH1 0x0 DUP3 SSTORE DUP1 PUSH1 0x1F LT PUSH2 0x2FB7 JUMPI POP PUSH2 0x2FD6 JUMP JUMPDEST PUSH1 0x1F ADD PUSH1 0x20 SWAP1 DIV SWAP1 PUSH1 0x0 MSTORE PUSH1 0x20 PUSH1 0x0 KECCAK256 SWAP1 DUP2 ADD SWAP1 PUSH2 0x2FD5 SWAP2 SWAP1 PUSH2 0x2E14 JUMP JUMPDEST JUMPDEST POP JUMP JUMPDEST POP DUP1 SLOAD PUSH1 0x1 DUP2 PUSH1 0x1 AND ISZERO PUSH2 0x100 MUL SUB AND PUSH1 0x2 SWAP1 DIV PUSH1 0x0 DUP3 SSTORE DUP1 PUSH1 0x1F LT PUSH2 0x2FFF JUMPI POP PUSH2 0x301E JUMP JUMPDEST PUSH1 0x1F ADD PUSH1 0x20 SWAP1 DIV SWAP1 PUSH1 0x0 MSTORE PUSH1 0x20 PUSH1 0x0 KECCAK256 SWAP1 DUP2 ADD SWAP1 PUSH2 0x301D SWAP2 SWAP1 PUSH2 0x2E14 JUMP JUMPDEST JUMPDEST POP JUMP JUMPDEST PUSH1 0x0 DUP2 CALLDATALOAD SWAP1 POP PUSH2 0x3030 DUP2 PUSH2 0x5508 JUMP JUMPDEST SWAP3 SWAP2 POP POP JUMP JUMPDEST PUSH1 0x0 DUP3 PUSH1 0x1F DUP4 ADD SLT PUSH2 0x3047 JUMPI PUSH1 0x0 DUP1 REVERT JUMPDEST DUP2 CALLDATALOAD PUSH2 0x305A PUSH2 0x3055 DUP3 PUSH2 0x508D JUMP JUMPDEST PUSH2 0x5060 JUMP JUMPDEST SWAP2 POP DUP2 DUP2 DUP4 MSTORE PUSH1 0x20 DUP5 ADD SWAP4 POP PUSH1 0x20 DUP2 ADD SWAP1 POP DUP4 DUP6 PUSH1 0x20 DUP5 MUL DUP3 ADD GT ISZERO PUSH2 0x307F JUMPI PUSH1 0x0 DUP1 REVERT JUMPDEST PUSH1 0x0 JUMPDEST DUP4 DUP2 LT ISZERO PUSH2 0x30AF JUMPI DUP2 PUSH2 0x3095 DUP9 DUP3 PUSH2 0x3021 JUMP JUMPDEST DUP5 MSTORE PUSH1 0x20 DUP5 ADD SWAP4 POP PUSH1 0x20 DUP4 ADD SWAP3 POP POP PUSH1 0x1 DUP2 ADD SWAP1 POP PUSH2 0x3082 JUMP JUMPDEST POP POP POP POP SWAP3 SWAP2 POP POP JUMP JUMPDEST PUSH1 0x0 DUP3 PUSH1 0x1F DUP4 ADD SLT PUSH2 0x30CA JUMPI PUSH1 0x0 DUP1 REVERT JUMPDEST DUP2 CALLDATALOAD PUSH2 0x30DD PUSH2 0x30D8 DUP3 PUSH2 0x50B5 JUMP JUMPDEST PUSH2 0x5060 JUMP JUMPDEST SWAP2 POP DUP2 DUP2 DUP4 MSTORE PUSH1 0x20 DUP5 ADD SWAP4 POP PUSH1 0x20 DUP2 ADD SWAP1 POP DUP4 PUSH1 0x0 JUMPDEST DUP4 DUP2 LT ISZERO PUSH2 0x3123 JUMPI DUP2 CALLDATALOAD DUP7 ADD PUSH2 0x3109 DUP9 DUP3 PUSH2 0x3278 JUMP JUMPDEST DUP5 MSTORE PUSH1 0x20 DUP5 ADD SWAP4 POP PUSH1 0x20 DUP4 ADD SWAP3 POP POP PUSH1 0x1 DUP2 ADD SWAP1 POP PUSH2 0x30F3 JUMP JUMPDEST POP POP POP POP SWAP3 SWAP2 POP POP JUMP JUMPDEST PUSH1 0x0 DUP3 PUSH1 0x1F DUP4 ADD SLT PUSH2 0x313E JUMPI PUSH1 0x0 DUP1 REVERT JUMPDEST DUP2 CALLDATALOAD PUSH2 0x3151 PUSH2 0x314C DUP3 PUSH2 0x50DD JUMP JUMPDEST PUSH2 0x5060 JUMP JUMPDEST SWAP2 POP DUP2 DUP2 DUP4 MSTORE PUSH1 0x20 DUP5 ADD SWAP4 POP PUSH1 0x20 DUP2 ADD SWAP1 POP DUP4 PUSH1 0x0 JUMPDEST DUP4 DUP2 LT ISZERO PUSH2 0x3197 JUMPI DUP2 CALLDATALOAD DUP7 ADD PUSH2 0x317D DUP9 DUP3 PUSH2 0x3320 JUMP JUMPDEST DUP5 MSTORE PUSH1 0x20 DUP5 ADD SWAP4 POP PUSH1 0x20 DUP4 ADD SWAP3 POP POP PUSH1 0x1 DUP2 ADD SWAP1 POP PUSH2 0x3167 JUMP JUMPDEST POP POP POP POP SWAP3 SWAP2 POP POP JUMP JUMPDEST PUSH1 0x0 DUP3 PUSH1 0x1F DUP4 ADD SLT PUSH2 0x31B2 JUMPI PUSH1 0x0 DUP1 REVERT JUMPDEST DUP2 CALLDATALOAD PUSH2 0x31C5 PUSH2 0x31C0 DUP3 PUSH2 0x5105 JUMP JUMPDEST PUSH2 0x5060 JUMP JUMPDEST SWAP2 POP DUP2 DUP2 DUP4 MSTORE PUSH1 0x20 DUP5 ADD SWAP4 POP PUSH1 0x20 DUP2 ADD SWAP1 POP DUP4 DUP6 PUSH1 0x20 DUP5 MUL DUP3 ADD GT ISZERO PUSH2 0x31EA JUMPI PUSH1 0x0 DUP1 REVERT JUMPDEST PUSH1 0x0 JUMPDEST DUP4 DUP2 LT ISZERO PUSH2 0x321A JUMPI DUP2 PUSH2 0x3200 DUP9 DUP3 PUSH2 0x33C8 JUMP JUMPDEST DUP5 MSTORE PUSH1 0x20 DUP5 ADD SWAP4 POP PUSH1 0x20 DUP4 ADD SWAP3 POP POP PUSH1 0x1 DUP2 ADD SWAP1 POP PUSH2 0x31ED JUMP JUMPDEST POP POP POP POP SWAP3 SWAP2 POP POP JUMP JUMPDEST PUSH1 0x0 DUP2 CALLDATALOAD SWAP1 POP PUSH2 0x3233 DUP2 PUSH2 0x551F JUMP JUMPDEST SWAP3 SWAP2 POP POP JUMP JUMPDEST PUSH1 0x0 DUP2 MLOAD SWAP1 POP PUSH2 0x3248 DUP2 PUSH2 0x551F JUMP JUMPDEST SWAP3 SWAP2 POP POP JUMP JUMPDEST PUSH1 0x0 DUP2 CALLDATALOAD SWAP1 POP PUSH2 0x325D DUP2 PUSH2 0x5536 JUMP JUMPDEST SWAP3 SWAP2 POP POP JUMP JUMPDEST PUSH1 0x0 DUP2 MLOAD SWAP1 POP PUSH2 0x3272 DUP2 PUSH2 0x5536 JUMP JUMPDEST SWAP3 SWAP2 POP POP JUMP JUMPDEST PUSH1 0x0 DUP3 PUSH1 0x1F DUP4 ADD SLT PUSH2 0x3289 JUMPI PUSH1 0x0 DUP1 REVERT JUMPDEST DUP2 CALLDATALOAD PUSH2 0x329C PUSH2 0x3297 DUP3 PUSH2 0x512D JUMP JUMPDEST PUSH2 0x5060 JUMP JUMPDEST SWAP2 POP DUP1 DUP3 MSTORE PUSH1 0x20 DUP4 ADD PUSH1 0x20 DUP4 ADD DUP6 DUP4 DUP4 ADD GT ISZERO PUSH2 0x32B8 JUMPI PUSH1 0x0 DUP1 REVERT JUMPDEST PUSH2 0x32C3 DUP4 DUP3 DUP5 PUSH2 0x549E JUMP JUMPDEST POP POP POP SWAP3 SWAP2 POP POP JUMP JUMPDEST PUSH1 0x0 DUP3 PUSH1 0x1F DUP4 ADD SLT PUSH2 0x32DD JUMPI PUSH1 0x0 DUP1 REVERT JUMPDEST DUP2 MLOAD PUSH2 0x32F0 PUSH2 0x32EB DUP3 PUSH2 0x5159 JUMP JUMPDEST PUSH2 0x5060 JUMP JUMPDEST SWAP2 POP DUP1 DUP3 MSTORE PUSH1 0x20 DUP4 ADD PUSH1 0x20 DUP4 ADD DUP6 DUP4 DUP4 ADD GT ISZERO PUSH2 0x330C JUMPI PUSH1 0x0 DUP1 REVERT JUMPDEST PUSH2 0x3317 DUP4 DUP3 DUP5 PUSH2 0x54AD JUMP JUMPDEST POP POP POP SWAP3 SWAP2 POP POP JUMP JUMPDEST PUSH1 0x0 DUP3 PUSH1 0x1F DUP4 ADD SLT PUSH2 0x3331 JUMPI PUSH1 0x0 DUP1 REVERT JUMPDEST DUP2 CALLDATALOAD PUSH2 0x3344 PUSH2 0x333F DUP3 PUSH2 0x5185 JUMP JUMPDEST PUSH2 0x5060 JUMP JUMPDEST SWAP2 POP DUP1 DUP3 MSTORE PUSH1 0x20 DUP4 ADD PUSH1 0x20 DUP4 ADD DUP6 DUP4 DUP4 ADD GT ISZERO PUSH2 0x3360 JUMPI PUSH1 0x0 DUP1 REVERT JUMPDEST PUSH2 0x336B DUP4 DUP3 DUP5 PUSH2 0x549E JUMP JUMPDEST POP POP POP SWAP3 SWAP2 POP POP JUMP JUMPDEST PUSH1 0x0 DUP3 PUSH1 0x1F DUP4 ADD SLT PUSH2 0x3385 JUMPI PUSH1 0x0 DUP1 REVERT JUMPDEST DUP2 CALLDATALOAD PUSH2 0x3398 PUSH2 0x3393 DUP3 PUSH2 0x51B1 JUMP JUMPDEST PUSH2 0x5060 JUMP JUMPDEST SWAP2 POP DUP1 DUP3 MSTORE PUSH1 0x20 DUP4 ADD PUSH1 0x20 DUP4 ADD DUP6 DUP4 DUP4 ADD GT ISZERO PUSH2 0x33B4 JUMPI PUSH1 0x0 DUP1 REVERT JUMPDEST PUSH2 0x33BF DUP4 DUP3 DUP5 PUSH2 0x549E JUMP JUMPDEST POP POP POP SWAP3 SWAP2 POP POP JUMP JUMPDEST PUSH1 0x0 DUP2 CALLDATALOAD SWAP1 POP PUSH2 0x33D7 DUP2 PUSH2 0x554D JUMP JUMPDEST SWAP3 SWAP2 POP POP JUMP JUMPDEST PUSH1 0x0 DUP2 MLOAD SWAP1 POP PUSH2 0x33EC DUP2 PUSH2 0x554D JUMP JUMPDEST SWAP3 SWAP2 POP POP JUMP JUMPDEST PUSH1 0x0 DUP2 CALLDATALOAD SWAP1 POP PUSH2 0x3401 DUP2 PUSH2 0x5564 JUMP JUMPDEST SWAP3 SWAP2 POP POP JUMP JUMPDEST PUSH1 0x0 PUSH1 0x20 DUP3 DUP5 SUB SLT ISZERO PUSH2 0x3419 JUMPI PUSH1 0x0 DUP1 REVERT JUMPDEST PUSH1 0x0 PUSH2 0x3427 DUP5 DUP3 DUP6 ADD PUSH2 0x3021 JUMP JUMPDEST SWAP2 POP POP SWAP3 SWAP2 POP POP JUMP JUMPDEST PUSH1 0x0 DUP1 PUSH1 0x40 DUP4 DUP6 SUB SLT ISZERO PUSH2 0x3443 JUMPI PUSH1 0x0 DUP1 REVERT JUMPDEST PUSH1 0x0 PUSH2 0x3451 DUP6 DUP3 DUP7 ADD PUSH2 0x3021 JUMP JUMPDEST SWAP3 POP POP PUSH1 0x20 PUSH2 0x3462 DUP6 DUP3 DUP7 ADD PUSH2 0x33C8 JUMP JUMPDEST SWAP2 POP POP SWAP3 POP SWAP3 SWAP1 POP JUMP JUMPDEST PUSH1 0x0 DUP1 PUSH1 0x0 DUP1 PUSH1 0x0 PUSH1 0xA0 DUP7 DUP9 SUB SLT ISZERO PUSH2 0x3484 JUMPI PUSH1 0x0 DUP1 REVERT JUMPDEST PUSH1 0x0 DUP7 ADD CALLDATALOAD PUSH8 0xFFFFFFFFFFFFFFFF DUP2 GT ISZERO PUSH2 0x349E JUMPI PUSH1 0x0 DUP1 REVERT JUMPDEST PUSH2 0x34AA DUP9 DUP3 DUP10 ADD PUSH2 0x3036 JUMP JUMPDEST SWAP6 POP POP PUSH1 0x20 DUP7 ADD CALLDATALOAD PUSH8 0xFFFFFFFFFFFFFFFF DUP2 GT ISZERO PUSH2 0x34C7 JUMPI PUSH1 0x0 DUP1 REVERT JUMPDEST PUSH2 0x34D3 DUP9 DUP3 DUP10 ADD PUSH2 0x31A1 JUMP JUMPDEST SWAP5 POP POP PUSH1 0x40 DUP7 ADD CALLDATALOAD PUSH8 0xFFFFFFFFFFFFFFFF DUP2 GT ISZERO PUSH2 0x34F0 JUMPI PUSH1 0x0 DUP1 REVERT JUMPDEST PUSH2 0x34FC DUP9 DUP3 DUP10 ADD PUSH2 0x312D JUMP JUMPDEST SWAP4 POP POP PUSH1 0x60 DUP7 ADD CALLDATALOAD PUSH8 0xFFFFFFFFFFFFFFFF DUP2 GT ISZERO PUSH2 0x3519 JUMPI PUSH1 0x0 DUP1 REVERT JUMPDEST PUSH2 0x3525 DUP9 DUP3 DUP10 ADD PUSH2 0x30B9 JUMP JUMPDEST SWAP3 POP POP PUSH1 0x80 DUP7 ADD CALLDATALOAD PUSH8 0xFFFFFFFFFFFFFFFF DUP2 GT ISZERO PUSH2 0x3542 JUMPI PUSH1 0x0 DUP1 REVERT JUMPDEST PUSH2 0x354E DUP9 DUP3 DUP10 ADD PUSH2 0x3374 JUMP JUMPDEST SWAP2 POP POP SWAP3 SWAP6 POP SWAP3 SWAP6 SWAP1 SWAP4 POP JUMP JUMPDEST PUSH1 0x0 PUSH1 0x20 DUP3 DUP5 SUB SLT ISZERO PUSH2 0x356D JUMPI PUSH1 0x0 DUP1 REVERT JUMPDEST PUSH1 0x0 PUSH2 0x357B DUP5 DUP3 DUP6 ADD PUSH2 0x3239 JUMP JUMPDEST SWAP2 POP POP SWAP3 SWAP2 POP POP JUMP JUMPDEST PUSH1 0x0 PUSH1 0x20 DUP3 DUP5 SUB SLT ISZERO PUSH2 0x3596 JUMPI PUSH1 0x0 DUP1 REVERT JUMPDEST PUSH1 0x0 PUSH2 0x35A4 DUP5 DUP3 DUP6 ADD PUSH2 0x3263 JUMP JUMPDEST SWAP2 POP POP SWAP3 SWAP2 POP POP JUMP JUMPDEST PUSH1 0x0 PUSH1 0x20 DUP3 DUP5 SUB SLT ISZERO PUSH2 0x35BF JUMPI PUSH1 0x0 DUP1 REVERT JUMPDEST PUSH1 0x0 DUP3 ADD MLOAD PUSH8 0xFFFFFFFFFFFFFFFF DUP2 GT ISZERO PUSH2 0x35D9 JUMPI PUSH1 0x0 DUP1 REVERT JUMPDEST PUSH2 0x35E5 DUP5 DUP3 DUP6 ADD PUSH2 0x32CC JUMP JUMPDEST SWAP2 POP POP SWAP3 SWAP2 POP POP JUMP JUMPDEST PUSH1 0x0 PUSH1 0x20 DUP3 DUP5 SUB SLT ISZERO PUSH2 0x3600 JUMPI PUSH1 0x0 DUP1 REVERT JUMPDEST PUSH1 0x0 PUSH2 0x360E DUP5 DUP3 DUP6 ADD PUSH2 0x33C8 JUMP JUMPDEST SWAP2 POP POP SWAP3 SWAP2 POP POP JUMP JUMPDEST PUSH1 0x0 PUSH1 0x20 DUP3 DUP5 SUB SLT ISZERO PUSH2 0x3629 JUMPI PUSH1 0x0 DUP1 REVERT JUMPDEST PUSH1 0x0 PUSH2 0x3637 DUP5 DUP3 DUP6 ADD PUSH2 0x33DD JUMP JUMPDEST SWAP2 POP POP SWAP3 SWAP2 POP POP JUMP JUMPDEST PUSH1 0x0 DUP1 PUSH1 0x40 DUP4 DUP6 SUB SLT ISZERO PUSH2 0x3653 JUMPI PUSH1 0x0 DUP1 REVERT JUMPDEST PUSH1 0x0 PUSH2 0x3661 DUP6 DUP3 DUP7 ADD PUSH2 0x33C8 JUMP JUMPDEST SWAP3 POP POP PUSH1 0x20 PUSH2 0x3672 DUP6 DUP3 DUP7 ADD PUSH2 0x3021 JUMP JUMPDEST SWAP2 POP POP SWAP3 POP SWAP3 SWAP1 POP JUMP JUMPDEST PUSH1 0x0 DUP1 PUSH1 0x40 DUP4 DUP6 SUB SLT ISZERO PUSH2 0x368F JUMPI PUSH1 0x0 DUP1 REVERT JUMPDEST PUSH1 0x0 PUSH2 0x369D DUP6 DUP3 DUP7 ADD PUSH2 0x33C8 JUMP JUMPDEST SWAP3 POP POP PUSH1 0x20 PUSH2 0x36AE DUP6 DUP3 DUP7 ADD PUSH2 0x3224 JUMP JUMPDEST SWAP2 POP POP SWAP3 POP SWAP3 SWAP1 POP JUMP JUMPDEST PUSH1 0x0 DUP1 PUSH1 0x0 DUP1 PUSH1 0x0 PUSH1 0xA0 DUP7 DUP9 SUB SLT ISZERO PUSH2 0x36D0 JUMPI PUSH1 0x0 DUP1 REVERT JUMPDEST PUSH1 0x0 PUSH2 0x36DE DUP9 DUP3 DUP10 ADD PUSH2 0x33C8 JUMP JUMPDEST SWAP6 POP POP PUSH1 0x20 PUSH2 0x36EF DUP9 DUP3 DUP10 ADD PUSH2 0x3224 JUMP JUMPDEST SWAP5 POP POP PUSH1 0x40 PUSH2 0x3700 DUP9 DUP3 DUP10 ADD PUSH2 0x33F2 JUMP JUMPDEST SWAP4 POP POP PUSH1 0x60 PUSH2 0x3711 DUP9 DUP3 DUP10 ADD PUSH2 0x324E JUMP JUMPDEST SWAP3 POP POP PUSH1 0x80 PUSH2 0x3722 DUP9 DUP3 DUP10 ADD PUSH2 0x324E JUMP JUMPDEST SWAP2 POP POP SWAP3 SWAP6 POP SWAP3 SWAP6 SWAP1 SWAP4 POP JUMP JUMPDEST PUSH1 0x0 PUSH2 0x373B DUP4 DUP4 PUSH2 0x3796 JUMP JUMPDEST PUSH1 0x20 DUP4 ADD SWAP1 POP SWAP3 SWAP2 POP POP JUMP JUMPDEST PUSH1 0x0 PUSH2 0x3753 DUP4 DUP4 PUSH2 0x39D7 JUMP JUMPDEST SWAP1 POP SWAP3 SWAP2 POP POP JUMP JUMPDEST PUSH1 0x0 PUSH2 0x3767 DUP4 DUP4 PUSH2 0x3B23 JUMP JUMPDEST SWAP1 POP SWAP3 SWAP2 POP POP JUMP JUMPDEST PUSH1 0x0 PUSH2 0x377B DUP4 DUP4 PUSH2 0x479A JUMP JUMPDEST PUSH1 0x20 DUP4 ADD SWAP1 POP SWAP3 SWAP2 POP POP JUMP JUMPDEST PUSH2 0x3790 DUP2 PUSH2 0x53D8 JUMP JUMPDEST DUP3 MSTORE POP POP JUMP JUMPDEST PUSH2 0x379F DUP2 PUSH2 0x5366 JUMP JUMPDEST DUP3 MSTORE POP POP JUMP JUMPDEST PUSH2 0x37AE DUP2 PUSH2 0x5366 JUMP JUMPDEST DUP3 MSTORE POP POP JUMP JUMPDEST PUSH1 0x0 PUSH2 0x37BF DUP3 PUSH2 0x5247 JUMP JUMPDEST PUSH2 0x37C9 DUP2 DUP6 PUSH2 0x52D3 JUMP JUMPDEST SWAP4 POP PUSH2 0x37D4 DUP4 PUSH2 0x51DD JUMP JUMPDEST DUP1 PUSH1 0x0 JUMPDEST DUP4 DUP2 LT ISZERO PUSH2 0x3805 JUMPI DUP2 MLOAD PUSH2 0x37EC DUP9 DUP3 PUSH2 0x372F JUMP JUMPDEST SWAP8 POP PUSH2 0x37F7 DUP4 PUSH2 0x529F JUMP JUMPDEST SWAP3 POP POP PUSH1 0x1 DUP2 ADD SWAP1 POP PUSH2 0x37D8 JUMP JUMPDEST POP DUP6 SWAP4 POP POP POP POP SWAP3 SWAP2 POP POP JUMP JUMPDEST PUSH1 0x0 PUSH2 0x381D DUP3 PUSH2 0x5252 JUMP JUMPDEST PUSH2 0x3827 DUP2 DUP6 PUSH2 0x52E4 JUMP JUMPDEST SWAP4 POP DUP4 PUSH1 0x20 DUP3 MUL DUP6 ADD PUSH2 0x3839 DUP6 PUSH2 0x51ED JUMP JUMPDEST DUP1 PUSH1 0x0 JUMPDEST DUP6 DUP2 LT ISZERO PUSH2 0x3875 JUMPI DUP5 DUP5 SUB DUP10 MSTORE DUP2 MLOAD PUSH2 0x3856 DUP6 DUP3 PUSH2 0x3747 JUMP JUMPDEST SWAP5 POP PUSH2 0x3861 DUP4 PUSH2 0x52AC JUMP JUMPDEST SWAP3 POP PUSH1 0x20 DUP11 ADD SWAP10 POP POP PUSH1 0x1 DUP2 ADD SWAP1 POP PUSH2 0x383D JUMP JUMPDEST POP DUP3 SWAP8 POP DUP8 SWAP6 POP POP POP POP POP POP SWAP3 SWAP2 POP POP JUMP JUMPDEST PUSH1 0x0 PUSH2 0x3892 DUP3 PUSH2 0x525D JUMP JUMPDEST PUSH2 0x389C DUP2 DUP6 PUSH2 0x52F5 JUMP JUMPDEST SWAP4 POP DUP4 PUSH1 0x20 DUP3 MUL DUP6 ADD PUSH2 0x38AE DUP6 PUSH2 0x51FD JUMP JUMPDEST DUP1 PUSH1 0x0 JUMPDEST DUP6 DUP2 LT ISZERO PUSH2 0x38EA JUMPI DUP5 DUP5 SUB DUP10 MSTORE DUP2 MLOAD PUSH2 0x38CB DUP6 DUP3 PUSH2 0x375B JUMP JUMPDEST SWAP5 POP PUSH2 0x38D6 DUP4 PUSH2 0x52B9 JUMP JUMPDEST SWAP3 POP PUSH1 0x20 DUP11 ADD SWAP10 POP POP PUSH1 0x1 DUP2 ADD SWAP1 POP PUSH2 0x38B2 JUMP JUMPDEST POP DUP3 SWAP8 POP DUP8 SWAP6 POP POP POP POP POP POP SWAP3 SWAP2 POP POP JUMP JUMPDEST PUSH1 0x0 PUSH2 0x3907 DUP3 PUSH2 0x5268 JUMP JUMPDEST PUSH2 0x3911 DUP2 DUP6 PUSH2 0x5306 JUMP JUMPDEST SWAP4 POP PUSH2 0x391C DUP4 PUSH2 0x520D JUMP JUMPDEST DUP1 PUSH1 0x0 JUMPDEST DUP4 DUP2 LT ISZERO PUSH2 0x394D JUMPI DUP2 MLOAD PUSH2 0x3934 DUP9 DUP3 PUSH2 0x376F JUMP JUMPDEST SWAP8 POP PUSH2 0x393F DUP4 PUSH2 0x52C6 JUMP JUMPDEST SWAP3 POP POP PUSH1 0x1 DUP2 ADD SWAP1 POP PUSH2 0x3920 JUMP JUMPDEST POP DUP6 SWAP4 POP POP POP POP SWAP3 SWAP2 POP POP JUMP JUMPDEST PUSH2 0x3963 DUP2 PUSH2 0x5378 JUMP JUMPDEST DUP3 MSTORE POP POP JUMP JUMPDEST PUSH2 0x3972 DUP2 PUSH2 0x5378 JUMP JUMPDEST DUP3 MSTORE POP POP JUMP JUMPDEST PUSH2 0x3981 DUP2 PUSH2 0x5384 JUMP JUMPDEST DUP3 MSTORE POP POP JUMP JUMPDEST PUSH2 0x3998 PUSH2 0x3993 DUP3 PUSH2 0x5384 JUMP JUMPDEST PUSH2 0x54E0 JUMP JUMPDEST DUP3 MSTORE POP POP JUMP JUMPDEST PUSH1 0x0 PUSH2 0x39A9 DUP3 PUSH2 0x527E JUMP JUMPDEST PUSH2 0x39B3 DUP2 DUP6 PUSH2 0x5328 JUMP JUMPDEST SWAP4 POP PUSH2 0x39C3 DUP2 DUP6 PUSH1 0x20 DUP7 ADD PUSH2 0x54AD JUMP JUMPDEST PUSH2 0x39CC DUP2 PUSH2 0x54EA JUMP JUMPDEST DUP5 ADD SWAP2 POP POP SWAP3 SWAP2 POP POP JUMP JUMPDEST PUSH1 0x0 PUSH2 0x39E2 DUP3 PUSH2 0x5273 JUMP JUMPDEST PUSH2 0x39EC DUP2 DUP6 PUSH2 0x5317 JUMP JUMPDEST SWAP4 POP PUSH2 0x39FC DUP2 DUP6 PUSH1 0x20 DUP7 ADD PUSH2 0x54AD JUMP JUMPDEST PUSH2 0x3A05 DUP2 PUSH2 0x54EA JUMP JUMPDEST DUP5 ADD SWAP2 POP POP SWAP3 SWAP2 POP POP JUMP JUMPDEST PUSH1 0x0 DUP2 SLOAD PUSH1 0x1 DUP2 AND PUSH1 0x0 DUP2 EQ PUSH2 0x3A2D JUMPI PUSH1 0x1 DUP2 EQ PUSH2 0x3A53 JUMPI PUSH2 0x3A97 JUMP JUMPDEST PUSH1 0x7F PUSH1 0x2 DUP4 DIV AND PUSH2 0x3A3E DUP2 DUP8 PUSH2 0x5328 JUMP JUMPDEST SWAP6 POP PUSH1 0xFF NOT DUP4 AND DUP7 MSTORE PUSH1 0x20 DUP7 ADD SWAP4 POP POP PUSH2 0x3A97 JUMP JUMPDEST PUSH1 0x2 DUP3 DIV PUSH2 0x3A61 DUP2 DUP8 PUSH2 0x5328 JUMP JUMPDEST SWAP6 POP PUSH2 0x3A6C DUP6 PUSH2 0x521D JUMP JUMPDEST PUSH1 0x0 JUMPDEST DUP3 DUP2 LT ISZERO PUSH2 0x3A8E JUMPI DUP2 SLOAD DUP2 DUP10 ADD MSTORE PUSH1 0x1 DUP3 ADD SWAP2 POP PUSH1 0x20 DUP2 ADD SWAP1 POP PUSH2 0x3A6F JUMP JUMPDEST DUP1 DUP9 ADD SWAP6 POP POP POP POP JUMPDEST POP POP SWAP3 SWAP2 POP POP JUMP JUMPDEST PUSH2 0x3AA8 DUP2 PUSH2 0x53EA JUMP JUMPDEST DUP3 MSTORE POP POP JUMP JUMPDEST PUSH2 0x3AB7 DUP2 PUSH2 0x540E JUMP JUMPDEST DUP3 MSTORE POP POP JUMP JUMPDEST PUSH2 0x3AC6 DUP2 PUSH2 0x5432 JUMP JUMPDEST DUP3 MSTORE POP POP JUMP JUMPDEST PUSH2 0x3AD5 DUP2 PUSH2 0x5456 JUMP JUMPDEST DUP3 MSTORE POP POP JUMP JUMPDEST PUSH2 0x3AE4 DUP2 PUSH2 0x5468 JUMP JUMPDEST DUP3 MSTORE POP POP JUMP JUMPDEST PUSH1 0x0 PUSH2 0x3AF5 DUP3 PUSH2 0x5294 JUMP JUMPDEST PUSH2 0x3AFF DUP2 DUP6 PUSH2 0x534A JUMP JUMPDEST SWAP4 POP PUSH2 0x3B0F DUP2 DUP6 PUSH1 0x20 DUP7 ADD PUSH2 0x54AD JUMP JUMPDEST PUSH2 0x3B18 DUP2 PUSH2 0x54EA JUMP JUMPDEST DUP5 ADD SWAP2 POP POP SWAP3 SWAP2 POP POP JUMP JUMPDEST PUSH1 0x0 PUSH2 0x3B2E DUP3 PUSH2 0x5289 JUMP JUMPDEST PUSH2 0x3B38 DUP2 DUP6 PUSH2 0x5339 JUMP JUMPDEST SWAP4 POP PUSH2 0x3B48 DUP2 DUP6 PUSH1 0x20 DUP7 ADD PUSH2 0x54AD JUMP JUMPDEST PUSH2 0x3B51 DUP2 PUSH2 0x54EA JUMP JUMPDEST DUP5 ADD SWAP2 POP POP SWAP3 SWAP2 POP POP JUMP JUMPDEST PUSH1 0x0 PUSH2 0x3B67 DUP3 PUSH2 0x5289 JUMP JUMPDEST PUSH2 0x3B71 DUP2 DUP6 PUSH2 0x534A JUMP JUMPDEST SWAP4 POP PUSH2 0x3B81 DUP2 DUP6 PUSH1 0x20 DUP7 ADD PUSH2 0x54AD JUMP JUMPDEST PUSH2 0x3B8A DUP2 PUSH2 0x54EA JUMP JUMPDEST DUP5 ADD SWAP2 POP POP SWAP3 SWAP2 POP POP JUMP JUMPDEST PUSH1 0x0 DUP2 SLOAD PUSH1 0x1 DUP2 AND PUSH1 0x0 DUP2 EQ PUSH2 0x3BB2 JUMPI PUSH1 0x1 DUP2 EQ PUSH2 0x3BD8 JUMPI PUSH2 0x3C1C JUMP JUMPDEST PUSH1 0x7F PUSH1 0x2 DUP4 DIV AND PUSH2 0x3BC3 DUP2 DUP8 PUSH2 0x534A JUMP JUMPDEST SWAP6 POP PUSH1 0xFF NOT DUP4 AND DUP7 MSTORE PUSH1 0x20 DUP7 ADD SWAP4 POP POP PUSH2 0x3C1C JUMP JUMPDEST PUSH1 0x2 DUP3 DIV PUSH2 0x3BE6 DUP2 DUP8 PUSH2 0x534A JUMP JUMPDEST SWAP6 POP PUSH2 0x3BF1 DUP6 PUSH2 0x5232 JUMP JUMPDEST PUSH1 0x0 JUMPDEST DUP3 DUP2 LT ISZERO PUSH2 0x3C13 JUMPI DUP2 SLOAD DUP2 DUP10 ADD MSTORE PUSH1 0x1 DUP3 ADD SWAP2 POP PUSH1 0x20 DUP2 ADD SWAP1 POP PUSH2 0x3BF4 JUMP JUMPDEST DUP1 DUP9 ADD SWAP6 POP POP POP POP JUMPDEST POP POP SWAP3 SWAP2 POP POP JUMP JUMPDEST PUSH1 0x0 PUSH2 0x3C31 PUSH1 0x39 DUP4 PUSH2 0x534A JUMP JUMPDEST SWAP2 POP PUSH32 0x476F7665726E6F72416C7068613A3A5F5F61636365707441646D696E3A207365 PUSH1 0x0 DUP4 ADD MSTORE PUSH32 0x6E646572206D75737420626520676F7620677561726469616E00000000000000 PUSH1 0x20 DUP4 ADD MSTORE PUSH1 0x40 DUP3 ADD SWAP1 POP SWAP2 SWAP1 POP JUMP JUMPDEST PUSH1 0x0 PUSH2 0x3C97 PUSH1 0x44 DUP4 PUSH2 0x534A JUMP JUMPDEST SWAP2 POP PUSH32 0x476F7665726E6F72416C7068613A3A71756575653A2070726F706F73616C2063 PUSH1 0x0 DUP4 ADD MSTORE PUSH32 0x616E206F6E6C7920626520717565756564206966206974206973207375636365 PUSH1 0x20 DUP4 ADD MSTORE PUSH32 0x6564656400000000000000000000000000000000000000000000000000000000 PUSH1 0x40 DUP4 ADD MSTORE PUSH1 0x60 DUP3 ADD SWAP1 POP SWAP2 SWAP1 POP JUMP JUMPDEST PUSH1 0x0 PUSH2 0x3D23 PUSH1 0x45 DUP4 PUSH2 0x534A JUMP JUMPDEST SWAP2 POP PUSH32 0x476F7665726E6F72416C7068613A3A657865637574653A2070726F706F73616C PUSH1 0x0 DUP4 ADD MSTORE PUSH32 0x2063616E206F6E6C792062652065786563757465642069662069742069732071 PUSH1 0x20 DUP4 ADD MSTORE PUSH32 0x7565756564000000000000000000000000000000000000000000000000000000 PUSH1 0x40 DUP4 ADD MSTORE PUSH1 0x60 DUP3 ADD SWAP1 POP SWAP2 SWAP1 POP JUMP JUMPDEST PUSH1 0x0 PUSH2 0x3DAF PUSH1 0x2 DUP4 PUSH2 0x535B JUMP JUMPDEST SWAP2 POP PUSH32 0x1901000000000000000000000000000000000000000000000000000000000000 PUSH1 0x0 DUP4 ADD MSTORE PUSH1 0x2 DUP3 ADD SWAP1 POP SWAP2 SWAP1 POP JUMP JUMPDEST PUSH1 0x0 PUSH2 0x3DEF PUSH1 0x4C DUP4 PUSH2 0x534A JUMP JUMPDEST SWAP2 POP PUSH32 0x476F7665726E6F72416C7068613A3A5F5F6578656375746553657454696D656C PUSH1 0x0 DUP4 ADD MSTORE PUSH32 0x6F636B50656E64696E6741646D696E3A2073656E646572206D75737420626520 PUSH1 0x20 DUP4 ADD MSTORE PUSH32 0x676F7620677561726469616E0000000000000000000000000000000000000000 PUSH1 0x40 DUP4 ADD MSTORE PUSH1 0x60 DUP3 ADD SWAP1 POP SWAP2 SWAP1 POP JUMP JUMPDEST PUSH1 0x0 PUSH2 0x3E7B PUSH1 0x17 DUP4 PUSH2 0x534A JUMP JUMPDEST SWAP2 POP PUSH32 0x6D756C7469706C69636174696F6E206F766572666C6F77000000000000000000 PUSH1 0x0 DUP4 ADD MSTORE PUSH1 0x20 DUP3 ADD SWAP1 POP SWAP2 SWAP1 POP JUMP JUMPDEST PUSH1 0x0 PUSH2 0x3EBB PUSH1 0x18 DUP4 PUSH2 0x534A JUMP JUMPDEST SWAP2 POP PUSH32 0x73657450656E64696E6741646D696E2861646472657373290000000000000000 PUSH1 0x0 DUP4 ADD MSTORE PUSH1 0x20 DUP3 ADD SWAP1 POP SWAP2 SWAP1 POP JUMP JUMPDEST PUSH1 0x0 PUSH2 0x3EFB PUSH1 0x29 DUP4 PUSH2 0x534A JUMP JUMPDEST SWAP2 POP PUSH32 0x476F7665726E6F72416C7068613A3A73746174653A20696E76616C6964207072 PUSH1 0x0 DUP4 ADD MSTORE PUSH32 0x6F706F73616C2069640000000000000000000000000000000000000000000000 PUSH1 0x20 DUP4 ADD MSTORE PUSH1 0x40 DUP3 ADD SWAP1 POP SWAP2 SWAP1 POP JUMP JUMPDEST PUSH1 0x0 PUSH2 0x3F61 PUSH1 0x2D DUP4 PUSH2 0x534A JUMP JUMPDEST SWAP2 POP PUSH32 0x476F7665726E6F72416C7068613A3A5F63617374566F74653A20766F74657220 PUSH1 0x0 DUP4 ADD MSTORE PUSH32 0x616C726561647920766F74656400000000000000000000000000000000000000 PUSH1 0x20 DUP4 ADD MSTORE PUSH1 0x40 DUP3 ADD SWAP1 POP SWAP2 SWAP1 POP JUMP JUMPDEST PUSH1 0x0 PUSH2 0x3FC7 PUSH1 0x59 DUP4 PUSH2 0x534A JUMP JUMPDEST SWAP2 POP PUSH32 0x476F7665726E6F72416C7068613A3A70726F706F73653A206F6E65206C697665 PUSH1 0x0 DUP4 ADD MSTORE PUSH32 0x2070726F706F73616C207065722070726F706F7365722C20666F756E6420616E PUSH1 0x20 DUP4 ADD MSTORE PUSH32 0x20616C72656164792070656E64696E672070726F706F73616C00000000000000 PUSH1 0x40 DUP4 ADD MSTORE PUSH1 0x60 DUP3 ADD SWAP1 POP SWAP2 SWAP1 POP JUMP JUMPDEST PUSH1 0x0 PUSH2 0x4053 PUSH1 0x4A DUP4 PUSH2 0x534A JUMP JUMPDEST SWAP2 POP PUSH32 0x476F7665726E6F72416C7068613A3A5F5F717565756553657454696D656C6F63 PUSH1 0x0 DUP4 ADD MSTORE PUSH32 0x6B50656E64696E6741646D696E3A2073656E646572206D75737420626520676F PUSH1 0x20 DUP4 ADD MSTORE PUSH32 0x7620677561726469616E00000000000000000000000000000000000000000000 PUSH1 0x40 DUP4 ADD MSTORE PUSH1 0x60 DUP3 ADD SWAP1 POP SWAP2 SWAP1 POP JUMP JUMPDEST PUSH1 0x0 PUSH2 0x40DF PUSH1 0x28 DUP4 PUSH2 0x534A JUMP JUMPDEST SWAP2 POP PUSH32 0x476F7665726E6F72416C7068613A3A70726F706F73653A20746F6F206D616E79 PUSH1 0x0 DUP4 ADD MSTORE PUSH32 0x20616374696F6E73000000000000000000000000000000000000000000000000 PUSH1 0x20 DUP4 ADD MSTORE PUSH1 0x40 DUP3 ADD SWAP1 POP SWAP2 SWAP1 POP JUMP JUMPDEST PUSH1 0x0 PUSH2 0x4145 PUSH1 0x11 DUP4 PUSH2 0x534A JUMP JUMPDEST SWAP2 POP PUSH32 0x6164646974696F6E206F766572666C6F77000000000000000000000000000000 PUSH1 0x0 DUP4 ADD MSTORE PUSH1 0x20 DUP3 ADD SWAP1 POP SWAP2 SWAP1 POP JUMP JUMPDEST PUSH1 0x0 PUSH2 0x4185 PUSH1 0x43 DUP4 PUSH2 0x535B JUMP JUMPDEST SWAP2 POP PUSH32 0x454950373132446F6D61696E28737472696E67206E616D652C75696E74323536 PUSH1 0x0 DUP4 ADD MSTORE PUSH32 0x20636861696E49642C6164647265737320766572696679696E67436F6E747261 PUSH1 0x20 DUP4 ADD MSTORE PUSH32 0x6374290000000000000000000000000000000000000000000000000000000000 PUSH1 0x40 DUP4 ADD MSTORE PUSH1 0x43 DUP3 ADD SWAP1 POP SWAP2 SWAP1 POP JUMP JUMPDEST PUSH1 0x0 PUSH2 0x4211 PUSH1 0x27 DUP4 PUSH2 0x535B JUMP JUMPDEST SWAP2 POP PUSH32 0x42616C6C6F742875696E743235362070726F706F73616C49642C626F6F6C2073 PUSH1 0x0 DUP4 ADD MSTORE PUSH32 0x7570706F72742900000000000000000000000000000000000000000000000000 PUSH1 0x20 DUP4 ADD MSTORE PUSH1 0x27 DUP3 ADD SWAP1 POP SWAP2 SWAP1 POP JUMP JUMPDEST PUSH1 0x0 PUSH2 0x4277 PUSH1 0x44 DUP4 PUSH2 0x534A JUMP JUMPDEST SWAP2 POP PUSH32 0x476F7665726E6F72416C7068613A3A70726F706F73653A2070726F706F73616C PUSH1 0x0 DUP4 ADD MSTORE PUSH32 0x2066756E6374696F6E20696E666F726D6174696F6E206172697479206D69736D PUSH1 0x20 DUP4 ADD MSTORE PUSH32 0x6174636800000000000000000000000000000000000000000000000000000000 PUSH1 0x40 DUP4 ADD MSTORE PUSH1 0x60 DUP3 ADD SWAP1 POP SWAP2 SWAP1 POP JUMP JUMPDEST PUSH1 0x0 PUSH2 0x4303 PUSH1 0x2F DUP4 PUSH2 0x534A JUMP JUMPDEST SWAP2 POP PUSH32 0x476F7665726E6F72416C7068613A3A63616E63656C3A2070726F706F73657220 PUSH1 0x0 DUP4 ADD MSTORE PUSH32 0x61626F7665207468726573686F6C640000000000000000000000000000000000 PUSH1 0x20 DUP4 ADD MSTORE PUSH1 0x40 DUP3 ADD SWAP1 POP SWAP2 SWAP1 POP JUMP JUMPDEST PUSH1 0x0 PUSH2 0x4369 PUSH1 0x44 DUP4 PUSH2 0x534A JUMP JUMPDEST SWAP2 POP PUSH32 0x476F7665726E6F72416C7068613A3A5F71756575654F725265766572743A2070 PUSH1 0x0 DUP4 ADD MSTORE PUSH32 0x726F706F73616C20616374696F6E20616C726561647920717565756564206174 PUSH1 0x20 DUP4 ADD MSTORE PUSH32 0x2065746100000000000000000000000000000000000000000000000000000000 PUSH1 0x40 DUP4 ADD MSTORE PUSH1 0x60 DUP3 ADD SWAP1 POP SWAP2 SWAP1 POP JUMP JUMPDEST PUSH1 0x0 PUSH2 0x43F5 PUSH1 0x2C DUP4 PUSH2 0x534A JUMP JUMPDEST SWAP2 POP PUSH32 0x476F7665726E6F72416C7068613A3A70726F706F73653A206D7573742070726F PUSH1 0x0 DUP4 ADD MSTORE PUSH32 0x7669646520616374696F6E730000000000000000000000000000000000000000 PUSH1 0x20 DUP4 ADD MSTORE PUSH1 0x40 DUP3 ADD SWAP1 POP SWAP2 SWAP1 POP JUMP JUMPDEST PUSH1 0x0 PUSH2 0x445B PUSH1 0x3F DUP4 PUSH2 0x534A JUMP JUMPDEST SWAP2 POP PUSH32 0x476F7665726E6F72416C7068613A3A70726F706F73653A2070726F706F736572 PUSH1 0x0 DUP4 ADD MSTORE PUSH32 0x20766F7465732062656C6F772070726F706F73616C207468726573686F6C6400 PUSH1 0x20 DUP4 ADD MSTORE PUSH1 0x40 DUP3 ADD SWAP1 POP SWAP2 SWAP1 POP JUMP JUMPDEST PUSH1 0x0 PUSH2 0x44C1 PUSH1 0x2F DUP4 PUSH2 0x534A JUMP JUMPDEST SWAP2 POP PUSH32 0x476F7665726E6F72416C7068613A3A63617374566F746542795369673A20696E PUSH1 0x0 DUP4 ADD MSTORE PUSH32 0x76616C6964207369676E61747572650000000000000000000000000000000000 PUSH1 0x20 DUP4 ADD MSTORE PUSH1 0x40 DUP3 ADD SWAP1 POP SWAP2 SWAP1 POP JUMP JUMPDEST PUSH1 0x0 PUSH2 0x4527 PUSH1 0x10 DUP4 PUSH2 0x534A JUMP JUMPDEST SWAP2 POP PUSH32 0x6469766973696F6E206279207A65726F00000000000000000000000000000000 PUSH1 0x0 DUP4 ADD MSTORE PUSH1 0x20 DUP3 ADD SWAP1 POP SWAP2 SWAP1 POP JUMP JUMPDEST PUSH1 0x0 PUSH2 0x4567 PUSH1 0x58 DUP4 PUSH2 0x534A JUMP JUMPDEST SWAP2 POP PUSH32 0x476F7665726E6F72416C7068613A3A70726F706F73653A206F6E65206C697665 PUSH1 0x0 DUP4 ADD MSTORE PUSH32 0x2070726F706F73616C207065722070726F706F7365722C20666F756E6420616E PUSH1 0x20 DUP4 ADD MSTORE PUSH32 0x20616C7265616479206163746976652070726F706F73616C0000000000000000 PUSH1 0x40 DUP4 ADD MSTORE PUSH1 0x60 DUP3 ADD SWAP1 POP SWAP2 SWAP1 POP JUMP JUMPDEST PUSH1 0x0 PUSH2 0x45F3 PUSH1 0x36 DUP4 PUSH2 0x534A JUMP JUMPDEST SWAP2 POP PUSH32 0x476F7665726E6F72416C7068613A3A63616E63656C3A2063616E6E6F74206361 PUSH1 0x0 DUP4 ADD MSTORE PUSH32 0x6E63656C2065786563757465642070726F706F73616C00000000000000000000 PUSH1 0x20 DUP4 ADD MSTORE PUSH1 0x40 DUP3 ADD SWAP1 POP SWAP2 SWAP1 POP JUMP JUMPDEST PUSH1 0x0 PUSH2 0x4659 PUSH1 0x2A DUP4 PUSH2 0x534A JUMP JUMPDEST SWAP2 POP PUSH32 0x476F7665726E6F72416C7068613A3A5F63617374566F74653A20766F74696E67 PUSH1 0x0 DUP4 ADD MSTORE PUSH32 0x20697320636C6F73656400000000000000000000000000000000000000000000 PUSH1 0x20 DUP4 ADD MSTORE PUSH1 0x40 DUP3 ADD SWAP1 POP SWAP2 SWAP1 POP JUMP JUMPDEST PUSH1 0x0 PUSH2 0x46BF PUSH1 0x15 DUP4 PUSH2 0x534A JUMP JUMPDEST SWAP2 POP PUSH32 0x7375627472616374696F6E20756E646572666C6F770000000000000000000000 PUSH1 0x0 DUP4 ADD MSTORE PUSH1 0x20 DUP3 ADD SWAP1 POP SWAP2 SWAP1 POP JUMP JUMPDEST PUSH1 0x0 PUSH2 0x46FF PUSH1 0x36 DUP4 PUSH2 0x534A JUMP JUMPDEST SWAP2 POP PUSH32 0x476F7665726E6F72416C7068613A3A5F5F61626469636174653A2073656E6465 PUSH1 0x0 DUP4 ADD MSTORE PUSH32 0x72206D75737420626520676F7620677561726469616E00000000000000000000 PUSH1 0x20 DUP4 ADD MSTORE PUSH1 0x40 DUP3 ADD SWAP1 POP SWAP2 SWAP1 POP JUMP JUMPDEST PUSH1 0x60 DUP3 ADD PUSH1 0x0 DUP3 ADD MLOAD PUSH2 0x476E PUSH1 0x0 DUP6 ADD DUP3 PUSH2 0x395A JUMP JUMPDEST POP PUSH1 0x20 DUP3 ADD MLOAD PUSH2 0x4781 PUSH1 0x20 DUP6 ADD DUP3 PUSH2 0x395A JUMP JUMPDEST POP PUSH1 0x40 DUP3 ADD MLOAD PUSH2 0x4794 PUSH1 0x40 DUP6 ADD DUP3 PUSH2 0x479A JUMP JUMPDEST POP POP POP POP JUMP JUMPDEST PUSH2 0x47A3 DUP2 PUSH2 0x53C1 JUMP JUMPDEST DUP3 MSTORE POP POP JUMP JUMPDEST PUSH2 0x47B2 DUP2 PUSH2 0x53C1 JUMP JUMPDEST DUP3 MSTORE POP POP JUMP JUMPDEST PUSH2 0x47C1 DUP2 PUSH2 0x53CB JUMP JUMPDEST DUP3 MSTORE POP POP JUMP JUMPDEST PUSH1 0x0 PUSH2 0x47D2 DUP3 PUSH2 0x3DA2 JUMP JUMPDEST SWAP2 POP PUSH2 0x47DE DUP3 DUP6 PUSH2 0x3987 JUMP JUMPDEST PUSH1 0x20 DUP3 ADD SWAP2 POP PUSH2 0x47EE DUP3 DUP5 PUSH2 0x3987 JUMP JUMPDEST PUSH1 0x20 DUP3 ADD SWAP2 POP DUP2 SWAP1 POP SWAP4 SWAP3 POP POP POP JUMP JUMPDEST PUSH1 0x0 PUSH2 0x4809 DUP3 PUSH2 0x4178 JUMP JUMPDEST SWAP2 POP DUP2 SWAP1 POP SWAP2 SWAP1 POP JUMP JUMPDEST PUSH1 0x0 PUSH2 0x481E DUP3 PUSH2 0x4204 JUMP JUMPDEST SWAP2 POP DUP2 SWAP1 POP SWAP2 SWAP1 POP JUMP JUMPDEST PUSH1 0x0 PUSH1 0x20 DUP3 ADD SWAP1 POP PUSH2 0x483D PUSH1 0x0 DUP4 ADD DUP5 PUSH2 0x37A5 JUMP JUMPDEST SWAP3 SWAP2 POP POP JUMP JUMPDEST PUSH1 0x0 PUSH1 0x40 DUP3 ADD SWAP1 POP PUSH2 0x4858 PUSH1 0x0 DUP4 ADD DUP6 PUSH2 0x3787 JUMP JUMPDEST PUSH2 0x4865 PUSH1 0x20 DUP4 ADD DUP5 PUSH2 0x47A9 JUMP JUMPDEST SWAP4 SWAP3 POP POP POP JUMP JUMPDEST PUSH1 0x0 PUSH1 0xA0 DUP3 ADD SWAP1 POP PUSH2 0x4881 PUSH1 0x0 DUP4 ADD DUP8 PUSH2 0x37A5 JUMP JUMPDEST PUSH2 0x488E PUSH1 0x20 DUP4 ADD DUP7 PUSH2 0x3ADB JUMP JUMPDEST DUP2 DUP2 SUB PUSH1 0x40 DUP4 ADD MSTORE PUSH2 0x489F DUP2 PUSH2 0x3EAE JUMP JUMPDEST SWAP1 POP DUP2 DUP2 SUB PUSH1 0x60 DUP4 ADD MSTORE PUSH2 0x48B3 DUP2 DUP6 PUSH2 0x399E JUMP JUMPDEST SWAP1 POP PUSH2 0x48C2 PUSH1 0x80 DUP4 ADD DUP5 PUSH2 0x47A9 JUMP JUMPDEST SWAP6 SWAP5 POP POP POP POP POP JUMP JUMPDEST PUSH1 0x0 PUSH1 0x40 DUP3 ADD SWAP1 POP PUSH2 0x48E0 PUSH1 0x0 DUP4 ADD DUP6 PUSH2 0x37A5 JUMP JUMPDEST PUSH2 0x48ED PUSH1 0x20 DUP4 ADD DUP5 PUSH2 0x47A9 JUMP JUMPDEST SWAP4 SWAP3 POP POP POP JUMP JUMPDEST PUSH1 0x0 PUSH1 0x80 DUP3 ADD SWAP1 POP PUSH2 0x4909 PUSH1 0x0 DUP4 ADD DUP8 PUSH2 0x37A5 JUMP JUMPDEST PUSH2 0x4916 PUSH1 0x20 DUP4 ADD DUP7 PUSH2 0x47A9 JUMP JUMPDEST PUSH2 0x4923 PUSH1 0x40 DUP4 ADD DUP6 PUSH2 0x3969 JUMP JUMPDEST PUSH2 0x4930 PUSH1 0x60 DUP4 ADD DUP5 PUSH2 0x47A9 JUMP JUMPDEST SWAP6 SWAP5 POP POP POP POP POP JUMP JUMPDEST PUSH1 0x0 PUSH1 0xA0 DUP3 ADD SWAP1 POP PUSH2 0x494E PUSH1 0x0 DUP4 ADD DUP9 PUSH2 0x37A5 JUMP JUMPDEST PUSH2 0x495B PUSH1 0x20 DUP4 ADD DUP8 PUSH2 0x47A9 JUMP JUMPDEST DUP2 DUP2 SUB PUSH1 0x40 DUP4 ADD MSTORE PUSH2 0x496D DUP2 DUP7 PUSH2 0x3AEA JUMP JUMPDEST SWAP1 POP DUP2 DUP2 SUB PUSH1 0x60 DUP4 ADD MSTORE PUSH2 0x4981 DUP2 DUP6 PUSH2 0x399E JUMP JUMPDEST SWAP1 POP PUSH2 0x4990 PUSH1 0x80 DUP4 ADD DUP5 PUSH2 0x47A9 JUMP JUMPDEST SWAP7 SWAP6 POP POP POP POP POP POP JUMP JUMPDEST PUSH1 0x0 PUSH1 0xA0 DUP3 ADD SWAP1 POP PUSH2 0x49AF PUSH1 0x0 DUP4 ADD DUP9 PUSH2 0x37A5 JUMP JUMPDEST PUSH2 0x49BC PUSH1 0x20 DUP4 ADD DUP8 PUSH2 0x47A9 JUMP JUMPDEST DUP2 DUP2 SUB PUSH1 0x40 DUP4 ADD MSTORE PUSH2 0x49CE DUP2 DUP7 PUSH2 0x3B95 JUMP JUMPDEST SWAP1 POP DUP2 DUP2 SUB PUSH1 0x60 DUP4 ADD MSTORE PUSH2 0x49E2 DUP2 DUP6 PUSH2 0x3A10 JUMP JUMPDEST SWAP1 POP PUSH2 0x49F1 PUSH1 0x80 DUP4 ADD DUP5 PUSH2 0x47A9 JUMP JUMPDEST SWAP7 SWAP6 POP POP POP POP POP POP JUMP JUMPDEST PUSH1 0x0 PUSH1 0x80 DUP3 ADD SWAP1 POP DUP2 DUP2 SUB PUSH1 0x0 DUP4 ADD MSTORE PUSH2 0x4A15 DUP2 DUP8 PUSH2 0x37B4 JUMP JUMPDEST SWAP1 POP DUP2 DUP2 SUB PUSH1 0x20 DUP4 ADD MSTORE PUSH2 0x4A29 DUP2 DUP7 PUSH2 0x38FC JUMP JUMPDEST SWAP1 POP DUP2 DUP2 SUB PUSH1 0x40 DUP4 ADD MSTORE PUSH2 0x4A3D DUP2 DUP6 PUSH2 0x3887 JUMP JUMPDEST SWAP1 POP DUP2 DUP2 SUB PUSH1 0x60 DUP4 ADD MSTORE PUSH2 0x4A51 DUP2 DUP5 PUSH2 0x3812 JUMP JUMPDEST SWAP1 POP SWAP6 SWAP5 POP POP POP POP POP JUMP JUMPDEST PUSH1 0x0 PUSH1 0x20 DUP3 ADD SWAP1 POP PUSH2 0x4A71 PUSH1 0x0 DUP4 ADD DUP5 PUSH2 0x3978 JUMP JUMPDEST SWAP3 SWAP2 POP POP JUMP JUMPDEST PUSH1 0x0 PUSH1 0x80 DUP3 ADD SWAP1 POP PUSH2 0x4A8C PUSH1 0x0 DUP4 ADD DUP8 PUSH2 0x3978 JUMP JUMPDEST PUSH2 0x4A99 PUSH1 0x20 DUP4 ADD DUP7 PUSH2 0x3978 JUMP JUMPDEST PUSH2 0x4AA6 PUSH1 0x40 DUP4 ADD DUP6 PUSH2 0x47A9 JUMP JUMPDEST PUSH2 0x4AB3 PUSH1 0x60 DUP4 ADD DUP5 PUSH2 0x37A5 JUMP JUMPDEST SWAP6 SWAP5 POP POP POP POP POP JUMP JUMPDEST PUSH1 0x0 PUSH1 0x60 DUP3 ADD SWAP1 POP PUSH2 0x4AD1 PUSH1 0x0 DUP4 ADD DUP7 PUSH2 0x3978 JUMP JUMPDEST PUSH2 0x4ADE PUSH1 0x20 DUP4 ADD DUP6 PUSH2 0x47A9 JUMP JUMPDEST PUSH2 0x4AEB PUSH1 0x40 DUP4 ADD DUP5 PUSH2 0x3969 JUMP JUMPDEST SWAP5 SWAP4 POP POP POP POP JUMP JUMPDEST PUSH1 0x0 PUSH1 0x80 DUP3 ADD SWAP1 POP PUSH2 0x4B08 PUSH1 0x0 DUP4 ADD DUP8 PUSH2 0x3978 JUMP JUMPDEST PUSH2 0x4B15 PUSH1 0x20 DUP4 ADD DUP7 PUSH2 0x47B8 JUMP JUMPDEST PUSH2 0x4B22 PUSH1 0x40 DUP4 ADD DUP6 PUSH2 0x3978 JUMP JUMPDEST PUSH2 0x4B2F PUSH1 0x60 DUP4 ADD DUP5 PUSH2 0x3978 JUMP JUMPDEST SWAP6 SWAP5 POP POP POP POP POP JUMP JUMPDEST PUSH1 0x0 PUSH1 0x20 DUP3 ADD SWAP1 POP PUSH2 0x4B4D PUSH1 0x0 DUP4 ADD DUP5 PUSH2 0x3A9F JUMP JUMPDEST SWAP3 SWAP2 POP POP JUMP JUMPDEST PUSH1 0x0 PUSH1 0x20 DUP3 ADD SWAP1 POP PUSH2 0x4B68 PUSH1 0x0 DUP4 ADD DUP5 PUSH2 0x3AAE JUMP JUMPDEST SWAP3 SWAP2 POP POP JUMP JUMPDEST PUSH1 0x0 PUSH1 0x20 DUP3 ADD SWAP1 POP PUSH2 0x4B83 PUSH1 0x0 DUP4 ADD DUP5 PUSH2 0x3ABD JUMP JUMPDEST SWAP3 SWAP2 POP POP JUMP JUMPDEST PUSH1 0x0 PUSH1 0x20 DUP3 ADD SWAP1 POP PUSH2 0x4B9E PUSH1 0x0 DUP4 ADD DUP5 PUSH2 0x3ACC JUMP JUMPDEST SWAP3 SWAP2 POP POP JUMP JUMPDEST PUSH1 0x0 PUSH1 0x20 DUP3 ADD SWAP1 POP DUP2 DUP2 SUB PUSH1 0x0 DUP4 ADD MSTORE PUSH2 0x4BBE DUP2 DUP5 PUSH2 0x3B5C JUMP JUMPDEST SWAP1 POP SWAP3 SWAP2 POP POP JUMP JUMPDEST PUSH1 0x0 PUSH1 0x20 DUP3 ADD SWAP1 POP DUP2 DUP2 SUB PUSH1 0x0 DUP4 ADD MSTORE PUSH2 0x4BDF DUP2 PUSH2 0x3C24 JUMP JUMPDEST SWAP1 POP SWAP2 SWAP1 POP JUMP JUMPDEST PUSH1 0x0 PUSH1 0x20 DUP3 ADD SWAP1 POP DUP2 DUP2 SUB PUSH1 0x0 DUP4 ADD MSTORE PUSH2 0x4BFF DUP2 PUSH2 0x3C8A JUMP JUMPDEST SWAP1 POP SWAP2 SWAP1 POP JUMP JUMPDEST PUSH1 0x0 PUSH1 0x20 DUP3 ADD SWAP1 POP DUP2 DUP2 SUB PUSH1 0x0 DUP4 ADD MSTORE PUSH2 0x4C1F DUP2 PUSH2 0x3D16 JUMP JUMPDEST SWAP1 POP SWAP2 SWAP1 POP JUMP JUMPDEST PUSH1 0x0 PUSH1 0x20 DUP3 ADD SWAP1 POP DUP2 DUP2 SUB PUSH1 0x0 DUP4 ADD MSTORE PUSH2 0x4C3F DUP2 PUSH2 0x3DE2 JUMP JUMPDEST SWAP1 POP SWAP2 SWAP1 POP JUMP JUMPDEST PUSH1 0x0 PUSH1 0x20 DUP3 ADD SWAP1 POP DUP2 DUP2 SUB PUSH1 0x0 DUP4 ADD MSTORE PUSH2 0x4C5F DUP2 PUSH2 0x3E6E JUMP JUMPDEST SWAP1 POP SWAP2 SWAP1 POP JUMP JUMPDEST PUSH1 0x0 PUSH1 0x20 DUP3 ADD SWAP1 POP DUP2 DUP2 SUB PUSH1 0x0 DUP4 ADD MSTORE PUSH2 0x4C7F DUP2 PUSH2 0x3EEE JUMP JUMPDEST SWAP1 POP SWAP2 SWAP1 POP JUMP JUMPDEST PUSH1 0x0 PUSH1 0x20 DUP3 ADD SWAP1 POP DUP2 DUP2 SUB PUSH1 0x0 DUP4 ADD MSTORE PUSH2 0x4C9F DUP2 PUSH2 0x3F54 JUMP JUMPDEST SWAP1 POP SWAP2 SWAP1 POP JUMP JUMPDEST PUSH1 0x0 PUSH1 0x20 DUP3 ADD SWAP1 POP DUP2 DUP2 SUB PUSH1 0x0 DUP4 ADD MSTORE PUSH2 0x4CBF DUP2 PUSH2 0x3FBA JUMP JUMPDEST SWAP1 POP SWAP2 SWAP1 POP JUMP JUMPDEST PUSH1 0x0 PUSH1 0x20 DUP3 ADD SWAP1 POP DUP2 DUP2 SUB PUSH1 0x0 DUP4 ADD MSTORE PUSH2 0x4CDF DUP2 PUSH2 0x4046 JUMP JUMPDEST SWAP1 POP SWAP2 SWAP1 POP JUMP JUMPDEST PUSH1 0x0 PUSH1 0x20 DUP3 ADD SWAP1 POP DUP2 DUP2 SUB PUSH1 0x0 DUP4 ADD MSTORE PUSH2 0x4CFF DUP2 PUSH2 0x40D2 JUMP JUMPDEST SWAP1 POP SWAP2 SWAP1 POP JUMP JUMPDEST PUSH1 0x0 PUSH1 0x20 DUP3 ADD SWAP1 POP DUP2 DUP2 SUB PUSH1 0x0 DUP4 ADD MSTORE PUSH2 0x4D1F DUP2 PUSH2 0x4138 JUMP JUMPDEST SWAP1 POP SWAP2 SWAP1 POP JUMP JUMPDEST PUSH1 0x0 PUSH1 0x20 DUP3 ADD SWAP1 POP DUP2 DUP2 SUB PUSH1 0x0 DUP4 ADD MSTORE PUSH2 0x4D3F DUP2 PUSH2 0x426A JUMP JUMPDEST SWAP1 POP SWAP2 SWAP1 POP JUMP JUMPDEST PUSH1 0x0 PUSH1 0x20 DUP3 ADD SWAP1 POP DUP2 DUP2 SUB PUSH1 0x0 DUP4 ADD MSTORE PUSH2 0x4D5F DUP2 PUSH2 0x42F6 JUMP JUMPDEST SWAP1 POP SWAP2 SWAP1 POP JUMP JUMPDEST PUSH1 0x0 PUSH1 0x20 DUP3 ADD SWAP1 POP DUP2 DUP2 SUB PUSH1 0x0 DUP4 ADD MSTORE PUSH2 0x4D7F DUP2 PUSH2 0x435C JUMP JUMPDEST SWAP1 POP SWAP2 SWAP1 POP JUMP JUMPDEST PUSH1 0x0 PUSH1 0x20 DUP3 ADD SWAP1 POP DUP2 DUP2 SUB PUSH1 0x0 DUP4 ADD MSTORE PUSH2 0x4D9F DUP2 PUSH2 0x43E8 JUMP JUMPDEST SWAP1 POP SWAP2 SWAP1 POP JUMP JUMPDEST PUSH1 0x0 PUSH1 0x20 DUP3 ADD SWAP1 POP DUP2 DUP2 SUB PUSH1 0x0 DUP4 ADD MSTORE PUSH2 0x4DBF DUP2 PUSH2 0x444E JUMP JUMPDEST SWAP1 POP SWAP2 SWAP1 POP JUMP JUMPDEST PUSH1 0x0 PUSH1 0x20 DUP3 ADD SWAP1 POP DUP2 DUP2 SUB PUSH1 0x0 DUP4 ADD MSTORE PUSH2 0x4DDF DUP2 PUSH2 0x44B4 JUMP JUMPDEST SWAP1 POP SWAP2 SWAP1 POP JUMP JUMPDEST PUSH1 0x0 PUSH1 0x20 DUP3 ADD SWAP1 POP DUP2 DUP2 SUB PUSH1 0x0 DUP4 ADD MSTORE PUSH2 0x4DFF DUP2 PUSH2 0x451A JUMP JUMPDEST SWAP1 POP SWAP2 SWAP1 POP JUMP JUMPDEST PUSH1 0x0 PUSH1 0x20 DUP3 ADD SWAP1 POP DUP2 DUP2 SUB PUSH1 0x0 DUP4 ADD MSTORE PUSH2 0x4E1F DUP2 PUSH2 0x455A JUMP JUMPDEST SWAP1 POP SWAP2 SWAP1 POP JUMP JUMPDEST PUSH1 0x0 PUSH1 0x20 DUP3 ADD SWAP1 POP DUP2 DUP2 SUB PUSH1 0x0 DUP4 ADD MSTORE PUSH2 0x4E3F DUP2 PUSH2 0x45E6 JUMP JUMPDEST SWAP1 POP SWAP2 SWAP1 POP JUMP JUMPDEST PUSH1 0x0 PUSH1 0x20 DUP3 ADD SWAP1 POP DUP2 DUP2 SUB PUSH1 0x0 DUP4 ADD MSTORE PUSH2 0x4E5F DUP2 PUSH2 0x464C JUMP JUMPDEST SWAP1 POP SWAP2 SWAP1 POP JUMP JUMPDEST PUSH1 0x0 PUSH1 0x20 DUP3 ADD SWAP1 POP DUP2 DUP2 SUB PUSH1 0x0 DUP4 ADD MSTORE PUSH2 0x4E7F DUP2 PUSH2 0x46B2 JUMP JUMPDEST SWAP1 POP SWAP2 SWAP1 POP JUMP JUMPDEST PUSH1 0x0 PUSH1 0x20 DUP3 ADD SWAP1 POP DUP2 DUP2 SUB PUSH1 0x0 DUP4 ADD MSTORE PUSH2 0x4E9F DUP2 PUSH2 0x46F2 JUMP JUMPDEST SWAP1 POP SWAP2 SWAP1 POP JUMP JUMPDEST PUSH1 0x0 PUSH1 0x60 DUP3 ADD SWAP1 POP PUSH2 0x4EBB PUSH1 0x0 DUP4 ADD DUP5 PUSH2 0x4758 JUMP JUMPDEST SWAP3 SWAP2 POP POP JUMP JUMPDEST PUSH1 0x0 PUSH1 0x20 DUP3 ADD SWAP1 POP PUSH2 0x4ED6 PUSH1 0x0 DUP4 ADD DUP5 PUSH2 0x47A9 JUMP JUMPDEST SWAP3 SWAP2 POP POP JUMP JUMPDEST PUSH1 0x0 PUSH2 0x120 DUP3 ADD SWAP1 POP PUSH2 0x4EF2 PUSH1 0x0 DUP4 ADD DUP13 PUSH2 0x47A9 JUMP JUMPDEST PUSH2 0x4EFF PUSH1 0x20 DUP4 ADD DUP12 PUSH2 0x3787 JUMP JUMPDEST DUP2 DUP2 SUB PUSH1 0x40 DUP4 ADD MSTORE PUSH2 0x4F11 DUP2 DUP11 PUSH2 0x37B4 JUMP JUMPDEST SWAP1 POP DUP2 DUP2 SUB PUSH1 0x60 DUP4 ADD MSTORE PUSH2 0x4F25 DUP2 DUP10 PUSH2 0x38FC JUMP JUMPDEST SWAP1 POP DUP2 DUP2 SUB PUSH1 0x80 DUP4 ADD MSTORE PUSH2 0x4F39 DUP2 DUP9 PUSH2 0x3887 JUMP JUMPDEST SWAP1 POP DUP2 DUP2 SUB PUSH1 0xA0 DUP4 ADD MSTORE PUSH2 0x4F4D DUP2 DUP8 PUSH2 0x3812 JUMP JUMPDEST SWAP1 POP PUSH2 0x4F5C PUSH1 0xC0 DUP4 ADD DUP7 PUSH2 0x47A9 JUMP JUMPDEST PUSH2 0x4F69 PUSH1 0xE0 DUP4 ADD DUP6 PUSH2 0x47A9 JUMP JUMPDEST DUP2 DUP2 SUB PUSH2 0x100 DUP4 ADD MSTORE PUSH2 0x4F7C DUP2 DUP5 PUSH2 0x3AEA JUMP JUMPDEST SWAP1 POP SWAP11 SWAP10 POP POP POP POP POP POP POP POP POP POP JUMP JUMPDEST PUSH1 0x0 PUSH2 0x160 DUP3 ADD SWAP1 POP PUSH2 0x4FA2 PUSH1 0x0 DUP4 ADD DUP15 PUSH2 0x47A9 JUMP JUMPDEST PUSH2 0x4FAF PUSH1 0x20 DUP4 ADD DUP14 PUSH2 0x37A5 JUMP JUMPDEST PUSH2 0x4FBC PUSH1 0x40 DUP4 ADD DUP13 PUSH2 0x47A9 JUMP JUMPDEST PUSH2 0x4FC9 PUSH1 0x60 DUP4 ADD DUP12 PUSH2 0x47A9 JUMP JUMPDEST PUSH2 0x4FD6 PUSH1 0x80 DUP4 ADD DUP11 PUSH2 0x47A9 JUMP JUMPDEST PUSH2 0x4FE3 PUSH1 0xA0 DUP4 ADD DUP10 PUSH2 0x47A9 JUMP JUMPDEST PUSH2 0x4FF0 PUSH1 0xC0 DUP4 ADD DUP9 PUSH2 0x47A9 JUMP JUMPDEST PUSH2 0x4FFD PUSH1 0xE0 DUP4 ADD DUP8 PUSH2 0x47A9 JUMP JUMPDEST PUSH2 0x500B PUSH2 0x100 DUP4 ADD DUP7 PUSH2 0x47A9 JUMP JUMPDEST PUSH2 0x5019 PUSH2 0x120 DUP4 ADD DUP6 PUSH2 0x3969 JUMP JUMPDEST PUSH2 0x5027 PUSH2 0x140 DUP4 ADD DUP5 PUSH2 0x3969 JUMP JUMPDEST SWAP13 SWAP12 POP POP POP POP POP POP POP POP POP POP POP POP JUMP JUMPDEST PUSH1 0x0 PUSH1 0x40 DUP3 ADD SWAP1 POP PUSH2 0x504C PUSH1 0x0 DUP4 ADD DUP6 PUSH2 0x47A9 JUMP JUMPDEST PUSH2 0x5059 PUSH1 0x20 DUP4 ADD DUP5 PUSH2 0x47A9 JUMP JUMPDEST SWAP4 SWAP3 POP POP POP JUMP JUMPDEST PUSH1 0x0 PUSH1 0x40 MLOAD SWAP1 POP DUP2 DUP2 ADD DUP2 DUP2 LT PUSH8 0xFFFFFFFFFFFFFFFF DUP3 GT OR ISZERO PUSH2 0x5083 JUMPI PUSH1 0x0 DUP1 REVERT JUMPDEST DUP1 PUSH1 0x40 MSTORE POP SWAP2 SWAP1 POP JUMP JUMPDEST PUSH1 0x0 PUSH8 0xFFFFFFFFFFFFFFFF DUP3 GT ISZERO PUSH2 0x50A4 JUMPI PUSH1 0x0 DUP1 REVERT JUMPDEST PUSH1 0x20 DUP3 MUL SWAP1 POP PUSH1 0x20 DUP2 ADD SWAP1 POP SWAP2 SWAP1 POP JUMP JUMPDEST PUSH1 0x0 PUSH8 0xFFFFFFFFFFFFFFFF DUP3 GT ISZERO PUSH2 0x50CC JUMPI PUSH1 0x0 DUP1 REVERT JUMPDEST PUSH1 0x20 DUP3 MUL SWAP1 POP PUSH1 0x20 DUP2 ADD SWAP1 POP SWAP2 SWAP1 POP JUMP JUMPDEST PUSH1 0x0 PUSH8 0xFFFFFFFFFFFFFFFF DUP3 GT ISZERO PUSH2 0x50F4 JUMPI PUSH1 0x0 DUP1 REVERT JUMPDEST PUSH1 0x20 DUP3 MUL SWAP1 POP PUSH1 0x20 DUP2 ADD SWAP1 POP SWAP2 SWAP1 POP JUMP JUMPDEST PUSH1 0x0 PUSH8 0xFFFFFFFFFFFFFFFF DUP3 GT ISZERO PUSH2 0x511C JUMPI PUSH1 0x0 DUP1 REVERT JUMPDEST PUSH1 0x20 DUP3 MUL SWAP1 POP PUSH1 0x20 DUP2 ADD SWAP1 POP SWAP2 SWAP1 POP JUMP JUMPDEST PUSH1 0x0 PUSH8 0xFFFFFFFFFFFFFFFF DUP3 GT ISZERO PUSH2 0x5144 JUMPI PUSH1 0x0 DUP1 REVERT JUMPDEST PUSH1 0x1F NOT PUSH1 0x1F DUP4 ADD AND SWAP1 POP PUSH1 0x20 DUP2 ADD SWAP1 POP SWAP2 SWAP1 POP JUMP JUMPDEST PUSH1 0x0 PUSH8 0xFFFFFFFFFFFFFFFF DUP3 GT ISZERO PUSH2 0x5170 JUMPI PUSH1 0x0 DUP1 REVERT JUMPDEST PUSH1 0x1F NOT PUSH1 0x1F DUP4 ADD AND SWAP1 POP PUSH1 0x20 DUP2 ADD SWAP1 POP SWAP2 SWAP1 POP JUMP JUMPDEST PUSH1 0x0 PUSH8 0xFFFFFFFFFFFFFFFF DUP3 GT ISZERO PUSH2 0x519C JUMPI PUSH1 0x0 DUP1 REVERT JUMPDEST PUSH1 0x1F NOT PUSH1 0x1F DUP4 ADD AND SWAP1 POP PUSH1 0x20 DUP2 ADD SWAP1 POP SWAP2 SWAP1 POP JUMP JUMPDEST PUSH1 0x0 PUSH8 0xFFFFFFFFFFFFFFFF DUP3 GT ISZERO PUSH2 0x51C8 JUMPI PUSH1 0x0 DUP1 REVERT JUMPDEST PUSH1 0x1F NOT PUSH1 0x1F DUP4 ADD AND SWAP1 POP PUSH1 0x20 DUP2 ADD SWAP1 POP SWAP2 SWAP1 POP JUMP JUMPDEST PUSH1 0x0 DUP2 SWAP1 POP PUSH1 0x20 DUP3 ADD SWAP1 POP SWAP2 SWAP1 POP JUMP JUMPDEST PUSH1 0x0 DUP2 SWAP1 POP PUSH1 0x20 DUP3 ADD SWAP1 POP SWAP2 SWAP1 POP JUMP JUMPDEST PUSH1 0x0 DUP2 SWAP1 POP PUSH1 0x20 DUP3 ADD SWAP1 POP SWAP2 SWAP1 POP JUMP JUMPDEST PUSH1 0x0 DUP2 SWAP1 POP PUSH1 0x20 DUP3 ADD SWAP1 POP SWAP2 SWAP1 POP JUMP JUMPDEST PUSH1 0x0 DUP2 SWAP1 POP DUP2 PUSH1 0x0 MSTORE PUSH1 0x20 PUSH1 0x0 KECCAK256 SWAP1 POP SWAP2 SWAP1 POP JUMP JUMPDEST PUSH1 0x0 DUP2 SWAP1 POP DUP2 PUSH1 0x0 MSTORE PUSH1 0x20 PUSH1 0x0 KECCAK256 SWAP1 POP SWAP2 SWAP1 POP JUMP JUMPDEST PUSH1 0x0 DUP2 MLOAD SWAP1 POP SWAP2 SWAP1 POP JUMP JUMPDEST PUSH1 0x0 DUP2 MLOAD SWAP1 POP SWAP2 SWAP1 POP JUMP JUMPDEST PUSH1 0x0 DUP2 MLOAD SWAP1 POP SWAP2 SWAP1 POP JUMP JUMPDEST PUSH1 0x0 DUP2 MLOAD SWAP1 POP SWAP2 SWAP1 POP JUMP JUMPDEST PUSH1 0x0 DUP2 MLOAD SWAP1 POP SWAP2 SWAP1 POP JUMP JUMPDEST PUSH1 0x0 DUP2 MLOAD SWAP1 POP SWAP2 SWAP1 POP JUMP JUMPDEST PUSH1 0x0 DUP2 MLOAD SWAP1 POP SWAP2 SWAP1 POP JUMP JUMPDEST PUSH1 0x0 DUP2 MLOAD SWAP1 POP SWAP2 SWAP1 POP JUMP JUMPDEST PUSH1 0x0 PUSH1 0x20 DUP3 ADD SWAP1 POP SWAP2 SWAP1 POP JUMP JUMPDEST PUSH1 0x0 PUSH1 0x20 DUP3 ADD SWAP1 POP SWAP2 SWAP1 POP JUMP JUMPDEST PUSH1 0x0 PUSH1 0x20 DUP3 ADD SWAP1 POP SWAP2 SWAP1 POP JUMP JUMPDEST PUSH1 0x0 PUSH1 0x20 DUP3 ADD SWAP1 POP SWAP2 SWAP1 POP JUMP JUMPDEST PUSH1 0x0 DUP3 DUP3 MSTORE PUSH1 0x20 DUP3 ADD SWAP1 POP SWAP3 SWAP2 POP POP JUMP JUMPDEST PUSH1 0x0 DUP3 DUP3 MSTORE PUSH1 0x20 DUP3 ADD SWAP1 POP SWAP3 SWAP2 POP POP JUMP JUMPDEST PUSH1 0x0 DUP3 DUP3 MSTORE PUSH1 0x20 DUP3 ADD SWAP1 POP SWAP3 SWAP2 POP POP JUMP JUMPDEST PUSH1 0x0 DUP3 DUP3 MSTORE PUSH1 0x20 DUP3 ADD SWAP1 POP SWAP3 SWAP2 POP POP JUMP JUMPDEST PUSH1 0x0 DUP3 DUP3 MSTORE PUSH1 0x20 DUP3 ADD SWAP1 POP SWAP3 SWAP2 POP POP JUMP JUMPDEST PUSH1 0x0 DUP3 DUP3 MSTORE PUSH1 0x20 DUP3 ADD SWAP1 POP SWAP3 SWAP2 POP POP JUMP JUMPDEST PUSH1 0x0 DUP3 DUP3 MSTORE PUSH1 0x20 DUP3 ADD SWAP1 POP SWAP3 SWAP2 POP POP JUMP JUMPDEST PUSH1 0x0 DUP3 DUP3 MSTORE PUSH1 0x20 DUP3 ADD SWAP1 POP SWAP3 SWAP2 POP POP JUMP JUMPDEST PUSH1 0x0 DUP2 SWAP1 POP SWAP3 SWAP2 POP POP JUMP JUMPDEST PUSH1 0x0 PUSH2 0x5371 DUP3 PUSH2 0x53A1 JUMP JUMPDEST SWAP1 POP SWAP2 SWAP1 POP JUMP JUMPDEST PUSH1 0x0 DUP2 ISZERO ISZERO SWAP1 POP SWAP2 SWAP1 POP JUMP JUMPDEST PUSH1 0x0 DUP2 SWAP1 POP SWAP2 SWAP1 POP JUMP JUMPDEST PUSH1 0x0 DUP2 SWAP1 POP PUSH2 0x539C DUP3 PUSH2 0x54FB JUMP JUMPDEST SWAP2 SWAP1 POP JUMP JUMPDEST PUSH1 0x0 PUSH20 0xFFFFFFFFFFFFFFFFFFFFFFFFFFFFFFFFFFFFFFFF DUP3 AND SWAP1 POP SWAP2 SWAP1 POP JUMP JUMPDEST PUSH1 0x0 DUP2 SWAP1 POP SWAP2 SWAP1 POP JUMP JUMPDEST PUSH1 0x0 PUSH1 0xFF DUP3 AND SWAP1 POP SWAP2 SWAP1 POP JUMP JUMPDEST PUSH1 0x0 PUSH2 0x53E3 DUP3 PUSH2 0x547A JUMP JUMPDEST SWAP1 POP SWAP2 SWAP1 POP JUMP JUMPDEST PUSH1 0x0 PUSH2 0x53F5 DUP3 PUSH2 0x53FC JUMP JUMPDEST SWAP1 POP SWAP2 SWAP1 POP JUMP JUMPDEST PUSH1 0x0 PUSH2 0x5407 DUP3 PUSH2 0x53A1 JUMP JUMPDEST SWAP1 POP SWAP2 SWAP1 POP JUMP JUMPDEST PUSH1 0x0 PUSH2 0x5419 DUP3 PUSH2 0x5420 JUMP JUMPDEST SWAP1 POP SWAP2 SWAP1 POP JUMP JUMPDEST PUSH1 0x0 PUSH2 0x542B DUP3 PUSH2 0x53A1 JUMP JUMPDEST SWAP1 POP SWAP2 SWAP1 POP JUMP JUMPDEST PUSH1 0x0 PUSH2 0x543D DUP3 PUSH2 0x5444 JUMP JUMPDEST SWAP1 POP SWAP2 SWAP1 POP JUMP JUMPDEST PUSH1 0x0 PUSH2 0x544F DUP3 PUSH2 0x53A1 JUMP JUMPDEST SWAP1 POP SWAP2 SWAP1 POP JUMP JUMPDEST PUSH1 0x0 PUSH2 0x5461 DUP3 PUSH2 0x538E JUMP JUMPDEST SWAP1 POP SWAP2 SWAP1 POP JUMP JUMPDEST PUSH1 0x0 PUSH2 0x5473 DUP3 PUSH2 0x53C1 JUMP JUMPDEST SWAP1 POP SWAP2 SWAP1 POP JUMP JUMPDEST PUSH1 0x0 PUSH2 0x5485 DUP3 PUSH2 0x548C JUMP JUMPDEST SWAP1 POP SWAP2 SWAP1 POP JUMP JUMPDEST PUSH1 0x0 PUSH2 0x5497 DUP3 PUSH2 0x53A1 JUMP JUMPDEST SWAP1 POP SWAP2 SWAP1 POP JUMP JUMPDEST DUP3 DUP2 DUP4 CALLDATACOPY PUSH1 0x0 DUP4 DUP4 ADD MSTORE POP POP POP JUMP JUMPDEST PUSH1 0x0 JUMPDEST DUP4 DUP2 LT ISZERO PUSH2 0x54CB JUMPI DUP1 DUP3 ADD MLOAD DUP2 DUP5 ADD MSTORE PUSH1 0x20 DUP2 ADD SWAP1 POP PUSH2 0x54B0 JUMP JUMPDEST DUP4 DUP2 GT ISZERO PUSH2 0x54DA JUMPI PUSH1 0x0 DUP5 DUP5 ADD MSTORE JUMPDEST POP POP POP POP JUMP JUMPDEST PUSH1 0x0 DUP2 SWAP1 POP SWAP2 SWAP1 POP JUMP JUMPDEST PUSH1 0x0 PUSH1 0x1F NOT PUSH1 0x1F DUP4 ADD AND SWAP1 POP SWAP2 SWAP1 POP JUMP JUMPDEST PUSH1 0x8 DUP2 LT PUSH2 0x5505 JUMPI INVALID JUMPDEST POP JUMP JUMPDEST PUSH2 0x5511 DUP2 PUSH2 0x5366 JUMP JUMPDEST DUP2 EQ PUSH2 0x551C JUMPI PUSH1 0x0 DUP1 REVERT JUMPDEST POP JUMP JUMPDEST PUSH2 0x5528 DUP2 PUSH2 0x5378 JUMP JUMPDEST DUP2 EQ PUSH2 0x5533 JUMPI PUSH1 0x0 DUP1 REVERT JUMPDEST POP JUMP JUMPDEST PUSH2 0x553F DUP2 PUSH2 0x5384 JUMP JUMPDEST DUP2 EQ PUSH2 0x554A JUMPI PUSH1 0x0 DUP1 REVERT JUMPDEST POP JUMP JUMPDEST PUSH2 0x5556 DUP2 PUSH2 0x53C1 JUMP JUMPDEST DUP2 EQ PUSH2 0x5561 JUMPI PUSH1 0x0 DUP1 REVERT JUMPDEST POP JUMP JUMPDEST PUSH2 0x556D DUP2 PUSH2 0x53CB JUMP JUMPDEST DUP2 EQ PUSH2 0x5578 JUMPI PUSH1 0x0 DUP1 REVERT JUMPDEST POP JUMP INVALID LOG3 PUSH6 0x627A7A723158 KECCAK256 MOD 0xEF 0xEE 0x29 GASPRICE MSIZE STATICCALL CREATE2 0xE0 0x5F 0x5D SWAP1 DUP12 0xE1 0xCB SWAP16 0xE0 0xD PUSH19 0x623BCD4EAFD504393151C993AA6C6578706572 PUSH10 0x6D656E74616CF564736F PUSH13 0x63430005100040000000000000 "
        },
        "gasEstimates": {
          "creation": {
            "codeDepositCost": "4390000",
            "executionCost": "infinite",
            "totalCost": "infinite"
          },
          "external": {
            "BALLOT_TYPEHASH()": "695",
            "DOMAIN_TYPEHASH()": "698",
            "__abdicate()": "21927",
            "__acceptAdmin()": "infinite",
            "__executeSetTimelockPendingAdmin(address,uint256)": "infinite",
            "__queueSetTimelockPendingAdmin(address,uint256)": "infinite",
            "cancel(uint256)": "infinite",
            "castVote(uint256,bool)": "infinite",
            "castVoteBySig(uint256,bool,uint8,bytes32,bytes32)": "infinite",
            "execute(uint256)": "infinite",
            "gFISC()": "1368",
            "getActions(uint256)": "infinite",
            "getReceipt(uint256,address)": "infinite",
            "getVotesFromPercentOfsFISCSupply(uint256)": "infinite",
            "guardian()": "1281",
            "latestProposalIds(address)": "1582",
            "name()": "infinite",
            "proposalCount()": "1174",
            "proposalMaxOperations()": "405",
            "proposalThresholdPercent()": "382",
            "proposals(uint256)": "infinite",
            "propose(address[],uint256[],string[],bytes[],string)": "infinite",
            "queue(uint256)": "infinite",
            "quorumPercent()": "425",
            "sFISC()": "1368",
            "state(uint256)": "infinite",
            "timelock()": "1346",
            "votingDelay()": "405",
            "votingPeriod()": "406"
          },
          "internal": {
            "_castVote(address,uint256,bool)": "infinite",
            "_queueOrRevert(address,uint256,string memory,bytes memory,uint256)": "infinite",
            "add256(uint256,uint256)": "infinite",
            "div256(uint256,uint256)": "infinite",
            "getChainId()": "35",
            "mul256(uint256,uint256)": "infinite",
            "sub256(uint256,uint256)": "infinite"
          }
        },
        "methodIdentifiers": {
          "BALLOT_TYPEHASH()": "deaaa7cc",
          "DOMAIN_TYPEHASH()": "20606b70",
          "__abdicate()": "760fbc13",
          "__acceptAdmin()": "b9a61961",
          "__executeSetTimelockPendingAdmin(address,uint256)": "21f43e42",
          "__queueSetTimelockPendingAdmin(address,uint256)": "91500671",
          "cancel(uint256)": "40e58ee5",
          "castVote(uint256,bool)": "15373e3d",
          "castVoteBySig(uint256,bool,uint8,bytes32,bytes32)": "4634c61f",
          "execute(uint256)": "fe0d94c1",
          "gFISC()": "d9bfd805",
          "getActions(uint256)": "328dd982",
          "getReceipt(uint256,address)": "e23a9a52",
          "getVotesFromPercentOfsFISCSupply(uint256)": "f7d84293",
          "guardian()": "452a9320",
          "latestProposalIds(address)": "17977c61",
          "name()": "06fdde03",
          "proposalCount()": "da35c664",
          "proposalMaxOperations()": "7bdbe4d0",
          "proposalThresholdPercent()": "a0ad9f93",
          "proposals(uint256)": "013cf08b",
          "propose(address[],uint256[],string[],bytes[],string)": "da95691a",
          "queue(uint256)": "ddf0b009",
          "quorumPercent()": "f81cbd26",
          "sFISC()": "6ddd86d9",
          "state(uint256)": "3e4f49e6",
          "timelock()": "d33219b4",
          "votingDelay()": "3932abb1",
          "votingPeriod()": "02a251a3"
        }
      },
      "storageLayout": {
        "storage": [
          {
            "astId": 47,
            "contract": "contracts/governance/GovernorAlpha.sol:GovernorAlpha",
            "label": "timelock",
            "offset": 0,
            "slot": "0",
            "type": "t_contract(TimelockInterface)1337"
          },
          {
            "astId": 49,
            "contract": "contracts/governance/GovernorAlpha.sol:GovernorAlpha",
            "label": "gFISC",
            "offset": 0,
            "slot": "1",
            "type": "t_contract(gFISCInterface)1354"
          },
          {
            "astId": 51,
            "contract": "contracts/governance/GovernorAlpha.sol:GovernorAlpha",
            "label": "sFISC",
            "offset": 0,
            "slot": "2",
            "type": "t_contract(sFISCInterface)1360"
          },
          {
            "astId": 53,
            "contract": "contracts/governance/GovernorAlpha.sol:GovernorAlpha",
            "label": "guardian",
            "offset": 0,
            "slot": "3",
            "type": "t_address"
          },
          {
            "astId": 55,
            "contract": "contracts/governance/GovernorAlpha.sol:GovernorAlpha",
            "label": "proposalCount",
            "offset": 0,
            "slot": "4",
            "type": "t_uint256"
          },
          {
            "astId": 114,
            "contract": "contracts/governance/GovernorAlpha.sol:GovernorAlpha",
            "label": "proposals",
            "offset": 0,
            "slot": "5",
            "type": "t_mapping(t_uint256,t_struct(Proposal)94_storage)"
          },
          {
            "astId": 118,
            "contract": "contracts/governance/GovernorAlpha.sol:GovernorAlpha",
            "label": "latestProposalIds",
            "offset": 0,
            "slot": "6",
            "type": "t_mapping(t_address,t_uint256)"
          }
        ],
        "types": {
          "t_address": {
            "encoding": "inplace",
            "label": "address",
            "numberOfBytes": "20"
          },
          "t_array(t_address)dyn_storage": {
            "base": "t_address",
            "encoding": "dynamic_array",
            "label": "address[]",
            "numberOfBytes": "32"
          },
          "t_array(t_bytes_storage)dyn_storage": {
            "base": "t_bytes_storage",
            "encoding": "dynamic_array",
            "label": "bytes[]",
            "numberOfBytes": "32"
          },
          "t_array(t_string_storage)dyn_storage": {
            "base": "t_string_storage",
            "encoding": "dynamic_array",
            "label": "string[]",
            "numberOfBytes": "32"
          },
          "t_array(t_uint256)dyn_storage": {
            "base": "t_uint256",
            "encoding": "dynamic_array",
            "label": "uint256[]",
            "numberOfBytes": "32"
          },
          "t_bool": {
            "encoding": "inplace",
            "label": "bool",
            "numberOfBytes": "1"
          },
          "t_bytes_storage": {
            "encoding": "bytes",
            "label": "bytes",
            "numberOfBytes": "32"
          },
          "t_contract(TimelockInterface)1337": {
            "encoding": "inplace",
            "label": "contract TimelockInterface",
            "numberOfBytes": "20"
          },
          "t_contract(gFISCInterface)1354": {
            "encoding": "inplace",
            "label": "contract gFISCInterface",
            "numberOfBytes": "20"
          },
          "t_contract(sFISCInterface)1360": {
            "encoding": "inplace",
            "label": "contract sFISCInterface",
            "numberOfBytes": "20"
          },
          "t_mapping(t_address,t_struct(Receipt)101_storage)": {
            "encoding": "mapping",
            "key": "t_address",
            "label": "mapping(address => struct GovernorAlpha.Receipt)",
            "numberOfBytes": "32",
            "value": "t_struct(Receipt)101_storage"
          },
          "t_mapping(t_address,t_uint256)": {
            "encoding": "mapping",
            "key": "t_address",
            "label": "mapping(address => uint256)",
            "numberOfBytes": "32",
            "value": "t_uint256"
          },
          "t_mapping(t_uint256,t_struct(Proposal)94_storage)": {
            "encoding": "mapping",
            "key": "t_uint256",
            "label": "mapping(uint256 => struct GovernorAlpha.Proposal)",
            "numberOfBytes": "32",
            "value": "t_struct(Proposal)94_storage"
          },
          "t_string_storage": {
            "encoding": "bytes",
            "label": "string",
            "numberOfBytes": "32"
          },
          "t_struct(Proposal)94_storage": {
            "encoding": "inplace",
            "label": "struct GovernorAlpha.Proposal",
            "members": [
              {
                "astId": 57,
                "contract": "contracts/governance/GovernorAlpha.sol:GovernorAlpha",
                "label": "id",
                "offset": 0,
                "slot": "0",
                "type": "t_uint256"
              },
              {
                "astId": 59,
                "contract": "contracts/governance/GovernorAlpha.sol:GovernorAlpha",
                "label": "proposer",
                "offset": 0,
                "slot": "1",
                "type": "t_address"
              },
              {
                "astId": 61,
                "contract": "contracts/governance/GovernorAlpha.sol:GovernorAlpha",
                "label": "eta",
                "offset": 0,
                "slot": "2",
                "type": "t_uint256"
              },
              {
                "astId": 64,
                "contract": "contracts/governance/GovernorAlpha.sol:GovernorAlpha",
                "label": "targets",
                "offset": 0,
                "slot": "3",
                "type": "t_array(t_address)dyn_storage"
              },
              {
                "astId": 67,
                "contract": "contracts/governance/GovernorAlpha.sol:GovernorAlpha",
                "label": "values",
                "offset": 0,
                "slot": "4",
                "type": "t_array(t_uint256)dyn_storage"
              },
              {
                "astId": 70,
                "contract": "contracts/governance/GovernorAlpha.sol:GovernorAlpha",
                "label": "signatures",
                "offset": 0,
                "slot": "5",
                "type": "t_array(t_string_storage)dyn_storage"
              },
              {
                "astId": 73,
                "contract": "contracts/governance/GovernorAlpha.sol:GovernorAlpha",
                "label": "calldatas",
                "offset": 0,
                "slot": "6",
                "type": "t_array(t_bytes_storage)dyn_storage"
              },
              {
                "astId": 75,
                "contract": "contracts/governance/GovernorAlpha.sol:GovernorAlpha",
                "label": "startBlock",
                "offset": 0,
                "slot": "7",
                "type": "t_uint256"
              },
              {
                "astId": 77,
                "contract": "contracts/governance/GovernorAlpha.sol:GovernorAlpha",
                "label": "endBlock",
                "offset": 0,
                "slot": "8",
                "type": "t_uint256"
              },
              {
                "astId": 79,
                "contract": "contracts/governance/GovernorAlpha.sol:GovernorAlpha",
                "label": "forVotes",
                "offset": 0,
                "slot": "9",
                "type": "t_uint256"
              },
              {
                "astId": 81,
                "contract": "contracts/governance/GovernorAlpha.sol:GovernorAlpha",
                "label": "againstVotes",
                "offset": 0,
                "slot": "10",
                "type": "t_uint256"
              },
              {
                "astId": 83,
                "contract": "contracts/governance/GovernorAlpha.sol:GovernorAlpha",
                "label": "thresholdAtStart",
                "offset": 0,
                "slot": "11",
                "type": "t_uint256"
              },
              {
                "astId": 85,
                "contract": "contracts/governance/GovernorAlpha.sol:GovernorAlpha",
                "label": "votesNeeded",
                "offset": 0,
                "slot": "12",
                "type": "t_uint256"
              },
              {
                "astId": 87,
                "contract": "contracts/governance/GovernorAlpha.sol:GovernorAlpha",
                "label": "canceled",
                "offset": 0,
                "slot": "13",
                "type": "t_bool"
              },
              {
                "astId": 89,
                "contract": "contracts/governance/GovernorAlpha.sol:GovernorAlpha",
                "label": "executed",
                "offset": 1,
                "slot": "13",
                "type": "t_bool"
              },
              {
                "astId": 93,
                "contract": "contracts/governance/GovernorAlpha.sol:GovernorAlpha",
                "label": "receipts",
                "offset": 0,
                "slot": "14",
                "type": "t_mapping(t_address,t_struct(Receipt)101_storage)"
              }
            ],
            "numberOfBytes": "480"
          },
          "t_struct(Receipt)101_storage": {
            "encoding": "inplace",
            "label": "struct GovernorAlpha.Receipt",
            "members": [
              {
                "astId": 96,
                "contract": "contracts/governance/GovernorAlpha.sol:GovernorAlpha",
                "label": "hasVoted",
                "offset": 0,
                "slot": "0",
                "type": "t_bool"
              },
              {
                "astId": 98,
                "contract": "contracts/governance/GovernorAlpha.sol:GovernorAlpha",
                "label": "support",
                "offset": 1,
                "slot": "0",
                "type": "t_bool"
              },
              {
                "astId": 100,
                "contract": "contracts/governance/GovernorAlpha.sol:GovernorAlpha",
                "label": "votes",
                "offset": 0,
                "slot": "1",
                "type": "t_uint256"
              }
            ],
            "numberOfBytes": "64"
          },
          "t_uint256": {
            "encoding": "inplace",
            "label": "uint256",
            "numberOfBytes": "32"
          }
        }
      },
      "userdoc": {
        "methods": {
          "getVotesFromPercentOfsFISCSupply(uint256)": {
            "notice": "change from original contract"
          },
          "proposalMaxOperations()": {
            "notice": "The maximum number of actions that can be included in a proposal"
          },
          "proposalThresholdPercent()": {
            "notice": "The maximum setable proposal threshold percentchange from original contract"
          },
          "quorumPercent()": {
            "notice": "The percent of sFISC in support of a proposal required in order for a quorum to be reached and for a vote to succeedchange from original contract"
          },
          "votingDelay()": {
            "notice": "The delay before voting on a proposal may take place, once proposed"
          },
          "votingPeriod()": {
            "notice": "The duration of voting on a proposal, in blocks"
          }
        }
      }
    }
  }
}