{
  "contracts/types/Governable.sol": {
    "Governable": {
      "abi": [
        {
          "inputs": [],
          "stateMutability": "nonpayable",
          "type": "constructor"
        },
        {
          "anonymous": false,
          "inputs": [
            {
              "indexed": true,
              "internalType": "address",
              "name": "previousGovernor",
              "type": "address"
            },
            {
              "indexed": true,
              "internalType": "address",
              "name": "newGovernor",
              "type": "address"
            }
          ],
          "name": "GovernorPulled",
          "type": "event"
        },
        {
          "anonymous": false,
          "inputs": [
            {
              "indexed": true,
              "internalType": "address",
              "name": "previousGovernor",
              "type": "address"
            },
            {
              "indexed": true,
              "internalType": "address",
              "name": "newGovernor",
              "type": "address"
            }
          ],
          "name": "GovernorPushed",
          "type": "event"
        },
        {
          "inputs": [],
          "name": "governor",
          "outputs": [
            {
              "internalType": "address",
              "name": "",
              "type": "address"
            }
          ],
          "stateMutability": "view",
          "type": "function"
        },
        {
          "inputs": [],
          "name": "pullGovernor",
          "outputs": [],
          "stateMutability": "nonpayable",
          "type": "function"
        },
        {
          "inputs": [
            {
              "internalType": "address",
              "name": "newGovernor_",
              "type": "address"
            }
          ],
          "name": "pushGovernor",
          "outputs": [],
          "stateMutability": "nonpayable",
          "type": "function"
        },
        {
          "inputs": [],
          "name": "renounceGovernor",
          "outputs": [],
          "stateMutability": "nonpayable",
          "type": "function"
        }
      ],
      "devdoc": {
        "kind": "dev",
        "methods": {},
        "version": 1
      },
      "evm": {
        "bytecode": {
          "linkReferences": {},
          "object": "608060405234801561001057600080fd5b50600080546001600160a01b03191633178082556040516001600160a01b039190911691907fffd6fed33fe8ec1016718bdd5d04ae6fecd9aba0da6578807daaaa7fc3d16826908290a361032e806100696000396000f3fe608060405234801561001057600080fd5b506004361061004c5760003560e01c80630c340a24146100515780631f5f2ccc14610075578063d8a042121461009d578063e026049c146100a5575b600080fd5b6100596100ad565b604080516001600160a01b039092168252519081900360200190f35b61009b6004803603602081101561008b57600080fd5b50356001600160a01b03166100bc565b005b61009b61016d565b61009b610227565b6000546001600160a01b031690565b6000546001600160a01b031633146101055760405162461bcd60e51b81526004018080602001828103825260268152602001806102d46026913960400191505060405180910390fd5b600080546040516001600160a01b03808516939216917f4fbd6e04620907a96d194bfd18fc026ef2836202d9265ffe2d9d9a944a9d907491a36001805473ffffffffffffffffffffffffffffffffffffffff19166001600160a01b0392909216919091179055565b6001546001600160a01b031633146101b65760405162461bcd60e51b81526004018080602001828103825260288152602001806102fa6028913960400191505060405180910390fd5b600154600080546040516001600160a01b0393841693909116917fffd6fed33fe8ec1016718bdd5d04ae6fecd9aba0da6578807daaaa7fc3d1682691a3600180546000805473ffffffffffffffffffffffffffffffffffffffff199081166001600160a01b03841617909155169055565b6000546001600160a01b031633146102705760405162461bcd60e51b81526004018080602001828103825260268152602001806102d46026913960400191505060405180910390fd5b600080546040516001600160a01b03909116907fffd6fed33fe8ec1016718bdd5d04ae6fecd9aba0da6578807daaaa7fc3d16826908390a36000805473ffffffffffffffffffffffffffffffffffffffff1990811690915560018054909116905556fe476f7665726e61626c653a2063616c6c6572206973206e6f742074686520676f7665726e6f72476f7665726e61626c653a206d757374206265206e657720676f7665726e6f7220746f2070756c6ca164736f6c6343000705000a",
          "opcodes": "PUSH1 0x80 PUSH1 0x40 MSTORE CALLVALUE DUP1 ISZERO PUSH2 0x10 JUMPI PUSH1 0x0 DUP1 REVERT JUMPDEST POP PUSH1 0x0 DUP1 SLOAD PUSH1 0x1 PUSH1 0x1 PUSH1 0xA0 SHL SUB NOT AND CALLER OR DUP1 DUP3 SSTORE PUSH1 0x40 MLOAD PUSH1 0x1 PUSH1 0x1 PUSH1 0xA0 SHL SUB SWAP2 SWAP1 SWAP2 AND SWAP2 SWAP1 PUSH32 0xFFD6FED33FE8EC1016718BDD5D04AE6FECD9ABA0DA6578807DAAAA7FC3D16826 SWAP1 DUP3 SWAP1 LOG3 PUSH2 0x32E DUP1 PUSH2 0x69 PUSH1 0x0 CODECOPY PUSH1 0x0 RETURN INVALID PUSH1 0x80 PUSH1 0x40 MSTORE CALLVALUE DUP1 ISZERO PUSH2 0x10 JUMPI PUSH1 0x0 DUP1 REVERT JUMPDEST POP PUSH1 0x4 CALLDATASIZE LT PUSH2 0x4C JUMPI PUSH1 0x0 CALLDATALOAD PUSH1 0xE0 SHR DUP1 PUSH4 0xC340A24 EQ PUSH2 0x51 JUMPI DUP1 PUSH4 0x1F5F2CCC EQ PUSH2 0x75 JUMPI DUP1 PUSH4 0xD8A04212 EQ PUSH2 0x9D JUMPI DUP1 PUSH4 0xE026049C EQ PUSH2 0xA5 JUMPI JUMPDEST PUSH1 0x0 DUP1 REVERT JUMPDEST PUSH2 0x59 PUSH2 0xAD JUMP JUMPDEST PUSH1 0x40 DUP1 MLOAD PUSH1 0x1 PUSH1 0x1 PUSH1 0xA0 SHL SUB SWAP1 SWAP3 AND DUP3 MSTORE MLOAD SWAP1 DUP2 SWAP1 SUB PUSH1 0x20 ADD SWAP1 RETURN JUMPDEST PUSH2 0x9B PUSH1 0x4 DUP1 CALLDATASIZE SUB PUSH1 0x20 DUP2 LT ISZERO PUSH2 0x8B JUMPI PUSH1 0x0 DUP1 REVERT JUMPDEST POP CALLDATALOAD PUSH1 0x1 PUSH1 0x1 PUSH1 0xA0 SHL SUB AND PUSH2 0xBC JUMP JUMPDEST STOP JUMPDEST PUSH2 0x9B PUSH2 0x16D JUMP JUMPDEST PUSH2 0x9B PUSH2 0x227 JUMP JUMPDEST PUSH1 0x0 SLOAD PUSH1 0x1 PUSH1 0x1 PUSH1 0xA0 SHL SUB AND SWAP1 JUMP JUMPDEST PUSH1 0x0 SLOAD PUSH1 0x1 PUSH1 0x1 PUSH1 0xA0 SHL SUB AND CALLER EQ PUSH2 0x105 JUMPI PUSH1 0x40 MLOAD PUSH3 0x461BCD PUSH1 0xE5 SHL DUP2 MSTORE PUSH1 0x4 ADD DUP1 DUP1 PUSH1 0x20 ADD DUP3 DUP2 SUB DUP3 MSTORE PUSH1 0x26 DUP2 MSTORE PUSH1 0x20 ADD DUP1 PUSH2 0x2D4 PUSH1 0x26 SWAP2 CODECOPY PUSH1 0x40 ADD SWAP2 POP POP PUSH1 0x40 MLOAD DUP1 SWAP2 SUB SWAP1 REVERT JUMPDEST PUSH1 0x0 DUP1 SLOAD PUSH1 0x40 MLOAD PUSH1 0x1 PUSH1 0x1 PUSH1 0xA0 SHL SUB DUP1 DUP6 AND SWAP4 SWAP3 AND SWAP2 PUSH32 0x4FBD6E04620907A96D194BFD18FC026EF2836202D9265FFE2D9D9A944A9D9074 SWAP2 LOG3 PUSH1 0x1 DUP1 SLOAD PUSH20 0xFFFFFFFFFFFFFFFFFFFFFFFFFFFFFFFFFFFFFFFF NOT AND PUSH1 0x1 PUSH1 0x1 PUSH1 0xA0 SHL SUB SWAP3 SWAP1 SWAP3 AND SWAP2 SWAP1 SWAP2 OR SWAP1 SSTORE JUMP JUMPDEST PUSH1 0x1 SLOAD PUSH1 0x1 PUSH1 0x1 PUSH1 0xA0 SHL SUB AND CALLER EQ PUSH2 0x1B6 JUMPI PUSH1 0x40 MLOAD PUSH3 0x461BCD PUSH1 0xE5 SHL DUP2 MSTORE PUSH1 0x4 ADD DUP1 DUP1 PUSH1 0x20 ADD DUP3 DUP2 SUB DUP3 MSTORE PUSH1 0x28 DUP2 MSTORE PUSH1 0x20 ADD DUP1 PUSH2 0x2FA PUSH1 0x28 SWAP2 CODECOPY PUSH1 0x40 ADD SWAP2 POP POP PUSH1 0x40 MLOAD DUP1 SWAP2 SUB SWAP1 REVERT JUMPDEST PUSH1 0x1 SLOAD PUSH1 0x0 DUP1 SLOAD PUSH1 0x40 MLOAD PUSH1 0x1 PUSH1 0x1 PUSH1 0xA0 SHL SUB SWAP4 DUP5 AND SWAP4 SWAP1 SWAP2 AND SWAP2 PUSH32 0xFFD6FED33FE8EC1016718BDD5D04AE6FECD9ABA0DA6578807DAAAA7FC3D16826 SWAP2 LOG3 PUSH1 0x1 DUP1 SLOAD PUSH1 0x0 DUP1 SLOAD PUSH20 0xFFFFFFFFFFFFFFFFFFFFFFFFFFFFFFFFFFFFFFFF NOT SWAP1 DUP2 AND PUSH1 0x1 PUSH1 0x1 PUSH1 0xA0 SHL SUB DUP5 AND OR SWAP1 SWAP2 SSTORE AND SWAP1 SSTORE JUMP JUMPDEST PUSH1 0x0 SLOAD PUSH1 0x1 PUSH1 0x1 PUSH1 0xA0 SHL SUB AND CALLER EQ PUSH2 0x270 JUMPI PUSH1 0x40 MLOAD PUSH3 0x461BCD PUSH1 0xE5 SHL DUP2 MSTORE PUSH1 0x4 ADD DUP1 DUP1 PUSH1 0x20 ADD DUP3 DUP2 SUB DUP3 MSTORE PUSH1 0x26 DUP2 MSTORE PUSH1 0x20 ADD DUP1 PUSH2 0x2D4 PUSH1 0x26 SWAP2 CODECOPY PUSH1 0x40 ADD SWAP2 POP POP PUSH1 0x40 MLOAD DUP1 SWAP2 SUB SWAP1 REVERT JUMPDEST PUSH1 0x0 DUP1 SLOAD PUSH1 0x40 MLOAD PUSH1 0x1 PUSH1 0x1 PUSH1 0xA0 SHL SUB SWAP1 SWAP2 AND SWAP1 PUSH32 0xFFD6FED33FE8EC1016718BDD5D04AE6FECD9ABA0DA6578807DAAAA7FC3D16826 SWAP1 DUP4 SWAP1 LOG3 PUSH1 0x0 DUP1 SLOAD PUSH20 0xFFFFFFFFFFFFFFFFFFFFFFFFFFFFFFFFFFFFFFFF NOT SWAP1 DUP2 AND SWAP1 SWAP2 SSTORE PUSH1 0x1 DUP1 SLOAD SWAP1 SWAP2 AND SWAP1 SSTORE JUMP INVALID SELFBALANCE PUSH16 0x7665726E61626C653A2063616C6C6572 KECCAK256 PUSH10 0x73206E6F742074686520 PUSH8 0x6F7665726E6F7247 PUSH16 0x7665726E61626C653A206D7573742062 PUSH6 0x206E65772067 PUSH16 0x7665726E6F7220746F2070756C6CA164 PUSH20 0x6F6C6343000705000A0000000000000000000000 "
        },
        "gasEstimates": {
          "creation": {
            "codeDepositCost": "162800",
            "executionCost": "22597",
            "totalCost": "185397"
          },
          "external": {
            "governor()": "1015",
            "pullGovernor()": "infinite",
            "pushGovernor(address)": "infinite",
            "renounceGovernor()": "infinite"
          }
        },
        "methodIdentifiers": {
          "governor()": "0c340a24",
          "pullGovernor()": "d8a04212",
          "pushGovernor(address)": "1f5f2ccc",
          "renounceGovernor()": "e026049c"
        }
      },
      "storageLayout": {
        "storage": [
          {
            "astId": 25,
            "contract": "contracts/types/Governable.sol:Governable",
            "label": "_governor",
            "offset": 0,
            "slot": "0",
            "type": "t_address"
          },
          {
            "astId": 27,
            "contract": "contracts/types/Governable.sol:Governable",
            "label": "_newGovernor",
            "offset": 0,
            "slot": "1",
            "type": "t_address"
          }
        ],
        "types": {
          "t_address": {
            "encoding": "inplace",
            "label": "address",
            "numberOfBytes": "20"
          }
        }
      },
      "userdoc": {
        "kind": "user",
        "methods": {},
        "version": 1
      }
    }
  }
}