{
  "_format": "hh-sol-artifact-1",
  "contractName": "GovernorAlpha",
  "sourceName": "contracts/governance/GovernorAlpha.sol",
  "abi": [
    {
      "inputs": [
        {
          "internalType": "address",
          "name": "timelock_",
          "type": "address"
        },
        {
          "internalType": "address",
          "name": "sFISC_",
          "type": "address"
        },
        {
          "internalType": "address",
          "name": "gFISC_",
          "type": "address"
        },
        {
          "internalType": "address",
          "name": "guardian_",
          "type": "address"
        }
      ],
      "payable": false,
      "stateMutability": "nonpayable",
      "type": "constructor"
    },
    {
      "anonymous": false,
      "inputs": [
        {
          "indexed": false,
          "internalType": "uint256",
          "name": "id",
          "type": "uint256"
        }
      ],
      "name": "ProposalCanceled",
      "type": "event"
    },
    {
      "anonymous": false,
      "inputs": [
        {
          "indexed": false,
          "internalType": "uint256",
          "name": "id",
          "type": "uint256"
        },
        {
          "indexed": false,
          "internalType": "address",
          "name": "proposer",
          "type": "address"
        },
        {
          "indexed": false,
          "internalType": "address[]",
          "name": "targets",
          "type": "address[]"
        },
        {
          "indexed": false,
          "internalType": "uint256[]",
          "name": "values",
          "type": "uint256[]"
        },
        {
          "indexed": false,
          "internalType": "string[]",
          "name": "signatures",
          "type": "string[]"
        },
        {
          "indexed": false,
          "internalType": "bytes[]",
          "name": "calldatas",
          "type": "bytes[]"
        },
        {
          "indexed": false,
          "internalType": "uint256",
          "name": "startBlock",
          "type": "uint256"
        },
        {
          "indexed": false,
          "internalType": "uint256",
          "name": "endBlock",
          "type": "uint256"
        },
        {
          "indexed": false,
          "internalType": "string",
          "name": "description",
          "type": "string"
        }
      ],
      "name": "ProposalCreated",
      "type": "event"
    },
    {
      "anonymous": false,
      "inputs": [
        {
          "indexed": false,
          "internalType": "uint256",
          "name": "id",
          "type": "uint256"
        }
      ],
      "name": "ProposalExecuted",
      "type": "event"
    },
    {
      "anonymous": false,
      "inputs": [
        {
          "indexed": false,
          "internalType": "uint256",
          "name": "id",
          "type": "uint256"
        },
        {
          "indexed": false,
          "internalType": "uint256",
          "name": "eta",
          "type": "uint256"
        }
      ],
      "name": "ProposalQueued",
      "type": "event"
    },
    {
      "anonymous": false,
      "inputs": [
        {
          "indexed": false,
          "internalType": "address",
          "name": "voter",
          "type": "address"
        },
        {
          "indexed": false,
          "internalType": "uint256",
          "name": "proposalId",
          "type": "uint256"
        },
        {
          "indexed": false,
          "internalType": "bool",
          "name": "support",
          "type": "bool"
        },
        {
          "indexed": false,
          "internalType": "uint256",
          "name": "votes",
          "type": "uint256"
        }
      ],
      "name": "VoteCast",
      "type": "event"
    },
    {
      "constant": true,
      "inputs": [],
      "name": "BALLOT_TYPEHASH",
      "outputs": [
        {
          "internalType": "bytes32",
          "name": "",
          "type": "bytes32"
        }
      ],
      "payable": false,
      "stateMutability": "view",
      "type": "function"
    },
    {
      "constant": true,
      "inputs": [],
      "name": "DOMAIN_TYPEHASH",
      "outputs": [
        {
          "internalType": "bytes32",
          "name": "",
          "type": "bytes32"
        }
      ],
      "payable": false,
      "stateMutability": "view",
      "type": "function"
    },
    {
      "constant": false,
      "inputs": [],
      "name": "__abdicate",
      "outputs": [],
      "payable": false,
      "stateMutability": "nonpayable",
      "type": "function"
    },
    {
      "constant": false,
      "inputs": [],
      "name": "__acceptAdmin",
      "outputs": [],
      "payable": false,
      "stateMutability": "nonpayable",
      "type": "function"
    },
    {
      "constant": false,
      "inputs": [
        {
          "internalType": "address",
          "name": "newPendingAdmin",
          "type": "address"
        },
        {
          "internalType": "uint256",
          "name": "eta",
          "type": "uint256"
        }
      ],
      "name": "__executeSetTimelockPendingAdmin",
      "outputs": [],
      "payable": false,
      "stateMutability": "nonpayable",
      "type": "function"
    },
    {
      "constant": false,
      "inputs": [
        {
          "internalType": "address",
          "name": "newPendingAdmin",
          "type": "address"
        },
        {
          "internalType": "uint256",
          "name": "eta",
          "type": "uint256"
        }
      ],
      "name": "__queueSetTimelockPendingAdmin",
      "outputs": [],
      "payable": false,
      "stateMutability": "nonpayable",
      "type": "function"
    },
    {
      "constant": false,
      "inputs": [
        {
          "internalType": "uint256",
          "name": "proposalId",
          "type": "uint256"
        }
      ],
      "name": "cancel",
      "outputs": [],
      "payable": false,
      "stateMutability": "nonpayable",
      "type": "function"
    },
    {
      "constant": false,
      "inputs": [
        {
          "internalType": "uint256",
          "name": "proposalId",
          "type": "uint256"
        },
        {
          "internalType": "bool",
          "name": "support",
          "type": "bool"
        }
      ],
      "name": "castVote",
      "outputs": [],
      "payable": false,
      "stateMutability": "nonpayable",
      "type": "function"
    },
    {
      "constant": false,
      "inputs": [
        {
          "internalType": "uint256",
          "name": "proposalId",
          "type": "uint256"
        },
        {
          "internalType": "bool",
          "name": "support",
          "type": "bool"
        },
        {
          "internalType": "uint8",
          "name": "v",
          "type": "uint8"
        },
        {
          "internalType": "bytes32",
          "name": "r",
          "type": "bytes32"
        },
        {
          "internalType": "bytes32",
          "name": "s",
          "type": "bytes32"
        }
      ],
      "name": "castVoteBySig",
      "outputs": [],
      "payable": false,
      "stateMutability": "nonpayable",
      "type": "function"
    },
    {
      "constant": false,
      "inputs": [
        {
          "internalType": "uint256",
          "name": "proposalId",
          "type": "uint256"
        }
      ],
      "name": "execute",
      "outputs": [],
      "payable": true,
      "stateMutability": "payable",
      "type": "function"
    },
    {
      "constant": true,
      "inputs": [],
      "name": "gFISC",
      "outputs": [
        {
          "internalType": "contract gFISCInterface",
          "name": "",
          "type": "address"
        }
      ],
      "payable": false,
      "stateMutability": "view",
      "type": "function"
    },
    {
      "constant": true,
      "inputs": [
        {
          "internalType": "uint256",
          "name": "proposalId",
          "type": "uint256"
        }
      ],
      "name": "getActions",
      "outputs": [
        {
          "internalType": "address[]",
          "name": "targets",
          "type": "address[]"
        },
        {
          "internalType": "uint256[]",
          "name": "values",
          "type": "uint256[]"
        },
        {
          "internalType": "string[]",
          "name": "signatures",
          "type": "string[]"
        },
        {
          "internalType": "bytes[]",
          "name": "calldatas",
          "type": "bytes[]"
        }
      ],
      "payable": false,
      "stateMutability": "view",
      "type": "function"
    },
    {
      "constant": true,
      "inputs": [
        {
          "internalType": "uint256",
          "name": "proposalId",
          "type": "uint256"
        },
        {
          "internalType": "address",
          "name": "voter",
          "type": "address"
        }
      ],
      "name": "getReceipt",
      "outputs": [
        {
          "components": [
            {
              "internalType": "bool",
              "name": "hasVoted",
              "type": "bool"
            },
            {
              "internalType": "bool",
              "name": "support",
              "type": "bool"
            },
            {
              "internalType": "uint256",
              "name": "votes",
              "type": "uint256"
            }
          ],
          "internalType": "struct GovernorAlpha.Receipt",
          "name": "",
          "type": "tuple"
        }
      ],
      "payable": false,
      "stateMutability": "view",
      "type": "function"
    },
    {
      "constant": true,
      "inputs": [
        {
          "internalType": "uint256",
          "name": "percent",
          "type": "uint256"
        }
      ],
      "name": "getVotesFromPercentOfsFISCSupply",
      "outputs": [
        {
          "internalType": "uint256",
          "name": "votes",
          "type": "uint256"
        }
      ],
      "payable": false,
      "stateMutability": "view",
      "type": "function"
    },
    {
      "constant": true,
      "inputs": [],
      "name": "guardian",
      "outputs": [
        {
          "internalType": "address",
          "name": "",
          "type": "address"
        }
      ],
      "payable": false,
      "stateMutability": "view",
      "type": "function"
    },
    {
      "constant": true,
      "inputs": [
        {
          "internalType": "address",
          "name": "",
          "type": "address"
        }
      ],
      "name": "latestProposalIds",
      "outputs": [
        {
          "internalType": "uint256",
          "name": "",
          "type": "uint256"
        }
      ],
      "payable": false,
      "stateMutability": "view",
      "type": "function"
    },
    {
      "constant": true,
      "inputs": [],
      "name": "name",
      "outputs": [
        {
          "internalType": "string",
          "name": "",
          "type": "string"
        }
      ],
      "payable": false,
      "stateMutability": "view",
      "type": "function"
    },
    {
      "constant": true,
      "inputs": [],
      "name": "proposalCount",
      "outputs": [
        {
          "internalType": "uint256",
          "name": "",
          "type": "uint256"
        }
      ],
      "payable": false,
      "stateMutability": "view",
      "type": "function"
    },
    {
      "constant": true,
      "inputs": [],
      "name": "proposalMaxOperations",
      "outputs": [
        {
          "internalType": "uint256",
          "name": "",
          "type": "uint256"
        }
      ],
      "payable": false,
      "stateMutability": "pure",
      "type": "function"
    },
    {
      "constant": true,
      "inputs": [],
      "name": "proposalThresholdPercent",
      "outputs": [
        {
          "internalType": "uint256",
          "name": "",
          "type": "uint256"
        }
      ],
      "payable": false,
      "stateMutability": "pure",
      "type": "function"
    },
    {
      "constant": true,
      "inputs": [
        {
          "internalType": "uint256",
          "name": "",
          "type": "uint256"
        }
      ],
      "name": "proposals",
      "outputs": [
        {
          "internalType": "uint256",
          "name": "id",
          "type": "uint256"
        },
        {
          "internalType": "address",
          "name": "proposer",
          "type": "address"
        },
        {
          "internalType": "uint256",
          "name": "eta",
          "type": "uint256"
        },
        {
          "internalType": "uint256",
          "name": "startBlock",
          "type": "uint256"
        },
        {
          "internalType": "uint256",
          "name": "endBlock",
          "type": "uint256"
        },
        {
          "internalType": "uint256",
          "name": "forVotes",
          "type": "uint256"
        },
        {
          "internalType": "uint256",
          "name": "againstVotes",
          "type": "uint256"
        },
        {
          "internalType": "uint256",
          "name": "thresholdAtStart",
          "type": "uint256"
        },
        {
          "internalType": "uint256",
          "name": "votesNeeded",
          "type": "uint256"
        },
        {
          "internalType": "bool",
          "name": "canceled",
          "type": "bool"
        },
        {
          "internalType": "bool",
          "name": "executed",
          "type": "bool"
        }
      ],
      "payable": false,
      "stateMutability": "view",
      "type": "function"
    },
    {
      "constant": false,
      "inputs": [
        {
          "internalType": "address[]",
          "name": "targets",
          "type": "address[]"
        },
        {
          "internalType": "uint256[]",
          "name": "values",
          "type": "uint256[]"
        },
        {
          "internalType": "string[]",
          "name": "signatures",
          "type": "string[]"
        },
        {
          "internalType": "bytes[]",
          "name": "calldatas",
          "type": "bytes[]"
        },
        {
          "internalType": "string",
          "name": "description",
          "type": "string"
        }
      ],
      "name": "propose",
      "outputs": [
        {
          "internalType": "uint256",
          "name": "",
          "type": "uint256"
        }
      ],
      "payable": false,
      "stateMutability": "nonpayable",
      "type": "function"
    },
    {
      "constant": false,
      "inputs": [
        {
          "internalType": "uint256",
          "name": "proposalId",
          "type": "uint256"
        }
      ],
      "name": "queue",
      "outputs": [],
      "payable": false,
      "stateMutability": "nonpayable",
      "type": "function"
    },
    {
      "constant": true,
      "inputs": [],
      "name": "quorumPercent",
      "outputs": [
        {
          "internalType": "uint256",
          "name": "",
          "type": "uint256"
        }
      ],
      "payable": false,
      "stateMutability": "pure",
      "type": "function"
    },
    {
      "constant": true,
      "inputs": [],
      "name": "sFISC",
      "outputs": [
        {
          "internalType": "contract sFISCInterface",
          "name": "",
          "type": "address"
        }
      ],
      "payable": false,
      "stateMutability": "view",
      "type": "function"
    },
    {
      "constant": true,
      "inputs": [
        {
          "internalType": "uint256",
          "name": "proposalId",
          "type": "uint256"
        }
      ],
      "name": "state",
      "outputs": [
        {
          "internalType": "enum GovernorAlpha.ProposalState",
          "name": "",
          "type": "uint8"
        }
      ],
      "payable": false,
      "stateMutability": "view",
      "type": "function"
    },
    {
      "constant": true,
      "inputs": [],
      "name": "timelock",
      "outputs": [
        {
          "internalType": "contract TimelockInterface",
          "name": "",
          "type": "address"
        }
      ],
      "payable": false,
      "stateMutability": "view",
      "type": "function"
    },
    {
      "constant": true,
      "inputs": [],
      "name": "votingDelay",
      "outputs": [
        {
          "internalType": "uint256",
          "name": "",
          "type": "uint256"
        }
      ],
      "payable": false,
      "stateMutability": "pure",
      "type": "function"
    },
    {
      "constant": true,
      "inputs": [],
      "name": "votingPeriod",
      "outputs": [
        {
          "internalType": "uint256",
          "name": "",
          "type": "uint256"
        }
      ],
      "payable": false,
      "stateMutability": "pure",
      "type": "function"
    }
  ],
  "bytecode": "0x60806040523480156200001157600080fd5b50604051620057e3380380620057e383398181016040526200003791908101906200015b565b836000806101000a81548173ffffffffffffffffffffffffffffffffffffffff021916908373ffffffffffffffffffffffffffffffffffffffff16021790555082600260006101000a81548173ffffffffffffffffffffffffffffffffffffffff021916908373ffffffffffffffffffffffffffffffffffffffff16021790555081600160006101000a81548173ffffffffffffffffffffffffffffffffffffffff021916908373ffffffffffffffffffffffffffffffffffffffff16021790555080600360006101000a81548173ffffffffffffffffffffffffffffffffffffffff021916908373ffffffffffffffffffffffffffffffffffffffff1602179055505050505062000215565b6000815190506200015581620001fb565b92915050565b600080600080608085870312156200017257600080fd5b6000620001828782880162000144565b9450506020620001958782880162000144565b9350506040620001a88782880162000144565b9250506060620001bb8782880162000144565b91505092959194509250565b6000620001d482620001db565b9050919050565b600073ffffffffffffffffffffffffffffffffffffffff82169050919050565b6200020681620001c7565b81146200021257600080fd5b50565b6155be80620002256000396000f3fe6080604052600436106101c25760003560e01c8063760fbc13116100f7578063da35c66411610095578063e23a9a5211610064578063e23a9a521461062d578063f7d842931461066a578063f81cbd26146106a7578063fe0d94c1146106d2576101c2565b8063da35c66414610571578063da95691a1461059c578063ddf0b009146105d9578063deaaa7cc14610602576101c2565b8063a0ad9f93116100d1578063a0ad9f93146104d9578063b9a6196114610504578063d33219b41461051b578063d9bfd80514610546576101c2565b8063760fbc131461046e5780637bdbe4d01461048557806391500671146104b0576101c2565b8063328dd9821161016457806340e58ee51161013e57806340e58ee5146103c6578063452a9320146103ef5780634634c61f1461041a5780636ddd86d914610443576101c2565b8063328dd9821461031e5780633932abb11461035e5780633e4f49e614610389576101c2565b806315373e3d116101a057806315373e3d1461026457806317977c611461028d57806320606b70146102ca57806321f43e42146102f5576101c2565b8063013cf08b146101c757806302a251a31461020e57806306fdde0314610239575b600080fd5b3480156101d357600080fd5b506101ee60048036036101e991908101906135ee565b6106ee565b6040516102059b9a99989796959493929190614f8c565b60405180910390f35b34801561021a57600080fd5b50610223610782565b6040516102309190614ec1565b60405180910390f35b34801561024557600080fd5b5061024e61078c565b60405161025b9190614ba4565b60405180910390f35b34801561027057600080fd5b5061028b6004803603610286919081019061367c565b6107c5565b005b34801561029957600080fd5b506102b460048036036102af9190810190613407565b6107d4565b6040516102c19190614ec1565b60405180910390f35b3480156102d657600080fd5b506102df6107ec565b6040516102ec9190614a5c565b60405180910390f35b34801561030157600080fd5b5061031c60048036036103179190810190613430565b610803565b005b34801561032a57600080fd5b50610345600480360361034091908101906135ee565b610990565b60405161035594939291906149fb565b60405180910390f35b34801561036a57600080fd5b50610373610c6d565b6040516103809190614ec1565b60405180910390f35b34801561039557600080fd5b506103b060048036036103ab91908101906135ee565b610c76565b6040516103bd9190614b89565b60405180910390f35b3480156103d257600080fd5b506103ed60048036036103e891908101906135ee565b610e57565b005b3480156103fb57600080fd5b506104046111e2565b6040516104119190614828565b60405180910390f35b34801561042657600080fd5b50610441600480360361043c91908101906136b8565b611208565b005b34801561044f57600080fd5b506104586113d7565b6040516104659190614b6e565b60405180910390f35b34801561047a57600080fd5b506104836113fd565b005b34801561049157600080fd5b5061049a6114d1565b6040516104a79190614ec1565b60405180910390f35b3480156104bc57600080fd5b506104d760048036036104d29190810190613430565b6114da565b005b3480156104e557600080fd5b506104ee611662565b6040516104fb9190614ec1565b60405180910390f35b34801561051057600080fd5b5061051961166c565b005b34801561052757600080fd5b5061053061177f565b60405161053d9190614b38565b60405180910390f35b34801561055257600080fd5b5061055b6117a4565b6040516105689190614b53565b60405180910390f35b34801561057d57600080fd5b506105866117ca565b6040516105939190614ec1565b60405180910390f35b3480156105a857600080fd5b506105c360048036036105be919081019061346c565b6117d0565b6040516105d09190614ec1565b60405180910390f35b3480156105e557600080fd5b5061060060048036036105fb91908101906135ee565b611dd7565b005b34801561060e57600080fd5b50610617612126565b6040516106249190614a5c565b60405180910390f35b34801561063957600080fd5b50610654600480360361064f9190810190613640565b61213d565b6040516106619190614ea6565b60405180910390f35b34801561067657600080fd5b50610691600480360361068c91908101906135ee565b6121eb565b60405161069e9190614ec1565b60405180910390f35b3480156106b357600080fd5b506106bc612353565b6040516106c99190614ec1565b60405180910390f35b6106ec60048036036106e791908101906135ee565b61235d565b005b60056020528060005260406000206000915090508060000154908060010160009054906101000a900473ffffffffffffffffffffffffffffffffffffffff169080600201549080600701549080600801549080600901549080600a01549080600b01549080600c01549080600d0160009054906101000a900460ff169080600d0160019054906101000a900460ff1690508b565b6000614380905090565b6040518060400160405280601781526020017f46697363757320476f7665726e6f72204649534365676100000000000000000081525081565b6107d03383836125aa565b5050565b60066020528060005260406000206000915090505481565b6040516107f8906147fe565b604051809103902081565b600360009054906101000a900473ffffffffffffffffffffffffffffffffffffffff1673ffffffffffffffffffffffffffffffffffffffff163373ffffffffffffffffffffffffffffffffffffffff1614610893576040517f08c379a000000000000000000000000000000000000000000000000000000000815260040161088a90614c26565b60405180910390fd5b6000809054906101000a900473ffffffffffffffffffffffffffffffffffffffff1673ffffffffffffffffffffffffffffffffffffffff16630825f38f6000809054906101000a900473ffffffffffffffffffffffffffffffffffffffff166000856040516020016109059190614828565b604051602081830303815290604052856040518563ffffffff1660e01b8152600401610934949392919061486c565b600060405180830381600087803b15801561094e57600080fd5b505af1158015610962573d6000803e3d6000fd5b505050506040513d6000823e3d601f19601f8201168201806040525061098b91908101906135ad565b505050565b60608060608060006005600087815260200190815260200160002090508060030181600401826005018360060183805480602002602001604051908101604052809291908181526020018280548015610a3e57602002820191906000526020600020905b8160009054906101000a900473ffffffffffffffffffffffffffffffffffffffff1673ffffffffffffffffffffffffffffffffffffffff16815260200190600101908083116109f4575b5050505050935082805480602002602001604051908101604052809291908181526020018280548015610a9057602002820191906000526020600020905b815481526020019060010190808311610a7c575b5050505050925081805480602002602001604051908101604052809291908181526020016000905b82821015610b74578382906000526020600020018054600181600116156101000203166002900480601f016020809104026020016040519081016040528092919081815260200182805460018160011615610100020316600290048015610b605780601f10610b3557610100808354040283529160200191610b60565b820191906000526020600020905b815481529060010190602001808311610b4357829003601f168201915b505050505081526020019060010190610ab8565b50505050915080805480602002602001604051908101604052809291908181526020016000905b82821015610c57578382906000526020600020018054600181600116156101000203166002900480601f016020809104026020016040519081016040528092919081815260200182805460018160011615610100020316600290048015610c435780601f10610c1857610100808354040283529160200191610c43565b820191906000526020600020905b815481529060010190602001808311610c2657829003601f168201915b505050505081526020019060010190610b9b565b5050505090509450945094509450509193509193565b60006001905090565b60008160045410158015610c8a5750600082115b610cc9576040517f08c379a0000000000000000000000000000000000000000000000000000000008152600401610cc090614c66565b60405180910390fd5b600060056000848152602001908152602001600020905080600d0160009054906101000a900460ff1615610d01576002915050610e52565b80600701544311610d16576000915050610e52565b80600801544311610d2b576001915050610e52565b80600a01548160090154111580610d49575080600c01548160090154105b15610d58576003915050610e52565b600081600201541415610d6f576004915050610e52565b80600d0160019054906101000a900460ff1615610d90576007915050610e52565b610e3c81600201546000809054906101000a900473ffffffffffffffffffffffffffffffffffffffff1673ffffffffffffffffffffffffffffffffffffffff1663c1a287e26040518163ffffffff1660e01b815260040160206040518083038186803b158015610dff57600080fd5b505afa158015610e13573d6000803e3d6000fd5b505050506040513d601f19601f82011682018060405250610e379190810190613617565b612833565b4210610e4c576006915050610e52565b60059150505b919050565b6000610e6282610c76565b9050600780811115610e7057fe5b816007811115610e7c57fe5b1415610ebd576040517f08c379a0000000000000000000000000000000000000000000000000000000008152600401610eb490614e26565b60405180910390fd5b6000600560008481526020019081526020016000209050600360009054906101000a900473ffffffffffffffffffffffffffffffffffffffff1673ffffffffffffffffffffffffffffffffffffffff163373ffffffffffffffffffffffffffffffffffffffff16148061100d575080600b0154600160009054906101000a900473ffffffffffffffffffffffffffffffffffffffff1673ffffffffffffffffffffffffffffffffffffffff1663782d6fe18360010160009054906101000a900473ffffffffffffffffffffffffffffffffffffffff16610f9e436001612888565b6040518363ffffffff1660e01b8152600401610fbb9291906148cb565b60206040518083038186803b158015610fd357600080fd5b505afa158015610fe7573d6000803e3d6000fd5b505050506040513d601f19601f8201168201806040525061100b9190810190613617565b105b61104c576040517f08c379a000000000000000000000000000000000000000000000000000000000815260040161104390614d46565b60405180910390fd5b600181600d0160006101000a81548160ff02191690831515021790555060008090505b81600301805490508110156111a5576000809054906101000a900473ffffffffffffffffffffffffffffffffffffffff1673ffffffffffffffffffffffffffffffffffffffff1663591fcdfe8360030183815481106110ca57fe5b9060005260206000200160009054906101000a900473ffffffffffffffffffffffffffffffffffffffff1684600401848154811061110457fe5b906000526020600020015485600501858154811061111e57fe5b9060005260206000200186600601868154811061113757fe5b9060005260206000200187600201546040518663ffffffff1660e01b815260040161116695949392919061499a565b600060405180830381600087803b15801561118057600080fd5b505af1158015611194573d6000803e3d6000fd5b50505050808060010191505061106f565b507f789cf55be980739dad1d0699b93b58e806b51c9d96619bfa8fe0a28abaa7b30c836040516111d59190614ec1565b60405180910390a1505050565b600360009054906101000a900473ffffffffffffffffffffffffffffffffffffffff1681565b6000604051611216906147fe565b60405180910390206040518060400160405280601781526020017f46697363757320476f7665726e6f722046495343656761000000000000000000815250805190602001206112636128d8565b306040516020016112779493929190614a77565b604051602081830303815290604052805190602001209050600060405161129d90614813565b604051809103902087876040516020016112b993929190614abc565b604051602081830303815290604052805190602001209050600082826040516020016112e69291906147c7565b6040516020818303038152906040528051906020012090506000600182888888604051600081526020016040526040516113239493929190614af3565b6020604051602081039080840390855afa158015611345573d6000803e3d6000fd5b505050602060405103519050600073ffffffffffffffffffffffffffffffffffffffff168173ffffffffffffffffffffffffffffffffffffffff1614156113c1576040517f08c379a00000000000000000000000000000000000000000000000000000000081526004016113b890614dc6565b60405180910390fd5b6113cc818a8a6125aa565b505050505050505050565b600260009054906101000a900473ffffffffffffffffffffffffffffffffffffffff1681565b600360009054906101000a900473ffffffffffffffffffffffffffffffffffffffff1673ffffffffffffffffffffffffffffffffffffffff163373ffffffffffffffffffffffffffffffffffffffff161461148d576040517f08c379a000000000000000000000000000000000000000000000000000000000815260040161148490614e86565b60405180910390fd5b6000600360006101000a81548173ffffffffffffffffffffffffffffffffffffffff021916908373ffffffffffffffffffffffffffffffffffffffff160217905550565b6000600a905090565b600360009054906101000a900473ffffffffffffffffffffffffffffffffffffffff1673ffffffffffffffffffffffffffffffffffffffff163373ffffffffffffffffffffffffffffffffffffffff161461156a576040517f08c379a000000000000000000000000000000000000000000000000000000000815260040161156190614cc6565b60405180910390fd5b6000809054906101000a900473ffffffffffffffffffffffffffffffffffffffff1673ffffffffffffffffffffffffffffffffffffffff16633a66f9016000809054906101000a900473ffffffffffffffffffffffffffffffffffffffff166000856040516020016115dc9190614828565b604051602081830303815290604052856040518563ffffffff1660e01b815260040161160b949392919061486c565b602060405180830381600087803b15801561162557600080fd5b505af1158015611639573d6000803e3d6000fd5b505050506040513d601f19601f8201168201806040525061165d9190810190613584565b505050565b6000612710905090565b600360009054906101000a900473ffffffffffffffffffffffffffffffffffffffff1673ffffffffffffffffffffffffffffffffffffffff163373ffffffffffffffffffffffffffffffffffffffff16146116fc576040517f08c379a00000000000000000000000000000000000000000000000000000000081526004016116f390614bc6565b60405180910390fd5b6000809054906101000a900473ffffffffffffffffffffffffffffffffffffffff1673ffffffffffffffffffffffffffffffffffffffff16630e18b6816040518163ffffffff1660e01b8152600401600060405180830381600087803b15801561176557600080fd5b505af1158015611779573d6000803e3d6000fd5b50505050565b6000809054906101000a900473ffffffffffffffffffffffffffffffffffffffff1681565b600160009054906101000a900473ffffffffffffffffffffffffffffffffffffffff1681565b60045481565b60006117e26117dd611662565b6121eb565b600160009054906101000a900473ffffffffffffffffffffffffffffffffffffffff1673ffffffffffffffffffffffffffffffffffffffff1663782d6fe13361182c436001612888565b6040518363ffffffff1660e01b8152600401611849929190614843565b60206040518083038186803b15801561186157600080fd5b505afa158015611875573d6000803e3d6000fd5b505050506040513d601f19601f820116820180604052506118999190810190613617565b116118d9576040517f08c379a00000000000000000000000000000000000000000000000000000000081526004016118d090614da6565b60405180910390fd5b845186511480156118eb575083518651145b80156118f8575082518651145b611937576040517f08c379a000000000000000000000000000000000000000000000000000000000815260040161192e90614d26565b60405180910390fd5b60008651141561197c576040517f08c379a000000000000000000000000000000000000000000000000000000000815260040161197390614d86565b60405180910390fd5b6119846114d1565b865111156119c7576040517f08c379a00000000000000000000000000000000000000000000000000000000081526004016119be90614ce6565b60405180910390fd5b6000600660003373ffffffffffffffffffffffffffffffffffffffff1673ffffffffffffffffffffffffffffffffffffffff16815260200190815260200160002054905060008114611ad6576000611a1e82610c76565b905060016007811115611a2d57fe5b816007811115611a3957fe5b1415611a7a576040517f08c379a0000000000000000000000000000000000000000000000000000000008152600401611a7190614e06565b60405180910390fd5b60006007811115611a8757fe5b816007811115611a9357fe5b1415611ad4576040517f08c379a0000000000000000000000000000000000000000000000000000000008152600401611acb90614ca6565b60405180910390fd5b505b6000611ae943611ae4610c6d565b612833565b90506000611afe82611af9610782565b612833565b9050600460008154809291906001019190505550611b1a612b85565b604051806101e0016040528060045481526020013373ffffffffffffffffffffffffffffffffffffffff168152602001600081526020018b81526020018a81526020018981526020018881526020018481526020018381526020016000815260200160008152602001611b93611b8e611662565b6121eb565b8152602001611ba8611ba3612353565b6121eb565b81526020016000151581526020016000151581525090508060056000836000015181526020019081526020016000206000820151816000015560208201518160010160006101000a81548173ffffffffffffffffffffffffffffffffffffffff021916908373ffffffffffffffffffffffffffffffffffffffff160217905550604082015181600201556060820151816003019080519060200190611c4e929190612c15565b506080820151816004019080519060200190611c6b929190612c9f565b5060a0820151816005019080519060200190611c88929190612cec565b5060c0820151816006019080519060200190611ca5929190612d4c565b5060e082015181600701556101008201518160080155610120820151816009015561014082015181600a015561016082015181600b015561018082015181600c01556101a082015181600d0160006101000a81548160ff0219169083151502179055506101c082015181600d0160016101000a81548160ff021916908315150217905550905050806000015160066000836020015173ffffffffffffffffffffffffffffffffffffffff1673ffffffffffffffffffffffffffffffffffffffff168152602001908152602001600020819055507f7d84a6263ae0d98d3329bd7b46bb4e8d6f98cd35a7adb45c274c8b7fd5ebd5e08160000151338c8c8c8c89898e604051611dbb99989796959493929190614edc565b60405180910390a1806000015194505050505095945050505050565b60046007811115611de457fe5b611ded82610c76565b6007811115611df857fe5b14611e38576040517f08c379a0000000000000000000000000000000000000000000000000000000008152600401611e2f90614be6565b60405180910390fd5b60006005600083815260200190815260200160002090506000611ef9426000809054906101000a900473ffffffffffffffffffffffffffffffffffffffff1673ffffffffffffffffffffffffffffffffffffffff16636a42b8f86040518163ffffffff1660e01b815260040160206040518083038186803b158015611ebc57600080fd5b505afa158015611ed0573d6000803e3d6000fd5b505050506040513d601f19601f82011682018060405250611ef49190810190613617565b612833565b905060008090505b82600301805490508110156120de576120d1836003018281548110611f2257fe5b9060005260206000200160009054906101000a900473ffffffffffffffffffffffffffffffffffffffff16846004018381548110611f5c57fe5b9060005260206000200154856005018481548110611f7657fe5b906000526020600020018054600181600116156101000203166002900480601f0160208091040260200160405190810160405280929190818152602001828054600181600116156101000203166002900480156120145780601f10611fe957610100808354040283529160200191612014565b820191906000526020600020905b815481529060010190602001808311611ff757829003601f168201915b505050505086600601858154811061202857fe5b906000526020600020018054600181600116156101000203166002900480601f0160208091040260200160405190810160405280929190818152602001828054600181600116156101000203166002900480156120c65780601f1061209b576101008083540402835291602001916120c6565b820191906000526020600020905b8154815290600101906020018083116120a957829003601f168201915b5050505050866128e5565b8080600101915050611f01565b508082600201819055507f9a2e42fd6722813d69113e7d0079d3d940171428df7373df9c7f7617cfda28928382604051612119929190615037565b60405180910390a1505050565b60405161213290614813565b604051809103902081565b612145612dac565b60056000848152602001908152602001600020600e0160008373ffffffffffffffffffffffffffffffffffffffff1673ffffffffffffffffffffffffffffffffffffffff1681526020019081526020016000206040518060600160405290816000820160009054906101000a900460ff161515151581526020016000820160019054906101000a900460ff16151515158152602001600182015481525050905092915050565b6000600160009054906101000a900473ffffffffffffffffffffffffffffffffffffffff1673ffffffffffffffffffffffffffffffffffffffff166366a5236c6122e06122d7600260009054906101000a900473ffffffffffffffffffffffffffffffffffffffff1673ffffffffffffffffffffffffffffffffffffffff16639358928b6040518163ffffffff1660e01b815260040160206040518083038186803b15801561229957600080fd5b505afa1580156122ad573d6000803e3d6000fd5b505050506040513d601f19601f820116820180604052506122d19190810190613617565b86612ab9565b620f4240612b29565b6040518263ffffffff1660e01b81526004016122fc9190614ec1565b60206040518083038186803b15801561231457600080fd5b505afa158015612328573d6000803e3d6000fd5b505050506040513d601f19601f8201168201806040525061234c9190810190613617565b9050919050565b6000619c40905090565b6005600781111561236a57fe5b61237382610c76565b600781111561237e57fe5b146123be576040517f08c379a00000000000000000000000000000000000000000000000000000000081526004016123b590614c06565b60405180910390fd5b6000600560008381526020019081526020016000209050600181600d0160016101000a81548160ff02191690831515021790555060008090505b816003018054905081101561256e576000809054906101000a900473ffffffffffffffffffffffffffffffffffffffff1673ffffffffffffffffffffffffffffffffffffffff16630825f38f83600401838154811061245357fe5b906000526020600020015484600301848154811061246d57fe5b9060005260206000200160009054906101000a900473ffffffffffffffffffffffffffffffffffffffff168560040185815481106124a757fe5b90600052602060002001548660050186815481106124c157fe5b906000526020600020018760060187815481106124da57fe5b9060005260206000200188600201546040518763ffffffff1660e01b815260040161250995949392919061499a565b6000604051808303818588803b15801561252257600080fd5b505af1158015612536573d6000803e3d6000fd5b50505050506040513d6000823e3d601f19601f8201168201806040525061256091908101906135ad565b5080806001019150506123f8565b507f712ae1383f79ac853f8d882153778e0260ef8f03b504e2866e0593e04d2b291f8260405161259e9190614ec1565b60405180910390a15050565b600160078111156125b757fe5b6125c083610c76565b60078111156125cb57fe5b1461260b576040517f08c379a000000000000000000000000000000000000000000000000000000000815260040161260290614e46565b60405180910390fd5b6000600560008481526020019081526020016000209050600081600e0160008673ffffffffffffffffffffffffffffffffffffffff1673ffffffffffffffffffffffffffffffffffffffff1681526020019081526020016000209050600015158160000160009054906101000a900460ff161515146126bf576040517f08c379a00000000000000000000000000000000000000000000000000000000081526004016126b690614c86565b60405180910390fd5b6000600160009054906101000a900473ffffffffffffffffffffffffffffffffffffffff1673ffffffffffffffffffffffffffffffffffffffff1663782d6fe18785600701546040518363ffffffff1660e01b81526004016127229291906148cb565b60206040518083038186803b15801561273a57600080fd5b505afa15801561274e573d6000803e3d6000fd5b505050506040513d601f19601f820116820180604052506127729190810190613617565b9050831561279557612788836009015482612833565b83600901819055506127ac565b6127a383600a015482612833565b83600a01819055505b60018260000160006101000a81548160ff021916908315150217905550838260000160016101000a81548160ff0219169083151502179055508082600101819055507f877856338e13f63d0c36822ff0ef736b80934cd90574a3a5bc9262c39d217c468686868460405161282394939291906148f4565b60405180910390a1505050505050565b60008082840190508381101561287e576040517f08c379a000000000000000000000000000000000000000000000000000000000815260040161287590614d06565b60405180910390fd5b8091505092915050565b6000828211156128cd576040517f08c379a00000000000000000000000000000000000000000000000000000000081526004016128c490614e66565b60405180910390fd5b818303905092915050565b6000804690508091505090565b6000809054906101000a900473ffffffffffffffffffffffffffffffffffffffff1673ffffffffffffffffffffffffffffffffffffffff1663f2b06537868686868660405160200161293b959493929190614939565b604051602081830303815290604052805190602001206040518263ffffffff1660e01b815260040161296d9190614a5c565b60206040518083038186803b15801561298557600080fd5b505afa158015612999573d6000803e3d6000fd5b505050506040513d601f19601f820116820180604052506129bd919081019061355b565b156129fd576040517f08c379a00000000000000000000000000000000000000000000000000000000081526004016129f490614d66565b60405180910390fd5b6000809054906101000a900473ffffffffffffffffffffffffffffffffffffffff1673ffffffffffffffffffffffffffffffffffffffff16633a66f90186868686866040518663ffffffff1660e01b8152600401612a5f959493929190614939565b602060405180830381600087803b158015612a7957600080fd5b505af1158015612a8d573d6000803e3d6000fd5b505050506040513d601f19601f82011682018060405250612ab19190810190613584565b505050505050565b600080831415612acc5760009050612b23565b6000828402905082848281612add57fe5b0414612b1e576040517f08c379a0000000000000000000000000000000000000000000000000000000008152600401612b1590614c46565b60405180910390fd5b809150505b92915050565b6000808211612b6d576040517f08c379a0000000000000000000000000000000000000000000000000000000008152600401612b6490614de6565b60405180910390fd5b6000828481612b7857fe5b0490508091505092915050565b604051806101e0016040528060008152602001600073ffffffffffffffffffffffffffffffffffffffff16815260200160008152602001606081526020016060815260200160608152602001606081526020016000815260200160008152602001600081526020016000815260200160008152602001600081526020016000151581526020016000151581525090565b828054828255906000526020600020908101928215612c8e579160200282015b82811115612c8d5782518260006101000a81548173ffffffffffffffffffffffffffffffffffffffff021916908373ffffffffffffffffffffffffffffffffffffffff16021790555091602001919060010190612c35565b5b509050612c9b9190612dd1565b5090565b828054828255906000526020600020908101928215612cdb579160200282015b82811115612cda578251825591602001919060010190612cbf565b5b509050612ce89190612e14565b5090565b828054828255906000526020600020908101928215612d3b579160200282015b82811115612d3a578251829080519060200190612d2a929190612e39565b5091602001919060010190612d0c565b5b509050612d489190612eb9565b5090565b828054828255906000526020600020908101928215612d9b579160200282015b82811115612d9a578251829080519060200190612d8a929190612ee5565b5091602001919060010190612d6c565b5b509050612da89190612f65565b5090565b6040518060600160405280600015158152602001600015158152602001600081525090565b612e1191905b80821115612e0d57600081816101000a81549073ffffffffffffffffffffffffffffffffffffffff021916905550600101612dd7565b5090565b90565b612e3691905b80821115612e32576000816000905550600101612e1a565b5090565b90565b828054600181600116156101000203166002900490600052602060002090601f016020900481019282601f10612e7a57805160ff1916838001178555612ea8565b82800160010185558215612ea8579182015b82811115612ea7578251825591602001919060010190612e8c565b5b509050612eb59190612e14565b5090565b612ee291905b80821115612ede5760008181612ed59190612f91565b50600101612ebf565b5090565b90565b828054600181600116156101000203166002900490600052602060002090601f016020900481019282601f10612f2657805160ff1916838001178555612f54565b82800160010185558215612f54579182015b82811115612f53578251825591602001919060010190612f38565b5b509050612f619190612e14565b5090565b612f8e91905b80821115612f8a5760008181612f819190612fd9565b50600101612f6b565b5090565b90565b50805460018160011615610100020316600290046000825580601f10612fb75750612fd6565b601f016020900490600052602060002090810190612fd59190612e14565b5b50565b50805460018160011615610100020316600290046000825580601f10612fff575061301e565b601f01602090049060005260206000209081019061301d9190612e14565b5b50565b60008135905061303081615508565b92915050565b600082601f83011261304757600080fd5b813561305a6130558261508d565b615060565b9150818183526020840193506020810190508385602084028201111561307f57600080fd5b60005b838110156130af57816130958882613021565b845260208401935060208301925050600181019050613082565b5050505092915050565b600082601f8301126130ca57600080fd5b81356130dd6130d8826150b5565b615060565b9150818183526020840193506020810190508360005b8381101561312357813586016131098882613278565b8452602084019350602083019250506001810190506130f3565b5050505092915050565b600082601f83011261313e57600080fd5b813561315161314c826150dd565b615060565b9150818183526020840193506020810190508360005b83811015613197578135860161317d8882613320565b845260208401935060208301925050600181019050613167565b5050505092915050565b600082601f8301126131b257600080fd5b81356131c56131c082615105565b615060565b915081818352602084019350602081019050838560208402820111156131ea57600080fd5b60005b8381101561321a578161320088826133c8565b8452602084019350602083019250506001810190506131ed565b5050505092915050565b6000813590506132338161551f565b92915050565b6000815190506132488161551f565b92915050565b60008135905061325d81615536565b92915050565b60008151905061327281615536565b92915050565b600082601f83011261328957600080fd5b813561329c6132978261512d565b615060565b915080825260208301602083018583830111156132b857600080fd5b6132c383828461549e565b50505092915050565b600082601f8301126132dd57600080fd5b81516132f06132eb82615159565b615060565b9150808252602083016020830185838301111561330c57600080fd5b6133178382846154ad565b50505092915050565b600082601f83011261333157600080fd5b813561334461333f82615185565b615060565b9150808252602083016020830185838301111561336057600080fd5b61336b83828461549e565b50505092915050565b600082601f83011261338557600080fd5b8135613398613393826151b1565b615060565b915080825260208301602083018583830111156133b457600080fd5b6133bf83828461549e565b50505092915050565b6000813590506133d78161554d565b92915050565b6000815190506133ec8161554d565b92915050565b60008135905061340181615564565b92915050565b60006020828403121561341957600080fd5b600061342784828501613021565b91505092915050565b6000806040838503121561344357600080fd5b600061345185828601613021565b9250506020613462858286016133c8565b9150509250929050565b600080600080600060a0868803121561348457600080fd5b600086013567ffffffffffffffff81111561349e57600080fd5b6134aa88828901613036565b955050602086013567ffffffffffffffff8111156134c757600080fd5b6134d3888289016131a1565b945050604086013567ffffffffffffffff8111156134f057600080fd5b6134fc8882890161312d565b935050606086013567ffffffffffffffff81111561351957600080fd5b613525888289016130b9565b925050608086013567ffffffffffffffff81111561354257600080fd5b61354e88828901613374565b9150509295509295909350565b60006020828403121561356d57600080fd5b600061357b84828501613239565b91505092915050565b60006020828403121561359657600080fd5b60006135a484828501613263565b91505092915050565b6000602082840312156135bf57600080fd5b600082015167ffffffffffffffff8111156135d957600080fd5b6135e5848285016132cc565b91505092915050565b60006020828403121561360057600080fd5b600061360e848285016133c8565b91505092915050565b60006020828403121561362957600080fd5b6000613637848285016133dd565b91505092915050565b6000806040838503121561365357600080fd5b6000613661858286016133c8565b925050602061367285828601613021565b9150509250929050565b6000806040838503121561368f57600080fd5b600061369d858286016133c8565b92505060206136ae85828601613224565b9150509250929050565b600080600080600060a086880312156136d057600080fd5b60006136de888289016133c8565b95505060206136ef88828901613224565b9450506040613700888289016133f2565b93505060606137118882890161324e565b92505060806137228882890161324e565b9150509295509295909350565b600061373b8383613796565b60208301905092915050565b600061375383836139d7565b905092915050565b60006137678383613b23565b905092915050565b600061377b838361479a565b60208301905092915050565b613790816153d8565b82525050565b61379f81615366565b82525050565b6137ae81615366565b82525050565b60006137bf82615247565b6137c981856152d3565b93506137d4836151dd565b8060005b838110156138055781516137ec888261372f565b97506137f78361529f565b9250506001810190506137d8565b5085935050505092915050565b600061381d82615252565b61382781856152e4565b935083602082028501613839856151ed565b8060005b8581101561387557848403895281516138568582613747565b9450613861836152ac565b925060208a0199505060018101905061383d565b50829750879550505050505092915050565b60006138928261525d565b61389c81856152f5565b9350836020820285016138ae856151fd565b8060005b858110156138ea57848403895281516138cb858261375b565b94506138d6836152b9565b925060208a019950506001810190506138b2565b50829750879550505050505092915050565b600061390782615268565b6139118185615306565b935061391c8361520d565b8060005b8381101561394d578151613934888261376f565b975061393f836152c6565b925050600181019050613920565b5085935050505092915050565b61396381615378565b82525050565b61397281615378565b82525050565b61398181615384565b82525050565b61399861399382615384565b6154e0565b82525050565b60006139a98261527e565b6139b38185615328565b93506139c38185602086016154ad565b6139cc816154ea565b840191505092915050565b60006139e282615273565b6139ec8185615317565b93506139fc8185602086016154ad565b613a05816154ea565b840191505092915050565b600081546001811660008114613a2d5760018114613a5357613a97565b607f6002830416613a3e8187615328565b955060ff198316865260208601935050613a97565b60028204613a618187615328565b9550613a6c8561521d565b60005b82811015613a8e57815481890152600182019150602081019050613a6f565b80880195505050505b505092915050565b613aa8816153ea565b82525050565b613ab78161540e565b82525050565b613ac681615432565b82525050565b613ad581615456565b82525050565b613ae481615468565b82525050565b6000613af582615294565b613aff818561534a565b9350613b0f8185602086016154ad565b613b18816154ea565b840191505092915050565b6000613b2e82615289565b613b388185615339565b9350613b488185602086016154ad565b613b51816154ea565b840191505092915050565b6000613b6782615289565b613b71818561534a565b9350613b818185602086016154ad565b613b8a816154ea565b840191505092915050565b600081546001811660008114613bb25760018114613bd857613c1c565b607f6002830416613bc3818761534a565b955060ff198316865260208601935050613c1c565b60028204613be6818761534a565b9550613bf185615232565b60005b82811015613c1357815481890152600182019150602081019050613bf4565b80880195505050505b505092915050565b6000613c3160398361534a565b91507f476f7665726e6f72416c7068613a3a5f5f61636365707441646d696e3a20736560008301527f6e646572206d75737420626520676f7620677561726469616e000000000000006020830152604082019050919050565b6000613c9760448361534a565b91507f476f7665726e6f72416c7068613a3a71756575653a2070726f706f73616c206360008301527f616e206f6e6c792062652071756575656420696620697420697320737563636560208301527f65646564000000000000000000000000000000000000000000000000000000006040830152606082019050919050565b6000613d2360458361534a565b91507f476f7665726e6f72416c7068613a3a657865637574653a2070726f706f73616c60008301527f2063616e206f6e6c79206265206578656375746564206966206974206973207160208301527f75657565640000000000000000000000000000000000000000000000000000006040830152606082019050919050565b6000613daf60028361535b565b91507f19010000000000000000000000000000000000000000000000000000000000006000830152600282019050919050565b6000613def604c8361534a565b91507f476f7665726e6f72416c7068613a3a5f5f6578656375746553657454696d656c60008301527f6f636b50656e64696e6741646d696e3a2073656e646572206d7573742062652060208301527f676f7620677561726469616e00000000000000000000000000000000000000006040830152606082019050919050565b6000613e7b60178361534a565b91507f6d756c7469706c69636174696f6e206f766572666c6f770000000000000000006000830152602082019050919050565b6000613ebb60188361534a565b91507f73657450656e64696e6741646d696e28616464726573732900000000000000006000830152602082019050919050565b6000613efb60298361534a565b91507f476f7665726e6f72416c7068613a3a73746174653a20696e76616c696420707260008301527f6f706f73616c20696400000000000000000000000000000000000000000000006020830152604082019050919050565b6000613f61602d8361534a565b91507f476f7665726e6f72416c7068613a3a5f63617374566f74653a20766f7465722060008301527f616c726561647920766f746564000000000000000000000000000000000000006020830152604082019050919050565b6000613fc760598361534a565b91507f476f7665726e6f72416c7068613a3a70726f706f73653a206f6e65206c69766560008301527f2070726f706f73616c207065722070726f706f7365722c20666f756e6420616e60208301527f20616c72656164792070656e64696e672070726f706f73616c000000000000006040830152606082019050919050565b6000614053604a8361534a565b91507f476f7665726e6f72416c7068613a3a5f5f717565756553657454696d656c6f6360008301527f6b50656e64696e6741646d696e3a2073656e646572206d75737420626520676f60208301527f7620677561726469616e000000000000000000000000000000000000000000006040830152606082019050919050565b60006140df60288361534a565b91507f476f7665726e6f72416c7068613a3a70726f706f73653a20746f6f206d616e7960008301527f20616374696f6e730000000000000000000000000000000000000000000000006020830152604082019050919050565b600061414560118361534a565b91507f6164646974696f6e206f766572666c6f770000000000000000000000000000006000830152602082019050919050565b600061418560438361535b565b91507f454950373132446f6d61696e28737472696e67206e616d652c75696e7432353660008301527f20636861696e49642c6164647265737320766572696679696e67436f6e74726160208301527f63742900000000000000000000000000000000000000000000000000000000006040830152604382019050919050565b600061421160278361535b565b91507f42616c6c6f742875696e743235362070726f706f73616c49642c626f6f6c207360008301527f7570706f727429000000000000000000000000000000000000000000000000006020830152602782019050919050565b600061427760448361534a565b91507f476f7665726e6f72416c7068613a3a70726f706f73653a2070726f706f73616c60008301527f2066756e6374696f6e20696e666f726d6174696f6e206172697479206d69736d60208301527f61746368000000000000000000000000000000000000000000000000000000006040830152606082019050919050565b6000614303602f8361534a565b91507f476f7665726e6f72416c7068613a3a63616e63656c3a2070726f706f7365722060008301527f61626f7665207468726573686f6c6400000000000000000000000000000000006020830152604082019050919050565b600061436960448361534a565b91507f476f7665726e6f72416c7068613a3a5f71756575654f725265766572743a207060008301527f726f706f73616c20616374696f6e20616c72656164792071756575656420617460208301527f20657461000000000000000000000000000000000000000000000000000000006040830152606082019050919050565b60006143f5602c8361534a565b91507f476f7665726e6f72416c7068613a3a70726f706f73653a206d7573742070726f60008301527f7669646520616374696f6e7300000000000000000000000000000000000000006020830152604082019050919050565b600061445b603f8361534a565b91507f476f7665726e6f72416c7068613a3a70726f706f73653a2070726f706f73657260008301527f20766f7465732062656c6f772070726f706f73616c207468726573686f6c64006020830152604082019050919050565b60006144c1602f8361534a565b91507f476f7665726e6f72416c7068613a3a63617374566f746542795369673a20696e60008301527f76616c6964207369676e617475726500000000000000000000000000000000006020830152604082019050919050565b600061452760108361534a565b91507f6469766973696f6e206279207a65726f000000000000000000000000000000006000830152602082019050919050565b600061456760588361534a565b91507f476f7665726e6f72416c7068613a3a70726f706f73653a206f6e65206c69766560008301527f2070726f706f73616c207065722070726f706f7365722c20666f756e6420616e60208301527f20616c7265616479206163746976652070726f706f73616c00000000000000006040830152606082019050919050565b60006145f360368361534a565b91507f476f7665726e6f72416c7068613a3a63616e63656c3a2063616e6e6f7420636160008301527f6e63656c2065786563757465642070726f706f73616c000000000000000000006020830152604082019050919050565b6000614659602a8361534a565b91507f476f7665726e6f72416c7068613a3a5f63617374566f74653a20766f74696e6760008301527f20697320636c6f736564000000000000000000000000000000000000000000006020830152604082019050919050565b60006146bf60158361534a565b91507f7375627472616374696f6e20756e646572666c6f7700000000000000000000006000830152602082019050919050565b60006146ff60368361534a565b91507f476f7665726e6f72416c7068613a3a5f5f61626469636174653a2073656e646560008301527f72206d75737420626520676f7620677561726469616e000000000000000000006020830152604082019050919050565b60608201600082015161476e600085018261395a565b506020820151614781602085018261395a565b506040820151614794604085018261479a565b50505050565b6147a3816153c1565b82525050565b6147b2816153c1565b82525050565b6147c1816153cb565b82525050565b60006147d282613da2565b91506147de8285613987565b6020820191506147ee8284613987565b6020820191508190509392505050565b600061480982614178565b9150819050919050565b600061481e82614204565b9150819050919050565b600060208201905061483d60008301846137a5565b92915050565b60006040820190506148586000830185613787565b61486560208301846147a9565b9392505050565b600060a08201905061488160008301876137a5565b61488e6020830186613adb565b818103604083015261489f81613eae565b905081810360608301526148b3818561399e565b90506148c260808301846147a9565b95945050505050565b60006040820190506148e060008301856137a5565b6148ed60208301846147a9565b9392505050565b600060808201905061490960008301876137a5565b61491660208301866147a9565b6149236040830185613969565b61493060608301846147a9565b95945050505050565b600060a08201905061494e60008301886137a5565b61495b60208301876147a9565b818103604083015261496d8186613aea565b90508181036060830152614981818561399e565b905061499060808301846147a9565b9695505050505050565b600060a0820190506149af60008301886137a5565b6149bc60208301876147a9565b81810360408301526149ce8186613b95565b905081810360608301526149e28185613a10565b90506149f160808301846147a9565b9695505050505050565b60006080820190508181036000830152614a1581876137b4565b90508181036020830152614a2981866138fc565b90508181036040830152614a3d8185613887565b90508181036060830152614a518184613812565b905095945050505050565b6000602082019050614a716000830184613978565b92915050565b6000608082019050614a8c6000830187613978565b614a996020830186613978565b614aa660408301856147a9565b614ab360608301846137a5565b95945050505050565b6000606082019050614ad16000830186613978565b614ade60208301856147a9565b614aeb6040830184613969565b949350505050565b6000608082019050614b086000830187613978565b614b1560208301866147b8565b614b226040830185613978565b614b2f6060830184613978565b95945050505050565b6000602082019050614b4d6000830184613a9f565b92915050565b6000602082019050614b686000830184613aae565b92915050565b6000602082019050614b836000830184613abd565b92915050565b6000602082019050614b9e6000830184613acc565b92915050565b60006020820190508181036000830152614bbe8184613b5c565b905092915050565b60006020820190508181036000830152614bdf81613c24565b9050919050565b60006020820190508181036000830152614bff81613c8a565b9050919050565b60006020820190508181036000830152614c1f81613d16565b9050919050565b60006020820190508181036000830152614c3f81613de2565b9050919050565b60006020820190508181036000830152614c5f81613e6e565b9050919050565b60006020820190508181036000830152614c7f81613eee565b9050919050565b60006020820190508181036000830152614c9f81613f54565b9050919050565b60006020820190508181036000830152614cbf81613fba565b9050919050565b60006020820190508181036000830152614cdf81614046565b9050919050565b60006020820190508181036000830152614cff816140d2565b9050919050565b60006020820190508181036000830152614d1f81614138565b9050919050565b60006020820190508181036000830152614d3f8161426a565b9050919050565b60006020820190508181036000830152614d5f816142f6565b9050919050565b60006020820190508181036000830152614d7f8161435c565b9050919050565b60006020820190508181036000830152614d9f816143e8565b9050919050565b60006020820190508181036000830152614dbf8161444e565b9050919050565b60006020820190508181036000830152614ddf816144b4565b9050919050565b60006020820190508181036000830152614dff8161451a565b9050919050565b60006020820190508181036000830152614e1f8161455a565b9050919050565b60006020820190508181036000830152614e3f816145e6565b9050919050565b60006020820190508181036000830152614e5f8161464c565b9050919050565b60006020820190508181036000830152614e7f816146b2565b9050919050565b60006020820190508181036000830152614e9f816146f2565b9050919050565b6000606082019050614ebb6000830184614758565b92915050565b6000602082019050614ed660008301846147a9565b92915050565b600061012082019050614ef2600083018c6147a9565b614eff602083018b613787565b8181036040830152614f11818a6137b4565b90508181036060830152614f2581896138fc565b90508181036080830152614f398188613887565b905081810360a0830152614f4d8187613812565b9050614f5c60c08301866147a9565b614f6960e08301856147a9565b818103610100830152614f7c8184613aea565b90509a9950505050505050505050565b600061016082019050614fa2600083018e6147a9565b614faf602083018d6137a5565b614fbc604083018c6147a9565b614fc9606083018b6147a9565b614fd6608083018a6147a9565b614fe360a08301896147a9565b614ff060c08301886147a9565b614ffd60e08301876147a9565b61500b6101008301866147a9565b615019610120830185613969565b615027610140830184613969565b9c9b505050505050505050505050565b600060408201905061504c60008301856147a9565b61505960208301846147a9565b9392505050565b6000604051905081810181811067ffffffffffffffff8211171561508357600080fd5b8060405250919050565b600067ffffffffffffffff8211156150a457600080fd5b602082029050602081019050919050565b600067ffffffffffffffff8211156150cc57600080fd5b602082029050602081019050919050565b600067ffffffffffffffff8211156150f457600080fd5b602082029050602081019050919050565b600067ffffffffffffffff82111561511c57600080fd5b602082029050602081019050919050565b600067ffffffffffffffff82111561514457600080fd5b601f19601f8301169050602081019050919050565b600067ffffffffffffffff82111561517057600080fd5b601f19601f8301169050602081019050919050565b600067ffffffffffffffff82111561519c57600080fd5b601f19601f8301169050602081019050919050565b600067ffffffffffffffff8211156151c857600080fd5b601f19601f8301169050602081019050919050565b6000819050602082019050919050565b6000819050602082019050919050565b6000819050602082019050919050565b6000819050602082019050919050565b60008190508160005260206000209050919050565b60008190508160005260206000209050919050565b600081519050919050565b600081519050919050565b600081519050919050565b600081519050919050565b600081519050919050565b600081519050919050565b600081519050919050565b600081519050919050565b6000602082019050919050565b6000602082019050919050565b6000602082019050919050565b6000602082019050919050565b600082825260208201905092915050565b600082825260208201905092915050565b600082825260208201905092915050565b600082825260208201905092915050565b600082825260208201905092915050565b600082825260208201905092915050565b600082825260208201905092915050565b600082825260208201905092915050565b600081905092915050565b6000615371826153a1565b9050919050565b60008115159050919050565b6000819050919050565b600081905061539c826154fb565b919050565b600073ffffffffffffffffffffffffffffffffffffffff82169050919050565b6000819050919050565b600060ff82169050919050565b60006153e38261547a565b9050919050565b60006153f5826153fc565b9050919050565b6000615407826153a1565b9050919050565b600061541982615420565b9050919050565b600061542b826153a1565b9050919050565b600061543d82615444565b9050919050565b600061544f826153a1565b9050919050565b60006154618261538e565b9050919050565b6000615473826153c1565b9050919050565b60006154858261548c565b9050919050565b6000615497826153a1565b9050919050565b82818337600083830152505050565b60005b838110156154cb5780820151818401526020810190506154b0565b838111156154da576000848401525b50505050565b6000819050919050565b6000601f19601f8301169050919050565b6008811061550557fe5b50565b61551181615366565b811461551c57600080fd5b50565b61552881615378565b811461553357600080fd5b50565b61553f81615384565b811461554a57600080fd5b50565b615556816153c1565b811461556157600080fd5b50565b61556d816153cb565b811461557857600080fd5b5056fea365627a7a7231582006efee293a59faf5e05f5d908be1cb9fe00d72623bcd4eafd504393151c993aa6c6578706572696d656e74616cf564736f6c63430005100040",
  "linkReferences": {},
  "deployedLinkReferences": {}
}